:100000000C9469000C9491000C9491000C94910054
:100010000C9491000C9491000C9491000C944F124C
:100020000C9491000C9491000C9491000C9491000C
:100030000C9491000C9491000C9491000C949100FC
:100040000C9405120C9491000C94F7120C94D1129C
:100050000C9491000C9491000C9491000C949100DC
:100060000C9429130C9491001F1C1F1E1F1E1F1F90
:100070001E1F1E00000000230026002900000000B3
:1000800000240027002A00000000080002010000F0
:100090000304070000000000000000010204081033
:1000A00020408001020408102001020408102000F2
:1000B000000000250028002B0004040404040404AC
:1000C00004020202020202030303030303024814B0
:1000D000252011241FBECFEFD8E0DEBFCDBF26E024
:1000E000A4E4B3E001C01D92A33CB207E1F713E022
:1000F000A0E0B1E0E8E2FCE402C005900D92A43477
:10010000B107D9F710E0C8E6D0E004C02197FE019E
:100110000E943921C736D107C9F70E9495140C9463
:1001200007260C94000008950895833081F028F488
:10013000813099F08230A9F008958730A9F0883095
:10014000C9F08430B1F4809180008F7D03C080912C
:1001500080008F7780938000089584B58F7784BD69
:10016000089584B58F7DFBCF8091B0008F77809309
:10017000B00008958091B0008F7DF9CF1F93CF9389
:10018000DF93282F30E0F901E957FF4F8491F901FF
:10019000E556FF4FD491F901E754FF4FC491CC23AA
:1001A000A9F0162F81110E949500EC2FF0E0EE0FC0
:1001B000FF1FE155FF4FA591B4918FB7F894EC91D3
:1001C000111108C0D095DE23DC938FBFDF91CF9152
:1001D0001F910895DE2BF8CFCF93DF9390E0FC01C1
:1001E000E556FF4F249187549F4FFC01849188234B
:1001F000D1F090E0880F991FFC01E358FF4FA591C3
:10020000B491FC01E155FF4FC591D491623071F476
:100210009FB7F8943C91822F809583238C93E8813B
:100220002E2B28839FBFDF91CF9108958FB7F8942D
:10023000EC912E2B2C938FBFF6CF4F925F926F9243
:100240007F928F929F92AF92BF92CF92DF92EF9266
:10025000FF920F931F93CF93DF9300D000D01F9294
:10026000CDB7DEB78C012A013B0180911E0183309E
:10027000C9F08F3F09F47FC00F900F900F900F903F
:100280000F90DF91CF911F910F91FF90EF90DF9032
:10029000CF90BF90AF909F908F907F906F905F9026
:1002A0004F900895EDECF0E084918D8387FDE4CFCD
:1002B00061E083E00E94EC008D81882321F09D8124
:1002C000923009F05CC14801B12CA12C60E072E1D0
:1002D0008AE790E0A50198010E941A2129833A83B8
:1002E0004B835C8369017A0181E0C81AD108E10877
:1002F000F1089FEFC916D104E104F10409F00CF4F0
:1003000013C160E472E48FE090E0A50198010E94BF
:100310001A2169017A0181E0C81AD108E108F108BF
:100320009D81923009F098C08FEFC816D104E10486
:10033000F10409F00CF4DDC160E970ED83E090E0B8
:10034000A50198010E941A2169017A0191E0C91A58
:10035000D108E108F1088FEFC816D104E104F104D7
:1003600011F00CF0A3C183E09091B100987F892B2C
:100370008093B100E1C083E080931E01EDECF0E0DA
:1003800094919D839F3F09F477CF913029F158F0E4
:10039000923009F43FC08D8187FD6ECF61E083E02C
:1003A0000E94EC008CCF14BC15BC84B5826084BD67
:1003B00085B5816085BDECEBF0E0E491F0E0EE0FF7
:1003C000FF1FE155FF4F85919491EEE9F0E0E49134
:1003D000E093A7051D826CCF1092800010928100DF
:1003E000809181008860809381008091810081608C
:1003F00080938100ECEBF0E0E491F0E0EE0FFF1F62
:10040000E155FF4F85919491EEE9F0E0E491E0939E
:10041000A6054ECF1092B0001092B1008091B000AE
:1004200082608093B0008091B10081608093B100C0
:10043000ECEBF0E0E491F0E0EE0FFF1FE155FF4F31
:10044000859194919093A5058093A405EEE9F0E041
:10045000E491E093A3052CCF9FEFC916D104E104EA
:10046000F10409F00CF489C068E478EE81E090E0D2
:10047000A50198010E941A2169017A0181E0C81A38
:10048000D108E108F1089D81992309F428C19FEF63
:10049000C916D104E104F10409F00CF41EC162E1B3
:1004A0007AE780E090E0A50194010E941A21690199
:1004B0007A0181E0C81AD108E108F1089D819923E9
:1004C00009F4EBC08FEFC816D104E104F10411F078
:1004D00008F0BFC086E048CF64E274EF80E090E0AF
:1004E000A50194010E941A2169017A0181E0C81ACC
:1004F000D108E108F10885E09FEFC916D104E104B5
:10050000F10409F008F430CF62E17AE780E090E08E
:10051000A50194010E941A2169017A0191E0C91A8A
:10052000D108E108F108CECF81E09D8191111CCF67
:1005300095B5987F892B85BD2FEF3FEFA901411419
:1005400051046104710409F043C09D81913009F4A4
:100550005EC0923009F46DC091118ECEC7BC20935D
:10056000B0053093B1054093B2055093B305809127
:100570006E00826080936E007FCE82E0D6CFB12C79
:10058000A12C60E072E18AE790E0A50198010E9449
:100590001A2169017A0181E0C81AD108E108F1083D
:1005A000C114D10491E0E906F10404F591E08D81D4
:1005B000813011F680918100887F892B80938100A2
:1005C0002FEF3FEFA9014114510461047104F9F0C8
:1005D000D801AA0FBB1FA30192010E94872028EE19
:1005E00033E040E050E00E94F820AFCF68E478EEBE
:1005F00081E090E0A50198010E941A2169017A0129
:1006000081E0C81AD108E108F10893E0D0CFD09278
:100610008900C09288002093AC053093AD054093CB
:10062000AE055093AF0580916F00826080936F009C
:1006300023CEC092B3002093A8053093A905409320
:10064000AA055093AB058091700082608093700082
:1006500013CEC980DA80EB80FC809AE0F594E794B1
:10066000D794C7949A95D1F791E0C91AD108E108B7
:10067000F10887E079CEC980DA80EB80FC808AE0DF
:10068000F594E794D794C7948A95D1F791E0C91A65
:10069000D108E108F10885E04BCF8FEFC816D104EF
:1006A000E104F10409F038F784E042CF68E478EE21
:1006B00081E090E0A50198010E941A2169017A0168
:1006C00091E0C91AD108E108F1088FEFC816D104EA
:1006D000E104F10411F00CF0FFCE84E045CE8FEF81
:1006E000C816D104E104F10411F00CF0D8CE83E077
:1006F0001FCF82E039CE3FB7F89480917705909173
:100700007805A0917905B0917A0526B5A89B05C01A
:100710002F3F19F00196A11DB11D3FBFBA2FA92F80
:10072000982F8827BC01CD01620F711D811D911D7D
:1007300042E0660F771F881F991F4A95D1F70895E9
:100740008F929F92AF92BF92CF92DF92EF92FF92E1
:100750004B015C010E947B036B017C010E947B03C7
:100760006C197D098E099F09683E734081059105CA
:10077000A8F321E0821A9108A108B10888EEC80EFA
:1007800083E0D81EE11CF11C81149104A104B10482
:1007900029F7FF90EF90DF90CF90BF90AF909F90A0
:1007A0008F9008952FB7F894609173057091740538
:1007B00080917505909176052FBF0895FC012481E5
:1007C00035816217730748F480819181009729F081
:1007D000860F971FFC018081089580E00895AF92F5
:1007E000BF92CF92DF92EF92FF920F931F93CF931E
:1007F000DF936C017B018B01040F151FEB015E0180
:10080000AE18BF08C017D10759F06991D601ED9114
:10081000FC910190F081E02DC6010995892B79F7B3
:10082000C501DF91CF911F910F91FF90EF90DF9065
:10083000CF90BF90AF900895FC01538D448D252F2C
:1008400030E0842F90E0821B930B541710F0CF966A
:10085000089501970895FC01918D828D981761F09C
:10086000A28DAE0FBF2FB11D5D968C91928D9F5FB3
:100870009F73928F90E008958FEF9FEF0895FC0192
:10088000918D828D981731F0828DE80FF11D858D45
:1008900090E008958FEF9FEF0895FC01918D228DD8
:1008A000892F90E0805C9F4F821B91098F7399275D
:1008B000089584E096E00E944D0421E0892B09F41C
:1008C00020E0822F089580E090E0892B29F00E949B
:1008D000590481110C9400000895FC01A48DA80F07
:1008E000B92FB11DA35ABF4F2C91848D90E0019672
:1008F0008F739927848FA689B7892C93A089B18992
:100900008C91837080648C93938D848D981306C032
:100910000288F389E02D80818F7D80830895EF9296
:10092000FF920F931F93CF93DF93EC0181E0888FA9
:100930009B8D8C8D98131AC0E889F989808185FF79
:1009400015C09FB7F894EE89FF896083E889F9891B
:1009500080818370806480839FBF81E090E0DF911D
:10096000CF911F910F91FF90EF900895F62E0B8D70
:1009700010E00F5F1F4F0F731127E02E8C8D8E112B
:100980000CC00FB607FCFACFE889F989808185FF92
:10099000F5CFCE010E946D04F1CFEB8DEC0FFD2F52
:1009A000F11DE35AFF4FF0829FB7F8940B8FEA894D
:1009B000FB8980818062CFCFCF93DF93EC01888D5C
:1009C0008823B9F0AA89BB89E889F9898C9185FDCA
:1009D00003C0808186FD0DC00FB607FCF7CF8C9158
:1009E00085FFF2CF808185FFEDCFCE010E946D049F
:1009F000E9CFDF91CF910895FC0161819081492F6A
:100A000050E08281282F30E0E8E6F0E081E08617B0
:100A100030F47491270F311D8F5F3196F8CF63301A
:100A200020F0937011F42F5F3F4F6DE671E0469F09
:100A3000C001479F900D569F900D112405964D5F64
:100A40005F4F5695479556954795840F951F820F92
:100A5000931F67E070E00E94E420089508952091BC
:100A6000BA03260F3327331F21323105ECF42091CE
:100A7000DA05FC0190E080E0243069F082E008951E
:100A8000A091BA032191AC0146565C4FA40FB52F3B
:100A9000B11D2C930196861798F38091BA03680FC5
:100AA0006093BA0380E0089581E008951092DA051A
:100AB00081E08093D9051092B40561E082E10E9443
:100AC000BE0061E083E10E94BE00E9EBF0E08081BE
:100AD0008E7F808380818D7F808388E48093B800BF
:100AE00085E48093BC0008951092820510928105E0
:100AF0001092E105109203060E94560583E990E0EA
:100B000090937E0580937D0584E990E090937C0529
:100B100080937B050895CF93DF9391E090939903A1
:100B20008823B9F0C091B800D091BA008091BC0080
:100B30008A7B8093BC0060E082E10E94BE0060E09E
:100B400083E10E94BE000E945605D093BA00C09374
:100B5000B800DF91CF9108958F929F92AF92BF928C
:100B6000CF92DF92EF92FF920F931F93CF93DF9379
:100B7000D0910306D13208F0D7C0182FC0910206D9
:100B80000E947B036B017C018091DA0581116BC0AF
:100B900082E08093DA051093D9058FEF8093D80512
:100BA0001092D705D093D605A2EEB5E0E6EBF5E0BE
:100BB00080E0D81391C01092B5058091B505CC0F97
:100BC000C82BC093B5058091B405813009F088C069
:100BD0001092B4050E947B036B017C018091B505E6
:100BE0008093BB008091DC059091DD05A091DE052E
:100BF000B091DF05892B8A2B8B2BA1F00E947B0300
:100C00000091DC051091DD052091DE053091DF05B6
:100C10006C197D098E099F090617170728073907E0
:100C200008F442C08091BC0083FDD8CF85EC80934E
:100C3000BC000E947B036B017C018091DA0582304D
:100C400009F450C08091D8058F3F09F46FC080919E
:100C5000D805803209F46CC08091D805803309F43E
:100C600069C084E026C08091DC059091DD05A091EB
:100C7000DE05B091DF05892B8A2B8B2B09F484CFFD
:100C80000E947B038090DC059090DD05A090DE053E
:100C9000B090DF056C197D098E099F0986169706AD
:100CA000A806B90608F070CF8091DB050E948B057D
:100CB00085E01092E105109203061092E005DF91A5
:100CC000CF911F910F91FF90EF90DF90CF90BF9049
:100CD000AF909F908F9008959D9191938F5F69CF72
:100CE00085EEA5CF8091DC059091DD05A091DE0514
:100CF000B091DF05892B8A2B8B2B09F49ECF0E94A4
:100D00007B030091DC051091DD052091DE0530911B
:100D1000DF056C197D098E099F090617170728073B
:100D2000390708F08ACFC0CF81E0C3CF80E0C1CFC0
:100D300082E0BFCF83E0BDCFCF93DF93EC018B8107
:100D40008823A1F0888191E09093E00580930206CA
:100D50001092E1051092030681E00E94AC0591E03B
:100D6000811190E0892FDF91CF9108950E94740541
:100D700081E08B83CE010E949C06982F8111E2CFE7
:100D8000F1CF0895E091820580918105E81730F454
:100D9000F0E0ED57FA4F808190E008958FEF9FEFDC
:100DA000089590918205809181052FEF3FEF98176C
:100DB00048F4E92FF0E0ED57FA4F208130E09F5FD3
:100DC00090938205C90108958091810590918205D3
:100DD000891B990B0895CF92DF92EF92FF920F93A8
:100DE0001F93CF93DF937C01CB018A012091E00513
:100DF000222389F0EB016B01C40ED51ECC15DD0555
:100E000069F06991D701ED91FC910190F081E02D9D
:100E1000C7010995F3CF642F0E942F05C801DF9108
:100E2000CF911F910F91FF90EF90DF90CF90089599
:100E3000CF93DF931F92CDB7DEB769832091E00592
:100E40002223F9F020910306203258F021E030E00F
:100E5000FC013383228390E080E00F90DF91CF91FB
:100E600008958091E105E82FF0E0EE51FA4F998165
:100E700090838F5F8093E1058093030681E090E08B
:100E8000ECCF61E0CE0101960E942F05F7CFFC0167
:100E9000248131E03093E005209302061092E105B1
:100EA000109203068385682B81EA96E00E9418075A
:100EB00081E00C94AC051092BE0660E083EB96E0F6
:100EC0000C94470788E08093BE0660E083EB96E0D1
:100ED0000C94470790E080E008951092E704109288
:100EE000E9041092E8040E94D20360557B4F8F4FB3
:100EF0009F4F6093EA047093EB048093EC0490930B
:100F0000ED040895FC0130911C01232F353608F0C3
:100F100024E640E1249FC001112464E670E00E94B1
:100F2000E420462F3A3090F480E28083205D2183D4
:100F300095E292838383349680E090E2841708F4EC
:100F40009FEF91938F5F8031C1F70895343660F43D
:100F5000822F6AE00E94D820805D8083905D91831B
:100F600085E2828380E2E6CF81E3808380E3818330
:100F7000828385E2DFCF8091010181118091190187
:100F80000895CF93DF93C82F0E94BB07882309F4ED
:100F900023C1C93008F020C1EC2FF0E0EE52F84F29
:100FA0000C943921DB071D08320847085C087D08CE
:100FB0009E08C108EF0840E550E060E070E087E17E
:100FC00094E00E941D016FE570E080E090E00E94D7
:100FD000A00340E550E060E070E087E994E00E9403
:100FE0001D016FE570E080E090E00E94A00340E505
:100FF00050E060E070E087E295E00E941D016FE53F
:1010000070E080E090E00E94A00344E650E060E0E1
:1010100070E080E296E00E941D0163E770E080E0EE
:1010200090E00E94A00344E051E060E070E08DE2B7
:1010300098E0DF91CF910C941D014CE350E060E00B
:1010400070E08BE492E00E941D016FE570E080E0AB
:1010500090E00E94A00340E550E060E070E080E78F
:1010600093E0E7CF40E550E060E070E087E295E094
:101070000E941D0162E870E080E090E00E94A00301
:1010800040E550E060E070E087E194E0D2CF40E5D9
:1010900050E060E070E083E992E00E941D0162E8A8
:1010A00070E080E090E00E94A00340E550E060E046
:1010B00070E08BE092E0BDCF47E350E060E070E08D
:1010C00080E296E00E941D0160E570E080E090E023
:1010D0000E94A00347E350E060E070E087E295E003
:1010E0000E941D0160E570E080E090E00E94A00396
:1010F00046E450E060E070E0C7CF47E350E060E0D6
:1011000070E080E193E00E941D0160E570E080E006
:1011100090E00E94A00347E350E060E070E083E9C4
:1011200092E00E941D0160E570E080E090E00E9486
:10113000A00346E450E060E070E0BBCF47E350E03E
:1011400060E070E083E992E00E941D0165E570E0D7
:1011500080E090E00E94A00347E350E060E070E090
:1011600080E793E00E941D0165E570E080E090E07B
:101170000E94A0034AE550E060E070E087E295E05D
:1011800058CFC0E0D4E046E950E060E070E087E18D
:1011900094E00E941D0160EA70E080E090E00E940F
:1011A000A00346E950E060E070E084EE92E00E9427
:1011B0001D0160EA70E080E090E00E94A003D15041
:1011C00011F7C23031F060E971E080E090E00E94F8
:1011D000A003CF5FC330B1F6DF91CF9108954AE508
:1011E00050E060E070E08BE092E00E941D016EE64E
:1011F00070E080E090E00E94A0034AE550E060E0EB
:1012000070E083E992E00E941D016EE670E080E0EC
:1012100090E00E94A0034AE550E060E070E080E1C9
:1012200093E00E941D016EE670E080E090E00E9475
:10123000A00348EC50E060E070E026CF2F923F9290
:101240004F925F926F927F928F929F92AF92BF92D6
:10125000CF92DF92EF92FF920F931F93CF93DF9382
:101260005C011B016A01F12CE12CD50114968D91D2
:101270009C9186010E191F098017910708F48C01B3
:10128000F501D0810E947B032B013C018091DA059E
:10129000811172C0C02F013208F0C0E2F1E0F0937A
:1012A000DA0521E0C601801B910BE816F90608F467
:1012B00020E02093D9058FEF8093D8051092D705B1
:1012C0008C0F8093D605A1E0A093B5058091B5055C
:1012D000DD0FD82BD093B5058091B405813009F08E
:1012E00090C01092B4050E947B032B013C018091B9
:1012F000B5058093BB008091DC059091DD05A09140
:10130000DE05B091DF05892B8A2B8B2BA1F00E9483
:101310007B032091DC053091DD054091DE05509185
:10132000DF056419750986099709261737074807E5
:10133000590708F442C08091BC0083FDD8CFB5ECBA
:10134000B093BC000E947B032B013C018091DA0525
:10135000813009F45AC08091D7058C1710F4C091E0
:10136000D705A6EBB5E0E3E8F5E080E08C1751F196
:101370009D9191938F5FFACF8091DC059091DD056F
:10138000A091DE05B091DF05892B8A2B8B2B09F408
:101390007DCF0E947B032091DC053091DD054091DB
:1013A000DE055091DF05641975098609970926172E
:1013B00037074807590708F069CF8091DB050E947D
:1013C0008B05C0E010928205C0938105C0171106FD
:1013D00009F057C041018E0C9F1CE401CE01881911
:1013E00099098017910798F5D50111968D919C91D7
:1013F000DC01ED91FC910284F385E02D0995899340
:10140000EDCFE5EEE093BC009DCF8091DC0590919F
:10141000DD05A091DE05B091DF05892B8A2B8B2B92
:1014200009F494CF0E947B032091DC053091DD0507
:101430004091DE055091DF05641975098609970909
:10144000261737074807590708F080CFB6CFE00EB8
:10145000F11EEC14FD0408F408CF81E0DF91CF9178
:101460001F910F91FF90EF90DF90CF90BF90AF90C2
:101470009F908F907F906F905F904F903F902F90B4
:10148000089580E0EBCF1F93CF93DF93DC01149698
:10149000ED91FC91E417F50710F490E01FC0122FB6
:1014A000EA01FC0181819281208131E03093E005E5
:1014B000209302061092E10510920306DC01ED91E3
:1014C000FC910280F381E02D0995C817D90729F70F
:1014D000812F0E94AC0591E08111DFCF892FDF9130
:1014E000CF911F910895EF92FF920F931F93CF9387
:1014F000DF9300D000D000D01F92CDB7DEB78C01B3
:101500001982E0907F05F090800520E041E050E0F6
:10151000BE016F5F7F4FC7010E94430A882341F0DD
:1015200047E050E0BE016F5F7F4FC7010E941E0978
:10153000E981EF77FA81FB805D814E814F778F8162
:10154000282F30E094E0359527959A95E1F7922F72
:10155000990F990F291B220F280FD8012C93842F44
:1015600090E024E0959587952A95E1F7982F990FBB
:10157000990F891B880F840F11968C931197652FF3
:1015800070E034E0759567953A95E1F7862F880FFE
:10159000880F681B660F650F12966C9312974F2D7C
:1015A00050E064E0559547956A95E1F7842F880FE0
:1015B000880F481B440F4F0D13964C9313972F2FF2
:1015C00030E074E0359527957A95E1F7822F880F02
:1015D000880F281B220F2F0F14962C9314978E2FF1
:1015E00090E0F4E095958795FA95E1F7982F990F9B
:1015F000990F891B880F8E0F15968C93C80127961B
:101600000FB6F894DEBF0FBECDBFDF91CF911F9113
:101610000F91FF90EF9008950F931F93CF938C013C
:10162000C62F0E9447076C2F6460C8010E944707BD
:101630006C2F6B7FC8010E94470783EC90E00197F5
:10164000F1F7CF911F910F9108950F931F93CF93AF
:10165000DF938C01D62FC42F607F642B0E940C0B6C
:1016600080E1D89FB00111246C2BC801DF91CF918C
:101670001F910F910C940C0B41E00E94250B81E00F
:1016800090E0089541E0682F83EB96E00E94250BDF
:1016900081E090E0089540E0682F83EB96E00C94A1
:1016A000250BCF93DF93CDB7DEB728970FB6F8940D
:1016B000DEBF0FBECDBF98E0E5E2F1E0DE0111969E
:1016C00001900D929A95E1F79091BB06961710F450
:1016D0006FEF690F70E0660F771F21E030E02C0F8D
:1016E0003D1F620F731FFB019081890F8068289650
:1016F0000FB6F894DEBF0FBECDBFDF91CF910C9433
:101700004B0B9F92AF92BF92CF92DF92EF92FF92DC
:101710000F931F93CF93DF93982E6B0185E1989ED3
:10172000800111240B5B1C4FD0E0C0E08FEFFC2E3A
:10173000F601E1906F01909144035801AC0EBD1E7B
:10174000992321F0F50190819E1501F18F1521F06B
:10175000692D8F2D0E94510B8E2D0E94420BF50199
:10176000E08281E08F0D2196C431D10501F781E03F
:1017700080934403DF91CF911F910F91FF90EF90E1
:10178000DF90CF90BF90AF909F9008958FEFEBCFF9
:1017900081E00E944B0B8BE39FE10197F1F70895E5
:1017A0000F931F93CF93DF93FC01048115810115E3
:1017B000110539F4FB011082DF91CF911F910F9138
:1017C0000895415051094017510708F48A01EB016F
:1017D000FC0160817181A801CE010E944A23C00FE3
:1017E000D11F1882E9CFCF93DF93FC010190002035
:1017F000E9F73197AF01481B590BBC0184E096E033
:101800000E94EF03EC0142E050E063E871E084E005
:1018100096E00E94EF038C0F9D1FDF91CF910895FA
:1018200080917005909171050397029768F42EEEF0
:1018300034E0F90101900020E9F79F012F5E344068
:1018400081E02531310508F480E008954F925F92E0
:101850006F927F928F929F92AF92BF92CF92DF92C0
:10186000EF92FF92CF93C0911B018FEF8C0F8336C5
:1018700008F05EC00E94100C81115AC00E947B03C8
:101880004B015C012C2F30E0A0EABFE00E94C92090
:1018900024E6422E512C612C712CA30192010E944E
:1018A000F82069017A0188ECC80ED11CE11CF11CFA
:1018B000C80CD91CEA1CFB1C24E630E02C1B3109A7
:1018C000A0EABFE00E94C920A30192010E94F82073
:1018D00049015A0180911A01882351F10E947B032A
:1018E0004090A4045090A5046090A6047090A704B2
:1018F000641975098609970997FD12C00E945B0754
:1019000010921A010E947B03680D791D8A1D9B1D90
:101910006093A4047093A5048093A6049093A704F5
:101920000E947B036C197D098E099F0997FDD2CF18
:10193000CF91FF90EF90DF90CF90BF90AF909F90AE
:101940008F907F906F905F904F900895FC01808101
:101950009181009711F00C94E2210895CF93DF93C9
:1019600080917F0590918005009711F00E94E221FF
:1019700086E090E00E944621EC0188E6888381EAB7
:1019800096E09A8389831B8280E290E09D838C831A
:10199000D0938005C0937F050E94740581E08B83FE
:1019A000CE01DF91CF910C949C06FC018081918146
:1019B000009711F00C94292060E070E0CB010895AD
:1019C000FB0101900020E9F73197E61BE53108F0B3
:1019D000E4E14E2F50E024E130E0241B350B359537
:1019E0002795820F931F0C942823AF92BF92CF921A
:1019F000DF92EF92FF920F931F93CF93DF93DC015F
:101A0000CD90DC901197C114D10439F01496CD918A
:101A1000DC918C017601209761F4DF91CF911F91C9
:101A20000F91FF90EF90DF90CF90BF90AF9008950F
:101A300075015701BFEFAB1ABB0AF7018081082E71
:101A4000000C990B0E946520892B91F72197CC0DF2
:101A5000DD1D8881082E000C990B0E946520892BC2
:101A600029F0CE15DF0510F02197F3CFAE014F5FBF
:101A70005F4F4E195F09D80115965C934E931497EA
:101A8000CE14DF0420F4B701C6010E942823D80138
:101A9000ED91FC91119714968D919C91E80FF91F8F
:101AA0001082BBCFCF93DF93FC0124813581421795
:101AB000530788F4C081D181062E000C770BCE012C
:101AC000840F951F0E943823009729F08C1B9D0BD3
:101AD000DF91CF9108958FEF9FEFFACF50E040E074
:101AE0000C94520D0F931F93CF93DF93EC018881D9
:101AF0009981009759F02A813B812617370730F0EA
:101B000081E0DF91CF911F910F9108958B016F5F5D
:101B10007F4F0E946B22009759F0998388831B8323
:101B20000A832C813D81232B59F7FC011082E8CFD9
:101B300080E0E7CFEF92FF920F931F93CF93DF9355
:101B4000EC017B018A01BA010E94720D2881398162
:101B5000811114C02115310519F0C9010E94E2213B
:101B6000198218821D821C821B821A82CE01DF918B
:101B7000CF911F910F91FF90EF9008951D830C83DB
:101B8000B701C9010E944323F1CFFB01DC0111968B
:101B90001C921E9213961C921E92129715961C92DE
:101BA0001E9214978617970749F06081718161151D
:101BB000710521F0448155810C949A0D0895FC0122
:101BC000118210821382128215821482FB0101900D
:101BD0000020E9F73197AF01461B570B0C949A0D83
:101BE000AF92BF92CF92DF92EF92FF920F931F932B
:101BF000CF93DF93EC016B015A017901241735076C
:101C000020F48B2D5901E42EF82E65E871E0CE0109
:101C10000E94DF0DD60114960D911C91A016B106FD
:101C200028F5E016F10608F48701D601ED91FC9144
:101C30001197E00FF11FF08010826D917C916A0D79
:101C40007B1D61157105F1F0FB0101900020E9F7A2
:101C50003197AF01461B570BCE010E949A0DF6013A
:101C600080819181080F191FD801FC92CE01DF916C
:101C7000CF911F910F91FF90EF90DF90CF90BF9089
:101C8000AF90089588819981009711F00E94E22118
:101C9000198218821D821C821B821A82E0CFCF9388
:101CA000DF93EC01FB01248135810E94F00DCE0110
:101CB000DF91CF91089585ED8093BC008091DC0584
:101CC0009091DD05A091DE05B091DF050796A11D7D
:101CD000B11D23E0B695A795979587952A95D1F7DD
:101CE0002091BC0024FD03C01092DA0508954091B4
:101CF000DC055091DD056091DE057091DF05452B17
:101D0000462B472B69F30097A105B10541F02AE264
:101D10002A95F1F700C00197A109B109E1CF80919F
:101D2000DB050C948B05EF92FF920F931F93CF93DB
:101D3000DF93CDB7DEB7C557D1090FB6F894DEBF34
:101D40000FBECDBF0E94BB07882309F402C144E146
:101D500050E060E270E0CE0101960E94312344E140
:101D600050E060E270E0CE0145960E94312344E1EC
:101D700050E060E270E0CE0189960E94312344E198
:101D800050E060E270E0CE01CD960E943123809158
:101D90004705882369F064E071E0CE0101960E9456
:101DA000E00C6BE374E0CE0189960E94E00CB1C0B8
:101DB0000091700510917105C8010697039760F0B6
:101DC00080914D0566E871E0882311F06DE475E0BF
:101DD000CE0101960E94E00C0B30110508F099C06D
:101DE000F801EB50F14F0C943921000F7D0FB70F24
:101DF000D60FF80FFB0F04103E106F102C1035108B
:101E000080914C05882309F462C0CE0180599F4F10
:101E10000E94730AE396FFACE397E296EFADE29778
:101E2000E150FF0BEE0FFF1FE55CFE4F10810181BB
:101E3000CE0180599F4F0E94FC041F92FF920F9386
:101E40001F93E82FF0E0EE0FFF1FE35DFE4F81814F
:101E50008F9380818F938AEA91E09F938F931F9253
:101E60008CE08F937E0181E5E80EF11CFF92EF92EA
:101E70000E945923E5968FADE5971F928F93E496C4
:101E80008FADE4971F928F9384EB91E09F938F9394
:101E90001F9286E08F938E0106591F4F1F930F9359
:101EA0000E945923B701CE0145960E94E00CB8016B
:101EB000CE0189960E94E00CE5968FADE597809360
:101EC0001D010FB6F894DEBF0FBECDBF22C08091BA
:101ED000DD03811109C06EEB71E0CE0145960E94D1
:101EE000E00C67EC71E05FCF6AED71E0CE014596E2
:101EF0000E94E00C65E871E056CF69EE71E0CE011A
:101F000089960E94E00C8091A80468EA74E081112F
:101F10004AC00E94260CBE016F5F7F4F80E00E9486
:101F2000810B0E94260CBE016B5E7F4F81E00E94F8
:101F3000810B0E94260CBE01675D7F4F82E00E94EC
:101F4000810B0E94260CBE01635C7F4F83E00E94E0
:101F5000810BCB58DF4F0FB6F894DEBF0FBECDBF5D
:101F6000DF91CF911F910F91FF90EF900895809195
:101F7000D20468E971E0882311F062ED74E0CE01CB
:101F800089960E94E00C80911C018F3F29F0CE01C0
:101F9000CD960E948207BDCF8091BD046DEB74E0A9
:101FA000882309F4B6CFCE01CD96FFCE6EEE71E058
:101FB000CE0189960E94E00C8EEE94E0FC01019027
:101FC0000020E9F7CF018F5E9440982F81506EEE8C
:101FD00074E0843140F3953108F49BCF84E1EEEE58
:101FE000F4E0DE01DD9601900D928A95E1F791CF44
:101FF00060E072E0DDCF6CE072E0CE0189960E9475
:10200000E00C64E172E0CFCF80917A04882331F054
:102010006AE774E0CE0101960E94E00C80918F0483
:10202000882331F06FE874E0CE0145960E94E00C01
:1020300080916504882331F065E674E0CE018996CD
:102040000E94E00C8091500466E871E0882309F456
:10205000AACF60E574E0A7CF6FE172E0CE01899668
:102060000E94E00C68E272E09ECF66E274E0CE016E
:1020700089960E94E00C61E174E095CF69E372E01B
:10208000CE0101960E94E00C62E472E0CE0145961A
:102090000E94E00C8091E70381111EC080EA91E06C
:1020A0009F938F9381E592E09F938F931F9289E195
:1020B0008F938E010F5A1F4F1F930F930E94592326
:1020C000B801CE0189960E94E00C67E572E0CE016E
:1020D000CD960E94E00CF5CE87EE93E0E1CF6AE664
:1020E00072E0CE0101960E94E00C6CE772E0CE0136
:1020F00089960E94E00C6AE872E055CFCF93C82F12
:102100000E94BB078C1769F08823E1F00E94930EB0
:1021100080911B01843638F00E94620781E0809331
:102120001A01CF9108958823E1F310921A010E94B9
:102130007B036093A4047093A5048093A6049093FA
:10214000A704EFCF0E945B0710921A010E94C80BF0
:10215000E5E4F3E084E5DF011D928A95E9F710924A
:102160004403DFCF0F931F93CF93DF93009170054C
:10217000109171050817190709F46BC09093710548
:10218000809370058230910521F01092BD04109269
:10219000D2049C012350310922303105E0F5109220
:1021A0008F0410927A0410926504109250048730C4
:1021B000910589F010926C0510926D0510926E05D4
:1021C00010926F0520916705211102C01092E7035C
:1021D0008830910559F010926805109269051092A7
:1021E0006A0510926B058A30910521F01092260441
:1021F00010921104EC010E946D070E94930E0115CC
:10220000110579F4299729F580E0DF91CF911F918D
:102210000F910C94C1071092EE048630910551F293
:10222000BECF87E0C730D10581F388E0C830D10543
:1022300061F386E0C430D10541F381E0C330D105BC
:1022400021F3C930D10501F3219719F402301105AA
:10225000D9F2DF91CF911F910F910895EF92FF92E4
:102260000F931F93CF93DF93CDB7DEB764970FB66D
:10227000F894DEBF0FBECDBF082F7B010E94BB07C5
:10228000882359F1F70101900020E9F731971E2FBB
:102290001E19153108F014E144E150E060E270E0ED
:1022A000CE0101960E943123412F50E084E190E05D
:1022B000841B950B95958795B70121E030E02C0F95
:1022C0003D1F820F931F0E9428230E94260CBE01EF
:1022D0006F5F7F4F802F0E94810B64960FB6F8943A
:1022E000DEBF0FBECDBFDF91CF911F910F91FF9049
:1022F000EF9008951F93CF93DF93CDB7DEB7649728
:102300000FB6F894DEBF0FBECDBF182F44E150E0EA
:1023100060E270E0CE0101960E9431230E94260CFB
:10232000BE016F5F7F4F812F0E94810B64960FB6B5
:10233000F894DEBF0FBECDBFDF91CF911F910895FE
:102340000F931F93CF93DF93CDB7DEB764970FB68C
:10235000F894DEBF0FBECDBF0E94BB07882371F08B
:102360004EEE54E0FA0101900020E9F7AF014F5E14
:10237000544041110EC083E00E947A1164960FB65A
:10238000F894DEBF0FBECDBFDF91CF911F910F91AB
:102390000895453138F58A01112744E150E060E2A3
:1023A00070E0CE0101960E94312384E190E0801B11
:1023B000910B97FD019695958795A8016EEE74E0B7
:1023C00021E030E02C0F3D1F280F311DC9010E9474
:1023D00028230E94260CBE016F5F7F4F83E00E947E
:1023E000810BCCCF4451E091E7044E1708F4E42F61
:1023F000F0E0E251FB4FDE011196CE0145962191AE
:102400002D93A817B907D9F7E4CF1F920F920FB6F3
:102410000F9211242F933F938F939F93AF93BF936A
:102420008091730590917405A0917505B091760522
:102430003091720523E0230F2D3758F50196A11D29
:10244000B11D209372058093730590937405A0933A
:102450007505B09376058091770590917805A091E8
:102460007905B0917A050196A11DB11D809377057C
:1024700090937805A0937905B0937A05BF91AF91B9
:102480009F918F913F912F910F900FBE0F901F90B2
:10249000189526E8230F0296A11DB11DD2CF1F92D9
:1024A0000F920FB60F9211242F933F934F935F9388
:1024B0006F937F938F939F93AF93BF93EF93FF930C
:1024C0008091A8059091A905A091AA05B091AB05AE
:1024D000892B8A2B8B2BD1F19091A305E091A40538
:1024E000F091A5058081892780838091A80590912E
:1024F000A905A091AA05B091AB05181619061A06F0
:102500001B069CF48091A8059091A905A091AA05AD
:10251000B091AB050197A109B1098093A8059093EB
:10252000A905A093AA05B093AB05FF91EF91BF91C8
:10253000AF919F918F917F916F915F914F913F915B
:102540002F910F900FBE0F901F90189580911E0134
:10255000EDECF0E0E4919FEF90931E01E13051F03B
:1025600030F0E23069F060E00E94BE00DECF1092F1
:102570006E00F9CF90916F009D7F90936F00F3CF25
:10258000909170009D7F9093700091E09093B000C7
:102590009091B100987F94609093B1001092B30035
:1025A000E2CF1F920F920FB60F9211242F933F93F9
:1025B0004F935F936F937F938F939F93AF93BF934B
:1025C000EF93FF9384E096E00E946D04FF91EF91FA
:1025D000BF91AF919F918F917F916F915F914F913B
:1025E0003F912F910F900FBE0F901F9018951F9243
:1025F0000F920FB60F9211242F938F939F93EF9307
:10260000FF93E0911406F09115068081E0911A067F
:10261000F0911B0682FD1BC0908180911D068F5F8B
:102620008F7320911E06821741F0E0911D06F0E0A5
:10263000EC5FF94F958F80931D06FF91EF919F916D
:102640008F912F910F900FBE0F901F901895808142
:10265000F4CF1F920F920FB60F9211242F933F9336
:102660004F935F936F937F938F939F93AF93BF939A
:10267000EF93FF938091B900887F803609F44AC0B8
:10268000F0F5883209F4A7C018F5803109F49BC031
:10269000B8F4882309F4F9C0883009F494C0FF9194
:1026A000EF91BF91AF919F918F917F916F915F91CA
:1026B0004F913F912F910F900FBE0F901F90189543
:1026C000883109F488C0803251F78093D80514C04E
:1026D000803409F49DC040F48033B9F38833F9F6AF
:1026E0008093D80585ECB0C0803509F485C0883565
:1026F00009F496C0883499F60E945B0ED0CF8839D1
:1027000009F48CC038F5883729F050F4883611F078
:10271000803729F683E08093DA051092DC0357C0F6
:10272000883809F47BC0803919F0803809F0B7CFB8
:102730008091DC03803208F071C0E091DC0381E01D
:102740008E0F8093DC038091BB00F0E0E454FC4FDB
:1027500080833DC0803B39F0E0F4803A09F479C0D1
:10276000883A09F09CCF84E08093DA051092BB038D
:102770001092BA03E0917D05F0917E050995809154
:10278000BA0381110FC081E08093BA0310929A03BB
:1027900009C0803C09F4A6CF883C09F4A3CF883B4C
:1027A00009F07DCFE091BB0381E08E0F8093BB03E6
:1027B000F0E0E656FC4F80818093BB009091BB0314
:1027C0008091BA0329C08091B5058093BB0085EC48
:1027D0008093BC0064CF9091D7058091D60598175F
:1027E00058F5E091D70581E08E0F8093D705F0E092
:1027F000EA54FA4F8081E9CFE091D70581E08E0F4E
:102800008093D7058091BB00F0E0EA54FA4F8083B3
:102810009091D7058091D6059817C8F285E8D8CF52
:10282000E091D70581E08E0F8093D7058091BB00A2
:10283000F0E0EA54FA4F80838091D90581115CCF92
:1028400081E08093B40584EA8093BC001092DA059D
:1028500026CF85EC8093BC001092DA058091DC03D2
:10286000803230F4E091DC03F0E0E454FC4F10825D
:102870006091DC0370E0E0917B05F0917C058CEBCE
:1028800093E009951092DC030ACF1092D80534CF5B
:10289000E4E0F6E01382128288EE93E0A0E0B0E07C
:1028A00084839583A683B78327E531E03183208332
:1028B00025EC30E03587248724EC30E03787268705
:1028C00020EC30E0318B208B21EC30E0338B228BFD
:1028D00022EC30E0358B248B26EC30E0378B268BD6
:1028E000118E128E138E148EE1EAF6E0138212829C
:1028F00084839583A683B78389E691E0918380835F
:10290000E3EBF6E0138212828BE791E09183808300
:1029100087E2848384E1818784E08287138665E887
:1029200071E08DEA96E00C94DF0DCF93DF93CDB785
:10293000DEB7C754D1090FB6F894DEBF0FBECDBFC6
:10294000789484B5826084BD84B5816084BD85B58A
:10295000826085BD85B5816085BD80916E00816096
:1029600080936E001092810080918100826080933C
:10297000810080918100816080938100809180003E
:102980008160809380008091B10084608093B10069
:102990008091B00081608093B00080917A00846063
:1029A00080937A0080917A00826080937A0080918F
:1029B0007A00816080937A0080917A0080688093A9
:1029C0007A001092C100E0911406F091150682E0A1
:1029D0008083E0911006F09111061082E0911206BA
:1029E000F09113068FEC808310921C06E09118067C
:1029F000F091190686E08083E0911606F0911706A3
:102A0000808180618083E0911606F09117068081B5
:102A100088608083E0911606F091170680818068B7
:102A20008083E0911606F091170680818F7D808368
:102A300061E084E00E94EC0061E084E00E94BE005E
:102A400062E087E00E94EC0061E083E00E94EC001D
:102A500060E083E00E94BE000E9474058CE08093D9
:102A6000B80011E01093E00587E28093020610920F
:102A7000E1051092030681E00E94AC05882381F0F5
:102A80001093E0051FE3109302061092E1051092E7
:102A9000030681E00E94AC05811102C01093000181
:102AA000809100011092B6061092B5068093B70689
:102AB0001092B8061092B9061092BA061092BB0690
:102AC00084E18093BC0684E08093BD061092BE062C
:102AD0000E9474051092B8068091BD06823018F0ED
:102AE00098E09093B8068093BB0662E370E080E0C4
:102AF00090E00E94A0036091BE0683EB96E00E94E6
:102B0000470768EE73E080E090E00E94A00360E376
:102B100083EB96E00E940C0B0BE416E4C8010197CE
:102B2000F1F760E383EB96E00E940C0BC80101977C
:102B3000F1F760E383EB96E00E940C0B83E592E0F3
:102B40000197F1F760E283EB96E00E940C0B809115
:102B5000B80680620E944B0B84E08093B9068CE03B
:102B60000E944B0B0E94C80B82E08093BA0686E05D
:102B70000E944B0B82E00E944B0B8BE39FE101977D
:102B8000F1F70E94620781E080931A010E947B03A3
:102B90006B017C0120911B0130E0A0EABFE00E94A4
:102BA000C92024E630E040E050E00E94F820C20E48
:102BB000D31EE41EF51EC092A404D092A504E09298
:102BC000A604F092A7048091B9068D7F8093B90680
:102BD00088600E944B0B8091B9068E7F8093B90666
:102BE00088600E944B0B0E94AE0C80934C058111B3
:102BF0000AC062E370E080E090E00E94A0030E94BF
:102C0000AE0C80934C0590E080E00E94712091E032
:102C1000853A09F090E09093DD038BE0ECECF2E074
:102C2000DE01929601900D928A95E1F78DE0E7ED35
:102C3000F2E0DE01559601900D928A95E1F784E16C
:102C4000E4EEF2E08E010F5F1F4FD80101900D926C
:102C50008A95E1F70E94C80B6E0122E2C20ED11CD8
:102C6000E5E0FE2E260161E08F2D0E94510BF6015A
:102C700081916F010E94420B6CE370E080E090E074
:102C80000E94A003F394FFE0FF12EDCF5E0125E167
:102C9000A20EB11C74E0D72EFA2CEB2C62E08D2D25
:102CA0000E94510BF50181915F010E94420B6CE380
:102CB00070E080E090E00E94A003D394F0E1DF1286
:102CC000EDCF6CE271E080E090E00E94A0034E0145
:102CD00023E1821A910864E1A62EB12C63E080E022
:102CE0000E94510BD12CC12CC6018A199B09439714
:102CF00008F08AC1F401EC0DFD1D80810E94420B99
:102D00003FEFC31AD30A44E1C416D10469F76EE158
:102D100070E080E090E00E94A00351E0A51AB108A5
:102D20008FEF881A980A9FEFA916B906B9F660EFD7
:102D30007AE080E090E00E94A0030E94930E8EEA69
:102D400092E00E94F30B0E94BB078823A1F0D09071
:102D50001B018FEF8D0D833670F40E94100C8823B9
:102D600009F454C180911A01811105C00E946207C3
:102D700081E080931A01EEE8F0E08491E2EAF0E06D
:102D8000D490E0ECF0E0C490CC2009F484C181112F
:102D90000E949500EC2DF0E0EE0FFF1FED58FF4F65
:102DA000A591B491EC91DE2291E080E009F490E0ED
:102DB000C92ED82EA09003018A2D0A2C000C990B45
:102DC0008C159D0509F46AC1C09203010E94D203CB
:102DD0006093E3037093E4038093E5039093E60329
:102DE0008091700590917105079709F580906C05A9
:102DF00090906D05A0906E05B0906F0581149104C0
:102E0000A104B104D9F10E94D203681979098A0991
:102E10009B0997FD33C010926C0510926D051092BE
:102E20006E0510926F0581E090E00E94B2108091D3
:102E3000700590917105089709F58090680590904C
:102E40006905A0906A05B0906B0581149104A104F6
:102E5000B104A1F00E94D203681979098A099B097B
:102E600097FD0CC0109268051092690510926A05D2
:102E700010926B0581E090E00E94B210809167058E
:102E8000882309F46BC08090630590906405A0903E
:102E90006505B090660581149104A104B10479F12F
:102EA0000E94D203681979098A099B0997FD27C0F6
:102EB00010926705109262051092630510926405E6
:102EC00010926505109266050E94BB07882309F4DD
:102ED00045C0809170059091710506970397F0F1B8
:102EE00080914D056DE475E0811102C066E871E0E6
:102EF00080E00E942E1180916705882379F18091EE
:102F00007005909171050797029740F10E94BB07E9
:102F1000882321F10E94D20328E833E140E050E009
:102F20000E94F820DA01C90180959095A095B0958E
:102F3000817090916205891789F08093620562E43F
:102F400072E020FF08C080914D056DE475E08111AD
:102F500002C066E871E080E00E942E1133243394B1
:102F600048E0242E84E096E00E944D04892B09F469
:102F700025C784E096E00E942B04C090B106D09053
:102F8000B2068A3019F08D3009F0F4C6CD2851F31D
:102F90006DEA76E0CE01C9960E94C50DCE01C996B4
:102FA0000E94F50CCDACDEACC114D10409F475C19E
:102FB00070E060E0CE01C9960E94DE03EFEBE80FFF
:102FC000EA3108F06AC10E2E000CFF0BE651F84EF4
:102FD0000C943921411E031C4D192E1CA21C4D19A5
:102FE000CF194F1B0F194D19521A0A1A821B871934
:102FF00060195A19AD190A1D4D196319491C9D1EF6
:1030000014195D19F41C9E1B80E278CE0E947B038C
:103010004B015C018091A4049091A504A091A604A9
:10302000B091A704A5019401281B390B4A0B5B0B37
:10303000DA01C901B7FD9FCE80911A018823F9F00A
:103040000E945B0710921A01A4E6B0E0AD19B10925
:1030500020EA3FE00E943F2124E630E040E050E0DB
:103060000E94F820820E931EA41EB51E8092A40416
:103070009092A504A092A604B092A7047CCE0E94D0
:10308000620781E080931A012D2D30E0A0EABFE0B5
:103090000E94C920E1CFD12CC12C8CCE0E94D2033A
:1030A0002091E3033091E4034091E5035091E6035E
:1030B000621B730B840B950B6E31710581059105B5
:1030C00008F48ECEB09002018B2D0B2C000C990BC6
:1030D0008C159D0509F05CC0CA94CD2809F080CEFE
:1030E00041E0B4127DCE8091E203811179CE0E943D
:1030F000D2032091DE033091DF034091E003509131
:10310000E103621B730B840B950B683E73408105D2
:10311000910508F465CEB092E2030E94BB078823B4
:1031200009F45ECE48E250E060E070E080E296E0B4
:103130000E941D0144E150E064EB72E084E091E004
:103140000E944A23109218018091FC036CEF73E0F7
:10315000811102C066E972E044E150E08BE394E043
:103160000E944A2310924F0481E0809347050E94F9
:10317000D20368577C4E8F4F9F4F609343057093E7
:10318000440580934505909346050E94930E28CEF2
:10319000A09202018FEFB81609F422CECA94CD286E
:1031A00069F40E94D2036093DE037093DF0380937F
:1031B000E0039093E1031092E20312CE8091E203C8
:1031C00081110ECE8091700590917105079769F479
:1031D00010926C0510926D0510926E0510926F059D
:1031E00081E090E00E94B210FBCD0E94BB078823D3
:1031F00069F0109201010E947E100E94BB07882393
:1032000059F084EA92E00E94F30BEACD91E09093AA
:10321000010190931901EFCF89EA92E0F4CF81E0A8
:1032200090E00E94B21039C0E3E0CE16D10418F14C
:1032300061E070E0CE01C9960E94DE038A33D9F4C2
:1032400042E050E0BE01675C7F4FC8010E944F0E14
:1032500045E150E062ED74E0C8010E94D00BC80166
:103260000E94A60C8091700590917105029731F033
:1032700082E090E0D6CF1092D204F4CF0E94BB0738
:10328000882359F08091D20462ED74E0811102C06C
:1032900068E971E082E00E942E11CE01C9960E9479
:1032A000A60C50E040E065E871E08DEA96E00E94EF
:1032B0009A0D58CE83E090E0B4CF84E090E0B1CF97
:1032C00085E090E0AECF6AE3CE01C9960E946E0D14
:1032D000AC014F5F5F4FBE01675C7F4FC8010E942A
:1032E0004F0E45E150E06DEB74E0C8010E94D00B39
:1032F0008091700590917105029739F480911C01BD
:103300006DEB74E08F3F09F446C0C801F9C06AE371
:10331000CE01C9960E946E0DAC014F5F5F4FBE019A
:10332000675C7F4FC8010E944F0E41E550E06EEE92
:1033300074E0C8010E94D00B8091700590917105D6
:103340000397029728F40E946D070E94A011DDCF19
:1033500083E090E00E94B210D8CF6AE3CE01C99614
:103360000E946E0DAC014F5F5F4FBE01675C7F4FE7
:10337000C8010E944F0E45E150E068EA74E0C801C0
:103380000E94D00B8091700590917105019709F012
:10339000BCCF68EA74E083E00E942E11B6CF6AE3E6
:1033A000CE01C9960E946E0D97FD77CFAC014F5F9D
:1033B0005F4FBE01675C7F4FC8010E944F0EC8017E
:1033C0000E94D50C4B015C01C8010E94A60CF5E6D9
:1033D0008F169104A104B10408F05FCF80921C0104
:1033E0008091700590917105029709F056CF0E9467
:1033F000BB07882309F451CF8091470581114DCF38
:10340000C8010E9482070E94260CB80183E00E9436
:10341000810B43CF6AE3CE01C9960E946E0D97FDE2
:103420003CCFAC014F5F5F4FBE01675C7F4FC8016F
:103430000E944F0EC8010E94D50C4B015C01C801CF
:103440000E94A60C25E682169104A104B10408F09E
:1034500024CF80921B010E94BB07882309F41DCF53
:1034600081149104A104B10429F40E945B07109215
:103470001A0113CF34E683169104A104B10429F490
:103480000E94620730921A0108CF10921A010E941E
:103490007B036093A4047093A5048093A604909387
:1034A000A704FBCE6AE3CE01C9960E946E0D97FD7C
:1034B0002AC0AC014F5F5F4FBE01675C7F4FCE01FA
:1034C000C3960E944F0E6CE7CE01C3960E946E0D0C
:1034D0004C0197FF1FC045E150E06FE874E0CE015A
:1034E000C3960E94D00B809170059091710506974C
:1034F00009F49DC086E090E00E94B210CE01C39610
:103500000E94A60CCACE65E871E0CE01C3960E9467
:10351000DF0DD9CF3C014FEF641A740AA3016CE7A9
:10352000CE01C3960E94520D6C01AA24AA94BA2C13
:1035300097FD09C0AC014F5F5F4F6CE7CE01C396AA
:103540000E94520D5C01940150E040E0BE016D5CB0
:103550007F4FCE018D960E94F00DD7FE41C0A30192
:10356000BE016D5C7F4FC2010E944F0E65E871E0A5
:103570008F2D9E2D0E94DF0DB7FE4FC065E871E0D4
:10358000C8010E94DF0D45E150E06FE874E0CE0114
:103590008D960E94D00B45E150E06AE774E0C201CD
:1035A0000E94D00B45E150E065E674E08F2D9E2D22
:1035B0000E94D00B45E150E060E574E0C8010E9434
:1035C000D00BC8010E94A60C8F2D9E2D0E94A60C28
:1035D000C2010E94A60CCE018D960E94A60C83CF3C
:1035E0009601A301BE016D5C7F4FC2010E94F00DE8
:1035F000A6014F5F5F4FB7FE08C0BE016D5C7F4FF5
:103600008F2D9E2D0E944F0EB9CF9501BE016D5C8E
:103610007F4F8F2D9E2D0E94F00DA5014F5F5F4FB4
:10362000BE016D5C7F4FC8010E944F0EACCF0E945F
:10363000BB07882309F462CF80917A04882319F1AB
:103640006AE774E080E00E942E1180918F04882345
:10365000F1F06FE874E081E00E942E118091650422
:103660008823C9F065E674E082E00E942E11809103
:10367000500460E574E0811102C066E871E083E007
:103680000E942E113BCF80E00E947A11DECF81E0B4
:103690000E947A11E3CF82E00E947A11E8CF6AE3B8
:1036A000CE01C9960E946E0D97FD26C0AC014F5FFA
:1036B0005F4FBE01675C7F4FC8010E944F0E45E11E
:1036C00050E06DE475E0C8010E94D00B0E94BB077A
:1036D000882309F41ACE80917005909171050697A0
:1036E00009F413CE80914D056DE475E0811102C09F
:1036F00066E871E080E050CE65E871E0C8010E94A4
:10370000DF0DDDCF52E0C516D10408F4C6CD0E940E
:10371000BB07D82E61E070E0CE01C9960E94DE039F
:10372000803331F4109219018D2D0E947E10B5CD99
:10373000813309F0B2CD30921901F6CF0E94BB0758
:10374000882309F4AACD6AE3CE01C9960E946E0DC2
:1037500097FDA3CDAC014F5F5F4FBE01675C7F4F0C
:103760008F2D9E2D0E944F0E6CE28F2D9E2D0E945C
:103770006E0D6C0197FD44C09C0150E040E06F2D40
:103780007E2DC8010E94F00DC8010E94D50C249620
:103790006CAF7DAF8EAF9FAF2497C8010E94A60C7F
:1037A000A6014F5F5F4F6F2D7E2DC8010E944F0E07
:1037B000C8010E94D50C4B015C01C8010E94A60CF7
:1037C00024968CAD9DADAEADBFAD24974F97A109AA
:1037D000B10981309E44A105B10590F4D501C40121
:1037E0000197A109B109803D9740A105B10540F4B9
:1037F000B501A40122968EAD9FAD22970E941D01B6
:103800008F2D9E2D7DCE23E0C216D10440F061E0C5
:1038100070E0CE01C9960E94DE038A3319F090E071
:1038200080E0FFCC42E050E0BE01675C7F4FC80102
:103830000E944F0EC8010E94D50C4B015C01C801CB
:103840000E94A60C3FEF83169104A104B10411F06D
:1038500008F023CD882D0E94C1071FCD89E090E09C
:103860000E94B2100E94D2036093480570934905EC
:1038700080934A0590934B0590E080E00E94712070
:10388000853A09F40ACD65EA90E080E00E9479204B
:1038900004CD6AE3CE01C9960E946E0DAC014F5F64
:1038A0005F4FBE01675C7F4FC2010E944F0E6CE705
:1038B000C2010E946E0D6C0197FD39C09C0150E061
:1038C00040E0B2018F2D9E2D0E94F00DA6014F5FAA
:1038D0005F4FB201C8010E944F0E45E150E064E025
:1038E00071E08F2D9E2D0E94D00B45E150E06BE3DF
:1038F00074E0C8010E94D00B309247050E94D203A9
:1039000068577C4E8F4F9F4F6093430570934405DB
:1039100080934505909346050E94930EC8010E942E
:10392000A60C8F2D9E2D0E94A60CC201E9CD60EC45
:1039300072E08F2D9E2D0E94DF0DB201C8010E9402
:10394000C50DCBCF6AE3CE01C9960E946E0D97FDDF
:103950003AC0AC014F5F5F4FBE01675C7F4FC20151
:103960000E944F0E6CE7C2010E946E0D6C0197FD24
:1039700030C09C0150E040E0B2018F2D9E2D0E948E
:10398000F00DA6014F5F5F4FB201C8010E944F0EBC
:1039900045E150E066E274E08F2D9E2D0E94D00B31
:1039A00045E150E061E174E0C8010E94D00B8091D4
:1039B0007005909171050A9709F4AECF8AE090E006
:1039C0000E94B210ABCF65E871E0C2010E94DF0D2A
:1039D000C9CFB2018F2D9E2D0E94C50D65E871E003
:1039E000C8010E94DF0DD4CF6AE3CE01C9960E94C0
:1039F0006E0DAC014F5F5F4FBE01675C7F4FC8012A
:103A00000E944F0E45E150E06CEF73E0C8010E9448
:103A1000D00B7BCC80914C05882309F43ECC45E14A
:103A2000C416D10408F439CC61E070E0CE01C99627
:103A30000E94DE038A3309F030CC26E030E042E019
:103A400050E0BE01675C7F4FC8010E94F00DC801C5
:103A50000E94D50C4B01C8010E94A60C29E030E061
:103A600047E050E0BE01675C7F4FC8010E94F00D47
:103A7000C8010E94D50C24966CAF7DAF8EAF9FAF6E
:103A80002497C8010E94A60C2CE030E04AE050E0E8
:103A9000BE01675C7F4FC8010E94F00DC8010E9403
:103AA000D50C28966CAF7DAF8EAF9FAF2897C8011D
:103AB0000E94A60C2FE030E04DE050E0BE01675CB4
:103AC0007F4FC8010E94F00DC8010E94D50C762ED0
:103AD000C8010E94A60C22E130E040E150E0BE01A6
:103AE000675C7F4FC8010E94F00DC8010E94D50C91
:103AF000D62EC8010E94A60C25E130E043E150E03B
:103B0000BE01675C7F4FC8010E94F00DC8010E9492
:103B1000D50CC62EC8010E94A60CC401885E974031
:103B20008C34910508F0B9CB22968EAD9FAD2297CB
:103B300001970C9708F0B1CB26968EAD9FAD2697D6
:103B400001974F9708F0A9CB50ED851A57E0950AD9
:103B50008D8A21968FAD21978E8B25969FAD2597C7
:103B60009F8B788ED98ECA8EF801222D11922A95BC
:103B7000E9F72AE08C2D622F0E94D820982F990F08
:103B8000890F880FC80ECA828D2D0E94D820982FC9
:103B9000990F890F880FD80EDB82872D0E94D820BD
:103BA000982F990F890F880F780E7C828F2D9E2D6C
:103BB0000E94FC04382F811101C037E02AE0832FD6
:103BC000622F0E94D820982F880F890F880F830FAB
:103BD0008D833F89832F0E94D820982F880F890FCB
:103BE000880F830F8E833E89832F0E94D820982FC1
:103BF000880F890F880F830F8F833D89832F0E9441
:103C0000D820982F880F890F880F830F888721E08D
:103C100048E050E0BE016F5F7F4F80917F0590913B
:103C200080050E94430A2FE0D22EDFAE21E041E062
:103C300050E0BE01615C7F4F80917F0590918005CF
:103C40000E94430A41E050E0BE016E5D7F4F8091CB
:103C50007F05909180050E941E098AA1DAA28F77C4
:103C60008BA321E042E050E0BE016E5D7F4F80916A
:103C70007F05909180050E94430A8FEF80931D017C
:103C80000CCB33E0C316D10440F061E070E0CE010C
:103C9000C9960E94DE038A3369F144E150E060EA8C
:103CA00071E087EE93E00E944A230E94D203605E97
:103CB000714B8F4F9F4F60936305709364058093A2
:103CC000650590936605809167058111E6CA30927B
:103CD00067050E94D203605F784D8F4F9F4F6093BE
:103CE0006C0570936D0580936E0590936F0587E06A
:103CF00090E097CA42E050E0BE01675C7F4FC80188
:103D00000E944F0EC8010E94F50C8D819E81892B67
:103D100059F045E150E067EE73E0C8010E94D00B16
:103D2000C8010E94A60CC1CF44E150E060EA71E0F6
:103D300087EE93E00E944A23F3CF1092670510921A
:103D40006205109263051092640510926505109249
:103D500066050E94D203605F784D8F4F9F4F60933E
:103D600068057093690580936A0590936B0588E0F8
:103D700090E057CA40E4C416D10408F0F3C8898320
:103D80001A825FEFC51AD50AB6018DEA96E00E9445
:103D9000720D882309F4E6C82091AD063091AE0675
:103DA0008091B1069091B206B801820F931F0E94D4
:103DB0004323D092B206C092B106D4C80E94BB077A
:103DC000882309F4C0C08091470581113AC08091D1
:103DD0007005909171050397029798F5EEEEF4E067
:103DE00001900020E9F7CF018F5E94406C0194E1CF
:103DF0009C1538F50E94D2038090EA049090EB0461
:103E0000A090EC04B090ED049B01AC012819390995
:103E10004A095B0949015A01B7FC0EC02091E80428
:103E20003091E9042130310509F4E4C008F4D4C02C
:103E30002230310509F4FEC00E94BB07882309F433
:103E400082C08091700590917105892B09F07BC02B
:103E500080914C05882309F476C080914705811133
:103E600072C00E94D20380903F0590904005A090C0
:103E70004105B09042059B01AC01281939094A0956
:103E80005B0949015A0138EE831633E09306A10419
:103E9000B10408F458C060933F05709340058093C7
:103EA000410590934205C2010E94730A8EA1909130
:103EB0001D01891709F447C080931D01DCA0EBA107
:103EC000E150FF0BEE0FFF1FE55CFE4FC080B1809D
:103ED000C2010E94FC041F92DF92BF92CF92E82F92
:103EE000F0E0EE0FFF1FE35DFE4F81818F93808135
:103EF0008F938AEA91E09F938F931F928CE08F9328
:103F00001F930F930E9459238EA11F928F938DA10F
:103F10001F928F9384EB91E09F938F931F9286E083
:103F20008F93EF92FF920E945923B80181E00E9483
:103F30002E116F2D7E2D82E00E942E110FB6F89467
:103F4000DEBF0FBECDBF80917005909171050997BE
:103F5000D9F480914C058823B9F00E94D203809057
:103F6000480590904905A0904A05B0904B05681906
:103F700079098A099B09603C744D8140910520F0C4
:103F800090E080E00E94B210809147058823A1F064
:103F90000E94D2038090430590904405A09045056F
:103FA000B0904605681979098A099B0997FD04C0F4
:103FB000109247050E94930E80E090E0892B11F447
:103FC0000C94A3160E945904882311F40C94A31690
:103FD0000E9400000C94A31621E02093E70421E046
:103FE00030E03093E9042093E80466507F4F8F4F10
:103FF0009F4F15C02CEE2C0D3091E7043F5F30939E
:10400000E704321790F32093E70422E030E0309386
:10401000E9042093E80464527A4F8F4F9F4F6093D6
:10402000EA047093EB048093EC049093ED040E94F7
:10403000A01102CF1092E7041092E9041092E80454
:1040400060557B4F8F4F9F4FEACF8DEA96E00C94DF
:10405000A60C1F93FC0199278827BC01E8941191B5
:104060001032E9F3193010F01E30C8F31B3251F052
:104070001D3249F4689406C00E945020610F711DE2
:10408000811D911D119110531A30B0F33EF490959B
:104090008095709561957F4F8F4F9F4F1F91089529
:1040A000592F482F372F262F660F771F881F991FEC
:1040B000660F771F881F991F620F731F841F951F3C
:1040C000660F771F881F991F089591110C946E2019
:1040D000803219F089508550C8F7089599278827AC
:1040E0000895F999FECF92BD81BDF89A992780B5C0
:1040F0000895262FF999FECF1FBA92BD81BD20BD2C
:104100000FB6F894FA9AF99A0FBE019608950E9494
:10411000C920A59F900DB49F900DA49F800D911D67
:10412000112408952F923F924F925F926F927F9247
:104130008F929F92AF92BF92CF92DF92EF92FF92B7
:104140000F931F93CF93DF93CDB7DEB7CA1BDB0B63
:104150000FB6F894DEBF0FBECDBF09942A88398808
:1041600048885F846E847D848C849B84AA84B9840F
:10417000C884DF80EE80FD800C811B81AA81B9811B
:10418000CE0FD11D0FB6F894DEBF0FBECDBFED012F
:104190000895A29FB001B39FC001A39F700D811D20
:1041A0001124911DB29F700D811D1124911D089540
:1041B000991B79E004C0991F961708F0961B881F79
:1041C0007A95C9F780950895AA1BBB1B51E107C0DA
:1041D000AA1FBB1FA617B70710F0A61BB70B881F97
:1041E000991F5A95A9F780959095BC01CD01089526
:1041F000A1E21A2EAA1BBB1BFD010DC0AA1FBB1FEB
:10420000EE1FFF1FA217B307E407F50720F0A21B5C
:10421000B30BE40BF50B661F771F881F991F1A94C9
:1042200069F760957095809590959B01AC01BD01F3
:10423000CF010895052E97FB1EF400940E943121B2
:1042400057FD07D00E94F82007FC03D04EF40C94D1
:10425000312150954095309521953F4F4F4F5F4FFD
:10426000089590958095709561957F4F8F4F9F4FE2
:104270000895EE0FFF1F0590F491E02D09940E9420
:10428000C920B7FF0895821B930B08950F931F93C6
:10429000CF93DF938230910510F482E090E0E091BB
:1042A000C106F091C20630E020E0B0E0A0E0309717
:1042B00099F42115310509F44AC0281B390B243023
:1042C0003105D8F58A819B816115710589F1FB0162
:1042D00093838283FE0111C0408151810281138149
:1042E00048175907E0F04817590799F4109761F0FB
:1042F00012960C93129713961C933296CF01DF916E
:10430000CF911F910F9108950093C1061093C2069B
:10431000F4CF2115310551F04217530738F0A901A8
:10432000DB019A01BD01DF01F801C1CFEF01F9CF37
:104330009093C2068093C106CDCFFE01E20FF31F1A
:10434000819391932250310939832883D7CF2091CB
:10435000BF063091C006232B41F4209121013091FA
:1043600022013093C0062093BF0620911F01309197
:1043700020012115310541F42DB73EB740912301AD
:1043800050912401241B350BE091BF06F091C0062B
:10439000E217F307A0F42E1B3F0B2817390778F01C
:1043A000AC014E5F5F4F2417350748F04E0F5F1F7B
:1043B0005093C0064093BF06819391939FCFF0E046
:1043C000E0E09CCFCF93DF930097E9F0FC013297B8
:1043D00013821282A091C106B091C206ED0130E0B5
:1043E00020E01097A1F420813181820F931F20914A
:1043F000BF063091C0062817390709F061C0F09355
:10440000C006E093BF06DF91CF910895EA01CE1771
:10441000DF07E8F54A815B819E0141155105B1F73F
:10442000E901FB83EA8349915991C40FD51FEC1729
:10443000FD0761F4808191810296840F951FE90147
:1044400099838883828193819B838A83F0E0E0E073
:1044500012968D919C9113970097B9F52D913C91EF
:104460001197CD010296820F931F2091BF063091C4
:10447000C0062817390739F6309751F51092C20651
:104480001092C106B093C006A093BF06BCCFD383E1
:10449000C28340815181840F951FC817D90761F4E9
:1044A0004E5F5F4F88819981480F591F5183408328
:1044B0008A819B81938382832115310509F0B0CFD6
:1044C000F093C206E093C1069ECFFD01DC01C0CF90
:1044D00013821282D7CFB0E0A0E0E1E7F2E20C94C1
:1044E00094208C01009751F4CB010E9446218C014D
:1044F000C801CDB7DEB7E0E10C94B020FC01E60FB7
:10450000F71F9C0122503109E217F30708F49DC000
:10451000D901CD91DC911197C617D70798F0C53016
:10452000D10530F3CE0104978617970708F3C61B11
:10453000D70B2297C193D1936D937C93CF010E94A7
:10454000E221D6CF5B01AC1ABD0A4C018C0E9D1E38
:10455000A091C106B091C206512C412CF12CE12C46
:10456000109731F58091BF069091C0068815990586
:1045700009F05CC04616570608F058C080911F012C
:1045800090912001009741F48DB79EB7409123018F
:1045900050912401841B950BE817F90708F055C0CA
:1045A000F093C006E093BF06F90171836083A0CF4A
:1045B0008D919C91119712966C90129713967C9006
:1045C0001397A815B90559F56C0142E0C40ED11C2A
:1045D000CA14DB0420F1AC014A195B09DA01129616
:1045E000159780F06282738251834083D9016D9365
:1045F0007C93E114F10471F0D7011396FC93EE93D0
:10460000129776CF22968C0F9D1FF901918380839C
:10461000F301EFCFF093C206E093C10669CF4816CD
:10462000590608F42C017D01D3019ACFCB010E94D9
:1046300046217C01009749F0AE01B8010E94282371
:10464000C8010E94E221870153CF10E000E050CF63
:10465000FB01DC0102C001900D9241505040D8F79F
:104660000895DC0101C06D9341505040E0F708957A
:10467000FC018191861721F08823D9F799270895A5
:104680003197CF010895FB01DC0101900D920020CC
:10469000E1F70895FB01DC014150504048F00190E2
:1046A0000D920020C9F701C01D9241505040E0F723
:1046B0000895AEE0B0E0EFE5F3E20C94A0200D89A0
:1046C0001E898F89988D26E02C831A83098397FF92
:1046D00002C080E090E801979E838D83AE01455E25
:1046E0005F4F698D7A8DCE0101960E9489234D819D
:1046F0005E8157FD0AC02F813885421753070CF49D
:104700009A01020F131FF80110822E96E4E00C9418
:10471000BC20ABE0B0E0EFE8F3E20C9492207C0127
:104720003B018A01FC0117821682838181FFC8C187
:10473000CE0101965C01F7019381F30193FD859110
:1047400093FF81913F01882309F453C1853239F4E5
:1047500093FD859193FF81913F01853229F4B70143
:1047600090E00E947925E7CF912C212C312CFFE19C
:10477000F31538F08B3211F190F4803209F1833265
:1047800029F137FC3CC020ED280F2A3050F536FEC9
:1047900020C08AE0989E200D1124922E06C08D32F2
:1047A00091F0803371F7689430F8F30193FD8591AF
:1047B00093FF81913F018111DACF21C0689431F8D4
:1047C000689432F8F2CF689433F8EFCF689434F8F5
:1047D000ECCFEAE02E9E200D1124222E689435F8AD
:1047E000E4CF8E3229F436FC04C1689436F8DDCF6C
:1047F0008C3619F4689437F8D8CF8836B1F2982FF0
:104800009F7D95549330E0F08336A1F18337C1F159
:10481000833509F063C02801F2E04F0E511CF80106
:10482000C080D180692D70E036FC02C06FEF7FEF51
:10483000C6010E9463254C01689437F882010AC0C2
:104840000C5F1F4FFFE3F98388248394912C65014B
:10485000E89437F833FE2DC0522C8114910471F581
:10486000552009F468CFB70180E290E00E947925D5
:104870005A94F6CFF801808189830E5F1F4FE4CFF1
:104880002801F2E04F0E511CF801C080D180692D43
:1048900070E036FC02C06FEF7FEFC6010E946E250C
:1048A0004C018201D5CFB70180E290E00E947925CA
:1048B0002A942814190409F0B0F7CECFF60137FC7A
:1048C000859137FE81916F01B70190E00E947925B3
:1048D00051105A94F1E08F1A9108BFCF843619F025
:1048E000893609F077C0F80137FE6BC060817181AD
:1048F000828193810C5F1F4FF32DFF763F2E97FF30
:1049000009C090958095709561957F4F8F4F9F4F0F
:10491000689437F82AE030E0A5010E94A925C82E46
:10492000CA188C2C432C36FE0CC0E89440F8C914ED
:1049300040F434FE05C032FC03C0F32DFE7E4F2E42
:10494000892C44FE95C0FE01EC0DF11D8081803361
:1049500009F087C0242D297E422E842D8870582E80
:1049600043FC95C040FE8FC09C2C821418F42C0C84
:10497000922C981844FE91C0B70180E390E00E9409
:10498000792542FE09C088E790E041FE02C088E533
:1049900090E0B7010E947925C91408F48AC0CA942E
:1049A000D12C9FEFC91AD90ACA0CDB1CF6018291DF
:1049B0006F01B70190E00E947925AC14BD04B1F7F6
:1049C0004FCF60817181072E000C880B990B0E5F11
:1049D0001F4F92CFD32CE894D4F82AE030E08537EB
:1049E00039F1232D297FD22E8F3601F148F48835F5
:1049F000A9F0F701868197812B96E2E10C94AE2015
:104A0000803749F08837A9F7D4FE02C06894D2F8FD
:104A100020E130E00DC06894D4F8F6CF34FE03C036
:104A2000822F8660D82E20E132E002C028E030E0FC
:104A3000F801D7FE0FC060817181828193810C5F84
:104A40001F4FA5010E94A925C82ECA183D2CE89425
:104A500037F867CF6081718190E080E00E5F1F4F73
:104A6000F0CF42FC02C0839478CF8394839475CFB7
:104A7000842D867809F471CFF6CFB70180E290E0FB
:104A80000E94792583948214C0F3512C73CF522C49
:104A90005818821408F46ECFF8CF842D867809F464
:104AA0007BCF8BE241FE80E247FC8DE2B70190E0D4
:104AB00071CFB70180E390E00E9479259A946CCF82
:104AC0008FEF9FEF99CFFC0105906150704001106E
:104AD000D8F7809590958E0F9F1F0895FC01615027
:104AE000704001900110D8F7809590958E0F9F1F10
:104AF00008950F931F93CF93DF93182F092FEB0186
:104B00008B8181FD09C01FEF0FEF812F902FDF9167
:104B1000CF911F910F91089582FF14C02E813F8184
:104B20008C819D81281739073CF4E881F981CF01F8
:104B300001969983888310838E819F8101969F833C
:104B40008E83E3CFE885F985812F0995892BA1F321
:104B5000DACFFA01AA27283051F1203181F1E89407
:104B60006F936E7F6E5F7F4F8F4F9F4FAF4FB1E060
:104B70003ED0B4E03CD0670F781F891F9A1FA11D5B
:104B8000680F791F8A1F911DA11D6A0F711D811D5C
:104B9000911DA11D20D009F468943F912AE0269F21
:104BA00011243019305D3193DEF6CF010895462F80
:104BB0004770405D4193B3E00FD0C9F7F6CF462F61
:104BC0004F70405D4A3318F0495D31FD40524193CA
:104BD00002D0A9F7EACFB4E0A69597958795779587
:104BE0006795BA95C9F700976105710508959B010E
:104BF000AC010A2E06945795479537952795BA9597
:104C0000C9F7620F731F841F951FA01D089510E040
:104C1000C8E6D0E004C0FE010E9439212196C936C1
:084C2000D107C9F7F894FFCF9A
:104C28002701FFFF557361676520616C6572740029
:104C3800000000000000000000010114FFFFFF0059
:104C480000C30680000000400014005400F802FC75
:104C5800020003040308030C031003140318031CC5
:104C6800032003240328032C033003340338033CB4
:104C7800034003000000008F04EF031C04DC044D14
:104C8800042B043F04000000001807EB066A07C164
:104C980006E406D106C206000000003C0BEF036ADA
:104CA800072E050D0A003D3D20436C6175646520A3
:104CB800436F6465203D3D00574F524B494E4700B6
:104CC800594F555220415245410025732C202573D8
:104CD80020256400253032643A2530326400576557
:104CE8006C636F6D65210052756E20736574757005
:104CF80020746F20737461727400537461727469E4
:104D08006E672075702E2E2E0049444C4500574181
:104D18004954494E4720464F5220494E5055540059
:104D28005045524D495353494F4E3F004F46464C0C
:104D3800494E45006E6F2073657373696F6E00414D
:104D48006C6C207365742100737461727420636CD9
:104D580061756465206E6F77005741524E494E4722
:104D68002100414952205241494420414C45525466
:104D780000494E2025730050524F43454544205466
:104D88004F205348454C5445520041697220616C8C
:104D9800657274206973206F766572004D617920A1
:104DA80074686520666F7263650062652077697450
:104DB8006820796F75004E6F207573616765206490
:104DC8006174610053573A310053573A30005245E5
:104DD80041445900372D4441592055534147450016
:104DE800557361676520616C65727400506C616908
:104DF8006E737461636B00746563686E6F6C6F6764
:104E0800696573004368616F7320696E746F2073FE
:104E1800797374656D732E0053756E004D6F6E0057
:104E280054756500576564005468750046726900DA
:104E3800536174004A616E00466562004D617200FC
:104E4800417072004D6179004A756E004A756C00B8
:104E580041756700536570004F6374004E6F7600AC
:044E6800446563003A
:00000001FF
