:100000000C9469000C9491000C9491000C94910054
:100010000C9491000C9491000C9491000C94671234
:100020000C9491000C9491000C9491000C9491000C
:100030000C9491000C9491000C9491000C949100FC
:100040000C941D120C9491000C940F130C94E91253
:100050000C9491000C9491000C9491000C949100DC
:100060000C9441130C9491001F1C1F1E1F1E1F1F78
:100070001E1F1E00000000230026002900000000B3
:1000800000240027002A00000000080002010000F0
:100090000304070000000000000000010204081033
:1000A00020408001020408102001020408102000F2
:1000B000000000250028002B0004040404040404AC
:1000C0000402020202020203030303030302601498
:1000D0003D2011241FBECFEFD8E0DEBFCDBF26E00C
:1000E000AAE5B3E001C01D92A93DB207E1F713E014
:1000F000A0E0B1E0E8E5FCE402C005900D92AA356D
:10010000B107D9F710E0C8E6D0E004C02197FE019E
:100110000E945121C736D107C9F70E94AD140C9433
:100120001F260C94000008950895833081F028F470
:10013000813099F08230A9F008958730A9F0883095
:10014000C9F08430B1F4809180008F7D03C080912C
:1001500080008F7780938000089584B58F7784BD69
:10016000089584B58F7DFBCF8091B0008F77809309
:10017000B00008958091B0008F7DF9CF1F93CF9389
:10018000DF93282F30E0F901E957FF4F8491F901FF
:10019000E556FF4FD491F901E754FF4FC491CC23AA
:1001A000A9F0162F81110E949500EC2FF0E0EE0FC0
:1001B000FF1FE155FF4FA591B4918FB7F894EC91D3
:1001C000111108C0D095DE23DC938FBFDF91CF9152
:1001D0001F910895DE2BF8CFCF93DF9390E0FC01C1
:1001E000E556FF4F249187549F4FFC01849188234B
:1001F000D1F090E0880F991FFC01E358FF4FA591C3
:10020000B491FC01E155FF4FC591D491623071F476
:100210009FB7F8943C91822F809583238C93E8813B
:100220002E2B28839FBFDF91CF9108958FB7F8942D
:10023000EC912E2B2C938FBFF6CF4F925F926F9243
:100240007F928F929F92AF92BF92CF92DF92EF9266
:10025000FF920F931F93CF93DF9300D000D01F9294
:10026000CDB7DEB78C012A013B0180911E0183309E
:10027000C9F08F3F09F47FC00F900F900F900F903F
:100280000F90DF91CF911F910F91FF90EF90DF9032
:10029000CF90BF90AF909F908F907F906F905F9026
:1002A0004F900895EDECF0E084918D8387FDE4CFCD
:1002B00061E083E00E94EC008D81882321F09D8124
:1002C000923009F05CC14801B12CA12C60E072E1D0
:1002D0008AE790E0A50198010E94322129833A83A0
:1002E0004B835C8369017A0181E0C81AD108E10877
:1002F000F1089FEFC916D104E104F10409F00CF4F0
:1003000013C160E472E48FE090E0A50198010E94BF
:10031000322169017A0181E0C81AD108E108F108A7
:100320009D81923009F098C08FEFC816D104E10486
:10033000F10409F00CF4DDC160E970ED83E090E0B8
:10034000A50198010E94322169017A0191E0C91A40
:10035000D108E108F1088FEFC816D104E104F104D7
:1003600011F00CF0A3C183E09091B100987F892B2C
:100370008093B100E1C083E080931E01EDECF0E0DA
:1003800094919D839F3F09F477CF913029F158F0E4
:10039000923009F43FC08D8187FD6ECF61E083E02C
:1003A0000E94EC008CCF14BC15BC84B5826084BD67
:1003B00085B5816085BDECEBF0E0E491F0E0EE0FF7
:1003C000FF1FE155FF4F85919491EEE9F0E0E49134
:1003D000E093BD051D826CCF1092800010928100C9
:1003E000809181008860809381008091810081608C
:1003F00080938100ECEBF0E0E491F0E0EE0FFF1F62
:10040000E155FF4F85919491EEE9F0E0E491E0939E
:10041000BC054ECF1092B0001092B1008091B00098
:1004200082608093B0008091B10081608093B100C0
:10043000ECEBF0E0E491F0E0EE0FFF1FE155FF4F31
:10044000859194919093BB058093BA05EEE9F0E015
:10045000E491E093B9052CCF9FEFC916D104E104D4
:10046000F10409F00CF489C068E478EE81E090E0D2
:10047000A50198010E94322169017A0181E0C81A20
:10048000D108E108F1089D81992309F428C19FEF63
:10049000C916D104E104F10409F00CF41EC162E1B3
:1004A0007AE780E090E0A50194010E943221690181
:1004B0007A0181E0C81AD108E108F1089D819923E9
:1004C00009F4EBC08FEFC816D104E104F10411F078
:1004D00008F0BFC086E048CF64E274EF80E090E0AF
:1004E000A50194010E94322169017A0181E0C81AB4
:1004F000D108E108F10885E09FEFC916D104E104B5
:10050000F10409F008F430CF62E17AE780E090E08E
:10051000A50194010E94322169017A0191E0C91A72
:10052000D108E108F108CECF81E09D8191111CCF67
:1005300095B5987F892B85BD2FEF3FEFA901411419
:1005400051046104710409F043C09D81913009F4A4
:100550005EC0923009F46DC091118ECEC7BC20935D
:10056000C6053093C7054093C8055093C9058091CF
:100570006E00826080936E007FCE82E0D6CFB12C79
:10058000A12C60E072E18AE790E0A50198010E9449
:10059000322169017A0181E0C81AD108E108F10825
:1005A000C114D10491E0E906F10404F591E08D81D4
:1005B000813011F680918100887F892B80938100A2
:1005C0002FEF3FEFA9014114510461047104F9F0C8
:1005D000D801AA0FBB1FA30192010E949F2028EE01
:1005E00033E040E050E00E941021AFCF68E478EEA5
:1005F00081E090E0A50198010E94322169017A0111
:1006000081E0C81AD108E108F10893E0D0CFD09278
:100610008900C09288002093C2053093C30540939F
:10062000C4055093C50580916F00826080936F0070
:1006300023CEC092B3002093BE053093BF054093F4
:10064000C0055093C1058091700082608093700056
:1006500013CEC980DA80EB80FC809AE0F594E794B1
:10066000D794C7949A95D1F791E0C91AD108E108B7
:10067000F10887E079CEC980DA80EB80FC808AE0DF
:10068000F594E794D794C7948A95D1F791E0C91A65
:10069000D108E108F10885E04BCF8FEFC816D104EF
:1006A000E104F10409F038F784E042CF68E478EE21
:1006B00081E090E0A50198010E94322169017A0150
:1006C00091E0C91AD108E108F1088FEFC816D104EA
:1006D000E104F10411F00CF0FFCE84E045CE8FEF81
:1006E000C816D104E104F10411F00CF0D8CE83E077
:1006F0001FCF82E039CE3FB7F89480918D0590915D
:100700008E05A0918F05B091900526B5A89B05C0D8
:100710002F3F19F00196A11DB11D3FBFBA2FA92F80
:10072000982F8827BC01CD01620F711D811D911D7D
:1007300042E0660F771F881F991F4A95D1F70895E9
:100740008F929F92AF92BF92CF92DF92EF92FF92E1
:100750004B015C010E947B036B017C010E947B03C7
:100760006C197D098E099F09683E734081059105CA
:10077000A8F321E0821A9108A108B10888EEC80EFA
:1007800083E0D81EE11CF11C81149104A104B10482
:1007900029F7FF90EF90DF90CF90BF90AF909F90A0
:1007A0008F9008952FB7F8946091890570918A050C
:1007B00080918B0590918C052FBF0895FC012481B9
:1007C00035816217730748F480819181009729F081
:1007D000860F971FFC018081089580E00895AF92F5
:1007E000BF92CF92DF92EF92FF920F931F93CF931E
:1007F000DF936C017B018B01040F151FEB015E0180
:10080000AE18BF08C017D10759F06991D601ED9114
:10081000FC910190F081E02DC6010995892B79F7B3
:10082000C501DF91CF911F910F91FF90EF90DF9065
:10083000CF90BF90AF900895FC01538D448D252F2C
:1008400030E0842F90E0821B930B541710F0CF966A
:10085000089501970895FC01918D828D981761F09C
:10086000A28DAE0FBF2FB11D5D968C91928D9F5FB3
:100870009F73928F90E008958FEF9FEF0895FC0192
:10088000918D828D981731F0828DE80FF11D858D45
:1008900090E008958FEF9FEF0895FC01918D228DD8
:1008A000892F90E0805C9F4F821B91098F7399275D
:1008B00008958AE196E00E944D0421E0892B09F415
:1008C00020E0822F089580E090E0892B29F00E949B
:1008D000590481110C9400000895FC01A48DA80F07
:1008E000B92FB11DA35ABF4F2C91848D90E0019672
:1008F0008F739927848FA689B7892C93A089B18992
:100900008C91837080648C93938D848D981306C032
:100910000288F389E02D80818F7D80830895EF9296
:10092000FF920F931F93CF93DF93EC0181E0888FA9
:100930009B8D8C8D98131AC0E889F989808185FF79
:1009400015C09FB7F894EE89FF896083E889F9891B
:1009500080818370806480839FBF81E090E0DF911D
:10096000CF911F910F91FF90EF900895F62E0B8D70
:1009700010E00F5F1F4F0F731127E02E8C8D8E112B
:100980000CC00FB607FCFACFE889F989808185FF92
:10099000F5CFCE010E946D04F1CFEB8DEC0FFD2F52
:1009A000F11DE35AFF4FF0829FB7F8940B8FEA894D
:1009B000FB8980818062CFCFCF93DF93EC01888D5C
:1009C0008823B9F0AA89BB89E889F9898C9185FDCA
:1009D00003C0808186FD0DC00FB607FCF7CF8C9158
:1009E00085FFF2CF808185FFEDCFCE010E946D049F
:1009F000E9CFDF91CF910895FC0161819081492F6A
:100A000050E08281282F30E0E8E6F0E081E08617B0
:100A100030F47491270F311D8F5F3196F8CF63301A
:100A200020F0937011F42F5F3F4F6DE671E0469F09
:100A3000C001479F900D569F900D112405964D5F64
:100A40005F4F5695479556954795840F951F820F92
:100A5000931F67E070E00E94FC20089508952091A4
:100A6000D003260F3327331F21323105ECF42091B8
:100A7000F005FC0190E080E0243069F082E0089508
:100A8000A091D0032191AC0140555C4FA40FB52F2C
:100A9000B11D2C930196861798F38091D003680FAF
:100AA0006093D00380E0089581E008951092F005EE
:100AB00081E08093EF051092CA0561E082E10E9417
:100AC000BE0061E083E10E94BE00E9EBF0E08081BE
:100AD0008E7F808380818D7F808388E48093B800BF
:100AE00085E48093BC0008951092980510929705B4
:100AF0001092F705109219060E94560583E990E0BE
:100B0000909394058093930584E990E090939205E7
:100B1000809391050895CF93DF9391E09093AF0375
:100B20008823B9F0C091B800D091BA008091BC0080
:100B30008A7B8093BC0060E082E10E94BE0060E09E
:100B400083E10E94BE000E945605D093BA00C09374
:100B5000B800DF91CF9108958F929F92AF92BF928C
:100B6000CF92DF92EF92FF920F931F93CF93DF9379
:100B7000D0911906D13208F0D7C0182FC0911806AD
:100B80000E947B036B017C018091F00581116BC099
:100B900082E08093F0051093EF058FEF8093EE05D0
:100BA0001092ED05D093EC05A8EFB5E0ECECF5E084
:100BB00080E0D81391C01092CB058091CB05CC0F6B
:100BC000C82BC093CB058091CA05813009F088C03D
:100BD0001092CA050E947B036B017C018091CB05BA
:100BE0008093BB008091F2059091F305A091F405EC
:100BF000B091F505892B8A2B8B2BA1F00E947B03EA
:100C00000091F2051091F3052091F4053091F5055E
:100C10006C197D098E099F090617170728073907E0
:100C200008F442C08091BC0083FDD8CF85EC80934E
:100C3000BC000E947B036B017C018091F005823037
:100C400009F450C08091EE058F3F09F46FC0809188
:100C5000EE05803209F46CC08091EE05803309F412
:100C600069C084E026C08091F2059091F305A091BF
:100C7000F405B091F505892B8A2B8B2B09F484CFD1
:100C80000E947B038090F2059090F305A090F405FC
:100C9000B090F5056C197D098E099F098616970697
:100CA000A806B90608F070CF8091F1050E948B0567
:100CB00085E01092F705109219061092F605DF9163
:100CC000CF911F910F91FF90EF90DF90CF90BF9049
:100CD000AF909F908F9008959D9191938F5F69CF72
:100CE00085EEA5CF8091F2059091F305A091F405D2
:100CF000B091F505892B8A2B8B2B09F49ECF0E948E
:100D00007B030091F2051091F3052091F4053091D9
:100D1000F5056C197D098E099F0906171707280725
:100D2000390708F08ACFC0CF81E0C3CF80E0C1CFC0
:100D300082E0BFCF83E0BDCFCF93DF93EC018B8107
:100D40008823A1F0888191E09093F605809318069E
:100D50001092F7051092190681E00E94AC0591E00F
:100D6000811190E0892FDF91CF9108950E94740541
:100D700081E08B83CE010E949C06982F8111E2CFE7
:100D8000F1CF0895E091980580919705E81730F428
:100D9000F0E0E756FA4F808190E008958FEF9FEFE3
:100DA000089590919805809197052FEF3FEF981740
:100DB00048F4E92FF0E0E756FA4F208130E09F5FDA
:100DC00090939805C9010895809197059091980591
:100DD000891B990B0895CF92DF92EF92FF920F93A8
:100DE0001F93CF93DF937C01CB018A012091F605FD
:100DF000222389F0EB016B01C40ED51ECC15DD0555
:100E000069F06991D701ED91FC910190F081E02D9D
:100E1000C7010995F3CF642F0E942F05C801DF9108
:100E2000CF911F910F91FF90EF90DF90CF90089599
:100E3000CF93DF931F92CDB7DEB769832091F6057C
:100E40002223F9F020911906203258F021E030E0F9
:100E5000FC013383228390E080E00F90DF91CF91FB
:100E600008958091F705E82FF0E0E850FA4F998156
:100E700090838F5F8093F7058093190681E090E05F
:100E8000ECCF61E0CE0101960E942F05F7CFFC0167
:100E9000248131E03093F605209318061092F7056F
:100EA000109219068385682B87EB96E00E9418073D
:100EB00081E00C94AC051092D40660E089EC96E0D9
:100EC0000C94470788E08093D40660E089EC96E0B4
:100ED0000C94470790E080E008951092FD04109272
:100EE000FF041092FE040E94D20360557B4F8F4F87
:100EF0009F4F6093000570930105809302059093C6
:100F000003050895FC0130911C01232F353608F0AC
:100F100024E640E1249FC001112464E670E00E94B1
:100F2000FC20462F3A3090F480E28083205D2183BC
:100F300095E292838383349680E090E2841708F4EC
:100F40009FEF91938F5F8031C1F70895343660F43D
:100F5000822F6AE00E94F020805D8083905D918303
:100F600085E2828380E2E6CF81E3808380E3818330
:100F7000828385E2DFCF8091010181118091190187
:100F80000895CF93DF93C82F0E94BB07882309F4ED
:100F900024C1CA3008F021C1EC2FF0E0EE52F84F26
:100FA0000C945121DC071B08330848085D087E08B3
:100FB0009F08C208F0081F0940E550E060E070E0BB
:100FC00087E194E00E941D016FE570E080E090E011
:100FD0000E94A00340E550E060E070E087E994E003
:100FE0000E941D016FE570E080E090E00E94A00388
:100FF00040E550E060E070E087E295E00E941D016E
:101000006FE570E080E090E00E94A00344E650E0CD
:1010100060E070E080E296E00E941D0163E770E00E
:1010200080E090E00E94A00344E051E060E070E0C6
:101030008DE298E014C04CE350E060E070E08BE497
:1010400092E00E941D016FE570E080E090E00E9458
:10105000A00340E550E060E070E080E793E0DF91BE
:10106000CF910C941D0140E550E060E070E087E214
:1010700095E00E941D0162E870E080E090E00E942F
:10108000A00340E550E060E070E087E194E0E7CF46
:1010900040E550E060E070E083E992E00E941D01CD
:1010A00062E870E080E090E00E94A00340E550E03C
:1010B00060E070E08BE092E0D2CF47E350E060E088
:1010C00070E080E296E00E941D0160E570E080E043
:1010D00090E00E94A00347E350E060E070E087E208
:1010E00095E00E941D0160E570E080E090E00E94C4
:1010F000A00346E450E060E070E0C7CF47E350E073
:1011000060E070E080E193E00E941D0160E570E026
:1011100080E090E00E94A00347E350E060E070E0D0
:1011200083E992E00E941D0160E570E080E090E0BC
:101130000E94A00346E450E060E070E0BBCF47E3CC
:1011400050E060E070E083E992E00E941D0165E5F7
:1011500070E080E090E00E94A00347E350E060E090
:1011600070E080E793E00E941D0165E570E080E09B
:1011700090E00E94A0034AE550E060E070E087E262
:1011800095E06DCFC0E0D4E046E950E060E070E06B
:1011900087E194E00E941D0160EA70E080E090E049
:1011A0000E94A00346E950E060E070E084EE92E027
:1011B0000E941D0160EA70E080E090E00E94A003C0
:1011C000D15011F7C23031F060E971E080E090E079
:1011D0000E94A003CF5FC330B1F6DF91CF91089595
:1011E0004AE550E060E070E08BE092E00E941D0173
:1011F0006EE670E080E090E00E94A0034AE550E0D7
:1012000060E070E083E992E00E941D016EE670E00C
:1012100080E090E00E94A0034AE550E060E070E0CA
:1012200080E193E00E941D016EE670E080E090E0B6
:101230000E94A00348EC50E060E070E026CF42E35B
:1012400050E060E070E08DE298E00E941D016AE5E8
:1012500070E080E090E00E94A00342E350E060E094
:1012600070E0E6CE2F923F924F925F926F927F9204
:101270008F929F92AF92BF92CF92DF92EF92FF92A6
:101280000F931F93CF93DF935C011B016A01F12C35
:10129000E12CD50114968D919C9186010E191F09A0
:1012A0008017910708F48C01F501D0810E947B031F
:1012B0002B013C018091F005811172C0C02F0132D9
:1012C00008F0C0E2F1E0F093F00521E0C601801BD8
:1012D000910BE816F90608F420E02093EF058FEF54
:1012E0008093EE051092ED058C0F8093EC05A1E044
:1012F000A093CB058091CB05DD0FD82BD093CB05E8
:101300008091CA05813009F090C01092CA050E94F0
:101310007B032B013C018091CB058093BB00809126
:10132000F2059091F305A091F405B091F505892B94
:101330008A2B8B2BA1F00E947B032091F205309128
:10134000F3054091F4055091F50564197509860976
:101350009709261737074807590708F442C08091B4
:10136000BC0083FDD8CFB5ECB093BC000E947B03DA
:101370002B013C018091F005813009F45AC0809125
:10138000ED058C1710F4C091ED05ACECB5E0E9E982
:10139000F5E080E08C1751F19D9191938F5FFACF2A
:1013A0008091F2059091F305A091F405B091F505B7
:1013B000892B8A2B8B2B09F47DCF0E947B032091F4
:1013C000F2053091F3054091F4055091F50564194B
:1013D000750986099709261737074807590708F03E
:1013E00069CF8091F1050E948B05C0E010929805AD
:1013F000C0939705C017110609F057C041018E0C24
:101400009F1CE401CE01881999098017910798F56E
:10141000D50111968D919C91DC01ED91FC91028496
:10142000F385E02D09958993EDCFE5EEE093BC00BF
:101430009DCF8091F2059091F305A091F405B091B4
:10144000F505892B8A2B8B2B09F494CF0E947B0303
:101450002091F2053091F3054091F4055091F50586
:101460006419750986099709261737074807590728
:1014700008F080CFB6CFE00EF11EEC14FD0408F4A6
:1014800008CF81E0DF91CF911F910F91FF90EF90F6
:10149000DF90CF90BF90AF909F908F907F906F9094
:1014A0005F904F903F902F90089580E0EBCF1F9377
:1014B000CF93DF93DC011496ED91FC91E417F507CF
:1014C00010F490E01FC0122FEA01FC01818192818B
:1014D000208131E03093F605209318061092F7052D
:1014E00010921906DC01ED91FC910280F381E02D50
:1014F0000995C817D90729F7812F0E94AC0591E0FB
:101500008111DFCF892FDF91CF911F910895EF9245
:10151000FF920F931F93CF93DF9300D000D000D0A2
:101520001F92CDB7DEB78C011982E0909505F0903F
:10153000960520E041E050E0BE016F5F7F4FC7019C
:101540000E94570A882341F047E050E0BE016F5FD8
:101550007F4FC7010E943209E981EF77FA81FB8052
:101560005D814E814F778F81282F30E094E0359553
:1015700027959A95E1F7922F990F990F291B220F22
:10158000280FD8012C93842F90E024E0959587951F
:101590002A95E1F7982F990F990F891B880F840FCF
:1015A00011968C931197652F70E034E075956795CF
:1015B0003A95E1F7862F880F880F681B660F650F35
:1015C00012966C9312974F2D50E064E05595479515
:1015D0006A95E1F7842F880F880F481B440F4F0D41
:1015E00013964C9313972F2F30E074E03595279581
:1015F0007A95E1F7822F880F880F281B220F2F0F73
:1016000014962C9314978E2F90E0F4E0959587957F
:10161000FA95E1F7982F990F990F891B880F8E0F74
:1016200015968C93C80127960FB6F894DEBF0FBEAF
:10163000CDBFDF91CF911F910F91FF90EF90089553
:101640000F931F93CF938C01C62F0E9447076C2FD7
:101650006460C8010E9447076C2F6B7FC8010E941D
:10166000470783EC90E00197F1F7CF911F910F911D
:1016700008950F931F93CF93DF938C01D62FC42F20
:10168000607F642B0E94200B80E1D89FB001112461
:101690006C2BC801DF91CF911F910F910C94200BFF
:1016A00041E00E94390B81E090E0089541E0682F0D
:1016B00089EC96E00E94390B81E090E0089540E0CB
:1016C000682F89EC96E00C94390BCF93DF93CDB75C
:1016D000DEB728970FB6F894DEBF0FBECDBF98E0F7
:1016E000E5E2F1E0DE01119601900D929A95E1F7A5
:1016F0009091D106961710F46FEF690F70E0660FA6
:10170000771F21E030E02C0F3D1F620F731FFB019C
:101710009081890F806828960FB6F894DEBF0FBEBF
:10172000CDBFDF91CF910C945F0B9F92AF92BF9290
:10173000CF92DF92EF92FF920F931F93CF93DF939D
:10174000982E6B0185E1989E80011124055A1C4F4B
:10175000D0E0C0E08FEFFC2EF601E1906F01909198
:101760005A035801AC0EBD1E992321F0F50190815A
:101770009E1501F18F1521F0692D8F2D0E94650BAB
:101780008E2D0E94560BF501E08281E08F0D21968F
:10179000C431D10501F781E080935A03DF91CF91E5
:1017A0001F910F91FF90EF90DF90CF90BF90AF907F
:1017B0009F9008958FEFEBCF81E00E945F0B8BE34A
:1017C0009FE10197F1F708950F931F93CF93DF9354
:1017D000FC01048115810115110539F4FB0110820A
:1017E000DF91CF911F910F910895415051094017FA
:1017F000510708F48A01EB01FC0160817181A801A5
:10180000CE010E946223C00FD11F1882E9CFCF936F
:10181000DF93FC0101900020E9F73197AF01481BED
:10182000590BBC018AE196E00E94EF03EC0142E013
:1018300050E063E871E08AE196E00E94EF038C0FCC
:101840009D1FDF91CF910895809186059091870526
:101850000397029768F424E035E0F9010190002035
:10186000E9F79F012550354081E02531310508F425
:1018700080E008954F925F926F927F928F929F9235
:10188000AF92BF92CF92DF92EF92FF92CF93C0912F
:101890001B018FEF8C0F833608F05EC00E94240C72
:1018A00081115AC00E947B034B015C012C2F30E058
:1018B000A0EABFE00E94E12024E6422E512C612CD8
:1018C000712CA30192010E94102169017A0188EC18
:1018D000C80ED11CE11CF11CC80CD91CEA1CFB1C55
:1018E00024E630E02C1B3109A0EABFE00E94E12091
:1018F000A30192010E94102149015A0180911A010D
:10190000882351F10E947B034090BA045090BB049D
:101910006090BC047090BD0464197509860997092C
:1019200097FD12C00E945B0710921A010E947B0370
:10193000680D791D8A1D9B1D6093BA047093BB04CA
:101940008093BC049093BD040E947B036C197D09B5
:101950008E099F0997FDD2CFCF91FF90EF90DF9036
:10196000CF90BF90AF909F908F907F906F905F903F
:101970004F900895FC0180819181009711F00C94A3
:10198000FA210895CF93DF93809195059091960564
:10199000009711F00E94FA2186E090E00E945E21FB
:1019A000EC0188E6888387EB96E09A8389831B8223
:1019B00080E290E09D838C83D0939605C09395053B
:1019C0000E94740581E08B83CE01DF91CF910C944E
:1019D0009C06FC0180819181009711F00C944120BC
:1019E00060E070E0CB010895FB0101900020E9F771
:1019F0003197E61BE53108F0E4E14E2F50E024E199
:101A000030E0241B350B35952795820F931F0C94DE
:101A10004023AF92BF92CF92DF92EF92FF920F934B
:101A20001F93CF93DF93DC01CD90DC901197C1140D
:101A3000D10439F01496CD91DC918C017601209778
:101A400061F4DF91CF911F910F91FF90EF90DF90A4
:101A5000CF90BF90AF90089575015701BFEFAB1ABB
:101A6000BB0AF7018081082E000C990B0E947D2093
:101A7000892B91F72197CC0DDD1D8881082E000C54
:101A8000990B0E947D20892B29F0CE15DF0510F0DF
:101A90002197F3CFAE014F5F5F4F4E195F09D80119
:101AA00015965C934E931497CE14DF0420F4B7017F
:101AB000C6010E944023D801ED91FC911197149624
:101AC0008D919C91E80FF91F1082BBCFCF93DF93CC
:101AD000FC01248135814217530788F4C081D181EC
:101AE000062E000C770BCE01840F951F0E94502309
:101AF000009729F08C1B9D0BDF91CF9108958FEFFC
:101B00009FEFFACF50E040E00C94660D0F931F93C7
:101B1000CF93DF93EC0188819981009759F02A8156
:101B20003B812617370730F081E0DF91CF911F917D
:101B30000F9108958B016F5F7F4F0E948322009762
:101B400059F0998388831B830A832C813D81232B41
:101B500059F7FC011082E8CF80E0E7CFEF92FF92C7
:101B60000F931F93CF93DF93EC017B018A01BA019E
:101B70000E94860D28813981811114C021153105FB
:101B800019F0C9010E94FA21198218821D821C8253
:101B90001B821A82CE01DF91CF911F910F91FF908E
:101BA000EF9008951D830C83B701C9010E945B2348
:101BB000F1CFFB01DC0111961C921E9213961C9230
:101BC0001E92129715961C921E92149786179707CD
:101BD00049F0608171816115710521F04481558161
:101BE0000C94AE0D0895FC011182108213821282B2
:101BF00015821482FB0101900020E9F73197AF01B3
:101C0000461B570B0C94AE0DAF92BF92CF92DF9252
:101C1000EF92FF920F931F93CF93DF93EC016B0131
:101C20005A0179012417350720F48B2D5901E42E30
:101C3000F82E65E871E0CE010E94F30DD6011496EE
:101C40000D911C91A016B10628F5E016F10608F4D6
:101C50008701D601ED91FC911197E00FF11FF08003
:101C600010826D917C916A0D7B1D61157105F1F0FB
:101C7000FB0101900020E9F73197AF01461B570B9C
:101C8000CE010E94AE0DF60180819181080F191FCF
:101C9000D801FC92CE01DF91CF911F910F91FF905F
:101CA000EF90DF90CF90BF90AF9008958881998199
:101CB000009711F00E94FA21198218821D821C825D
:101CC0001B821A82E0CFCF93DF93EC01FB012481CA
:101CD00035810E94040ECE01DF91CF91089585EDEC
:101CE0008093BC008091F2059091F305A091F405DA
:101CF000B091F5050796A11DB11D23E0B695A795F6
:101D0000979587952A95D1F72091BC0024FD03C0B3
:101D10001092F00508954091F2055091F3056091FD
:101D2000F4057091F505452B462B472B69F3009779
:101D3000A105B10541F02AE22A95F1F700C001970B
:101D4000A109B109E1CF8091F1050C948B05EF92C7
:101D5000FF920F931F93CF93DF93CDB7DEB7C55795
:101D6000D1090FB6F894DEBF0FBECDBF0E94BB07EE
:101D7000882309F41BC144E150E060E270E0CE0129
:101D800001960E94492344E150E060E270E0CE01F8
:101D900045960E94492344E150E060E270E0CE01A4
:101DA00089960E94492344E150E060E270E0CE0150
:101DB000CD960E94492380915D05882369F064E0F7
:101DC00071E0CE0101960E94F40C61E574E0CE0151
:101DD00089960E94F40CCAC000918605109187056F
:101DE000C8010697039760F08091630566E871E08B
:101DF000882311F063E675E0CE0101960E94F40C91
:101E00000B30110508F0B2C0F801E75FF04F0C94F9
:101E10005121140F910FA20FEB0F0E1011101A1079
:101E20005410851042104B1080916205882309F4EC
:101E300062C0CE0180599F4F0E94870AE396FFAC93
:101E4000E397E296EFADE297E150FF0BEE0FFF1F35
:101E5000E55CFE4F10810181CE0180599F4F0E94A9
:101E6000FC041F92FF920F931F93E82FF0E0EE0FF8
:101E7000FF1FE35DFE4F81818F9380818F938EEBF7
:101E800091E09F938F931F928CE08F937E0181E569
:101E9000E80EF11CFF92EF920E947123E5968FAD40
:101EA000E5971F928F93E4968FADE4971F928F93DF
:101EB00088EC91E09F938F931F9286E08F938E0121
:101EC00006591F4F1F930F930E947123B701CE0134
:101ED00045960E94F40CB801CE0189960E94F40C3C
:101EE000E5968FADE59780931D010FB6F894DEBFA0
:101EF0000FBECDBF3BC08091F303811109C062EDDD
:101F000071E0CE0145960E94F40C6BED71E05FCF5D
:101F10006EEE71E0CE0145960E94F40C65E871E02A
:101F200056CF6DEF71E0CE0189960E94F40C80913E
:101F3000BE0468E971E0882311F06EEB74E0CE0115
:101F4000CD9647CF8091E8046CEA71E0882311F0C8
:101F500068EE74E0CE0189960E94F40C80911C0119
:101F60008F3F91F1CE01CD960E9482070E943A0CDC
:101F7000BE016F5F7F4F80E00E94950B0E943A0C7C
:101F8000BE016B5E7F4F81E00E94950B0E943A0C70
:101F9000BE01675D7F4F82E00E94950B0E943A0C64
:101FA000BE01635C7F4F83E00E94950BCB58DF4FEF
:101FB0000FB6F894DEBF0FBECDBFDF91CF911F915A
:101FC0000F91FF90EF9008958091D30463ED74E03A
:101FD000882361F2B4CF62E072E0CE0189960E945C
:101FE000F40C84E095E0FC0101900020E9F7CF01BA
:101FF00085509540982F815064E075E0843108F455
:102000009ECF953108F4B2CF84E1E4E0F5E0DE0143
:10201000DD9601900D928A95E1F7A8CF64E172E018
:10202000DCCF60E272E0CE0189960E94F40C68E297
:1020300072E085CF80919004882331F060E974E0EC
:10204000CE0101960E94F40C8091A504882331F002
:1020500065EA74E0CE0145960E94F40C80917B0401
:10206000882331F06BE774E0CE0189960E94F40C6E
:102070008091660466E871E0882309F460CF66E623
:1020800074E05DCF63E372E0CE0189960E94F40CA8
:102090006CE372E054CF6CE374E0CE0189960E9449
:1020A000F40C67E274E04BCF6DE472E0CE01019670
:1020B0000E94F40C66E572E0CE0145960E94F40C95
:1020C0008091FD0381111EC084EB91E09F938F935B
:1020D00085E692E09F938F931F9289E18F938E0103
:1020E0000F5A1F4F1F930F930E947123B801CE0107
:1020F00089960E94F40C6BE672E0CE01CD960E94A8
:10210000F40CF3CE8DEF93E0E1CF6EE772E0CE01F9
:1021100001960E94F40C60E972E0CE0189960E945B
:10212000F40C6EE972E00BCFCF93C82F0E94BB076F
:102130008C1769F08823E1F00E94A70E80911B01A3
:10214000843638F00E94620781E080931A01CF91B3
:1021500008958823E1F310921A010E947B03609393
:10216000BA047093BB048093BC049093BD04EFCF7A
:102170000E945B0710921A010E94DC0BEBE5F3E072
:1021800084E5DF011D928A95E9F710925A03DFCFAB
:102190000F931F93CF93DF930091860510918705CE
:1021A0000817190709F46DC0909387058093860579
:1021B0008230910521F01092D3041092E8049C0122
:1021C0002350310922303105E0F51092A504109218
:1021D000900410927B04109266048730910589F078
:1021E0001092820510928305109284051092850545
:1021F00020917D05211102C01092FD0388309105C8
:1022000059F010927E0510927F0510928005109271
:1022100081058A30910521F010923C041092270428
:10222000EC010E946D070E94A70E0115110579F4BB
:10223000299739F580E0DF91CF911F910F910C9490
:10224000C107109204058630910551F2BECF87E098
:10225000C730D10581F388E0C830D10561F386E04D
:10226000C430D10541F381E0C330D10521F3C93039
:10227000D10501F3219729F40230110511F489E009
:10228000DACFDF91CF911F910F910895EF92FF92D6
:102290000F931F93CF93DF93CDB7DEB764970FB63D
:1022A000F894DEBF0FBECDBF082F7B010E94BB0795
:1022B000882359F1F70101900020E9F731971E2F8B
:1022C0001E19153108F014E144E150E060E270E0BD
:1022D000CE0101960E944923412F50E084E190E015
:1022E000841B950B95958795B70121E030E02C0F65
:1022F0003D1F820F931F0E9440230E943A0CBE0193
:102300006F5F7F4F802F0E94950B64960FB6F894F5
:10231000DEBF0FBECDBFDF91CF911F910F91FF9018
:10232000EF9008951F93CF93DF93CDB7DEB76497F7
:102330000FB6F894DEBF0FBECDBF182F44E150E0BA
:1023400060E270E0CE0101960E9449230E943A0C9F
:10235000BE016F5F7F4F812F0E94950B64960FB671
:10236000F894DEBF0FBECDBFDF91CF911F910895CE
:102370000F931F93CF93DF93CDB7DEB764970FB65C
:10238000F894DEBF0FBECDBF0E94BB07882371F05B
:1023900044E055E0FA0101900020E9F7AF01455013
:1023A000554041110EC083E00E94921164960FB611
:1023B000F894DEBF0FBECDBFDF91CF911F910F917B
:1023C0000895453138F58A01112744E150E060E273
:1023D00070E0CE0101960E94492384E190E0801BC9
:1023E000910B97FD019695958795A80164E075E09E
:1023F00021E030E02C0F3D1F280F311DC9010E9444
:1024000040230E943A0CBE016F5F7F4F83E00E9421
:10241000950BCCCF4451E091FD044E1708F4E42F06
:10242000F0E0EC5FFA4FDE011196CE014596219166
:102430002D93A817B907D9F7E4CF1F920F920FB6C3
:102440000F9211242F933F938F939F93AF93BF933A
:102450008091890590918A05A0918B05B0918C059A
:102460003091880523E0230F2D3758F50196A11DE3
:10247000B11D209388058093890590938A05A093C8
:102480008B05B0938C0580918D0590918E05A09160
:102490008F05B09190050196A11DB11D80938D050A
:1024A00090938E05A0938F05B0939005BF91AF9147
:1024B0009F918F913F912F910F900FBE0F901F9082
:1024C000189526E8230F0296A11DB11DD2CF1F92A9
:1024D0000F920FB60F9211242F933F934F935F9358
:1024E0006F937F938F939F93AF93BF93EF93FF93DC
:1024F0008091BE059091BF05A091C005B091C10526
:10250000892B8A2B8B2BD1F19091B905E091BA05DB
:10251000F091BB058081892780838091BE059091D1
:10252000BF05A091C005B091C105181619061A067D
:102530001B069CF48091BE059091BF05A091C0053B
:10254000B091C1050197A109B1098093BE0590938F
:10255000BF05A093C005B093C105FF91EF91BF9156
:10256000AF919F918F917F916F915F914F913F912B
:102570002F910F900FBE0F901F90189580911E0104
:10258000EDECF0E0E4919FEF90931E01E13051F00B
:1025900030F0E23069F060E00E94BE00DECF1092C1
:1025A0006E00F9CF90916F009D7F90936F00F3CFF5
:1025B000909170009D7F9093700091E09093B00097
:1025C0009091B100987F94609093B1001092B30005
:1025D000E2CF1F920F920FB60F9211242F933F93C9
:1025E0004F935F936F937F938F939F93AF93BF931B
:1025F000EF93FF938AE196E00E946D04FF91EF91C3
:10260000BF91AF919F918F917F916F915F914F910A
:102610003F912F910F900FBE0F901F9018951F9212
:102620000F920FB60F9211242F938F939F93EF93D6
:10263000FF93E0912A06F0912B068081E09130060D
:10264000F091310682FD1BC09081809133068F5F2F
:102650008F7320913406821741F0E0913306F0E049
:10266000E65EF94F958F80933306FF91EF919F912E
:102670008F912F910F900FBE0F901F901895808112
:10268000F4CF1F920F920FB60F9211242F933F9306
:102690004F935F936F937F938F939F93AF93BF936A
:1026A000EF93FF938091B900887F803609F44AC088
:1026B000F0F5883209F4A7C018F5803109F49BC001
:1026C000B8F4882309F4F9C0883009F494C0FF9164
:1026D000EF91BF91AF919F918F917F916F915F919A
:1026E0004F913F912F910F900FBE0F901F90189513
:1026F000883109F488C0803251F78093EE0514C008
:10270000803409F49DC040F48033B9F38833F9F67E
:102710008093EE0585ECB0C0803509F485C088351E
:1027200009F496C0883499F60E946F0ED0CF88398C
:1027300009F48CC038F5883729F050F4883611F048
:10274000803729F683E08093F0051092F20357C09A
:10275000883809F47BC0803919F0803809F0B7CF88
:102760008091F203803208F071C0E091F20381E0C1
:102770008E0F8093F2038091BB00F0E0EE52FC4F8D
:1027800080833DC0803B39F0E0F4803A09F479C0A1
:10279000883A09F09CCF84E08093F0051092D10331
:1027A0001092D003E0919305F091940509958091E2
:1027B000D00381110FC081E08093D0031092B00349
:1027C00009C0803C09F4A6CF883C09F4A3CF883B1C
:1027D00009F07DCFE091D10381E08E0F8093D1038A
:1027E000F0E0E055FC4F80818093BB009091D103D5
:1027F0008091D00329C08091CB058093BB0085ECEC
:102800008093BC0064CF9091ED058091EC05981702
:1028100058F5E091ED0581E08E0F8093ED05F0E035
:10282000E453FA4F8081E9CFE091ED0581E08E0F0E
:102830008093ED058091BB00F0E0E453FA4F808374
:102840009091ED058091EC059817C8F285E8D8CFF6
:10285000E091ED0581E08E0F8093ED058091BB0046
:10286000F0E0E453FA4F80838091EF0581115CCF53
:1028700081E08093CA0584EA8093BC001092F00541
:1028800026CF85EC8093BC001092F0058091F20376
:10289000803230F4E091F203F0E0EE52FC4F10820F
:1028A0006091F20370E0E0919105F091920582ED64
:1028B00093E009951092F2030ACF1092EE0534CFFF
:1028C000EAE1F6E01382128288EE93E0A0E0B0E045
:1028D00084839583A683B78327E531E03183208302
:1028E00025EC30E03587248724EC30E037872687D5
:1028F00020EC30E0318B208B21EC30E0338B228BCD
:1029000022EC30E0358B248B26EC30E0378B268BA5
:10291000118E128E138E148EE7EBF6E01382128264
:1029200084839583A683B78389E691E0918380832E
:10293000E9ECF6E0138212828BE791E091838083C9
:1029400087E2848384E1818784E08287138665E857
:1029500071E083EC96E00C94F30DCF93DF93CDB749
:10296000DEB7C754D1090FB6F894DEBF0FBECDBF96
:10297000789484B5826084BD84B5816084BD85B55A
:10298000826085BD85B5816085BD80916E00816066
:1029900080936E001092810080918100826080930C
:1029A000810080918100816080938100809180000E
:1029B0008160809380008091B10084608093B10039
:1029C0008091B00081608093B00080917A00846033
:1029D00080937A0080917A00826080937A0080915F
:1029E0007A00816080937A0080917A008068809379
:1029F0007A001092C100E0912A06F0912B0682E045
:102A00008083E0912606F09127061082E091280647
:102A1000F09129068FEC808310923206E0912E0609
:102A2000F0912F0686E08083E0912C06F0912D0630
:102A3000808180618083E0912C06F0912D06808159
:102A400088608083E0912C06F0912D06808180685B
:102A50008083E0912C06F0912D0680818F7D80830C
:102A600061E084E00E94EC0061E084E00E94BE002E
:102A700062E087E00E94EC0061E083E00E94EC00ED
:102A800060E083E00E94BE000E9474058CE08093A9
:102A9000B80011E01093F60587E2809318061092B3
:102AA000F7051092190681E00E94AC05882381F099
:102AB0001093F6051FE3109318061092F705109275
:102AC000190681E00E94AC05811102C0109300013B
:102AD000809100011092CC061092CB068093CD0617
:102AE0001092CE061092CF061092D0061092D10608
:102AF00084E18093D20684E08093D3061092D406BA
:102B00000E9474051092CE068091D306823018F090
:102B100098E09093CE068093D10662E370E080E067
:102B200090E00E94A0036091D40689EC96E00E9498
:102B3000470768EE73E080E090E00E94A00360E346
:102B400089EC96E00E94200B0BE416E4C801019783
:102B5000F1F760E389EC96E00E94200BC801019731
:102B6000F1F760E389EC96E00E94200B83E592E0A8
:102B70000197F1F760E289EC96E00E94200B8091CA
:102B8000CE0680620E945F0B84E08093CF068CE0CB
:102B90000E945F0B0E94DC0B82E08093D00686E0EF
:102BA0000E945F0B82E00E945F0B8BE39FE1019725
:102BB000F1F70E94620781E080931A010E947B0373
:102BC0006B017C0120911B0130E0A0EABFE00E9474
:102BD000E12024E630E040E050E00E941021C20EE7
:102BE000D31EE41EF51EC092BA04D092BB04E0923C
:102BF000BC04F092BD048091CF068D7F8093CF06F8
:102C000088600E945F0B8091CF068E7F8093CF06F5
:102C100088600E945F0B0E94C20C80936205811144
:102C20000AC062E370E080E090E00E94A0030E948E
:102C3000C20C8093620590E080E00E94892091E0C0
:102C4000853A09F090E09093F3038BE0E1EEF2E037
:102C5000DE01929601900D928A95E1F78DE0ECEEFF
:102C6000F2E0DE01559601900D928A95E1F784E13C
:102C7000E9EFF2E08E010F5F1F4FD80101900D9236
:102C80008A95E1F70E94DC0B6E0122E2C20ED11C94
:102C9000E5E0FE2E260161E08F2D0E94650BF60116
:102CA00081916F010E94560B6CE370E080E090E030
:102CB0000E94A003F394FFE0FF12EDCF5E0125E137
:102CC000A20EB11C74E0D72EFA2CEB2C62E08D2DF5
:102CD0000E94650BF50181915F010E94560B6CE328
:102CE00070E080E090E00E94A003D394F0E1DF1256
:102CF000EDCF6CE271E080E090E00E94A0034E0115
:102D000023E1821A910864E1A62EB12C63E080E0F1
:102D10000E94650BD12CC12CC6018A199B094397CF
:102D200008F08AC1F401EC0DFD1D80810E94560B54
:102D30003FEFC31AD30A44E1C416D10469F76EE128
:102D400070E080E090E00E94A00351E0A51AB10875
:102D50008FEF881A980A9FEFA916B906B9F660EFA7
:102D60007AE080E090E00E94A0030E94A70E82EC2F
:102D700092E00E94070C0E94BB078823A1F0D0902C
:102D80001B018FEF8D0D833670F40E94240C882375
:102D900009F454C180911A01811105C00E94620793
:102DA00081E080931A01EEE8F0E08491E2EAF0E03D
:102DB000D490E0ECF0E0C490CC2009F484C18111FF
:102DC0000E949500EC2DF0E0EE0FFF1FED58FF4F35
:102DD000A591B491EC91DE2291E080E009F490E0BD
:102DE000C92ED82EA09003018A2D0A2C000C990B15
:102DF0008C159D0509F46AC1C09203010E94D2039B
:102E00006093F9037093FA038093FB039093FC03A0
:102E10008091860590918705079709F58090820536
:102E200090908305A0908405B0908505811491044D
:102E3000A104B104D9F10E94D203681979098A0961
:102E40009B0997FD33C01092820510928305109262
:102E500084051092850581E090E00E94C810809161
:102E6000860590918705089709F580907E059090DA
:102E70007F05A0908005B090810581149104A10484
:102E8000B104A1F00E94D203681979098A099B094B
:102E900097FD0CC010927E0510927F051092800560
:102EA0001092810581E090E00E94C81080917D051C
:102EB000882309F46BC08090790590907A05A090E2
:102EC0007B05B0907C0581149104A104B10479F1D3
:102ED0000E94D203681979098A099B0997FD27C0C6
:102EE00010927D05109278051092790510927A055E
:102EF00010927B0510927C050E94BB07882309F481
:102F000045C0809186059091870506970397F0F15B
:102F10008091630563E675E0811102C066E871E0A7
:102F200080E00E94461180917D05882379F180918F
:102F30008605909187050797029740F10E94BB078D
:102F4000882321F10E94D20328E833E140E050E0D9
:102F50000E941021DA01C90180959095A095B09545
:102F6000817090917805891789F08093780566E5DE
:102F700072E020FF08C08091630563E675E081116F
:102F800002C066E871E080E00E9446113324339469
:102F900048E0242E8AE196E00E944D04892B09F432
:102FA00025C78AE196E00E942B04C090C706D09006
:102FB000C8068A3019F08D3009F0F4C6CD2851F3D7
:102FC00063EC76E0CE01C9960E94D90DCE01C99678
:102FD0000E94090DCDACDEACC114D10409F475C159
:102FE00070E060E0CE01C9960E94DE03EFEBE80FCF
:102FF000EA3108F06AC10E2E000CFF0BEE5FF74EAF
:103000000C945121591E1B1C6519461CBA1C6519CC
:10301000E719671B271965196A1A221A9A1B9F1943
:1030200078197219C519221D65197B19611CB51E05
:103030002C1975190C1DB61B80E278CE0E947B03FB
:103040004B015C018091BA049091BB04A091BC0437
:10305000B091BD04A5019401281B390B4A0B5B0BF1
:10306000DA01C901B7FD9FCE80911A018823F9F0DA
:103070000E945B0710921A01A4E6B0E0AD19B109F5
:1030800020EA3FE00E94572124E630E040E050E093
:103090000E941021820E931EA41EB51E8092BA04B7
:1030A0009092BB04A092BC04B092BD047CCE0E945E
:1030B000620781E080931A012D2D30E0A0EABFE085
:1030C0000E94E120E1CFD12CC12C8CCE0E94D203F2
:1030D0002091F9033091FA034091FB035091FC03D6
:1030E000621B730B840B950B6E3171058105910585
:1030F00008F48ECEB09002018B2D0B2C000C990B96
:103100008C159D0509F05CC0CA94CD2809F080CECD
:1031100041E0B4127DCE8091F803811179CE0E94F6
:10312000D2032091F4033091F5034091F6035091BE
:10313000F703621B730B840B950B683E734081058C
:10314000910508F465CEB092F8030E94BB0788236E
:1031500009F45ECE48E250E060E070E080E296E084
:103160000E941D0144E150E068EC72E084E091E0CF
:103170000E946223109218018091120462E174E0AF
:10318000811102C06AEA72E044E150E081E594E016
:103190000E9462231092650481E080935D050E9485
:1031A000D20368577C4E8F4F9F4F609359057093A1
:1031B0005A0580935B0590935C050E94A70E28CE6C
:1031C000A09202018FEFB81609F422CECA94CD283E
:1031D00069F40E94D2036093F4037093F503809323
:1031E000F6039093F7031092F80312CE8091F80340
:1031F00081110ECE8091860590918705079769F41D
:103200001092820510928305109284051092850514
:1032100081E090E00E94C810FBCD0E94BB0788238C
:1032200069F0109201010E9494100E94BB0788234C
:1032300059F088EB92E00E94070CEACD91E0909360
:10324000010190931901EFCF8DEB92E0F4CF81E073
:1032500090E00E94C81039C0E3E0CE16D10418F106
:1032600061E070E0CE01C9960E94DE038A33D9F492
:1032700042E050E0BE01675C7F4FC8010E94630ED0
:1032800045E150E068EE74E0C8010E94E40BC8011B
:103290000E94BA0C8091860590918705029731F0C3
:1032A00082E090E0D6CF1092E804F4CF0E94BB07F2
:1032B000882359F08091E80468EE74E0811102C01F
:1032C0006CEA71E082E00E944611CE01C9960E942C
:1032D000BA0C50E040E065E871E083EC96E00E94B3
:1032E000AE0D58CE83E090E0B4CF84E090E0B1CF53
:1032F00085E090E0AECF6AE3CE01C9960E94820DD0
:10330000AC014F5F5F4FBE01675C7F4FC8010E94F9
:10331000630E45E150E063ED74E0C8010E94E40BE8
:103320008091860590918705029739F480911C0160
:1033300063ED74E08F3F09F446C0C801F9C06AE349
:10334000CE01C9960E94820DAC014F5F5F4FBE0156
:10335000675C7F4FC8010E94630E41E550E064E066
:1033600075E0C8010E94E40B809186059091870565
:103370000397029728F40E946D070E94B811DDCFD1
:1033800083E090E00E94C810D8CF6AE3CE01C996CE
:103390000E94820DAC014F5F5F4FBE01675C7F4FA3
:1033A000C8010E94630E45E150E06EEB74E0C80175
:1033B0000E94E40B8091860590918705019709F0A2
:1033C000BCCF6EEB74E083E00E944611B6CF6AE397
:1033D000CE01C9960E94820D97FD77CFAC014F5F59
:1033E0005F4FBE01675C7F4FC8010E94630EC8013A
:1033F0000E94E90C4B015C01C8010E94BA0CF5E681
:103400008F169104A104B10408F05FCF80921C01D3
:103410008091860590918705029709F056CF0E940A
:10342000BB07882309F451CF80915D0581114DCFF1
:10343000C8010E9482070E943A0CB80183E00E94F2
:10344000950B43CF6AE3CE01C9960E94820D97FD8A
:103450003CCFAC014F5F5F4FBE01675C7F4FC8013F
:103460000E94630EC8010E94E90C4B015C01C80177
:103470000E94BA0C25E682169104A104B10408F05A
:1034800024CF80921B010E94BB07882309F41DCF23
:1034900081149104A104B10429F40E945B071092E5
:1034A0001A0113CF34E683169104A104B10429F460
:1034B0000E94620730921A0108CF10921A010E94EE
:1034C0007B036093BA047093BB048093BC04909315
:1034D000BD04FBCE6AE3CE01C9960E94820D97FD22
:1034E0002AC0AC014F5F5F4FBE01675C7F4FCE01CA
:1034F000C3960E94630E6CE7CE01C3960E94820DB4
:103500004C0197FF1FC045E150E065EA74E0CE0131
:10351000C3960E94E40B80918605909187050697DB
:1035200009F49DC086E090E00E94C810CE01C396C9
:103530000E94BA0CCACE65E871E0CE01C3960E9423
:10354000F30DD9CF3C014FEF641A740AA3016CE765
:10355000CE01C3960E94660D6C01AA24AA94BA2CCF
:1035600097FD09C0AC014F5F5F4F6CE7CE01C3967A
:103570000E94660D5C01940150E040E0BE016D5C6C
:103580007F4FCE018D960E94040ED7FE41C0A3014D
:10359000BE016D5C7F4FC2010E94630E65E871E061
:1035A0008F2D9E2D0E94F30DB7FE4FC065E871E090
:1035B000C8010E94F30D45E150E065EA74E0CE01D8
:1035C0008D960E94E40B45E150E060E974E0C20191
:1035D0000E94E40B45E150E06BE774E08F2D9E2DD7
:1035E0000E94E40B45E150E066E674E0C8010E94E9
:1035F000E40BC8010E94BA0C8F2D9E2D0E94BA0CBC
:10360000C2010E94BA0CCE018D960E94BA0C83CFE3
:103610009601A301BE016D5C7F4FC2010E94040EA2
:10362000A6014F5F5F4FB7FE08C0BE016D5C7F4FC4
:103630008F2D9E2D0E94630EB9CF9501BE016D5C4A
:103640007F4F8F2D9E2D0E94040EA5014F5F5F4F6F
:10365000BE016D5C7F4FC8010E94630EACCF0E941B
:10366000BB07882309F462CF80919004882319F165
:1036700060E974E080E00E9446118091A5048823EF
:10368000F1F065EA74E081E00E94461180917B04CC
:103690008823C9F06BE774E082E00E9446118091B4
:1036A000660466E674E0811102C066E871E083E0BA
:1036B0000E9446113BCF80E00E949211DECF81E054
:1036C0000E949211E3CF82E00E949211E8CF6AE358
:1036D000CE01C9960E94820D97FD26C0AC014F5FB6
:1036E0005F4FBE01675C7F4FC8010E94630E45E1DA
:1036F00050E063E675E0C8010E94E40B0E94BB073E
:10370000882309F41ACE8091860590918705069743
:1037100009F413CE8091630563E675E0811102C060
:1037200066E871E080E050CE65E871E0C8010E9473
:10373000F30DDDCF52E0C516D10408F4C6CD0E94CA
:10374000BB07D82E61E070E0CE01C9960E94DE036F
:10375000803331F4109219018D2D0E949410B5CD53
:10376000813309F0B2CD30921901F6CF0E94BB0728
:10377000882309F4AACD6AE3CE01C9960E94820D7E
:1037800097FDA3CDAC014F5F5F4FBE01675C7F4FDC
:103790008F2D9E2D0E94630E6CE28F2D9E2D0E9418
:1037A000820D6C0197FD44C09C0150E040E06F2DFC
:1037B0007E2DC8010E94040EC8010E94E90C2496C7
:1037C0006CAF7DAF8EAF9FAF2497C8010E94BA0C3B
:1037D000A6014F5F5F4F6F2D7E2DC8010E94630EC3
:1037E000C8010E94E90C4B015C01C8010E94BA0C9F
:1037F00024968CAD9DADAEADBFAD24974F97A1097A
:10380000B10981309E44A105B10590F4D501C401F0
:103810000197A109B109803D9740A105B10540F488
:10382000B501A40122968EAD9FAD22970E941D0185
:103830008F2D9E2D7DCE23E0C216D10440F061E095
:1038400070E0CE01C9960E94DE038A3319F090E041
:1038500080E0FFCC42E050E0BE01675C7F4FC801D2
:103860000E94630EC8010E94E90C4B015C01C80173
:103870000E94BA0C3FEF83169104A104B10411F029
:1038800008F023CD882D0E94C1071FCD89E090E06C
:103890000E94C8100E94D20360935E0570935F057A
:1038A000809360059093610590E080E00E948920FC
:1038B000853A09F40ACD65EA90E080E00E94912003
:1038C00004CD6AE3CE01C9960E94820DAC014F5F20
:1038D0005F4FBE01675C7F4FC2010E94630E6CE7C1
:1038E000C2010E94820D6C0197FD39C09C0150E01D
:1038F00040E0B2018F2D9E2D0E94040EA6014F5F65
:103900005F4FB201C8010E94630E45E150E064E0E0
:1039100071E08F2D9E2D0E94E40B45E150E061E5A2
:1039200074E0C8010E94E40B30925D050E94D2034E
:1039300068577C4E8F4F9F4F6093590570935A057F
:1039400080935B0590935C050E94A70EC8010E94BE
:10395000BA0C8F2D9E2D0E94BA0CC201E9CD65EDE7
:1039600072E08F2D9E2D0E94F30DB201C8010E94BE
:10397000D90DCBCF6AE3CE01C9960E94820D97FD87
:103980003AC0AC014F5F5F4FBE01675C7F4FC20121
:103990000E94630E6CE7C2010E94820D6C0197FDCC
:1039A00030C09C0150E040E0B2018F2D9E2D0E945E
:1039B000040EA6014F5F5F4FB201C8010E94630E63
:1039C00045E150E06CE374E08F2D9E2D0E94E40BE6
:1039D00045E150E067E274E0C8010E94E40B809189
:1039E0008605909187050A9709F4AECF8AE090E0AA
:1039F0000E94C810ABCF65E871E0C2010E94F30DD0
:103A0000C9CFB2018F2D9E2D0E94D90D65E871E0BE
:103A1000C8010E94F30DD4CF6AE3CE01C9960E947B
:103A2000820DAC014F5F5F4FBE01675C7F4FC801E5
:103A30000E94630E45E150E062E174E0C8010E941B
:103A4000E40B7BCC80916205882309F43ECC45E1F0
:103A5000C416D10408F439CC61E070E0CE01C996F7
:103A60000E94DE038A3309F030CC26E030E042E0E9
:103A700050E0BE01675C7F4FC8010E94040EC80180
:103A80000E94E90C4B01C8010E94BA0C29E030E009
:103A900047E050E0BE01675C7F4FC8010E94040E02
:103AA000C8010E94E90C24966CAF7DAF8EAF9FAF2A
:103AB0002497C8010E94BA0C2CE030E04AE050E0A4
:103AC000BE01675C7F4FC8010E94040EC8010E94BE
:103AD000E90C28966CAF7DAF8EAF9FAF2897C801D9
:103AE0000E94BA0C2FE030E04DE050E0BE01675C70
:103AF0007F4FC8010E94040EC8010E94E90C762E77
:103B0000C8010E94BA0C22E130E040E150E0BE0161
:103B1000675C7F4FC8010E94040EC8010E94E90C37
:103B2000D62EC8010E94BA0C25E130E043E150E0F6
:103B3000BE01675C7F4FC8010E94040EC8010E944D
:103B4000E90CC62EC8010E94BA0CC401885E9740D9
:103B50008C34910508F0B9CB22968EAD9FAD22979B
:103B600001970C9708F0B1CB26968EAD9FAD2697A6
:103B700001974F9708F0A9CB50ED851A57E0950AA9
:103B80008D8A21968FAD21978E8B25969FAD259797
:103B90009F8B788ED98ECA8EF801222D11922A958C
:103BA000E9F72AE08C2D622F0E94F020982F990FC0
:103BB000890F880FC80ECA828D2D0E94F020982F81
:103BC000990F890F880FD80EDB82872D0E94F02075
:103BD000982F990F890F880F780E7C828F2D9E2D3C
:103BE0000E94FC04382F811101C037E02AE0832FA6
:103BF000622F0E94F020982F880F890F880F830F63
:103C00008D833F89832F0E94F020982F880F890F82
:103C1000880F830F8E833E89832F0E94F020982F78
:103C2000880F890F880F830F8F833D89832F0E9410
:103C3000F020982F880F890F880F830F888721E045
:103C400048E050E0BE016F5F7F4F809195059091F5
:103C500096050E94570A2FE0D22EDFAE21E041E008
:103C600050E0BE01615C7F4F809195059091960573
:103C70000E94570A41E050E0BE016E5D7F4F809187
:103C80009505909196050E9432098AA1DAA28F7754
:103C90008BA321E042E050E0BE016E5D7F4F80913A
:103CA0009505909196050E94570A8FEF80931D010C
:103CB0000CCB33E0C316D10440F061E070E0CE01DC
:103CC000C9960E94DE038A3369F144E150E064EB57
:103CD00071E08DEF93E00E9462230E94D203605E48
:103CE000714B8F4F9F4F6093790570937A05809346
:103CF0007B0590937C0580917D058111E6CA309209
:103D00007D050E94D203605F784D8F4F9F4F609377
:103D1000820570938305809384059093850587E0E1
:103D200090E097CA42E050E0BE01675C7F4FC80157
:103D30000E94630EC8010E94090D8D819E81892B0E
:103D400059F045E150E06DEF73E0C8010E94E40BCB
:103D5000C8010E94BA0CC1CF44E150E064EB71E0AD
:103D60008DEF93E00E946223F3CF10927D051092B5
:103D700078051092790510927A0510927B051092C1
:103D80007C050E94D203605F784D8F4F9F4F6093F8
:103D90007E0570937F05809380059093810588E070
:103DA00090E057CA40E4C416D10408F0F3C88983F0
:103DB0001A825FEFC51AD50AB60183EC96E00E941D
:103DC000860D882309F4E6C82091C3063091C40605
:103DD0008091C7069091C806B801820F931F0E9478
:103DE0005B23D092C806C092C706D4C80E94BB0706
:103DF000882309F4C0C080915D0581113AC080918B
:103E00008605909187050397029798F5E4E0F5E021
:103E100001900020E9F7CF01855095406C0194E1B5
:103E20009C1538F50E94D203809000059090010502
:103E3000A0900205B09003059B01AC012819390937
:103E40004A095B0949015A01B7FC0EC02091FE04E2
:103E50003091FF042130310509F4E4C008F4D4C0E6
:103E60002230310509F4FEC00E94BB07882309F403
:103E700082C08091860590918705892B09F07BC0CF
:103E800080916205882309F476C080915D058111D7
:103E900072C00E94D2038090550590905605A09064
:103EA0005705B09058059B01AC01281939094A09FA
:103EB0005B0949015A0138EE831633E09306A104E9
:103EC000B10408F458C0609355057093560580936B
:103ED000570590935805C2010E94870A8EA19091C0
:103EE0001D01891709F447C080931D01DCA0EBA1D7
:103EF000E150FF0BEE0FFF1FE55CFE4FC080B1806D
:103F0000C2010E94FC041F92DF92BF92CF92E82F61
:103F1000F0E0EE0FFF1FE35DFE4F81818F93808104
:103F20008F938EEB91E09F938F931F928CE08F93F2
:103F30001F930F930E9471238EA11F928F938DA1C7
:103F40001F928F9388EC91E09F938F931F9286E04E
:103F50008F93EF92FF920E947123B80181E00E943B
:103F600046116F2D7E2D82E00E9446110FB6F89407
:103F7000DEBF0FBECDBF8091860590918705099762
:103F8000D9F4809162058823B9F00E94D203809011
:103F90005E0590905F05A0906005B090610568197E
:103FA00079098A099B09603C744D8140910520F094
:103FB00090E080E00E94C81080915D058823A1F008
:103FC0000E94D2038090590590905A05A0905B05FD
:103FD000B0905C05681979098A099B0997FD04C0AE
:103FE00010925D050E94A70E80E090E0892B11F4ED
:103FF0000C94BB160E945904882311F40C94BB1630
:104000000E9400000C94BB1621E02093FD0421E0E7
:1040100030E03093FF042093FE0466507F4F8F4FB3
:104020009F4F15C02CEE2C0D3091FD043F5F309357
:10403000FD04321790F32093FD0422E030E030932A
:10404000FF042093FE0464527A4F8F4F9F4F60937A
:1040500000057093010580930205909303050E946B
:10406000B81102CF1092FD041092FF041092FE04CA
:1040700060557B4F8F4F9F4FEACF83EC96E00C94B7
:10408000BA0C1F93FC0199278827BC01E894119171
:104090001032E9F3193010F01E30C8F31B3251F022
:1040A0001D3249F4689406C00E946820610F711D9A
:1040B000811D911D119110531A30B0F33EF490956B
:1040C0008095709561957F4F8F4F9F4F1F910895F9
:1040D000592F482F372F262F660F771F881F991FBC
:1040E000660F771F881F991F620F731F841F951F0C
:1040F000660F771F881F991F089591110C948620D1
:10410000803219F089508550C8F70895992788277B
:104110000895F999FECF92BD81BDF89A992780B58F
:104120000895262FF999FECF1FBA92BD81BD20BDFB
:104130000FB6F894FA9AF99A0FBE019608950E9464
:10414000E120A59F900DB49F900DA49F800D911D1F
:10415000112408952F923F924F925F926F927F9217
:104160008F929F92AF92BF92CF92DF92EF92FF9287
:104170000F931F93CF93DF93CDB7DEB7CA1BDB0B33
:104180000FB6F894DEBF0FBECDBF09942A883988D8
:1041900048885F846E847D848C849B84AA84B984DF
:1041A000C884DF80EE80FD800C811B81AA81B981EB
:1041B000CE0FD11D0FB6F894DEBF0FBECDBFED01FF
:1041C0000895A29FB001B39FC001A39F700D811DF0
:1041D0001124911DB29F700D811D1124911D089510
:1041E000991B79E004C0991F961708F0961B881F49
:1041F0007A95C9F780950895AA1BBB1B51E107C0AA
:10420000AA1FBB1FA617B70710F0A61BB70B881F66
:10421000991F5A95A9F780959095BC01CD010895F5
:10422000A1E21A2EAA1BBB1BFD010DC0AA1FBB1FBA
:10423000EE1FFF1FA217B307E407F50720F0A21B2C
:10424000B30BE40BF50B661F771F881F991F1A9499
:1042500069F760957095809590959B01AC01BD01C3
:10426000CF010895052E97FB1EF400940E9449216A
:1042700057FD07D00E94102107FC03D04EF40C9488
:10428000492150954095309521953F4F4F4F5F4FB5
:10429000089590958095709561957F4F8F4F9F4FB2
:1042A0000895EE0FFF1F0590F491E02D09940E94F0
:1042B000E120B7FF0895821B930B08950F931F937E
:1042C000CF93DF938230910510F482E090E0E0918B
:1042D000D706F091D80630E020E0B0E0A0E03097BB
:1042E00099F42115310509F44AC0281B390B2430F3
:1042F0003105D8F58A819B816115710589F1FB0132
:1043000093838283FE0111C0408151810281138118
:1043100048175907E0F04817590799F4109761F0CA
:1043200012960C93129713961C933296CF01DF913D
:10433000CF911F910F9108950093D7061093D8063F
:10434000F4CF2115310551F04217530738F0A90178
:10435000DB019A01BD01DF01F801C1CFEF01F9CF07
:104360009093D8068093D706CDCFFE01E20FF31FBE
:10437000819391932250310939832883D7CF20919B
:10438000D5063091D606232B41F42091210130919E
:1043900022013093D6062093D50620911F0130913B
:1043A00020012115310541F42DB73EB7409123017D
:1043B00050912401241B350BE091D506F091D606CF
:1043C000E217F307A0F42E1B3F0B2817390778F0EC
:1043D000AC014E5F5F4F2417350748F04E0F5F1F4B
:1043E0005093D6064093D506819391939FCFF0E0EA
:1043F000E0E09CCFCF93DF930097E9F0FC01329788
:1044000013821282A091D706B091D806ED0130E058
:1044100020E01097A1F420813181820F931F209119
:10442000D5063091D6062817390709F061C0F093F8
:10443000D606E093D506DF91CF910895EA01CE1715
:10444000DF07E8F54A815B819E0141155105B1F70F
:10445000E901FB83EA8349915991C40FD51FEC17F9
:10446000FD0761F4808191810296840F951FE90117
:1044700099838883828193819B838A83F0E0E0E043
:1044800012968D919C9113970097B9F52D913C91BF
:104490001197CD010296820F931F2091D50630917E
:1044A000D6062817390739F6309751F51092D806F5
:1044B0001092D706B093D606A093D506BCCFD3836F
:1044C000C28340815181840F951FC817D90761F4B9
:1044D0004E5F5F4F88819981480F591F51834083F8
:1044E0008A819B81938382832115310509F0B0CFA6
:1044F000F093D806E093D7069ECFFD01DC01C0CF34
:1045000013821282D7CFB0E0A0E0E9E8F2E20C9487
:10451000AC208C01009751F4CB010E945E218C01EC
:10452000C801CDB7DEB7E0E10C94C820FC01E60F6E
:10453000F71F9C0122503109E217F30708F49DC0D0
:10454000D901CD91DC911197C617D70798F0C530E6
:10455000D10530F3CE0104978617970708F3C61BE1
:10456000D70B2297C193D1936D937C93CF010E9477
:10457000FA21D6CF5B01AC1ABD0A4C018C0E9D1EF0
:10458000A091D706B091D806512C412CF12CE12CEA
:10459000109731F58091D5069091D606881599052A
:1045A00009F05CC04616570608F058C080911F01FC
:1045B00090912001009741F48DB79EB7409123015F
:1045C00050912401841B950BE817F90708F055C09A
:1045D000F093D606E093D506F90171836083A0CFEE
:1045E0008D919C91119712966C90129713967C90D6
:1045F0001397A815B90559F56C0142E0C40ED11CFA
:10460000CA14DB0420F1AC014A195B09DA011296E5
:10461000159780F06282738251834083D9016D9334
:104620007C93E114F10471F0D7011396FC93EE939F
:10463000129776CF22968C0F9D1FF901918380836C
:10464000F301EFCFF093D806E093D70669CF481671
:10465000590608F42C017D01D3019ACFCB010E94A9
:104660005E217C01009749F0AE01B8010E94402311
:10467000C8010E94FA21870153CF10E000E050CF1B
:10468000FB01DC0102C001900D9241505040D8F76F
:104690000895DC0101C06D9341505040E0F708954A
:1046A000FC018191861721F08823D9F79927089575
:1046B0003197CF010895FB01DC0101900D9200209C
:1046C000E1F70895FB01DC014150504048F00190B2
:1046D0000D920020C9F701C01D9241505040E0F7F3
:1046E0000895AEE0B0E0E7E7F3E20C94B8200D895E
:1046F0001E898F89988D26E02C831A83098397FF62
:1047000002C080E090E801979E838D83AE01455EF4
:104710005F4F698D7A8DCE0101960E94A1234D8154
:104720005E8157FD0AC02F813885421753070CF46C
:104730009A01020F131FF80110822E96E4E00C94E8
:10474000D420ABE0B0E0E7EAF3E20C94AA207C01CD
:104750003B018A01FC0117821682838181FFC8C157
:10476000CE0101965C01F7019381F30193FD8591E0
:1047700093FF81913F01882309F453C1853239F4B5
:1047800093FD859193FF81913F01853229F4B70113
:1047900090E00E949125E7CF912C212C312CFFE154
:1047A000F31538F08B3211F190F4803209F1833235
:1047B00029F137FC3CC020ED280F2A3050F536FE99
:1047C00020C08AE0989E200D1124922E06C08D32C2
:1047D00091F0803371F7689430F8F30193FD85917F
:1047E00093FF81913F018111DACF21C0689431F8A4
:1047F000689432F8F2CF689433F8EFCF689434F8C5
:10480000ECCFEAE02E9E200D1124222E689435F87C
:10481000E4CF8E3229F436FC04C1689436F8DDCF3B
:104820008C3619F4689437F8D8CF8836B1F2982FBF
:104830009F7D95549330E0F08336A1F18337C1F129
:10484000833509F063C02801F2E04F0E511CF801D6
:10485000C080D180692D70E036FC02C06FEF7FEF21
:10486000C6010E947B254C01689437F882010AC07A
:104870000C5F1F4FFFE3F98388248394912C65011B
:10488000E89437F833FE2DC0522C8114910471F551
:10489000552009F468CFB70180E290E00E9491258D
:1048A0005A94F6CFF801808189830E5F1F4FE4CFC1
:1048B0002801F2E04F0E511CF801C080D180692D13
:1048C00070E036FC02C06FEF7FEFC6010E948625C4
:1048D0004C018201D5CFB70180E290E00E94912582
:1048E0002A942814190409F0B0F7CECFF60137FC4A
:1048F000859137FE81916F01B70190E00E9491256B
:1049000051105A94F1E08F1A9108BFCF843619F0F4
:10491000893609F077C0F80137FE6BC0608171817C
:10492000828193810C5F1F4FF32DFF763F2E97FFFF
:1049300009C090958095709561957F4F8F4F9F4FDF
:10494000689437F82AE030E0A5010E94C125C82EFE
:10495000CA188C2C432C36FE0CC0E89440F8C914BD
:1049600040F434FE05C032FC03C0F32DFE7E4F2E12
:10497000892C44FE95C0FE01EC0DF11D8081803331
:1049800009F087C0242D297E422E842D8870582E50
:1049900043FC95C040FE8FC09C2C821418F42C0C54
:1049A000922C981844FE91C0B70180E390E00E94D9
:1049B000912542FE09C088E790E041FE02C088E5EB
:1049C00090E0B7010E949125C91408F48AC0CA94E6
:1049D000D12C9FEFC91AD90ACA0CDB1CF6018291AF
:1049E0006F01B70190E00E949125AC14BD04B1F7AE
:1049F0004FCF60817181072E000C880B990B0E5FE1
:104A00001F4F92CFD32CE894D4F82AE030E08537BA
:104A100039F1232D297FD22E8F3601F148F48835C4
:104A2000A9F0F701868197812B96E2E10C94C620CC
:104A3000803749F08837A9F7D4FE02C06894D2F8CD
:104A400020E130E00DC06894D4F8F6CF34FE03C006
:104A5000822F8660D82E20E132E002C028E030E0CC
:104A6000F801D7FE0FC060817181828193810C5F54
:104A70001F4FA5010E94C125C82ECA183D2CE894DD
:104A800037F867CF6081718190E080E00E5F1F4F43
:104A9000F0CF42FC02C0839478CF8394839475CF87
:104AA000842D867809F471CFF6CFB70180E290E0CB
:104AB0000E94912583948214C0F3512C73CF522C01
:104AC0005818821408F46ECFF8CF842D867809F434
:104AD0007BCF8BE241FE80E247FC8DE2B70190E0A4
:104AE00071CFB70180E390E00E9491259A946CCF3A
:104AF0008FEF9FEF99CFFC0105906150704001103E
:104B0000D8F7809590958E0F9F1F0895FC016150F6
:104B1000704001900110D8F7809590958E0F9F1FDF
:104B200008950F931F93CF93DF93182F092FEB0155
:104B30008B8181FD09C01FEF0FEF812F902FDF9137
:104B4000CF911F910F91089582FF14C02E813F8154
:104B50008C819D81281739073CF4E881F981CF01C8
:104B600001969983888310838E819F8101969F830C
:104B70008E83E3CFE885F985812F0995892BA1F3F1
:104B8000DACFFA01AA27283051F1203181F1E894D7
:104B90006F936E7F6E5F7F4F8F4F9F4FAF4FB1E030
:104BA0003ED0B4E03CD0670F781F891F9A1FA11D2B
:104BB000680F791F8A1F911DA11D6A0F711D811D2C
:104BC000911DA11D20D009F468943F912AE0269FF1
:104BD00011243019305D3193DEF6CF010895462F50
:104BE0004770405D4193B3E00FD0C9F7F6CF462F31
:104BF0004F70405D4A3318F0495D31FD405241939A
:104C000002D0A9F7EACFB4E0A69597958795779556
:104C10006795BA95C9F700976105710508959B01DD
:104C2000AC010A2E06945795479537952795BA9566
:104C3000C9F7620F731F841F951FA01D089510E010
:104C4000C8E6D0E004C0FE010E9451212196C93679
:084C5000D107C9F7F894FFCF6A
:104C58002701FFFF557361676520616C65727400F9
:104C6800000000000000000000010114FFFFFF0029
:104C780000D906800000004000140054000D031104
:104C880003150319031D032103250329032D0331EC
:104C980003350339033D034103450349034D0351DC
:104CA800035503000000008F04EF031C04DC044DCF
:104CB800042B043F04000000001807EB066A07C134
:104CC80006E406D106C20600000000500BEF036A96
:104CD800072E050D0A003D3D20436C617564652073
:104CE800436F6465203D3D006177616974696E6753
:104CF800206C696D697420696E666F00574F524B5E
:104D0800494E4700594F555220415245410025739D
:104D18002C20257320256400253032643A25303252
:104D2800640057656C636F6D65210052756E207362
:104D38006574757020746F20737461727400537495
:104D4800617274696E672075702E2E2E0049444C6E
:104D5800450057414954494E4720464F5220494E35
:104D6800505554005045524D495353494F4E3F00FA
:104D78004F46464C494E45006E6F20736573736904
:104D88006F6E00416C6C20736574210073746172DE
:104D98007420636C61756465206E6F7700574152AB
:104DA8004E494E4721004149522052414944204131
:104DB8004C45525400494E2025730050524F4345EC
:104DC800454420544F205348454C544552004169AE
:104DD8007220616C657274206973206F7665720049
:104DE8004D61792074686520666F7263650062653D
:104DF800207769746820796F75004E6F207573612C
:104E0800676520646174610053573A310053573A1B
:104E180030005245414459005765656B6C792075DF
:104E28007361676500557361676520616C657274AD
:104E380000506C61696E737461636B0074656368BC
:104E48006E6F6C6F67696573004368616F73206983
:104E58006E746F2073797374656D732E0053756E5D
:104E6800004D6F6E00547565005765640054687591
:104E78000046726900536174004A616E00466562BB
:104E8800004D617200417072004D6179004A756E83
:104E9800004A756C0041756700536570004F637474
:0A4EA800004E6F76004465630000C1
:00000001FF
