:100000000C9469000C9491000C9491000C94910054
:100010000C9491000C9491000C9491000C948A1112
:100020000C9491000C9491000C9491000C9491000C
:100030000C9491000C9491000C9491000C949100FC
:100040000C9440110C9491000C9432120C940C12EC
:100050000C9491000C9491000C9491000C949100DC
:100060000C9464120C9491001F1C1F1E1F1E1F1F56
:100070001E1F1E00000000230026002900000000B3
:1000800000240027002A00000000080002010000F0
:100090000304070000000000000000010204081033
:1000A00020408001020408102001020408102000F2
:1000B000000000250028002B0004040404040404AC
:1000C0000402020202020203030303030302831376
:1000D0009A1D11241FBECFEFD8E0DEBFCDBF25E0B3
:1000E000A4ECB2E001C01D92AB3CB207E1F712E014
:1000F000A0E0B1E0E6EEF6E402C005900D92A43C6B
:10010000B107D9F710E0C8E6D0E004C02197FE019E
:100110000E94981EC736D107C9F70E94CE130C94CF
:1001200066230C94000008950895833081F028F42C
:10013000813099F08230A9F008958730A9F0883095
:10014000C9F08430B1F4809180008F7D03C080912C
:1001500080008F7780938000089584B58F7784BD69
:10016000089584B58F7DFBCF8091B0008F77809309
:10017000B00008958091B0008F7DF9CF1F93CF9389
:10018000DF93282F30E0F901E957FF4F8491F901FF
:10019000E556FF4FD491F901E754FF4FC491CC23AA
:1001A000A9F0162F81110E949500EC2FF0E0EE0FC0
:1001B000FF1FE155FF4FA591B4918FB7F894EC91D3
:1001C000111108C0D095DE23DC938FBFDF91CF9152
:1001D0001F910895DE2BF8CFCF93DF9390E0FC01C1
:1001E000E556FF4F249187549F4FFC01849188234B
:1001F000D1F090E0880F991FFC01E358FF4FA591C3
:10020000B491FC01E155FF4FC591D491623071F476
:100210009FB7F8943C91822F809583238C93E8813B
:100220002E2B28839FBFDF91CF9108958FB7F8942D
:10023000EC912E2B2C938FBFF6CF4F925F926F9243
:100240007F928F929F92AF92BF92CF92DF92EF9266
:10025000FF920F931F93CF93DF9300D000D01F9294
:10026000CDB7DEB78C012A013B01809109018330B3
:10027000C9F08F3F09F47FC00F900F900F900F903F
:100280000F90DF91CF911F910F91FF90EF90DF9032
:10029000CF90BF90AF909F908F907F906F905F9026
:1002A0004F900895EDECF0E084918D8387FDE4CFCD
:1002B00061E083E00E94EC008D81882321F09D8124
:1002C000923009F05CC14801B12CA12C60E072E1D0
:1002D0008AE790E0A50198010E94791E29833A835C
:1002E0004B835C8369017A0181E0C81AD108E10877
:1002F000F1089FEFC916D104E104F10409F00CF4F0
:1003000013C160E472E48FE090E0A50198010E94BF
:10031000791E69017A0181E0C81AD108E108F10863
:100320009D81923009F098C08FEFC816D104E10486
:10033000F10409F00CF4DDC160E970ED83E090E0B8
:10034000A50198010E94791E69017A0191E0C91AFC
:10035000D108E108F1088FEFC816D104E104F104D7
:1003600011F00CF0A3C183E09091B100987F892B2C
:100370008093B100E1C083E080930901EDECF0E0EF
:1003800094919D839F3F09F477CF913029F158F0E4
:10039000923009F43FC08D8187FD6ECF61E083E02C
:1003A0000E94EC008CCF14BC15BC84B5826084BD67
:1003B00085B5816085BDECEBF0E0E491F0E0EE0FF7
:1003C000FF1FE155FF4F85919491EEE9F0E0E49134
:1003D000E093AF041D826CCF1092800010928100D8
:1003E000809181008860809381008091810081608C
:1003F00080938100ECEBF0E0E491F0E0EE0FFF1F62
:10040000E155FF4F85919491EEE9F0E0E491E0939E
:10041000AE044ECF1092B0001092B1008091B000A7
:1004200082608093B0008091B10081608093B100C0
:10043000ECEBF0E0E491F0E0EE0FFF1FE155FF4F31
:10044000859194919093AD048093AC04EEE9F0E033
:10045000E491E093AB042CCF9FEFC916D104E104E3
:10046000F10409F00CF489C068E478EE81E090E0D2
:10047000A50198010E94791E69017A0181E0C81ADC
:10048000D108E108F1089D81992309F428C19FEF63
:10049000C916D104E104F10409F00CF41EC162E1B3
:1004A0007AE780E090E0A50194010E94791E69013D
:1004B0007A0181E0C81AD108E108F1089D819923E9
:1004C00009F4EBC08FEFC816D104E104F10411F078
:1004D00008F0BFC086E048CF64E274EF80E090E0AF
:1004E000A50194010E94791E69017A0181E0C81A70
:1004F000D108E108F10885E09FEFC916D104E104B5
:10050000F10409F008F430CF62E17AE780E090E08E
:10051000A50194010E94791E69017A0191E0C91A2E
:10052000D108E108F108CECF81E09D8191111CCF67
:1005300095B5987F892B85BD2FEF3FEFA901411419
:1005400051046104710409F043C09D81913009F4A4
:100550005EC0923009F46DC091118ECEC7BC20935D
:10056000B8043093B9044093BA045093BB0480910B
:100570006E00826080936E007FCE82E0D6CFB12C79
:10058000A12C60E072E18AE790E0A50198010E9449
:10059000791E69017A0181E0C81AD108E108F108E1
:1005A000C114D10491E0E906F10404F591E08D81D4
:1005B000813011F680918100887F892B80938100A2
:1005C0002FEF3FEFA9014114510461047104F9F0C8
:1005D000D801AA0FBB1FA30192010E94E61D28EEBD
:1005E00033E040E050E00E94571EAFCF68E478EE61
:1005F00081E090E0A50198010E94791E69017A01CD
:1006000081E0C81AD108E108F10893E0D0CFD09278
:100610008900C09288002093B4043093B5044093BD
:10062000B6045093B70480916F00826080936F008E
:1006300023CEC092B3002093B0043093B104409312
:10064000B2045093B3048091700082608093700074
:1006500013CEC980DA80EB80FC809AE0F594E794B1
:10066000D794C7949A95D1F791E0C91AD108E108B7
:10067000F10887E079CEC980DA80EB80FC808AE0DF
:10068000F594E794D794C7948A95D1F791E0C91A65
:10069000D108E108F10885E04BCF8FEFC816D104EF
:1006A000E104F10409F038F784E042CF68E478EE21
:1006B00081E090E0A50198010E94791E69017A010C
:1006C00091E0C91AD108E108F1088FEFC816D104EA
:1006D000E104F10411F00CF0FFCE84E045CE8FEF81
:1006E000C816D104E104F10411F00CF0D8CE83E077
:1006F0001FCF82E039CE3FB7F89480917F0490916C
:100700008004A0918104B091820426B5A89B05C005
:100710002F3F19F00196A11DB11D3FBFBA2FA92F80
:10072000982F8827BC01CD01620F711D811D911D7D
:1007300042E0660F771F881F991F4A95D1F70895E9
:100740008F929F92AF92BF92CF92DF92EF92FF92E1
:100750004B015C010E947B036B017C010E947B03C7
:100760006C197D098E099F09683E734081059105CA
:10077000A8F321E0821A9108A108B10888EEC80EFA
:1007800083E0D81EE11CF11C81149104A104B10482
:1007900029F7FF90EF90DF90CF90BF90AF909F90A0
:1007A0008F9008952FB7F89460917B0470917C042A
:1007B00080917D0490917E042FBF0895FC012481D7
:1007C00035816217730748F480819181009729F081
:1007D000860F971FFC018081089580E00895AF92F5
:1007E000BF92CF92DF92EF92FF920F931F93CF931E
:1007F000DF936C017B018B01040F151FEB015E0180
:10080000AE18BF08C017D10759F06991D601ED9114
:10081000FC910190F081E02DC6010995892B79F7B3
:10082000C501DF91CF911F910F91FF90EF90DF9065
:10083000CF90BF90AF900895FC01538D448D252F2C
:1008400030E0842F90E0821B930B541710F0CF966A
:10085000089501970895FC01918D828D981761F09C
:10086000A28DAE0FBF2FB11D5D968C91928D9F5FB3
:100870009F73928F90E008958FEF9FEF0895FC0192
:10088000918D828D981731F0828DE80FF11D858D45
:1008900090E008958FEF9FEF0895FC01918D228DD8
:1008A000892F90E0805C9F4F821B91098F7399275D
:1008B00008958CE095E00E944D0421E0892B09F415
:1008C00020E0822F089580E090E0892B29F00E949B
:1008D000590481110C9400000895FC01A48DA80F07
:1008E000B92FB11DA35ABF4F2C91848D90E0019672
:1008F0008F739927848FA689B7892C93A089B18992
:100900008C91837080648C93938D848D981306C032
:100910000288F389E02D80818F7D80830895EF9296
:10092000FF920F931F93CF93DF93EC0181E0888FA9
:100930009B8D8C8D98131AC0E889F989808185FF79
:1009400015C09FB7F894EE89FF896083E889F9891B
:1009500080818370806480839FBF81E090E0DF911D
:10096000CF911F910F91FF90EF900895F62E0B8D70
:1009700010E00F5F1F4F0F731127E02E8C8D8E112B
:100980000CC00FB607FCFACFE889F989808185FF92
:10099000F5CFCE010E946D04F1CFEB8DEC0FFD2F52
:1009A000F11DE35AFF4FF0829FB7F8940B8FEA894D
:1009B000FB8980818062CFCFCF93DF93EC01888D5C
:1009C0008823B9F0AA89BB89E889F9898C9185FDCA
:1009D00003C0808186FD0DC00FB607FCF7CF8C9158
:1009E00085FFF2CF808185FFEDCFCE010E946D049F
:1009F000E9CFDF91CF910895FC0161819081492F6A
:100A000050E08281282F30E0E8E6F0E081E08617B0
:100A100030F47491270F311D8F5F3196F8CF63301A
:100A200020F0937011F42F5F3F4F6DE671E0469F09
:100A3000C001479F900D569F900D112405964D5F64
:100A40005F4F5695479556954795840F951F820F92
:100A5000931F67E070E00E94431E0895089520915F
:100A60003A03260F3327331F21323105ECF420914E
:100A7000E204FC0190E080E0243069F082E0089517
:100A8000A0913A032191AC01465E5C4FA40FB52FB3
:100A9000B11D2C930196861798F380913A03680F45
:100AA00060933A0380E0089581E008951092E20493
:100AB00081E08093E1041092BC0461E082E10E9435
:100AC000BE0061E083E10E94BE00E9EBF0E08081BE
:100AD0008E7F808380818D7F808388E48093B800BF
:100AE00085E48093BC00089510928A0410928904D2
:100AF0001092E90410920B050E94560583E990E0DC
:100B0000909386048093850484E990E09093840414
:100B1000809383040895CF93DF9391E0909319031A
:100B20008823B9F0C091B800D091BA008091BC0080
:100B30008A7B8093BC0060E082E10E94BE0060E09E
:100B400083E10E94BE000E945605D093BA00C09374
:100B5000B800DF91CF9108958F929F92AF92BF928C
:100B6000CF92DF92EF92FF920F931F93CF93DF9379
:100B7000D0910B05D13208F0D7C0182FC0910A05CB
:100B80000E947B036B017C018091E20481116BC0A8
:100B900082E08093E2041093E1048FEF8093E004FD
:100BA0001092DF04D093DE04AAEEB4E0EEEBF4E0A2
:100BB00080E0D81391C01092BD048091BD04CC0F89
:100BC000C82BC093BD048091BC04813009F088C05B
:100BD0001092BC040E947B036B017C018091BD04D8
:100BE0008093BB008091E4049091E504A091E60419
:100BF000B091E704892B8A2B8B2BA1F00E947B03F9
:100C00000091E4041091E5042091E6043091E7049A
:100C10006C197D098E099F090617170728073907E0
:100C200008F442C08091BC0083FDD8CF85EC80934E
:100C3000BC000E947B036B017C018091E204823046
:100C400009F450C08091E0048F3F09F46FC0809197
:100C5000E004803209F46CC08091E004803309F430
:100C600069C084E026C08091E4049091E504A091DD
:100C7000E604B091E704892B8A2B8B2B09F484CFEF
:100C80000E947B038090E4049090E504A090E60429
:100C9000B090E7046C197D098E099F0986169706A6
:100CA000A806B90608F070CF8091E3040E948B0576
:100CB00085E01092E90410920B051092E804DF9190
:100CC000CF911F910F91FF90EF90DF90CF90BF9049
:100CD000AF909F908F9008959D9191938F5F69CF72
:100CE00085EEA5CF8091E4049091E504A091E604FF
:100CF000B091E704892B8A2B8B2B09F49ECF0E949D
:100D00007B030091E4041091E5042091E604309106
:100D1000E7046C197D098E099F0906171707280734
:100D2000390708F08ACFC0CF81E0C3CF80E0C1CFC0
:100D300082E0BFCF83E0BDCFCF93DF93EC018B8107
:100D40008823A1F0888191E09093E80480930A05BC
:100D50001092E90410920B0581E00E94AC0591E02D
:100D6000811190E0892FDF91CF9108950E94740541
:100D700081E08B83CE010E949C06982F8111E2CFE7
:100D8000F1CF0895E0918A0480918904E81730F446
:100D9000F0E0E557FB4F808190E008958FEF9FEFE3
:100DA000089590918A04809189042FEF3FEF98175E
:100DB00048F4E92FF0E0E557FB4F208130E09F5FDA
:100DC00090938A04C90108958091890490918A04BE
:100DD000891B990B0895CF92DF92EF92FF920F93A8
:100DE0001F93CF93DF937C01CB018A012091E8040C
:100DF000222389F0EB016B01C40ED51ECC15DD0555
:100E000069F06991D701ED91FC910190F081E02D9D
:100E1000C7010995F3CF642F0E942F05C801DF9108
:100E2000CF911F910F91FF90EF90DF90CF90089599
:100E3000CF93DF931F92CDB7DEB769832091E8048B
:100E40002223F9F020910B05203258F021E030E008
:100E5000FC013383228390E080E00F90DF91CF91FB
:100E600008958091E904E82FF0E0E651FB4F998165
:100E700090838F5F8093E90480930B0581E090E07D
:100E8000ECCF61E0CE0101960E942F05F7CFFC0167
:100E9000248131E03093E80420930A051092E9049C
:100EA00010920B058385682B89EA95E00E9418074C
:100EB00081E00C94AC051092C60560E08BEB95E0E8
:100EC0000C94470788E08093C60560E08BEB95E0C3
:100ED0000C94470790E080E008951092F803109278
:100EE000FA031092F9030E94D20360557B4F8F4F93
:100EF0009F4F6093FB037093FC038093FD039093DB
:100F0000FE030895FC0130910701232F353608F0C8
:100F100024E640E1249FC001112464E670E00E94B1
:100F2000431E462F3A3090F480E28083205D218377
:100F300095E292838383349680E090E2841708F4EC
:100F40009FEF91938F5F8031C1F70895343660F43D
:100F5000822F6AE00E94371E805D8083905D9183BE
:100F600085E2828380E2E6CF81E3808380E3818330
:100F7000828385E2DFCF809101018111809104019C
:100F80000895CF93DF93C82F0E94BB07882309F4ED
:100F9000F9C0C93008F0F6C0EC2FF0E0EE52F84F7F
:100FA0000C94981EDB07F30708081D083208530845
:100FB00074089708C50846E450E060E070E080E7F8
:100FC00093E00E941D016EE670E080E090E00E94D8
:100FD000A00344E650E060E070E08BE492E0DF9133
:100FE000CF910C941D014CE350E060E070E08BE485
:100FF00092E00E941D016FE570E080E090E00E94A9
:10100000A00340E550E060E070E080E793E0E7CFC8
:1010100040E550E060E070E087E295E00E941D014D
:1010200062E870E080E090E00E94A00340E550E0BC
:1010300060E070E087E194E0D2CF40E550E060E00E
:1010400070E083E992E00E941D0162E870E080E0B8
:1010500090E00E94A00340E550E060E070E08BE08B
:1010600092E0BDCF47E350E060E070E080E296E0C0
:101070000E941D0160E570E080E090E00E94A00306
:1010800047E350E060E070E087E295E00E941D01D8
:1010900060E570E080E090E00E94A00346E450E04C
:1010A00060E070E0C7CF47E350E060E070E080E1CF
:1010B00093E00E941D0160E570E080E090E00E94F6
:1010C000A00347E350E060E070E083E992E00E9413
:1010D0001D0160E570E080E090E00E94A00346E41E
:1010E00050E060E070E0BBCF47E350E060E070E0CC
:1010F00083E992E00E941D0165E570E080E090E0E8
:101100000E94A00347E350E060E070E080E793E0D6
:101110000E941D0165E570E080E090E00E94A00360
:101120004AE550E060E070E087E295E058CFC0E02B
:10113000D4E046E950E060E070E087E194E00E948E
:101140001D0160EA70E080E090E00E94A00346E9A3
:1011500050E060E070E084EE92E00E941D0160EAE1
:1011600070E080E090E00E94A003D15011F7C230FF
:1011700031F060E971E080E090E00E94A003CF5F71
:10118000C330B1F6DF91CF9108954AE550E060E0B9
:1011900070E08BE092E00E941D016EE670E080E05E
:1011A00090E00E94A0034AE550E060E070E083E92F
:1011B00092E00E941D016EE670E080E090E00E94E7
:1011C000A0034AE550E060E070E080E193E00E9417
:1011D0001D016EE670E080E090E00E94A00348EC04
:1011E00050E060E070E026CF2F923F924F925F92E6
:1011F0006F927F928F929F92AF92BF92CF92DF9227
:10120000EF92FF920F931F93CF93DF935C011B012B
:101210006A01F12CE12CD50114968D919C918601E7
:101220000E191F098017910708F48C01F501D08170
:101230000E947B032B013C018091E204811172C06A
:10124000C02F013208F0C0E2F1E0F093E20421E0A7
:10125000C601801B910BE816F90608F420E02093E4
:10126000E1048FEF8093E0041092DF048C0F8093F1
:10127000DE04A1E0A093BD048091BD04DD0FD82B56
:10128000D093BD048091BC04813009F090C01092CD
:10129000BC040E947B032B013C018091BD04809320
:1012A000BB008091E4049091E504A091E604B09124
:1012B000E704892B8A2B8B2BA1F00E947B032091C2
:1012C000E4043091E5044091E6045091E704641988
:1012D000750986099709261737074807590708F43B
:1012E00042C08091BC0083FDD8CFB5ECB093BC0068
:1012F0000E947B032B013C018091E204813009F4C0
:101300005AC08091DF048C1710F4C091DF04AEEB5B
:10131000B4E0EBE8F4E080E08C1751F19D919193FB
:101320008F5FFACF8091E4049091E504A091E604E8
:10133000B091E704892B8A2B8B2B09F47DCF0E9477
:101340007B032091E4043091E5044091E604509140
:10135000E7046419750986099709261737074807AE
:10136000590708F069CF8091E3040E948B05C0E023
:1013700010928A04C0938904C017110609F057C05F
:1013800041018E0C9F1CE401CE0188199909801738
:10139000910798F5D50111968D919C91DC01ED9105
:1013A000FC910284F385E02D09958993EDCFE5EE5C
:1013B000E093BC009DCF8091E4049091E504A0915E
:1013C000E604B091E704892B8A2B8B2B09F494CF88
:1013D0000E947B032091E4043091E5044091E604EF
:1013E0005091E7046419750986099709261737078C
:1013F0004807590708F080CFB6CFE00EF11EEC1475
:10140000FD0408F408CF81E0DF91CF911F910F9187
:10141000FF90EF90DF90CF90BF90AF909F908F9014
:101420007F906F905F904F903F902F90089580E055
:10143000EBCF1F93CF93DF93DC011496ED91FC91DA
:10144000E417F50710F490E01FC0122FEA01FC0129
:1014500081819281208131E03093E80420930A0554
:101460001092E90410920B05DC01ED91FC910280D1
:10147000F381E02D0995C817D90729F7812F0E941C
:10148000AC0591E08111DFCF892FDF91CF911F91C2
:101490000895EF92FF920F931F93CF93DF9300D0A5
:1014A00000D000D01F92CDB7DEB78C011982E0903A
:1014B0008704F090880420E041E050E0BE016F5FB7
:1014C0007F4FC7010E94190A882341F047E050E08E
:1014D000BE016F5F7F4FC7010E94F408E981EF777B
:1014E000FA81FB805D814E814F778F81282F30E01C
:1014F00094E0359527959A95E1F7922F990F990FDA
:10150000291B220F280FD8012C93842F90E024E070
:10151000959587952A95E1F7982F990F990F891B33
:10152000880F840F11968C931197652F70E034E02B
:10153000759567953A95E1F7862F880F880F681B98
:10154000660F650F12966C9312974F2D50E064E072
:10155000559547956A95E1F7842F880F880F481BAA
:10156000440F4F0D13964C9313972F2F30E074E0D8
:10157000359527957A95E1F7822F880F880F281BDC
:10158000220F2F0F14962C9314978E2F90E0F4E0D7
:1015900095958795FA95E1F7982F990F990F891BE3
:1015A000880F8E0F15968C93C80127960FB6F89466
:1015B000DEBF0FBECDBFDF91CF911F910F91FF9086
:1015C000EF9008950F931F93CF938C01C62F0E9425
:1015D00047076C2F6460C8010E9447076C2F6B7F20
:1015E000C8010E94470783EC90E00197F1F7CF9183
:1015F0001F910F9108950F931F93CF93DF938C0149
:10160000D62FC42F607F642B0E94E20A80E1D89F0E
:10161000B00111246C2BC801DF91CF911F910F9164
:101620000C94E20A41E00E94FB0A81E090E00895F8
:1016300041E0682F8BEB95E00E94FB0A81E090E08F
:10164000089540E0682F8BEB95E00C94FB0ACF9354
:10165000DF93CDB7DEB728970FB6F894DEBF0FBE85
:10166000CDBF98E0E0E1F1E0DE01119601900D922E
:101670009A95E1F79091C305961710F46FEF690FF3
:1016800070E0660F771F21E030E02C0F3D1F620FE6
:10169000731FFB019081890F806828960FB6F8941C
:1016A000DEBF0FBECDBFDF91CF910C94210B9F9277
:1016B000AF92BF92CF92DF92EF92FF920F931F9360
:1016C000CF93DF93982E6B0185E1989E80011124C2
:1016D0000B531D4FD0E0C0E08FEFFC2EF601E190E0
:1016E0006F019091C4025801AC0EBD1E992321F0E8
:1016F000F50190819E1501F18F1521F0692D8F2D37
:101700000E94270B8E2D0E94180BF501E08281E0CC
:101710008F0D2196C431D10501F781E08093C40279
:10172000DF91CF911F910F91FF90EF90DF90CF90BD
:10173000BF90AF909F9008958FEFEBCF81E00E9414
:10174000210B8BE39FE10197F1F70895CF93DF938E
:10175000D0E0C0E0009771F0FC0101900020E9F7B3
:101760003197AF01481B590BBC018CE095E00E94FA
:10177000EF03EC0142E050E06EE671E08CE095E0B2
:101780000E94EF038C0F9D1FDF91CF9108958091F0
:101790007804909179040397029768F42FEF33E06F
:1017A000F90101900020E9F79F012050344081E0C9
:1017B0002531310508F480E008954F925F926F92D1
:1017C0007F928F929F92AF92BF92CF92DF92EF92D1
:1017D000FF92CF93C09106018FEF8C0F833608F0F4
:1017E0005EC00E94C70B81115AC00E947B034B014F
:1017F0005C012C2F30E0A0EABFE00E94281E24E606
:10180000422E512C612C712CA30192010E94571E73
:1018100069017A0188ECC80ED11CE11CF11CC80CCE
:10182000D91CEA1CFB1C24E630E02C1B3109A0EA81
:10183000BFE00E94281EA30192010E94571E490189
:101840005A0180910501882351F10E947B03409049
:10185000B5035090B6036090B7037090B803641955
:1018600075098609970997FD12C00E945B071092BF
:1018700005010E947B03680D791D8A1D9B1D6093E5
:10188000B5037093B6038093B7039093B8030E9497
:101890007B036C197D098E099F0997FDD2CFCF91EB
:1018A000FF90EF90DF90CF90BF90AF909F908F9080
:1018B0007F906F905F904F9008950F931F93CF93F9
:1018C000DF93FC01048115810115110539F4FB0139
:1018D0001082DF91CF911F910F91089541505109CE
:1018E0004017510708F48A01EB01FC016081718106
:1018F000A801CE010E94A920C00FD11F1882E9CFF4
:10190000CF93DF93FC0124813581232B79F0C081B3
:10191000D181062E000C770BCE010E9497200097F4
:1019200029F08C1B9D0BDF91CF9108958FEF9FEFD6
:10193000FACFFC0180819181009711F00C94411F36
:101940000895FC0180819181009711F00C949E1DF7
:1019500060E070E0CB010895FB0101900020E9F701
:101960003197E61BE53108F0E4E14E2F50E024E129
:1019700030E0241B350B35952795820F931F0C946F
:101980008720AF92BF92CF92DF92EF92FF920F9398
:101990001F93CF93DF93DC01CD90DC901197C1149E
:1019A000D10439F01496CD91DC918C017601209709
:1019B00061F4DF91CF911F910F91FF90EF90DF9035
:1019C000CF90BF90AF90089575015701BFEFAB1A4C
:1019D000BB0AF7018081082E000C990B0E94DA1DCA
:1019E000892B91F72197CC0DDD1D8881082E000CE5
:1019F000990B0E94DA1D892B29F0CE15DF0510F016
:101A00002197F3CFAE014F5F5F4F4E195F09D801A9
:101A100015965C934E931497CE14DF0420F4B7010F
:101A2000C6010E948720D801ED91FC911197149670
:101A30008D919C91E80FF91F1082BBCF0F931F93DC
:101A4000CF93DF93EC0188819981009759F02A8127
:101A50003B812617370730F081E0DF91CF911F914E
:101A60000F9108958B016F5F7F4F0E94CA1F0097EF
:101A700059F0998388831B830A832C813D81232B12
:101A800059F7FC011082E8CF80E0E7CFEF92FF9298
:101A90000F931F93CF93DF93EC017B018A01BA016F
:101AA0000E941E0D28813981811114C02115310534
:101AB00019F0C9010E94411F198218821D821C82DF
:101AC0001B821A82CE01DF91CF911F910F91FF905F
:101AD000EF9008951D830C83B701C9010E94A220D5
:101AE000F1CFFC01118210821382128215821482BE
:101AF00050E040E060E771E00C94460DAF92BF9279
:101B0000CF92DF92EF92FF920F931F93CF93DF93C9
:101B1000EC016B015A0179012417350720F48B2D54
:101B20005901E42EF82ECE010E94710DD6011496B3
:101B30000D911C91A016B10628F5E016F10608F4E7
:101B40008701D601ED91FC911197E00FF11FF08014
:101B500010826D917C916A0D7B1D61157105F1F00C
:101B6000FB0101900020E9F73197AF01461B570BAD
:101B7000CE010E94460DF60180819181080F191F48
:101B8000D801FC92CE01DF91CF911F910F91FF9070
:101B9000EF90DF90CF90BF90AF90089588819981AA
:101BA000009711F00E94411F198218821D821C8229
:101BB0001B821A82E0CFCF93DF93EC01FB012481DB
:101BC00035810E947E0DCE01DF91CF91089585ED84
:101BD0008093BC008091E4049091E504A091E60418
:101BE000B091E7040796A11DB11D23E0B695A79516
:101BF000979587952A95D1F72091BC0024FD03C0C5
:101C00001092E20408954091E4045091E50460913B
:101C1000E6047091E704452B462B472B69F30097A8
:101C2000A105B10541F02AE22A95F1F700C001971C
:101C3000A109B109E1CF8091E3040C948B05EF92E7
:101C4000FF920F931F93CF93DF93CDB7DEB7C557A6
:101C5000D1090FB6F894DEBF0FBECDBF0E94BB07FF
:101C6000882309F4D9C044E150E060E270E0CE017D
:101C700001960E94902044E150E060E270E0CE01C5
:101C800045960E94902044E150E060E270E0CE0171
:101C900089960E94902044E150E060E270E0CE011D
:101CA000CD960E9490200091780410917904C8018B
:101CB0000797029760F08091550461E771E08823EF
:101CC00011F065E574E0CE0101960E94AC0C09307C
:101CD000110508F081C0F801E059F14F0C94981EED
:101CE000790EE00E1A0F3B0F5D0F600F690F850F25
:101CF000B60F80915404882309F46EC0CE01805938
:101D00009F4F0E94490AE396FFACE397E296EFAD3E
:101D1000E297E150FF0BEE0FFF1FEA5DFE4F1081CF
:101D20000181CE0180599F4F0E94FC041F92FF92B7
:101D30000F931F93E82FF0E0EE0FFF1FE85EFE4FBA
:101D400081818F9380818F9385E991E09F938F9319
:101D50001F928CE08F937E0181E5E80EF11CFF92CB
:101D6000EF920E94B820E5968FADE5971F928F9372
:101D7000E4968FADE4971F928F938FE991E09F9344
:101D80008F931F9286E08F938E0106591F4F1F93EA
:101D90000F930E94B820B701CE0145960E94AC0C6B
:101DA000B801CE0189960E94AC0CE5968FADE597FF
:101DB000809308010FB6F894DEBF0FBECDBF0CC0F4
:101DC00069EA71E0CE0189960E94AC0C8091B9035A
:101DD00069EB73E081114AC00E94DD0BBE016F5FA9
:101DE0007F4F80E00E94570B0E94DD0BBE016B5EAF
:101DF0007F4F81E00E94570B0E94DD0BBE01675DA3
:101E00007F4F82E00E94570B0E94DD0BBE01635C96
:101E10007F4F83E00E94570BCB58DF4F0FB6F894EB
:101E2000DEBF0FBECDBFDF91CF911F910F91FF900D
:101E3000EF9008958091E30363E871E0882311F047
:101E400063EE73E0CE0189960E94AC0C809107018D
:101E50008F3F29F0CE01CD960E948207BDCF8091A1
:101E6000CE036EEC73E0882309F4B6CFCE01CD9695
:101E70000E94AC0CB1CF6EEA71E0CE0189960E944F
:101E8000AC0C8FEF93E0FC0101900020E9F7CF014B
:101E900080509440982F81506FEF73E0843130F37D
:101EA000953108F499CF84E1EFEFF3E0DE01DD96A0
:101EB00001900D928A95E1F78FCF60EC71E0DDCF54
:101EC0006CEC71E0CE0189960E94AC0C64ED71E07F
:101ED000CDCF80918B03882331F06BE873E0CE0186
:101EE00045960E94AC0C8091A003882331F060EAF3
:101EF00073E0CE0189960E94AC0C8091760366E770
:101F000073E0882309F468CFB1CF6FED71E0CE01A3
:101F100001960E94AC0C68EE71E0CE0145960E94DD
:101F2000AC0C8091610381111EC08BE891E09F93FE
:101F30008F9387EF91E09F938F931F9289E18F9307
:101F40008E010F5A1F4F1F930F930E94B820B801A4
:101F5000CE0189960E94AC0C6DEF71E0CE01CD965A
:101F60000E94AC0C27CF81E693E0E1CF60E172E004
:101F7000CE0101960E94AC0C62E272E0CE0189961D
:101F80000E94AC0C60E372E071CFCF93C82F0E9427
:101F9000BB078C1769F08823E1F00E941F0E809127
:101FA0000601843638F00E94620781E080930501C3
:101FB000CF9108958823E1F3109205010E947B03DD
:101FC0006093B5037093B6038093B7039093B803FF
:101FD000EFCF0E945B07109205010E949E0BE5EC7B
:101FE000F2E084E5DF011D928A95E9F71092C402C0
:101FF000DFCF0F931F93CF93DF930091780410915D
:1020000079040817190709F45FC090937904809345
:1020100078048230910521F01092CE031092E303F0
:102020009C01235031092230310508F046C010923E
:10203000A00310928B03109276038730910589F0EC
:102040001092740410927504109276041092770422
:1020500020916F04211102C0109261038830910514
:1020600041F0109270041092710410927204109258
:102070007304EC010E946D070E941F0E01151105EB
:1020800019F187E0C730D10591F088E0C830D1055B
:1020900071F086E0C430D10551F081E0C330D10544
:1020A00031F0219789F40230110571F480E0DF915D
:1020B000CF911F910F910C94C1071092FF038630AE
:1020C000910509F4BDCFB3CFDF91CF911F910F914F
:1020D0000895EF92FF920F931F93CF93DF93CDB7A5
:1020E000DEB764970FB6F894DEBF0FBECDBF082FE2
:1020F0007B010E94BB07882359F1F7010190002062
:10210000E9F731971E2F1E19153108F014E144E14B
:1021100050E060E270E0CE0101960E949020412FD5
:1021200050E084E190E0841B950B95958795B7016D
:1021300021E030E02C0F3D1F820F931F0E9487206B
:102140000E94DD0BBE016F5F7F4F802F0E94570BF7
:1021500064960FB6F894DEBF0FBECDBFDF91CF916E
:102160001F910F91FF90EF9008951F93CF93DF93EE
:10217000CDB7DEB764970FB6F894DEBF0FBECDBF04
:10218000182F44E150E060E270E0CE0101960E9419
:1021900090200E94DD0BBE016F5F7F4F812F0E9458
:1021A000570B64960FB6F894DEBF0FBECDBFDF911C
:1021B000CF911F9108950F931F93CF93DF93CDB7C6
:1021C000DEB764970FB6F894DEBF0FBECDBF0E9496
:1021D000BB07882371F04FEF53E0FA010190002014
:1021E000E9F7AF014050544041110EC083E00E9416
:1021F000B51064960FB6F894DEBF0FBECDBFDF9169
:10220000CF911F910F910895453138F58A0111271B
:1022100044E150E060E270E0CE0101960E9490201F
:1022200084E190E0801B910B97FD01969595879531
:10223000A8016FEF73E021E030E02C0F3D1F280F65
:10224000311DC9010E9487200E94DD0BBE016F5F16
:102250007F4F83E00E94570BCCCF4451E091F803AD
:102260004E1708F4E42FF0E0E150FC4FDE01119628
:10227000CE01459621912D93A817B907D9F7E4CF40
:102280001F920F920FB60F9211242F933F938F93AB
:102290009F93AF93BF9380917B0490917C04A09116
:1022A0007D04B0917E0430917A0423E0230F2D3712
:1022B00058F50196A11DB11D20937A0480937B04EB
:1022C00090937C04A0937D04B0937E0480917F045E
:1022D00090918004A0918104B09182040196A11D87
:1022E000B11D80937F0490938004A0938104B093E8
:1022F0008204BF91AF919F918F913F912F910F9049
:102300000FBE0F901F90189526E8230F0296A11D6F
:10231000B11DD2CF1F920F920FB60F9211242F939F
:102320003F934F935F936F937F938F939F93AF935D
:10233000BF93EF93FF938091B0049091B104A0916B
:10234000B204B091B304892B8A2B8B2BD1F19091DD
:10235000AB04E091AC04F091AD04808189278083C7
:102360008091B0049091B104A091B204B091B304F3
:10237000181619061A061B069CF48091B004909159
:10238000B104A091B204B091B3040197A109B109BD
:102390008093B0049093B104A093B204B093B304BB
:1023A000FF91EF91BF91AF919F918F917F916F912D
:1023B0005F914F913F912F910F900FBE0F901F9003
:1023C000189580910901EDECF0E0E4919FEF909376
:1023D0000901E13051F030F0E23069F060E00E9434
:1023E000BE00DECF10926E00F9CF90916F009D7FFE
:1023F00090936F00F3CF909170009D7F9093700049
:1024000091E09093B0009091B100987F9460909388
:10241000B1001092B300E2CF1F920F920FB60F924D
:1024200011242F933F934F935F936F937F938F93D9
:102430009F93AF93BF93EF93FF938CE095E00E943F
:102440006D04FF91EF91BF91AF919F918F917F911B
:102450006F915F914F913F912F910F900FBE0F9011
:102460001F9018951F920F920FB60F9211242F9361
:102470008F939F93EF93FF93E0911C05F0911D05BF
:102480008081E0912205F091230582FD1BC090819F
:10249000809125058F5F8F7320912605821741F06B
:1024A000E0912505F0E0E45FFA4F958F80932505D4
:1024B000FF91EF919F918F912F910F900FBE0F90F1
:1024C0001F9018958081F4CF1F920F920FB60F9234
:1024D00011242F933F934F935F936F937F938F9329
:1024E0009F93AF93BF93EF93FF938091B900887F41
:1024F000803609F44AC0F0F5883209F4A7C018F50F
:10250000803109F49BC0B8F4882309F4F9C08830FD
:1025100009F494C0FF91EF91BF91AF919F918F917A
:102520007F916F915F914F913F912F910F900FBECF
:102530000F901F901895883109F488C0803251F7A8
:102540008093E00414C0803409F49DC040F48033CB
:10255000B9F38833F9F68093E00485ECB0C0803598
:1025600009F485C0883509F496C0883499F60E942C
:10257000E70DD0CF883909F48CC038F5883729F0B9
:1025800050F4883611F0803729F683E08093E20416
:1025900010925C0357C0883809F47BC0803919F069
:1025A000803809F0B7CF80915C03803208F071C0A9
:1025B000E0915C0381E08E0F80935C038091BB000F
:1025C000F0E0E45CFC4F80833DC0803B39F0E0F4F8
:1025D000803A09F479C0883A09F09CCF84E080936E
:1025E000E20410923B0310923A03E0918504F091CB
:1025F0008604099580913A0381110FC081E0809390
:102600003A0310921A0309C0803C09F4A6CF883C13
:1026100009F4A3CF883B09F07DCFE0913B0381E033
:102620008E0F80933B03F0E0E65EFC4F8081809349
:10263000BB0090913B0380913A0329C08091BD0477
:102640008093BB0085EC8093BC0064CF9091DF0445
:102650008091DE04981758F5E091DF0481E08E0F39
:102660008093DF04F0E0E254FB4F8081E9CFE091FA
:10267000DF0481E08E0F8093DF048091BB00F0E0E7
:10268000E254FB4F80839091DF048091DE04981721
:10269000C8F285E8D8CFE091DF0481E08E0F809307
:1026A000DF048091BB00F0E0E254FB4F8083809117
:1026B000E10481115CCF81E08093BC0484EA8093C3
:1026C000BC001092E20426CF85EC8093BC001092EF
:1026D000E20480915C03803230F4E0915C03F0E02E
:1026E000E45CFC4F108260915C0370E0E091830435
:1026F000F09184048CE393E0099510925C030ACF77
:102700001092E00434CFECE0F5E01382128288EE00
:1027100093E0A0E0B0E084839583A683B78322E4AE
:1027200031E03183208325EC30E03587248724ECA9
:1027300030E03787268720EC30E0318B208B21EC8E
:1027400030E0338B228B22EC30E0358B248B26EC6F
:1027500030E0378B268B118E128E138E148EE9EAA1
:10276000F5E01382128284839583A683B78384E580
:1027700091E091838083EBEBF5E01382128286E691
:1027800091E09183808387E2848384E1818784E080
:102790008287138685EB95E00C94710DCF93DF93C0
:1027A000CDB7DEB7EF970FB6F894DEBF0FBECDBF43
:1027B000789484B5826084BD84B5816084BD85B51C
:1027C000826085BD85B5816085BD80916E00816028
:1027D00080936E00109281008091810082608093CE
:1027E00081008091810081608093810080918000D0
:1027F0008160809380008091B10084608093B100FB
:102800008091B00081608093B00080917A008460F4
:1028100080937A0080917A00826080937A00809120
:102820007A00816080937A0080917A00806880933A
:102830007A001092C100E0911C05F0911D0582E024
:102840008083E0911805F09119051082E0911A0536
:10285000F0911B058FEC808310922405E0912005F8
:10286000F091210586E08083E0911E05F0911F051F
:10287000808180618083E0911E05F0911F05808139
:1028800088608083E0911E05F0911F05808180683B
:102890008083E0911E05F0911F0580818F7D8083EC
:1028A00061E084E00E94EC0061E084E00E94BE00F0
:1028B00062E087E00E94EC0061E083E00E94EC00AF
:1028C00060E083E00E94BE000E9474058CE080936B
:1028D000B80011E01093E80487E280930A05109293
:1028E000E90410920B0581E00E94AC05882381F079
:1028F0001093E8041FE310930A051092E904109264
:102900000B0581E00E94AC05811102C0109300010B
:10291000809100011092BE051092BD058093BF0505
:102920008E818093C0058F818093C10588858093B7
:10293000C20589858093C30584E18093C40584E042
:102940008093C5051092C6050E9474051092C005BB
:102950008091C505823018F098E09093C00580936F
:10296000C30562E370E080E090E00E94A003609104
:10297000C6058BEB95E00E94470768EE73E080E0A8
:1029800090E00E94A00360E38BEB95E00E94E20AD6
:102990000BE416E4C8010197F1F760E38BEB95E0D7
:1029A0000E94E20AC8010197F1F760E38BEB95E022
:1029B0000E94E20A83E592E00197F1F760E28BEB77
:1029C00095E00E94E20A8091C00580620E94210B7E
:1029D00084E08093C1058CE00E94210B0E949E0B35
:1029E00082E08093C20586E00E94210B82E00E9473
:1029F000210B8BE39FE10197F1F70E94620781E0D1
:102A0000809305010E947B036B017C0120910601EC
:102A100030E0A0EABFE00E94281E24E630E040E05B
:102A200050E00E94571EC20ED31EE41EF51EC09237
:102A3000B503D092B603E092B703F092B803809149
:102A4000C1058D7F8093C10588600E94210B809114
:102A5000C1058E7F8093C10588600E94210B809103
:102A6000870490918804009711F00E94411F86E02E
:102A700090E00E94A51E8C0188E6F801808389EA17
:102A800095E092838183138280E290E09583848332
:102A900010938804009387040E94740581E0F80174
:102AA0008383C8010E949C06809354048BE0ECE46D
:102AB000F2E0DE01929601900D928A95E1F78DE0A9
:102AC000E7E5F2E0DE01559601900D928A95E1F777
:102AD00084E1E4E6F2E08E010F5F1F4FD801019020
:102AE0000D928A95E1F70E949E0B6E01F2E2CF0EE5
:102AF000D11C75E0F72ECAAEDBAE61E08F2D0E94CF
:102B0000270BF60181916F010E94180B6CE370E0B6
:102B100080E090E00E94A003F394FFE0FF12EDCF6D
:102B20005E0125E1A20EB11C64E0D62EFA2CEB2C3E
:102B300062E08D2D0E94270BF50181915F010E94BB
:102B4000180B6CE370E080E090E00E94A003D39447
:102B5000F0E1DF12EDCF6CE271E080E090E00E94E6
:102B6000A0034E0123E1821A910854E1A52EB12C55
:102B700063E080E00E94270BD12CC12CC6018A198A
:102B80009B09439708F095C1F401EC0DFD1D808170
:102B90000E94180B3FEFC31AD30A44E1C416D104B4
:102BA00069F76EE170E080E090E00E94A00351E0E0
:102BB000A51AB1088FEF881A980A9FEFA916B906CF
:102BC000B9F660EF7AE080E090E00E94A0030E94F6
:102BD0001F0E86E492E00E94A60B0E94BB0788238A
:102BE000A1F0D09006018FEF8D0D833670F40E9416
:102BF000C70B882309F45FC180910501811105C0CD
:102C00000E94620781E080930501EEE8F0E0849184
:102C1000E2EAF0E0D490E0ECF0E0C490B12CA12C1A
:102C2000CC2099F081110E949500EC2DF0E0EE0F80
:102C3000FF1FED58FF4FA591B491EC91DE2291E07A
:102C400080E009F490E0A92EB82E90900301892D20
:102C5000092C000C990B8A159B0509F471C1A092EF
:102C600003010E94D20360935D0370935E0380931F
:102C70005F039093600380917804909179040797A3
:102C800009F58090740490907504A0907604B0903B
:102C9000770481149104A104B104D9F10E94D203F4
:102CA000681979098A099B0997FD33C01092740449
:102CB00010927504109276041092770481E090E0EF
:102CC0000E94F90F8091780490917904089709F592
:102CD0008090700490907104A0907204B09073047E
:102CE00081149104A104B104A1F00E94D2036819D7
:102CF00079098A099B0997FD0CC010927004109203
:102D00007104109272041092730481E090E00E94AA
:102D1000F90F80916F04882309F46BC080906B04D5
:102D200090906C04A0906D04B0906E048114910496
:102D3000A104B10479F10E94D203681979098A09C2
:102D40009B0997FD27C010926F0410926A0410929D
:102D50006B0410926C0410926D0410926E040E9429
:102D6000BB07882309F445C08091780490917904C9
:102D700006970397F0F18091550465E574E08111A1
:102D800002C061E771E080E00E94691080916F04E9
:102D9000882379F1809178049091790407970297BC
:102DA00040F10E94BB07882321F10E94D20328E84A
:102DB00033E140E050E00E94571EDA01C9018095DE
:102DC0009095A095B095817090916A04891789F0CB
:102DD00080936A0468EE71E020FF08C0809155047A
:102DE00065E574E0811102C061E771E080E00E9456
:102DF00069103AE0332E8CE095E00E944D04892B57
:102E000009F493C58CE095E00E942B044091B9052C
:102E10005091BA058A3019F08D3009F062C541151C
:102E2000510549F31CAA1BAA1EAA1DAA18AE1FAA67
:102E30006091B5057091B6056115710521F0CE015F
:102E4000C3960E94460DCE01C3960E94C10CCFA826
:102E5000D8ACC114D10409F407C170E060E0CE0120
:102E6000C3960E94DE03EFEBE80FEA3108F0FCC0E6
:102E70000E2E000CFF0BE15CF84E0C94981EF71B15
:102E8000A81A3418341834183418B618001AF6175B
:102E900034183619ED18311A6E184718411894185D
:102EA000D31A34184A183418541CFB174418341811
:102EB0004E1A80E26DCE0E947B034B015C01809133
:102EC000B5039091B603A091B703B091B803A501E3
:102ED0009401281B390B4A0B5B0BDA01C901B7FDC2
:102EE00094CE809105018823F9F00E945B0710922F
:102EF0000501A4E6B0E0AD19B10920EA3FE00E9467
:102F00009E1E24E630E040E050E00E94571E820EF4
:102F1000931EA41EB51E8092B5039092B603A09294
:102F2000B703B092B80371CE0E94620781E080932C
:102F300005012D2D30E0A0EABFE00E94281EE1CF60
:102F4000C0907804D09079040E94D20340905D0331
:102F500050905E0360905F03709060036419750980
:102F6000860997096E3171058105910508F483CEB4
:102F700080910201282F082E000C330B2A153B05E7
:102F800009F479CE909202018F3F09F474CEAA948D
:102F9000AB2809F070CE47E0C416D10469F4109252
:102FA000740410927504109276041092770481E0F4
:102FB00090E00E94F90F5FCE0E94BB07882369F062
:102FC000109201010E94C50F0E94BB07882359F08F
:102FD0008CE392E00E94A60B4ECE91E0909301010B
:102FE00090930401EFCF81E492E0F4CF81E090E090
:102FF0000E94F90F39C053E0C516D10418F161E001
:1030000070E0CE01C3960E94DE038A33D9F442E019
:1030100050E0BE016D5C7F4FC8010E94DB0D45E1B1
:1030200050E063EE73E0C8010E945D0CC8010E948D
:10303000990C8091780490917904029731F082E0A4
:1030400090E0D6CF1092E303F4CF0E94BB07882311
:1030500059F08091E30363EE73E0811102C063E8ED
:1030600071E082E00E946910CE01C3960E94990C23
:1030700050E040E060E771E085EB95E00E94460D8E
:10308000BACE83E090E0B4CF84E090E0B1CF85E0A9
:1030900090E0AECF6AE3CE01C3960E94800CAC01F3
:1030A0004F5F5F4FBE016D5C7F4FC8010E94DB0D1B
:1030B00045E150E06EEC73E0C8010E945D0C809128
:1030C000780490917904029739F4809107016EECAD
:1030D00073E08F3F09F446C0C801F6C06AE3CE0131
:1030E000C3960E94800CAC014F5F5F4FBE016D5CC8
:1030F0007F4FC8010E94DB0D41E550E06FEF73E0A8
:10310000C8010E945D0C8091780490917904039726
:10311000029728F40E946D070E94DB10DDCF83E048
:1031200090E00E94F90FD8CF6AE3CE01C3960E94C7
:10313000800CAC014F5F5F4FBE016D5C7F4FC801DB
:103140000E94DB0D45E150E069EB73E0C8010E948D
:103150005D0C8091780490917904019709F0BCCFBF
:1031600069EB73E083E00E946910B6CF6AE3CE0199
:10317000C3960E94800C97FD77CFAC014F5F5F4FE5
:10318000BE016D5C7F4FC8010E94DB0DC8010E942B
:10319000A10C4B015C01C8010E94990C85E68816C0
:1031A0009104A104B10408F05FCF809207018091DF
:1031B000780490917904029709F056CF0E94BB07DA
:1031C000882309F451CFC8010E9482070E94DD0BB9
:1031D000B80183E00E94570B47CF6AE3CE01C39644
:1031E0000E94800C97FD40CFAC014F5F5F4FBE0146
:1031F0006D5C7F4FC8010E94DB0DC8010E94A10CCD
:103200004B015C01C8010E94990C95E68916910456
:10321000A104B10408F028CF809206010E94BB07E8
:10322000882309F421CF81149104A104B10429F465
:103230000E945B071092050117CFE4E68E169104F9
:10324000A104B10431F40E946207F1E0F09305019A
:103250000BCF109205010E947B036093B50370931E
:10326000B6038093B7039093B803FECE6AE3CE0112
:10327000C3960E94800C97FD2AC0AC014F5F5F4F40
:10328000BE016D5C7F4FCE018D960E94DB0D6CE719
:10329000CE018D960E94800C4C0197FF1DC045E128
:1032A00050E060EA73E0CE018D960E945D0C809143
:1032B000780490917904069709F475C086E090E04F
:1032C0000E94F90FCE018D960E94990CCDCECE01B1
:1032D0008D960E94710DDBCF5C012FEFA21AB20A0E
:1032E00089A99AA9A816B90670F46DA47EA46CE702
:1032F00070E0C3018A0D9B1D0E9497206C01C618C7
:10330000D708892B19F4CC24CA94DC2C940150E002
:1033100040E0BE01635D7F4F8AAD9BAD0E947E0D94
:10332000D7FE2EC0A501BE01635D7F4F8F2D9E2D60
:103330000E94DB0DC8010E94710D45E150E060EA7A
:1033400073E08AAD9BAD0E945D0C45E150E06BE8F7
:1033500073E08F2D9E2D0E945D0C45E150E066E7E5
:1033600073E0C8010E945D0CC8010E94990C8F2D6A
:103370009E2D0E94990C8AAD9BAD0E94990C97CF0F
:103380009601A501BE01635D7F4F8F2D9E2D0E948A
:103390007E0DA6014F5F5F4FBE01635D7F4FC80189
:1033A0000E94DB0DCACF0E94BB07882309F48ACF95
:1033B00080918B038823C1F06BE873E081E00E9469
:1033C00069108091A003882399F060EA73E082E09D
:1033D0000E94691080917603882371F066E773E09C
:1033E00083E00E9469106ECF81E00E94B510E9CFA2
:1033F00082E00E94B510EECF83E00E94B51062CF4C
:103400006AE3CE01C3960E94800C97FD26C0AC01F2
:103410004F5F5F4FBE016D5C7F4FC8010E94DB0DA7
:1034200045E150E065E574E0C8010E945D0C0E9432
:10343000BB07882309F450CE8091780490917904D9
:10344000069709F449CE8091550465E574E0811131
:1034500002C061E771E080E086CEC8010E94710D74
:10346000DFCF32E0C316D10408F4FECD0E94BB07C3
:10347000D82E61E070E0CE01C3960E94DE03803357
:1034800031F4109204018D2D0E94C50FEDCD8133D2
:1034900009F0EACD41E040930401F5CF0E94BB075B
:1034A000882309F4E1CD6AE3CE01C3960E94800C23
:1034B00097FDDACDAC014F5F5F4FBE016D5C7F4F72
:1034C0008F2D9E2D0E94DB0D6CE28F2D9E2D0E9474
:1034D000800C6C0197FD39C09C0150E040E06F2DDD
:1034E0007E2DC8010E947E0DC8010E94A10C4B01D7
:1034F0005C01C8010E94990CA6014F5F5F4F6F2DC0
:103500007E2DC8010E94DB0DC8010E94A10C2B0179
:103510003C01C8010E94990CD501C4014F97A10933
:10352000B10981309E44A105B10578F4D301C201EF
:103530000197A109B109803D9740A105B10528F483
:10354000B301A201C4010E941D018F2D9E2DBCCE8E
:10355000F3E0CF16D10440F061E070E0CE01C396F5
:103560000E94DE038A3319F090E080E041CD42E012
:1035700050E0BE016D5C7F4FC8010E94DB0DC801A9
:103580000E94A10C4B015C01C8010E94990C2FEF15
:1035900082169104A104B10411F008F065CD882DC4
:1035A0000E94C10761CD80915404882309F45CCD49
:1035B00035E1C316D10408F457CD61E070E0CE01C7
:1035C000C3960E94DE038A3309F04ECD26E030E038
:1035D00042E050E0BE016D5C7F4FC8010E947E0D4D
:1035E000C8010E94A10C4B01C8010E94990C29E05E
:1035F00030E047E050E0BE016D5C7F4FC8010E94A3
:103600007E0DC8010E94A10C6CAF7DAF8EAF9FAF45
:10361000C8010E94990C2CE030E04AE050E0BE0165
:103620006D5C7F4FC8010E947E0DC8010E94A10CF5
:103630002B01C8010E94990C2FE030E04DE050E0D2
:10364000BE016D5C7F4FC8010E947E0DC8010E94C3
:10365000A10C262EC8010E94990C22E130E040E125
:1036600050E0BE016D5C7F4FC8010E947E0DC80115
:103670000E94A10CD62EC8010E94990C25E130E0D1
:1036800043E150E0BE016D5C7F4FC8010E947E0D9A
:10369000C8010E94A10CC62EC8010E94990CC40149
:1036A000885E97408C34910508F0DECC8CAD9DADE2
:1036B00001970C9708F0D8CCC20101974F9708F0FA
:1036C000D3CC40ED841A47E0940A8D8A5CAD5E8BC2
:1036D0004F8A288ED98ECA8EF80128E011922A9539
:1036E000E9F78C2D632D0E94371E982F990F890FB3
:1036F000880FC80ECA828D2D0E94371E982F990FF1
:10370000890F880FD80EDB82822D0E94371E982FDA
:10371000990F890F880F280E2C828F2D9E2D0E94C5
:10372000FC04282F811101C027E0822F632D0E9405
:10373000371E982F880F890F880F820F8D832F894E
:10374000822F0E94371E982F880F890F880F820FB3
:103750008E832E89822F0E94371E982F880F890F03
:10376000880F820F8F832D89822F0E94371E982FFA
:10377000880F890F880F820F888721E048E050E08A
:10378000BE016F5F7F4F80918704909188040E94F3
:10379000190A3FE039AF21E041E050E0BE01675C2B
:1037A0007F4F80918704909188040E94190A41E01C
:1037B00050E0BE016E5D7F4F809187049091880438
:1037C0000E94F4088AA14FE04AA38F778BA321E0DF
:1037D00042E050E0BE016E5D7F4F80918704909182
:1037E00088040E94190A8FEF809308013DCC53E0B2
:1037F000C516D10440F061E070E0CE01C3960E948E
:10380000DE038A3371F144E150E06BE871E081E658
:1038100093E00E94A9200E94D203605E714B8F4FFB
:103820009F4F60936B0470936C0480936D0490932E
:103830006E0480916F04811117CC81E080936F0436
:103840000E94D203605F784D8F4F9F4F6093740446
:1038500070937504809376049093770487E090E0EA
:10386000C7CB42E050E0BE016D5C7F4FC8010E94B3
:10387000DB0DC8010E94C10C8D819E81892B59F0FE
:1038800045E150E061E673E0C8010E945D0CC801AB
:103890000E94990CC0CF44E150E06BE871E081E6F2
:1038A00093E00E94A920F3CF10926F0410926A0453
:1038B00010926B0410926C0410926D0410926E04BE
:1038C0000E94D203605F784D8F4F9F4F60937004CA
:1038D00070937104809372049093730488E090E075
:1038E00087CB4034510508F086CA89831A826A0161
:1038F0009FEFC91AD90AB60185EB95E00E941E0D0B
:10390000882309F478CA2091B5053091B6058091D5
:10391000B9059091BA05B801820F931F0E94A220A9
:10392000D092BA05C092B90566CA0E94BB07882327
:1039300009F4BAC0809178049091790403970297B2
:1039400098F5EFEFF3E001900020E9F79F01205098
:103950003440690134E13C1538F50E94D20380906F
:10396000FB039090FC03A090FD03B090FE039B012D
:10397000AC01281939094A095B0949015A01B7FC08
:103980000EC02091F9033091FA032130310509F47A
:10399000A6C008F496C02230310509F4C0C00E94C8
:1039A000BB07882309F480C0809178049091790442
:1039B000892B09F079C080915404882309F474C0DC
:1039C0000E94D2038090500490905104A090520421
:1039D000B09053049B01AC01281939094A095B09CD
:1039E00049015A0138EE831633E09306A104B1046D
:1039F00008F45AC0609350047093510480935204A9
:103A0000909353048AAD9BAD0E94490A8EA1909178
:103A10000801891709F448C080930801BCA0EBA1F4
:103A2000E150FF0BEE0FFF1FEA5DFE4FD080C1801B
:103A30008AAD9BAD0E94FC041F92BF92CF92DF9291
:103A4000E82FF0E0EE0FFF1FE85EFE4F81818F93BD
:103A500080818F9385E991E09F938F931F928CE0F3
:103A60008F931F930F930E94B8208EA11F928F9364
:103A70008DA11F928F938FE991E09F938F931F9257
:103A800086E08F93EF92FF920E94B820B80181E008
:103A90000E9469106F2D7E2D82E00E9469100FB682
:103AA000F894DEBF0FBECDBF80E090E0892B09F413
:103AB00094C80E945904882309F48FC80E9400000A
:103AC0008CC821E02093F80321E030E03093FA0322
:103AD0002093F90366507F4F8F4F9F4F15C02CEEF8
:103AE0002C0D3091F8033F5F3093F803321790F3B9
:103AF0002093F80322E030E03093FA032093F90397
:103B000064527A4F8F4F9F4F6093FB037093FC0377
:103B10008093FD039093FE030E94DB1040CF109230
:103B2000F8031092FA031092F90360557B4F8F4F00
:103B30009F4FEACF85EB95E00C94990C1F93FC0105
:103B400099278827BC01E89411911032E9F31930C4
:103B500010F01E30C8F31B3251F01D3249F4689446
:103B600006C00E94C51D610F711D811D911D11911F
:103B700010531A30B0F33EF490958095709561958E
:103B80007F4F8F4F9F4F1F910895592F482F372FE9
:103B9000262F660F771F881F991F660F771F881FB4
:103BA000991F620F731F841F951F660F771F881F51
:103BB000991F089591110C94E31D803219F08950DA
:103BC0008550C8F708959927882708950E94281ED0
:103BD000A59F900DB49F900DA49F800D911D112461
:103BE00008952F923F924F925F926F927F928F92A1
:103BF0009F92AF92BF92CF92DF92EF92FF920F937C
:103C00001F93CF93DF93CDB7DEB7CA1BDB0B0FB685
:103C1000F894DEBF0FBECDBF09942A883988488842
:103C20005F846E847D848C849B84AA84B984C884D8
:103C3000DF80EE80FD800C811B81AA81B981CE0FCF
:103C4000D11D0FB6F894DEBF0FBECDBFED010895B4
:103C5000A29FB001B39FC001A39F700D811D1124CD
:103C6000911DB29F700D811D1124911D0895991B06
:103C700079E004C0991F961708F0961B881F7A9563
:103C8000C9F780950895AA1BBB1B51E107C0AA1F65
:103C9000BB1FA617B70710F0A61BB70B881F991FED
:103CA0005A95A9F780959095BC01CD010895A1E2A0
:103CB0001A2EAA1BBB1BFD010DC0AA1FBB1FEE1FA6
:103CC000FF1FA217B307E407F50720F0A21BB30BF1
:103CD000E40BF50B661F771F881F991F1A9469F76D
:103CE00060957095809590959B01AC01BD01CF01C9
:103CF0000895052E97FB1EF400940E94901E57FD18
:103D000007D00E94571E07FC03D04EF40C94901E5F
:103D100050954095309521953F4F4F4F5F4F0895F7
:103D200090958095709561957F4F8F4F9F4F089527
:103D3000EE0FFF1F0590F491E02D09940E94281EBC
:103D4000B7FF0895821B930B08950F931F93CF9392
:103D5000DF938230910510F482E090E0E091C90594
:103D6000F091CA0530E020E0B0E0A0E0309799F48F
:103D70002115310509F44AC0281B390B24303105BF
:103D8000D8F58A819B816115710589F1FB019383C7
:103D90008283FE0111C04081518102811381481745
:103DA0005907E0F04817590799F4109761F01296F7
:103DB0000C93129713961C933296CF01DF91CF91FB
:103DC0001F910F9108950093C9051093CA05F4CF70
:103DD0002115310551F04217530738F0A901DB01D5
:103DE0009A01BD01DF01F801C1CFEF01F9CF909336
:103DF000CA058093C905CDCFFE01E20FF31F819361
:103E000091932250310939832883D7CF2091C70558
:103E10003091C805232B41F420910C0130910D0104
:103E20003093C8052093C70520910A0130910B01FA
:103E30002115310541F42DB73EB740910E01509147
:103E40000F01241B350BE091C705F091C805E2175F
:103E5000F307A0F42E1B3F0B2817390778F0AC01AD
:103E60004E5F5F4F2417350748F04E0F5F1F50938A
:103E7000C8054093C705819391939FCFF0E0E0E0A0
:103E80009CCFCF93DF930097E9F0FC013297138228
:103E90001282A091C905B091CA05ED0130E020E081
:103EA0001097A1F420813181820F931F2091C705C3
:103EB0003091C8052817390709F061C0F093C8058B
:103EC000E093C705DF91CF910895EA01CE17DF0790
:103ED000E8F54A815B819E0141155105B1F7E90181
:103EE000FB83EA8349915991C40FD51FEC17FD0755
:103EF00061F4808191810296840F951FE901998375
:103F00008883828193819B838A83F0E0E0E012962C
:103F10008D919C9113970097B9F52D913C91119734
:103F2000CD010296820F931F2091C7053091C805DD
:103F30002817390739F6309751F51092CA051092B3
:103F4000C905B093C805A093C705BCCFD383C2836E
:103F500040815181840F951FC817D90761F44E5FC6
:103F60005F4F88819981480F591F518340838A810F
:103F70009B81938382832115310509F0B0CFF093A3
:103F8000CA05E093C9059ECFFD01DC01C0CF1382B5
:103F90001282D7CFB0E0A0E0E0EDFFE10C94F31D7A
:103FA0008C01009751F4CB010E94A51E8C01C80121
:103FB000CDB7DEB7E0E10C940F1EFC01E60FF71F52
:103FC0009C0122503109E217F30708F49DC0D90182
:103FD000CD91DC911197C617D70798F0C530D10560
:103FE00030F3CE0104978617970708F3C61BD70B4B
:103FF0002297C193D1936D937C93CF010E94411F6F
:10400000D6CF5B01AC1ABD0A4C018C0E9D1EA0914F
:10401000C905B091CA05512C412CF12CE12C109707
:1040200031F58091C7059091C8058815990509F06B
:104030005CC04616570608F058C080910A0190915E
:104040000B01009741F48DB79EB740910E0150913E
:104050000F01841B950BE817F90708F055C0F09382
:10406000C805E093C705F90171836083A0CF8D91E6
:104070009C91119712966C90129713967C901397BF
:10408000A815B90559F56C0142E0C40ED11CCA143B
:10409000DB0420F1AC014A195B09DA01129615978D
:1040A00080F06282738251834083D9016D937C9347
:1040B000E114F10471F0D7011396FC93EE9312977B
:1040C00076CF22968C0F9D1FF90191838083F30197
:1040D000EFCFF093CA05E093C90569CF481659069A
:1040E00008F42C017D01D3019ACFCB010E94A51EBB
:1040F0007C01009749F0AE01B8010E948720C801F9
:104100000E94411F870153CF10E000E050CFFB0118
:10411000DC0102C001900D9241505040D8F7089543
:10412000DC0101C06D9341505040E0F70895FC015F
:104130008191861721F08823D9F79927089531971F
:10414000CF010895FB01DC0101900D920020E1F701
:104150000895FB01DC014150504048F001900D9260
:104160000020C9F701C01D9241505040E0F708956A
:10417000AEE0B0E0EEEBF0E20C94FF1D0D891E897D
:104180008F89988D26E02C831A83098397FF02C0BC
:1041900080E090E801979E838D83AE01455E5F4F7E
:1041A000698D7A8DCE0101960E94E8204D815E8155
:1041B00057FD0AC02F813885421753070CF49A0126
:1041C000020F131FF80110822E96E4E00C941B1EC0
:1041D000ABE0B0E0EEEEF0E20C94F11D7C013B01AF
:1041E0008A01FC0117821682838181FFC8C1CE013A
:1041F00001965C01F7019381F30193FD859193FF93
:1042000081913F01882309F453C1853239F493FD2C
:10421000859193FF81913F01853229F4B70190E0A8
:104220000E94D822E7CF912C212C312CFFE1F315ED
:1042300038F08B3211F190F4803209F1833229F198
:1042400037FC3CC020ED280F2A3050F536FE20C048
:104250008AE0989E200D1124922E06C08D3291F096
:10426000803371F7689430F8F30193FD859193FFE3
:1042700081913F018111DACF21C0689431F86894AF
:1042800032F8F2CF689433F8EFCF689434F8ECCF7B
:10429000EAE02E9E200D1124222E689435F8E4CFFA
:1042A0008E3229F436FC04C1689436F8DDCF8C36A2
:1042B00019F4689437F8D8CF8836B1F2982F9F7DDB
:1042C00095549330E0F08336A1F18337C1F1833503
:1042D00009F063C02801F2E04F0E511CF801C080C4
:1042E000D180692D70E036FC02C06FEF7FEFC60110
:1042F0000E94C2224C01689437F882010AC00C5F08
:104300001F4FFFE3F98388248394912C6501E8947F
:1043100037F833FE2DC0522C8114910471F55520CD
:1043200009F468CFB70180E290E00E94D8225A9445
:10433000F6CFF801808189830E5F1F4FE4CF2801FB
:10434000F2E04F0E511CF801C080D180692D70E061
:1043500036FC02C06FEF7FEFC6010E94CD224C01F8
:104360008201D5CFB70180E290E00E94D8222A9442
:104370002814190409F0B0F7CECFF60137FC859167
:1043800037FE81916F01B70190E00E94D822511051
:104390005A94F1E08F1A9108BFCF843619F089360C
:1043A00009F077C0F80137FE6BC0608171818281AE
:1043B00093810C5F1F4FF32DFF763F2E97FF09C0AF
:1043C00090958095709561957F4F8F4F9F4F689422
:1043D00037F82AE030E0A5010E940823C82ECA1849
:1043E0008C2C432C36FE0CC0E89440F8C91440F4E1
:1043F00034FE05C032FC03C0F32DFE7E4F2E892C07
:1044000044FE95C0FE01EC0DF11D8081803309F062
:1044100087C0242D297E422E842D8870582E43FC7F
:1044200095C040FE8FC09C2C821418F42C0C922C4A
:10443000981844FE91C0B70180E390E00E94D82212
:1044400042FE09C088E790E041FE02C088E590E0A6
:10445000B7010E94D822C91408F48AC0CA94D12C8A
:104460009FEFC91AD90ACA0CDB1CF60182916F01B1
:10447000B70190E00E94D822AC14BD04B1F74FCF31
:1044800060817181072E000C880B990B0E5F1F4F06
:1044900092CFD32CE894D4F82AE030E0853739F174
:1044A000232D297FD22E8F3601F148F48835A9F0CB
:1044B000F701868197812B96E2E10C940D1E8037DF
:1044C00049F08837A9F7D4FE02C06894D2F820E1F9
:1044D00030E00DC06894D4F8F6CF34FE03C0822FCC
:1044E0008660D82E20E132E002C028E030E0F801FA
:1044F000D7FE0FC060817181828193810C5F1F4F55
:10450000A5010E940823C82ECA183D2CE89437F84C
:1045100067CF6081718190E080E00E5F1F4FF0CF28
:1045200042FC02C0839478CF8394839475CF842D0A
:10453000867809F471CFF6CFB70180E290E00E944F
:10454000D82283948214C0F3512C73CF522C581864
:10455000821408F46ECFF8CF842D867809F47BCFCF
:104560008BE241FE80E247FC8DE2B70190E071CF23
:10457000B70180E390E00E94D8229A946CCF8FEF2D
:104580009FEF99CFFC010590615070400110D8F762
:10459000809590958E0F9F1F0895FC01615070408B
:1045A00001900110D8F7809590958E0F9F1F089568
:1045B0000F931F93CF93DF93182F092FEB018B815C
:1045C00081FD09C01FEF0FEF812F902FDF91CF9159
:1045D0001F910F91089582FF14C02E813F818C811D
:1045E0009D81281739073CF4E881F981CF010196B4
:1045F0009983888310838E819F8101969F838E8308
:10460000E3CFE885F985812F0995892BA1F3DACFCE
:10461000FA01AA27283051F1203181F1E8946F93F3
:104620006E7F6E5F7F4F8F4F9F4FAF4FB1E03ED099
:10463000B4E03CD0670F781F891F9A1FA11D680F37
:10464000791F8A1F911DA11D6A0F711D811D911D6A
:10465000A11D20D009F468943F912AE0269F1124DF
:104660003019305D3193DEF6CF010895462F477043
:10467000405D4193B3E00FD0C9F7F6CF462F4F709E
:10468000405D4A3318F0495D31FD4052419302D0FC
:10469000A9F7EACFB4E0A6959795879577956795A2
:1046A000BA95C9F700976105710508959B01AC01A2
:1046B0000A2E06945795479537952795BA95C9F7C9
:1046C000620F731F841F951FA01D089510E0C8E698
:1046D000D0E004C0FE010E94981E2196C936D10781
:0646E000C9F7F894FFCFBA
:1046E6002701FFFF010114FFFFFF0000CB0580003B
:1046F600000040001400540078027C02800284020C
:1047060088028C029002940298029C02A002A402E3
:10471600A802AC02B002B402B802BC02C002000099
:1047260000008F04EF031C04DC044D042B043F043B
:10473600000000001807EB066A07C106E406D1066A
:10474600C20600000000120BEF036A072E050D0AD1
:10475600003D3D20436C6175646520436F646520B0
:104766003D3D00574F524B494E4700594F55522039
:10477600415245410025732C2025732025640025D0
:104786003032643A253032640049444C4500574182
:104796004954494E4720464F5220494E50555400E1
:1047A6005045524D495353494F4E3F004F46464C94
:1047B600494E45006E6F2073657373696F6E0057BF
:1047C60041524E494E4721004149522052414944E7
:1047D60020414C45525400494E2025730050524FFB
:1047E6004345454420544F205348454C54455200B8
:1047F60041697220616C657274206973206F7665F9
:1048060072004D61792074686520666F7263650079
:104816006265207769746820796F750053573A315D
:104826000053573A3000524541445900506C616973
:104836006E737461636B00746563686E6F6C6F672B
:10484600696573004368616F7320696E746F2073C6
:10485600797374656D732E0053756E004D6F6E001F
:1048660054756500576564005468750046726900A2
:10487600536174004A616E00466562004D617200C4
:10488600417072004D6179004A756E004A756C0080
:1048960041756700536570004F6374004E6F760074
:0448A6004465630002
:00000001FF
