:100000000C9469000C9491000C9491000C94910054
:100010000C9491000C9491000C9491000C94DD11BF
:100020000C9491000C9491000C9491000C9491000C
:100030000C9491000C9491000C9491000C949100FC
:100040000C9493110C9491000C9485120C945F12F3
:100050000C9491000C9491000C9491000C949100DC
:100060000C94B7120C9491001F1C1F1E1F1E1F1F03
:100070001E1F1E00000000230026002900000000B3
:1000800000240027002A00000000080002010000F0
:100090000304070000000000000000010204081033
:1000A00020408001020408102001020408102000F2
:1000B000000000250028002B0004040404040404AC
:1000C0000402020202020203030303030302D61323
:1000D000ED1E11241FBECFEFD8E0DEBFCDBF26E05E
:1000E000ACE1B3E001C01D92AB36B207E1F713E01B
:1000F000A0E0B1E0ECE8F9E402C005900D92AC316B
:10010000B107D9F710E0C8E6D0E004C02197FE019E
:100110000E94EB1FC736D107C9F70E9423140C9425
:10012000B9240C94000008950895833081F028F4D8
:10013000813099F08230A9F008958730A9F0883095
:10014000C9F08430B1F4809180008F7D03C080912C
:1001500080008F7780938000089584B58F7784BD69
:10016000089584B58F7DFBCF8091B0008F77809309
:10017000B00008958091B0008F7DF9CF1F93CF9389
:10018000DF93282F30E0F901E957FF4F8491F901FF
:10019000E556FF4FD491F901E754FF4FC491CC23AA
:1001A000A9F0162F81110E949500EC2FF0E0EE0FC0
:1001B000FF1FE155FF4FA591B4918FB7F894EC91D3
:1001C000111108C0D095DE23DC938FBFDF91CF9152
:1001D0001F910895DE2BF8CFCF93DF9390E0FC01C1
:1001E000E556FF4F249187549F4FFC01849188234B
:1001F000D1F090E0880F991FFC01E358FF4FA591C3
:10020000B491FC01E155FF4FC591D491623071F476
:100210009FB7F8943C91822F809583238C93E8813B
:100220002E2B28839FBFDF91CF9108958FB7F8942D
:10023000EC912E2B2C938FBFF6CF4F925F926F9243
:100240007F928F929F92AF92BF92CF92DF92EF9266
:10025000FF920F931F93CF93DF9300D000D01F9294
:10026000CDB7DEB78C012A013B0180911E0183309E
:10027000C9F08F3F09F47FC00F900F900F900F903F
:100280000F90DF91CF911F910F91FF90EF90DF9032
:10029000CF90BF90AF909F908F907F906F905F9026
:1002A0004F900895EDECF0E084918D8387FDE4CFCD
:1002B00061E083E00E94EC008D81882321F09D8124
:1002C000923009F05CC14801B12CA12C60E072E1D0
:1002D0008AE790E0A50198010E94CC1F29833A8308
:1002E0004B835C8369017A0181E0C81AD108E10877
:1002F000F1089FEFC916D104E104F10409F00CF4F0
:1003000013C160E472E48FE090E0A50198010E94BF
:10031000CC1F69017A0181E0C81AD108E108F1080F
:100320009D81923009F098C08FEFC816D104E10486
:10033000F10409F00CF4DDC160E970ED83E090E0B8
:10034000A50198010E94CC1F69017A0191E0C91AA8
:10035000D108E108F1088FEFC816D104E104F104D7
:1003600011F00CF0A3C183E09091B100987F892B2C
:100370008093B100E1C083E080931E01EDECF0E0DA
:1003800094919D839F3F09F477CF913029F158F0E4
:10039000923009F43FC08D8187FD6ECF61E083E02C
:1003A0000E94EC008CCF14BC15BC84B5826084BD67
:1003B00085B5816085BDECEBF0E0E491F0E0EE0FF7
:1003C000FF1FE155FF4F85919491EEE9F0E0E49134
:1003D000E0934F051D826CCF109280001092810037
:1003E000809181008860809381008091810081608C
:1003F00080938100ECEBF0E0E491F0E0EE0FFF1F62
:10040000E155FF4F85919491EEE9F0E0E491E0939E
:100410004E054ECF1092B0001092B1008091B00006
:1004200082608093B0008091B10081608093B100C0
:10043000ECEBF0E0E491F0E0EE0FFF1FE155FF4F31
:100440008591949190934D0580934C05EEE9F0E0F1
:10045000E491E0934B052CCF9FEFC916D104E10442
:10046000F10409F00CF489C068E478EE81E090E0D2
:10047000A50198010E94CC1F69017A0181E0C81A88
:10048000D108E108F1089D81992309F428C19FEF63
:10049000C916D104E104F10409F00CF41EC162E1B3
:1004A0007AE780E090E0A50194010E94CC1F6901E9
:1004B0007A0181E0C81AD108E108F1089D819923E9
:1004C00009F4EBC08FEFC816D104E104F10411F078
:1004D00008F0BFC086E048CF64E274EF80E090E0AF
:1004E000A50194010E94CC1F69017A0181E0C81A1C
:1004F000D108E108F10885E09FEFC916D104E104B5
:10050000F10409F008F430CF62E17AE780E090E08E
:10051000A50194010E94CC1F69017A0191E0C91ADA
:10052000D108E108F108CECF81E09D8191111CCF67
:1005300095B5987F892B85BD2FEF3FEFA901411419
:1005400051046104710409F043C09D81913009F4A4
:100550005EC0923009F46DC091118ECEC7BC20935D
:1005600058053093590540935A0550935B05809187
:100570006E00826080936E007FCE82E0D6CFB12C79
:10058000A12C60E072E18AE790E0A50198010E9449
:10059000CC1F69017A0181E0C81AD108E108F1088D
:1005A000C114D10491E0E906F10404F591E08D81D4
:1005B000813011F680918100887F892B80938100A2
:1005C0002FEF3FEFA9014114510461047104F9F0C8
:1005D000D801AA0FBB1FA30192010E94391F28EE68
:1005E00033E040E050E00E94AA1FAFCF68E478EE0D
:1005F00081E090E0A50198010E94CC1F69017A0179
:1006000081E0C81AD108E108F10893E0D0CFD09278
:100610008900C0928800209354053093550540937B
:1006200056055093570580916F00826080936F004C
:1006300023CEC092B30020935005309351054093D0
:100640005205509353058091700082608093700032
:1006500013CEC980DA80EB80FC809AE0F594E794B1
:10066000D794C7949A95D1F791E0C91AD108E108B7
:10067000F10887E079CEC980DA80EB80FC808AE0DF
:10068000F594E794D794C7948A95D1F791E0C91A65
:10069000D108E108F10885E04BCF8FEFC816D104EF
:1006A000E104F10409F038F784E042CF68E478EE21
:1006B00081E090E0A50198010E94CC1F69017A01B8
:1006C00091E0C91AD108E108F1088FEFC816D104EA
:1006D000E104F10411F00CF0FFCE84E045CE8FEF81
:1006E000C816D104E104F10411F00CF0D8CE83E077
:1006F0001FCF82E039CE3FB7F89480911F059091CB
:100700002005A0912105B091220526B5A89B05C022
:100710002F3F19F00196A11DB11D3FBFBA2FA92F80
:10072000982F8827BC01CD01620F711D811D911D7D
:1007300042E0660F771F881F991F4A95D1F70895E9
:100740008F929F92AF92BF92CF92DF92EF92FF92E1
:100750004B015C010E947B036B017C010E947B03C7
:100760006C197D098E099F09683E734081059105CA
:10077000A8F321E0821A9108A108B10888EEC80EFA
:1007800083E0D81EE11CF11C81149104A104B10482
:1007900029F7FF90EF90DF90CF90BF90AF909F90A0
:1007A0008F9008952FB7F89460911B0570911C05E8
:1007B00080911D0590911E052FBF0895FC01248195
:1007C00035816217730748F480819181009729F081
:1007D000860F971FFC018081089580E00895AF92F5
:1007E000BF92CF92DF92EF92FF920F931F93CF931E
:1007F000DF936C017B018B01040F151FEB015E0180
:10080000AE18BF08C017D10759F06991D601ED9114
:10081000FC910190F081E02DC6010995892B79F7B3
:10082000C501DF91CF911F910F91FF90EF90DF9065
:10083000CF90BF90AF900895FC01538D448D252F2C
:1008400030E0842F90E0821B930B541710F0CF966A
:10085000089501970895FC01918D828D981761F09C
:10086000A28DAE0FBF2FB11D5D968C91928D9F5FB3
:100870009F73928F90E008958FEF9FEF0895FC0192
:10088000918D828D981731F0828DE80FF11D858D45
:1008900090E008958FEF9FEF0895FC01918D228DD8
:1008A000892F90E0805C9F4F821B91098F7399275D
:1008B00008958CEA95E00E944D0421E0892B09F40B
:1008C00020E0822F089580E090E0892B29F00E949B
:1008D000590481110C9400000895FC01A48DA80F07
:1008E000B92FB11DA35ABF4F2C91848D90E0019672
:1008F0008F739927848FA689B7892C93A089B18992
:100900008C91837080648C93938D848D981306C032
:100910000288F389E02D80818F7D80830895EF9296
:10092000FF920F931F93CF93DF93EC0181E0888FA9
:100930009B8D8C8D98131AC0E889F989808185FF79
:1009400015C09FB7F894EE89FF896083E889F9891B
:1009500080818370806480839FBF81E090E0DF911D
:10096000CF911F910F91FF90EF900895F62E0B8D70
:1009700010E00F5F1F4F0F731127E02E8C8D8E112B
:100980000CC00FB607FCFACFE889F989808185FF92
:10099000F5CFCE010E946D04F1CFEB8DEC0FFD2F52
:1009A000F11DE35AFF4FF0829FB7F8940B8FEA894D
:1009B000FB8980818062CFCFCF93DF93EC01888D5C
:1009C0008823B9F0AA89BB89E889F9898C9185FDCA
:1009D00003C0808186FD0DC00FB607FCF7CF8C9158
:1009E00085FFF2CF808185FFEDCFCE010E946D049F
:1009F000E9CFDF91CF910895FC0161819081492F6A
:100A000050E08281282F30E0E8E6F0E081E08617B0
:100A100030F47491270F311D8F5F3196F8CF63301A
:100A200020F0937011F42F5F3F4F6DE671E0469F09
:100A3000C001479F900D569F900D112405964D5F64
:100A40005F4F5695479556954795840F951F820F92
:100A5000931F67E070E00E94961F0895089520910B
:100A60009203260F3327331F21323105ECF42091F6
:100A70008205FC0190E080E0243069F082E0089576
:100A8000A09192032191AC014E585C4FA40FB52F59
:100A9000B11D2C930196861798F380919203680FED
:100AA0006093920380E0089581E00895109282059A
:100AB00081E08093810510925C0561E082E10E94F3
:100AC000BE0061E083E10E94BE00E9EBF0E08081BE
:100AD0008E7F808380818D7F808388E48093B800BF
:100AE00085E48093BC00089510922A051092290590
:100AF000109289051092AB050E94560583E990E09B
:100B0000909326058093250584E990E09093240531
:100B1000809323050895CF93DF9391E09093710321
:100B20008823B9F0C091B800D091BA008091BC0080
:100B30008A7B8093BC0060E082E10E94BE0060E09E
:100B400083E10E94BE000E945605D093BA00C09374
:100B5000B800DF91CF9108958F929F92AF92BF928C
:100B6000CF92DF92EF92FF920F931F93CF93DF9379
:100B7000D091AB05D13208F0D7C0182FC091AA058B
:100B80000E947B036B017C018091820581116BC007
:100B900082E080938205109381058FEF809380051A
:100BA00010927F05D0937E05AAE8B5E0EEE5F5E06A
:100BB00080E0D81391C010925D0580915D05CC0F47
:100BC000C82BC0935D0580915C05813009F088C019
:100BD00010925C050E947B036B017C0180915D0596
:100BE0008093BB008091840590918505A091860536
:100BF000B0918705892B8A2B8B2BA1F00E947B0358
:100C00000091840510918505209186053091870516
:100C10006C197D098E099F090617170728073907E0
:100C200008F442C08091BC0083FDD8CF85EC80934E
:100C3000BC000E947B036B017C01809182058230A5
:100C400009F450C0809180058F3F09F46FC08091F6
:100C50008005803209F46CC080918005803309F4EE
:100C600069C084E026C08091840590918505A0919B
:100C70008605B0918705892B8A2B8B2B09F484CFAD
:100C80000E947B038090840590908505A090860546
:100C9000B09087056C197D098E099F098616970605
:100CA000A806B90608F070CF809183050E948B05D5
:100CB00085E0109289051092AB0510928805DF91AE
:100CC000CF911F910F91FF90EF90DF90CF90BF9049
:100CD000AF909F908F9008959D9191938F5F69CF72
:100CE00085EEA5CF8091840590918505A09186051C
:100CF000B0918705892B8A2B8B2B09F49ECF0E94FC
:100D00007B03009184051091850520918605309123
:100D100087056C197D098E099F0906171707280793
:100D2000390708F08ACFC0CF81E0C3CF80E0C1CFC0
:100D300082E0BFCF83E0BDCFCF93DF93EC018B8107
:100D40008823A1F0888191E0909388058093AA057B
:100D5000109289051092AB0581E00E94AC0591E0EC
:100D6000811190E0892FDF91CF9108950E94740541
:100D700081E08B83CE010E949C06982F8111E2CFE7
:100D8000F1CF0895E0912A0580912905E81730F404
:100D9000F0E0E55DFA4F808190E008958FEF9FEFDE
:100DA000089590912A05809129052FEF3FEF98171C
:100DB00048F4E92FF0E0E55DFA4F208130E09F5FD5
:100DC00090932A05C90108958091290590912A05DB
:100DD000891B990B0895CF92DF92EF92FF920F93A8
:100DE0001F93CF93DF937C01CB018A01209188056B
:100DF000222389F0EB016B01C40ED51ECC15DD0555
:100E000069F06991D701ED91FC910190F081E02D9D
:100E1000C7010995F3CF642F0E942F05C801DF9108
:100E2000CF911F910F91FF90EF90DF90CF90089599
:100E3000CF93DF931F92CDB7DEB7698320918805EA
:100E40002223F9F02091AB05203258F021E030E068
:100E5000FC013383228390E080E00F90DF91CF91FB
:100E6000089580918905E82FF0E0E657FA4F9981BF
:100E700090838F5F809389058093AB0581E090E03C
:100E8000ECCF61E0CE0101960E942F05F7CFFC0167
:100E9000248131E0309388052093AA0510928905BA
:100EA0001092AB058385682B89E496E00E941807B1
:100EB00081E00C94AC051092660660E08BE596E04C
:100EC0000C94470788E08093660660E08BE596E027
:100ED0000C94470790E080E0089510928F041092E0
:100EE0009104109290040E94D20360557B4F8F4F63
:100EF0009F4F609392047093930480939404909313
:100F000095040895FC0130911C01232F353608F01B
:100F100024E640E1249FC001112464E670E00E94B1
:100F2000961F462F3A3090F480E28083205D218323
:100F300095E292838383349680E090E2841708F4EC
:100F40009FEF91938F5F8031C1F70895343660F43D
:100F5000822F6AE00E948A1F805D8083905D91836A
:100F600085E2828380E2E6CF81E3808380E3818330
:100F7000828385E2DFCF8091010181118091190187
:100F80000895CF93DF93C82F0E94BB07882309F4ED
:100F9000F9C0C93008F0F6C0EC2FF0E0EE52F84F7F
:100FA0000C94EB1FDB07F30708081D0832085308F1
:100FB00074089708C50846E450E060E070E080E7F8
:100FC00093E00E941D016EE670E080E090E00E94D8
:100FD000A00344E650E060E070E08BE492E0DF9133
:100FE000CF910C941D014CE350E060E070E08BE485
:100FF00092E00E941D016FE570E080E090E00E94A9
:10100000A00340E550E060E070E080E793E0E7CFC8
:1010100040E550E060E070E087E295E00E941D014D
:1010200062E870E080E090E00E94A00340E550E0BC
:1010300060E070E087E194E0D2CF40E550E060E00E
:1010400070E083E992E00E941D0162E870E080E0B8
:1010500090E00E94A00340E550E060E070E08BE08B
:1010600092E0BDCF47E350E060E070E080E296E0C0
:101070000E941D0160E570E080E090E00E94A00306
:1010800047E350E060E070E087E295E00E941D01D8
:1010900060E570E080E090E00E94A00346E450E04C
:1010A00060E070E0C7CF47E350E060E070E080E1CF
:1010B00093E00E941D0160E570E080E090E00E94F6
:1010C000A00347E350E060E070E083E992E00E9413
:1010D0001D0160E570E080E090E00E94A00346E41E
:1010E00050E060E070E0BBCF47E350E060E070E0CC
:1010F00083E992E00E941D0165E570E080E090E0E8
:101100000E94A00347E350E060E070E080E793E0D6
:101110000E941D0165E570E080E090E00E94A00360
:101120004AE550E060E070E087E295E058CFC0E02B
:10113000D4E046E950E060E070E087E194E00E948E
:101140001D0160EA70E080E090E00E94A00346E9A3
:1011500050E060E070E084EE92E00E941D0160EAE1
:1011600070E080E090E00E94A003D15011F7C230FF
:1011700031F060E971E080E090E00E94A003CF5F71
:10118000C330B1F6DF91CF9108954AE550E060E0B9
:1011900070E08BE092E00E941D016EE670E080E05E
:1011A00090E00E94A0034AE550E060E070E083E92F
:1011B00092E00E941D016EE670E080E090E00E94E7
:1011C000A0034AE550E060E070E080E193E00E9417
:1011D0001D016EE670E080E090E00E94A00348EC04
:1011E00050E060E070E026CF2F923F924F925F92E6
:1011F0006F927F928F929F92AF92BF92CF92DF9227
:10120000EF92FF920F931F93CF93DF935C011B012B
:101210006A01F12CE12CD50114968D919C918601E7
:101220000E191F098017910708F48C01F501D08170
:101230000E947B032B013C0180918205811172C0C9
:10124000C02F013208F0C0E2F1E0F093820521E006
:10125000C601801B910BE816F90608F420E02093E4
:1012600081058FEF8093800510927F058C0F80930E
:101270007E05A1E0A0935D0580915D05DD0FD82B73
:10128000D0935D0580915C05813009F090C010928B
:101290005C050E947B032B013C0180915D058093DE
:1012A000BB008091840590918505A0918605B09141
:1012B0008705892B8A2B8B2BA1F00E947B03209121
:1012C0008405309185054091860550918705641904
:1012D000750986099709261737074807590708F43B
:1012E00042C08091BC0083FDD8CFB5ECB093BC0068
:1012F0000E947B032B013C0180918205813009F41F
:101300005AC080917F058C1710F4C0917F05AEE51F
:10131000B5E0EBE2F5E080E08C1751F19D919193FF
:101320008F5FFACF8091840590918505A091860505
:10133000B0918705892B8A2B8B2B09F47DCF0E94D6
:101340007B0320918405309185054091860550915D
:10135000870564197509860997092617370748070D
:10136000590708F069CF809183050E948B05C0E082
:1013700010922A05C0932905C017110609F057C01D
:1013800041018E0C9F1CE401CE0188199909801738
:10139000910798F5D50111968D919C91DC01ED9105
:1013A000FC910284F385E02D09958993EDCFE5EE5C
:1013B000E093BC009DCF8091840590918505A0911C
:1013C0008605B0918705892B8A2B8B2B09F494CF46
:1013D0000E947B032091840530918505409186050C
:1013E00050918705641975098609970926173707EB
:1013F0004807590708F080CFB6CFE00EF11EEC1475
:10140000FD0408F408CF81E0DF91CF911F910F9187
:10141000FF90EF90DF90CF90BF90AF909F908F9014
:101420007F906F905F904F903F902F90089580E055
:10143000EBCF1F93CF93DF93DC011496ED91FC91DA
:10144000E417F50710F490E01FC0122FEA01FC0129
:1014500081819281208131E0309388052093AA0513
:10146000109289051092AB05DC01ED91FC91028090
:10147000F381E02D0995C817D90729F7812F0E941C
:10148000AC0591E08111DFCF892FDF91CF911F91C2
:101490000895EF92FF920F931F93CF93DF9300D0A5
:1014A00000D000D01F92CDB7DEB78C011982E0903A
:1014B0002705F090280520E041E050E0BE016F5F75
:1014C0007F4FC7010E94190A882341F047E050E08E
:1014D000BE016F5F7F4FC7010E94F408E981EF777B
:1014E000FA81FB805D814E814F778F81282F30E01C
:1014F00094E0359527959A95E1F7922F990F990FDA
:10150000291B220F280FD8012C93842F90E024E070
:10151000959587952A95E1F7982F990F990F891B33
:10152000880F840F11968C931197652F70E034E02B
:10153000759567953A95E1F7862F880F880F681B98
:10154000660F650F12966C9312974F2D50E064E072
:10155000559547956A95E1F7842F880F880F481BAA
:10156000440F4F0D13964C9313972F2F30E074E0D8
:10157000359527957A95E1F7822F880F880F281BDC
:10158000220F2F0F14962C9314978E2F90E0F4E0D7
:1015900095958795FA95E1F7982F990F990F891BE3
:1015A000880F8E0F15968C93C80127960FB6F89466
:1015B000DEBF0FBECDBFDF91CF911F910F91FF9086
:1015C000EF9008950F931F93CF938C01C62F0E9425
:1015D00047076C2F6460C8010E9447076C2F6B7F20
:1015E000C8010E94470783EC90E00197F1F7CF9183
:1015F0001F910F9108950F931F93CF93DF938C0149
:10160000D62FC42F607F642B0E94E20A80E1D89F0E
:10161000B00111246C2BC801DF91CF911F910F9164
:101620000C94E20A41E00E94FB0A81E090E00895F8
:1016300041E0682F8BE596E00E94FB0A81E090E094
:10164000089540E0682F8BE596E00C94FB0ACF9359
:10165000DF93CDB7DEB728970FB6F894DEBF0FBE85
:10166000CDBF98E0E5E2F1E0DE01119601900D9228
:101670009A95E1F790916306961710F46FEF690F52
:1016800070E0660F771F21E030E02C0F3D1F620FE6
:10169000731FFB019081890F806828960FB6F8941C
:1016A000DEBF0FBECDBFDF91CF910C94210B9F9277
:1016B000AF92BF92CF92DF92EF92FF920F931F9360
:1016C000CF93DF93982E6B0185E1989E80011124C2
:1016D000035E1C4FD0E0C0E08FEFFC2EF601E190DE
:1016E0006F0190911C035801AC0EBD1E992321F08F
:1016F000F50190819E1501F18F1521F0692D8F2D37
:101700000E94270B8E2D0E94180BF501E08281E0CC
:101710008F0D2196C431D10501F781E080931C0320
:10172000DF91CF911F910F91FF90EF90DF90CF90BD
:10173000BF90AF909F9008958FEFEBCF81E00E9414
:10174000210B8BE39FE10197F1F708950F931F930E
:10175000CF93DF93FC01048115810115110539F444
:10176000FB011082DF91CF911F910F91089541509D
:1017700051094017510708F48A01EB01FC0160810F
:101780007181A801CE010E94FC21C00FD11F1882D7
:10179000E9CFCF93DF93D0E0C0E0009771F0FC0178
:1017A00001900020E9F73197AF01481B590BBC01AC
:1017B0008CEA95E00E94EF03EC0142E050E063E820
:1017C00071E08CEA95E00E94EF038C0F9D1FDF9182
:1017D000CF9108958091180590911905039702976C
:1017E00068F426E934E0F90101900020E9F79F014F
:1017F0002759344081E02531310508F480E008950F
:101800004F925F926F927F928F929F92AF92BF9210
:10181000CF92DF92EF92FF92CF93C0911B018FEF97
:101820008C0F833608F05EC00E94EA0B81115AC00B
:101830000E947B034B015C012C2F30E0A0EABFE04B
:101840000E947B1F24E6422E512C612C712CA30197
:1018500092010E94AA1F69017A0188ECC80ED11C6E
:10186000E11CF11CC80CD91CEA1CFB1C24E630E06E
:101870002C1B3109A0EABFE00E947B1FA30192014B
:101880000E94AA1F49015A0180911A01882351F12F
:101890000E947B0340904C0450904D0460904E0495
:1018A00070904F04641975098609970997FD12C055
:1018B0000E945B0710921A010E947B03680D791D3C
:1018C0008A1D9B1D60934C0470934D0480934E04BD
:1018D00090934F040E947B036C197D098E099F0928
:1018E00097FDD2CFCF91FF90EF90DF90CF90BF9038
:1018F000AF909F908F907F906F905F904F900895E2
:10190000CF93DF93FC0124813581232B79F0C081B3
:10191000D181062E000C770BCE010E94EA210097A0
:1019200029F08C1B9D0BDF91CF9108958FEF9FEFD6
:10193000FACFFC0180819181009711F00C949420E2
:101940000895FC0180819181009711F00C94F11EA3
:1019500060E070E0CB010895FB0101900020E9F701
:101960003197E61BE53108F0E4E14E2F50E024E129
:1019700030E0241B350B35952795820F931F0C946F
:10198000DA21AF92BF92CF92DF92EF92FF920F9344
:101990001F93CF93DF93DC01CD90DC901197C1149E
:1019A000D10439F01496CD91DC918C017601209709
:1019B00061F4DF91CF911F910F91FF90EF90DF9035
:1019C000CF90BF90AF90089575015701BFEFAB1A4C
:1019D000BB0AF7018081082E000C990B0E942D1F75
:1019E000892B91F72197CC0DDD1D8881082E000CE5
:1019F000990B0E942D1F892B29F0CE15DF0510F0C1
:101A00002197F3CFAE014F5F5F4F4E195F09D801A9
:101A100015965C934E931497CE14DF0420F4B7010F
:101A2000C6010E94DA21D801ED91FC91119714961C
:101A30008D919C91E80FF91F1082BBCF0F931F93DC
:101A4000CF93DF93EC0188819981009759F02A8127
:101A50003B812617370730F081E0DF91CF911F914E
:101A60000F9108958B016F5F7F4F0E941D2100979A
:101A700059F0998388831B830A832C813D81232B12
:101A800059F7FC011082E8CF80E0E7CFEF92FF9298
:101A90000F931F93CF93DF93EC017B018A01BA016F
:101AA0000E941E0D28813981811114C02115310534
:101AB00019F0C9010E949420198218821D821C828B
:101AC0001B821A82CE01DF91CF911F910F91FF905F
:101AD000EF9008951D830C83B701C9010E94F52181
:101AE000F1CFFB01DC0111961C921E9213961C9201
:101AF0001E92129715961C921E921497861797079E
:101B000049F0608171816115710521F04481558131
:101B10000C94460D0895FC011182108213821282EA
:101B200015821482FB0101900020E9F73197AF0183
:101B3000461B570B0C94460DAF92BF92CF92DF928B
:101B4000EF92FF920F931F93CF93DF93EC016B0102
:101B50005A0179012417350720F48B2D5901E42E01
:101B6000F82E65E871E0CE010E948B0DD601149627
:101B70000D911C91A016B10628F5E016F10608F4A7
:101B80008701D601ED91FC911197E00FF11FF080D4
:101B900010826D917C916A0D7B1D61157105F1F0CC
:101BA000FB0101900020E9F73197AF01461B570B6D
:101BB000CE010E94460DF60180819181080F191F08
:101BC000D801FC92CE01DF91CF911F910F91FF9030
:101BD000EF90DF90CF90BF90AF900895888199816A
:101BE000009711F00E949420198218821D821C8295
:101BF0001B821A82E0CFCF93DF93EC01FB0124819B
:101C000035810E949C0DCE01DF91CF91089585ED25
:101C10008093BC008091840590918505A0918605F4
:101C2000B09187050796A11DB11D23E0B695A79534
:101C3000979587952A95D1F72091BC0024FD03C084
:101C40001092820508954091840550918505609118
:101C5000860570918705452B462B472B69F3009726
:101C6000A105B10541F02AE22A95F1F700C00197DC
:101C7000A109B109E1CF809183050C948B05EF9206
:101C8000FF920F931F93CF93DF93CDB7DEB7C55766
:101C9000D1090FB6F894DEBF0FBECDBF0E94BB07BF
:101CA000882309F4F5C044E150E060E270E0CE0121
:101CB00001960E94E32144E150E060E270E0CE0131
:101CC00045960E94E32144E150E060E270E0CE01DD
:101CD00089960E94E32144E150E060E270E0CE0189
:101CE000CD960E94E3218091EF04882369F064E09F
:101CF00071E0CE0101960E94AC0C68EF73E0CE015A
:101D000089960E94AC0CA4C0009118051091190589
:101D1000C8010797029760F08091F50466E871E0CA
:101D2000882311F065EF74E0CE0101960E94AC0C9F
:101D30000B30110508F08CC0F801EF55F14F0C94F1
:101D4000EB1FAC0E1C0F560F750F970F9A0FA30FBA
:101D5000D10F0210BF0FC80F8091F404882309F43B
:101D600062C0CE0180599F4F0E94490AE396FFACA2
:101D7000E397E296EFADE297E150FF0BEE0FFF1F06
:101D8000E55CFE4F10810181CE0180599F4F0E947A
:101D9000FC041F92FF920F931F93E82FF0E0EE0FC9
:101DA000FF1FE35DFE4F81818F9380818F938AEACD
:101DB00091E09F938F931F928CE08F937E0181E53A
:101DC000E80EF11CFF92EF920E940B22E5968FAD78
:101DD000E5971F928F93E4968FADE4971F928F93B0
:101DE00084EB91E09F938F931F9286E08F938E01F7
:101DF00006591F4F1F930F930E940B22B701CE016C
:101E000045960E94AC0CB801CE0189960E94AC0C9C
:101E1000E5968FADE59780931D010FB6F894DEBF70
:101E20000FBECDBF15C06EEB71E0CE0145960E948E
:101E3000AC0C67EC71E063CF6AED71E0CE0189967E
:101E40000E94AC0C8091500460E574E081114AC09E
:101E50000E94000CBE016F5F7F4F80E00E94570B15
:101E60000E94000CBE016B5E7F4F81E00E94570B09
:101E70000E94000CBE01675D7F4F82E00E94570BFD
:101E80000E94000CBE01635C7F4F83E00E94570BF1
:101E9000CB58DF4F0FB6F894DEBF0FBECDBFDF913A
:101EA000CF911F910F91FF90EF90089580917A0448
:101EB00068E971E0882311F06AE774E0CE01899641
:101EC0000E94AC0C80911C018F3F29F0CE01CD9671
:101ED0000E948207BDCF8091650465E674E0882387
:101EE00009F4B6CFCE01CD960CCF6FED71E0CE01E7
:101EF00089960E94AC0C86E994E0FC0101900020D8
:101F0000E9F7CF0187599440982F815066E974E032
:101F1000843140F3953108F49BCF84E1E6E9F4E0A5
:101F2000DE01DD9601900D928A95E1F791CF61EF88
:101F300071E0DDCF6DEF71E0CE0189960E94AC0CAF
:101F400065E072E0CFCF80912204882331F062E215
:101F500074E0CE0145960E94AC0C80913704882332
:101F600031F067E374E0CE0189960E94AC0C809159
:101F70000D046DE074E0882309F46ACFB3CF60E10B
:101F800072E0CE0189960E94AC0C69E172E0AACFA2
:101F900063EE73E0CE0189960E94AC0C6EEC73E0A8
:101FA000A1CF6AE272E0CE0101960E94AC0C63E31D
:101FB00072E0CE0145960E94AC0C8091B90381116C
:101FC0001EC080EA91E09F938F9382E492E09F93FA
:101FD0008F931F9289E18F938E010F5A1F4F1F938A
:101FE0000F930E940B22B801CE0189960E94AC0C7F
:101FF00068E472E0CE01CD960E94AC0C0ECF89EB66
:1020000093E0E1CF6BE572E0CE0101960E94AC0C4B
:102010006DE672E0CE0189960E94AC0C6BE772E02F
:1020200061CFCF93C82F0E94BB078C1769F088231C
:10203000E1F00E943F0E80911B01843638F00E942F
:10204000620781E080931A01CF9108958823E1F31C
:1020500010921A010E947B0360934C0470934D040C
:1020600080934E0490934F04EFCF0E945B07109231
:102070001A010E949E0BEDE1F3E084E5DF011D9261
:102080008A95E9F710921C03DFCF0F931F93CF932C
:10209000DF9300911805109119050817190709F425
:1020A00066C090931905809318058230910521F040
:1020B0001092650410927A049C0123503109223059
:1020C000310508F04DC0109237041092220410928E
:1020D0000D048730910589F01092140510921505B2
:1020E000109216051092170520910F05211102C0BC
:1020F0001092B9038830910559F010921005109292
:10210000110510921205109213058A30910521F0E5
:102110001092E3031092CE03EC010E946D070E941F
:102120003F0E0115110519F187E0C730D10591F077
:1021300088E0C830D10571F086E0C430D10551F097
:1021400081E0C330D10531F0219789F402301105C7
:1021500071F480E0DF91CF911F910F910C94C10732
:10216000109296048630910509F4B6CFACCFDF917A
:10217000CF911F910F910895EF92FF920F931F93AC
:10218000CF93DF93CDB7DEB764970FB6F894DEBF79
:102190000FBECDBF082F7B010E94BB07882359F1DA
:1021A000F70101900020E9F731971E2F1E19153114
:1021B00008F014E144E150E060E270E0CE010196E5
:1021C0000E94E321412F50E084E190E0841B950BB5
:1021D00095958795B70121E030E02C0F3D1F820FC8
:1021E000931F0E94DA210E94000CBE016F5F7F4F97
:1021F000802F0E94570B64960FB6F894DEBF0FBE77
:10220000CDBFDF91CF911F910F91FF90EF90089577
:102210001F93CF93DF93CDB7DEB764970FB6F894D3
:10222000DEBF0FBECDBF182F44E150E060E270E08A
:10223000CE0101960E94E3210E94000CBE016F5F57
:102240007F4F812F0E94570B64960FB6F894DEBF24
:102250000FBECDBFDF91CF911F9108950F931F93B4
:10226000CF93DF93CDB7DEB764970FB6F894DEBF98
:102270000FBECDBF0E94BB07882371F046E954E032
:10228000FA0101900020E9F7AF014759544041118C
:102290000EC083E00E94081164960FB6F894DEBF6A
:1022A0000FBECDBFDF91CF911F910F9108954531A2
:1022B00038F58A01112744E150E060E270E0CE0178
:1022C00001960E94E32184E190E0801B910B97FD31
:1022D000019695958795A80166E974E021E030E0C4
:1022E0002C0F3D1F280F311DC9010E94DA210E94C9
:1022F000000CBE016F5F7F4F83E00E94570BCCCF75
:102300004451E0918F044E1708F4E42FF0E0EA56B0
:10231000FB4FDE011196CE01459621912D93A81712
:10232000B907D9F7E4CF1F920F920FB60F9211247D
:102330002F933F938F939F93AF93BF9380911B05F0
:1023400090911C05A0911D05B0911E0530911A05B4
:1023500023E0230F2D3758F50196A11DB11D2093C1
:102360001A0580931B0590931C05A0931D05B0933F
:102370001E0580911F0590912005A0912105B09127
:1023800022050196A11DB11D80931F059093200584
:10239000A0932105B0932205BF91AF919F918F919A
:1023A0003F912F910F900FBE0F901F90189526E828
:1023B000230F0296A11DB11DD2CF1F920F920FB60F
:1023C0000F9211242F933F934F935F936F937F93BB
:1023D0008F939F93AF93BF93EF93FF93809150059B
:1023E00090915105A0915205B0915305892B8A2BEC
:1023F0008B2BD1F190914B05E0914C05F0914D055F
:102400008081892780838091500590915105A0910A
:102410005205B0915305181619061A061B069CF4AE
:102420008091500590915105A0915205B0915305AE
:102430000197A109B1098093500590935105A0938C
:102440005205B0935305FF91EF91BF91AF919F91CA
:102450008F917F916F915F914F913F912F910F904D
:102460000FBE0F901F90189580911E01EDECF0E0CB
:10247000E4919FEF90931E01E13051F030F0E23093
:1024800069F060E00E94BE00DECF10926E00F9CFCE
:1024900090916F009D7F90936F00F3CF90917000AB
:1024A0009D7F9093700091E09093B0009091B10067
:1024B000987F94609093B1001092B300E2CF1F9286
:1024C0000F920FB60F9211242F933F934F935F9368
:1024D0006F937F938F939F93AF93BF93EF93FF93EC
:1024E0008CEA95E00E946D04FF91EF91BF91AF914E
:1024F0009F918F917F916F915F914F913F912F911C
:102500000F900FBE0F901F9018951F920F920FB64D
:102510000F9211242F938F939F93EF93FF93E0914A
:10252000BC05F091BD058081E091C205F091C30525
:1025300082FD1BC090818091C5058F5F8F732091B4
:10254000C605821741F0E091C505F0E0E455FA4F69
:10255000958F8093C505FF91EF919F918F912F915A
:102560000F900FBE0F901F9018958081F4CF1F928F
:102570000F920FB60F9211242F933F934F935F93B7
:102580006F937F938F939F93AF93BF93EF93FF933B
:102590008091B900887F803609F44AC0F0F588320E
:1025A00009F4A7C018F5803109F49BC0B8F488235A
:1025B00009F4F9C0883009F494C0FF91EF91BF91FC
:1025C000AF919F918F917F916F915F914F913F91CB
:1025D0002F910F900FBE0F901F901895883109F41E
:1025E00088C0803251F78093800514C0803409F48C
:1025F0009DC040F48033B9F38833F9F680938005A9
:1026000085ECB0C0803509F485C0883509F496C0E2
:10261000883499F60E94070ED0CF883909F48CC00F
:1026200038F5883729F050F4883611F0803729F6CC
:1026300083E0809382051092B40357C0883809F470
:102640007BC0803919F0803809F0B7CF8091B4038E
:10265000803208F071C0E091B40381E08E0F809366
:10266000B4038091BB00F0E0EC56FC4F80833DC08A
:10267000803B39F0E0F4803A09F479C0883A09F0F7
:102680009CCF84E080938205109293031092920372
:10269000E0912505F091260509958091920381111D
:1026A0000FC081E0809392031092720309C0803CB6
:1026B00009F4A6CF883C09F4A3CF883B09F07DCF6D
:1026C000E091930381E08E0F80939303F0E0EE5846
:1026D000FC4F80818093BB00909193038091920383
:1026E00029C080915D058093BB0085EC8093BC0080
:1026F00064CF90917F0580917E05981758F5E09101
:102700007F0581E08E0F80937F05F0E0E25AFA4F5B
:102710008081E9CFE0917F0581E08E0F80937F0576
:102720008091BB00F0E0E25AFA4F808390917F05E0
:1027300080917E059817C8F285E8D8CFE0917F0593
:1027400081E08E0F80937F058091BB00F0E0E25A1C
:10275000FA4F80838091810581115CCF81E0809365
:102760005C0584EA8093BC001092820526CF85EC3C
:102770008093BC00109282058091B403803230F4C3
:10278000E091B403F0E0EC56FC4F10826091B4038A
:1027900070E0E0912305F091240584E993E0099528
:1027A0001092B4030ACF1092800534CFECEAF5E022
:1027B0001382128288EE93E0A0E0B0E084839583D8
:1027C000A683B78327E531E03183208325EC30E011
:1027D0003587248724EC30E03787268720EC30E0EB
:1027E000318B208B21EC30E0338B228B22EC30E0DC
:1027F000358B248B26EC30E0378B268B118E128E96
:10280000138E148EE9E4F6E013821282848395839A
:10281000A683B78389E691E091838083EBE5F6E0B8
:10282000138212828BE791E09183808387E2848315
:1028300084E1818784E08287138665E871E085E51D
:1028400096E00C948B0DCF93DF93CDB7DEB7C154D8
:10285000D1090FB6F894DEBF0FBECDBF789484B512
:10286000826084BD84B5816084BD85B5826085BD8C
:1028700085B5816085BD80916E00816080936E001A
:10288000109281008091810082608093810080910C
:1028900081008160809381008091800081608093BD
:1028A00080008091B10084608093B1008091B0007D
:1028B00081608093B00080917A00846080937A0078
:1028C00080917A00826080937A0080917A008160A2
:1028D00080937A0080917A00806880937A001092C9
:1028E000C100E091BC05F091BD0582E08083E091DC
:1028F000B805F091B9051082E091BA05F091BB05D9
:102900008FEC80831092C405E091C005F091C10561
:1029100086E08083E091BE05F091BF0580818061F3
:102920008083E091BE05F091BF058081886080833F
:10293000E091BE05F091BF05808180688083E091C1
:10294000BE05F091BF0580818F7D808361E084E0CA
:102950000E94EC0061E084E00E94BE0062E087E03B
:102960000E94EC0061E083E00E94EC0060E083E004
:102970000E94BE000E9474058CE08093B80011E0B4
:102980001093880587E28093AA051092890510921A
:10299000AB0581E00E94AC05882381F01093880587
:1029A0001FE31093AA05109289051092AB0581E0F0
:1029B0000E94AC05811102C01093000180910001BA
:1029C00010925E0610925D0680935F06109260067C
:1029D00010926106109262061092630684E1809361
:1029E000640684E080936506109266060E94740572
:1029F0001092600680916506823018F098E09093FE
:102A000060068093630662E370E080E090E00E94DD
:102A1000A003609166068BE596E00E94470768EE8A
:102A200073E080E090E00E94A00360E38BE596E015
:102A30000E94E20A0BE416E4C8010197F1F760E393
:102A40008BE596E00E94E20AC8010197F1F760E386
:102A50008BE596E00E94E20A83E592E00197F1F7A8
:102A600060E28BE596E00E94E20A80916006806257
:102A70000E94210B84E0809361068CE00E94210B70
:102A80000E949E0B82E08093620686E00E94210BEA
:102A900082E00E94210B8BE39FE10197F1F70E94F6
:102AA000620781E080931A010E947B036B017C0125
:102AB00020911B0130E0A0EABFE00E947B1F24E6CA
:102AC00030E040E050E00E94AA1FC20ED31EE41E78
:102AD000F51EC0924C04D0924D04E0924E04F09248
:102AE0004F04809161068D7F8093610688600E940B
:102AF000210B809161068E7F8093610688600E9421
:102B0000210B8091270590912805009711F00E94D4
:102B1000942086E090E00E94F81F8C0188E6F8017E
:102B2000808389E496E092838183138280E290E03F
:102B30009583848310932805009327050E947405CC
:102B400081E0F8018383C8010E949C068093F4040D
:102B50008BE0E3EAF2E0DE01929601900D928A9515
:102B6000E1F78DE0EEEAF2E0DE01559601900D927C
:102B70008A95E1F784E1EBEBF2E08E010F5F1F4FE6
:102B8000D80101900D928A95E1F70E949E0B6E018B
:102B9000F2E2CF0ED11C75E0F72E260161E08F2DF9
:102BA0000E94270BF60181916F010E94180B6CE3C4
:102BB00070E080E090E00E94A003F394FFE0FF1239
:102BC000EDCF5E0125E1A20EB11C64E0D62EFA2CF9
:102BD000EB2C62E08D2D0E94270BF50181915F01A6
:102BE0000E94180B6CE370E080E090E00E94A0036C
:102BF000D394F0E1DF12EDCF6CE271E080E090E081
:102C00000E94A0034E0123E1821A910854E1A52EEF
:102C1000B12C63E080E00E94270BD12CC12CC601AF
:102C20008A199B09439708F08BC1F401EC0DFD1D37
:102C300080810E94180B3FEFC31AD30A44E1C416E7
:102C4000D10469F76EE170E080E090E00E94A0039B
:102C500051E0A51AB1088FEF881A980A9FEFA916BC
:102C6000B906B9F660EF7AE080E090E00E94A00338
:102C70000E943F0E81E992E00E94C90B0E94BB07AF
:102C80008823A1F0D0901B018FEF8D0D833670F457
:102C90000E94EA0B882309F455C180911A01811121
:102CA00005C00E94620781E080931A01EEE8F0E01F
:102CB0008491E2EAF0E0D490E0ECF0E0C490B12C32
:102CC000A12CCC2099F081110E949500EC2DF0E010
:102CD000EE0FFF1FED58FF4FA591B491EC91DE224E
:102CE00091E080E009F490E0A92EB82E90900301C5
:102CF000892D092C000C990B8A159B0509F467C1D5
:102D0000A09203010E94D2036093B5037093B603AF
:102D10008093B7039093B80380911805909119059B
:102D2000079709F58090140590901505A090160559
:102D3000B090170581149104A104B104D9F10E9447
:102D4000D203681979098A099B0997FD33C010924B
:102D5000140510921505109216051092170581E0C2
:102D600090E00E94451080911805909119050897F0
:102D700009F58090100590901105A0901205B09073
:102D8000130581149104A104B104A1F00E94D2039F
:102D9000681979098A099B0997FD0CC010921005E2
:102DA00010921105109212051092130581E090E027
:102DB0000E94451080910F05882309F46BC0809014
:102DC0000B0590900C05A0900D05B0900E05811498
:102DD0009104A104B10479F10E94D2036819790920
:102DE0008A099B0997FD27C010920F0510920A05CA
:102DF00010920B0510920C0510920D0510920E0505
:102E00000E94BB07882309F445C080911805909162
:102E1000190506970397F0F18091F50465EF74E0CA
:102E2000811102C066E871E080E00E94BC108091D0
:102E30000F05882379F1809118059091190507975E
:102E4000029740F10E94BB07882321F10E94D20320
:102E500028E833E140E050E00E94AA1FDA01C901EE
:102E600080959095A095B095817090910A058917ED
:102E700089F080930A0563E372E020FF08C0809127
:102E8000F50465EF74E0811102C066E871E080E04E
:102E90000E94BC10222423943AE0332E8CEA95E061
:102EA0000E944D04892B09F451C68CEA95E00E94DA
:102EB0002B04C0905906D0905A068A3019F08D30F4
:102EC00009F020C6CD2851F365E576E0CE01C39622
:102ED0000E94710DCE01C3960E94C10CCFA8D8AC40
:102EE000C114D10409F407C170E060E0CE01C396BB
:102EF0000E94DE03EFEBE80FEA3108F0FCC00E2E73
:102F0000000CFF0BEA57F84E0C94EB1F091DF91A41
:102F10007B18241B8C1B7B18FD184B1A3D187B1843
:102F2000801938197E1AB5188E188818DB18DE1B20
:102F30007B189118331B651D42188B187B189A1A41
:102F400080E277CE0E947B034B015C0180914C04B0
:102F500090914D04A0914E04B0914F04A5019401AD
:102F6000281B390B4A0B5B0BDA01C901B7FD9ECE5A
:102F700080911A018823F9F00E945B0710921A01D0
:102F8000A4E6B0E0AD19B10920EA3FE00E94F11FCC
:102F900024E630E040E050E00E94AA1F820E931E1B
:102FA000A41EB51E80924C0490924D04A0924E0433
:102FB000B0924F047BCE0E94620781E080931A0199
:102FC0002D2D30E0A0EABFE00E947B1FE1CFC09032
:102FD0001805D09019050E94D2032091B5033091B5
:102FE000B6034091B7035091B803621B730B840B77
:102FF000950B6E3171058105910508F48DCE809198
:103000000201282F082E000C330B2A153B0509F46A
:1030100083CE909202018F3F09F47ECEAA94AB2812
:1030200009F07ACE47E0C416D10469F41092140571
:1030300010921505109216051092170581E090E088
:103040000E94451069CE0E94BB07882369F0109248
:1030500001010E9411100E94BB07882359F087E8E4
:1030600092E00E94C90B58CE91E090930101909399
:103070001901EFCF8CE892E0F4CF81E090E00E945C
:10308000451039C053E0C516D10418F161E070E075
:10309000CE01C3960E94DE038A33D9F442E050E0A9
:1030A000BE016D5C7F4FC8010E94FB0D45E150E001
:1030B0006AE774E0C8010E94A60BC8010E94990C3F
:1030C0008091180590911905029731F082E090E007
:1030D000D6CF10927A04F4CF0E94BB07882359F010
:1030E00080917A046AE774E0811102C068E971E0B6
:1030F00082E00E94BC10CE01C3960E94990C50E061
:1031000040E065E871E085E596E00E94460DC6CE98
:1031100083E090E0B4CF84E090E0B1CF85E090E030
:10312000AECF6AE3CE01C3960E94800CAC014F5F24
:103130005F4FBE016D5C7F4FC8010E94FB0D45E1F2
:1031400050E065E674E0C8010E94A60B8091180566
:1031500090911905029739F480911C0165E674E09D
:103160008F3F09F446C0C801F9C06AE3CE01C39697
:103170000E94800CAC014F5F5F4FBE016D5C7F4FC2
:10318000C8010E94FB0D41E550E066E974E0C8010A
:103190000E94A60B8091180590911905039702973C
:1031A00028F40E946D070E942E11DDCF83E090E08D
:1031B0000E944510D8CF6AE3CE01C3960E94800CCE
:1031C000AC014F5F5F4FBE016D5C7F4FC8010E9435
:1031D000FB0D45E150E060E574E0C8010E94A60BDC
:1031E0008091180590911905019709F0BCCF60E511
:1031F00074E083E00E94BC10B6CF6AE3CE01C396B0
:103200000E94800C97FD77CFAC014F5F5F4FBE01EE
:103210006D5C7F4FC8010E94FB0DC8010E94A10C8C
:103220004B015C01C8010E94990C85E68816910447
:10323000A104B10408F05FCF80921C0180911805B1
:1032400090911905029709F056CF0E94BB07882379
:1032500009F451CF8091EF0481114DCFC8010E9434
:1032600082070E94000CB80183E00E94570B43CFF5
:103270006AE3CE01C3960E94800C97FD3CCFAC015F
:103280004F5F5F4FBE016D5C7F4FC8010E94FB0D19
:10329000C8010E94A10C4B015C01C8010E94990C5D
:1032A00095E689169104A104B10408F024CF809218
:1032B0001B010E94BB07882309F41DCF81149104D0
:1032C000A104B10429F40E945B0710921A0113CFE4
:1032D000E4E68E169104A104B10429F40E94620769
:1032E00020921A0108CF10921A010E947B0360936A
:1032F0004C0470934D0480934E0490934F04FBCE86
:103300006AE3CE01C3960E94800C97FD2AC0AC01EF
:103310004F5F5F4FBE016D5C7F4FCE018D960E9467
:10332000FB0D6CE7CE018D960E94800C4C0197FF3F
:103330001FC045E150E067E374E0CE018D960E9426
:10334000A60B8091180590911905069709F476C08F
:1033500086E090E00E944510CE018D960E94990C67
:10336000CACE65E871E0CE018D960E948B0DD9CF53
:103370005C01FFEFAF1ABF0A89A99AA9A816B9067E
:1033800070F46DA47EA46CE770E0C3018A0D9B1DF0
:103390000E94EA216C01C618D708892B19F4CC24A5
:1033A000CA94DC2C940150E040E0BE01635D7F4F85
:1033B000C2010E949C0DD7FE2EC0A501BE01635D17
:1033C0007F4F8F2D9E2D0E94FB0D65E871E0C80197
:1033D0000E948B0D45E150E067E374E0C2010E945A
:1033E000A60B45E150E062E274E08F2D9E2D0E9415
:1033F000A60B45E150E06DE074E0C8010E94A60B09
:10340000C8010E94990C8F2D9E2D0E94990CC2011B
:103410000E94990C96CF9601A501BE01635D7F4F76
:103420008F2D9E2D0E949C0DA6014F5F5F4FBE0108
:10343000635D7F4FC8010E94FB0DCCCF0E94BB078C
:10344000882309F489CF809122048823C1F062E2A5
:1034500074E081E00E94BC1080913704882399F0C9
:1034600067E374E082E00E94BC1080910D04882321
:1034700071F06DE074E083E00E94BC106DCF81E0DC
:103480000E940811E9CF82E00E940811EECF83E08C
:103490000E94081161CF6AE3CE01C3960E94800C9E
:1034A00097FD26C0AC014F5F5F4FBE016D5C7F4F43
:1034B000C8010E94FB0D45E150E065EF74E0C801D2
:1034C0000E94A60B0E94BB07882309F44CCE809172
:1034D000180590911905069709F445CE8091F504D9
:1034E00065EF74E0811102C066E871E080E082CE91
:1034F00065E871E0C8010E948B0DDDCF22E0C216A5
:10350000D10408F4F8CD0E94BB07D82E61E070E02A
:10351000CE01C3960E94DE03803331F4109219016C
:103520008D2D0E941110E7CD813309F0E4CD20925A
:103530001901F6CF0E94BB07882309F4DCCD6AE3AA
:10354000CE01C3960E94800C97FDD5CDAC014F5F94
:103550005F4FBE016D5C7F4F8F2D9E2D0E94FB0D36
:103560006CE28F2D9E2D0E94800C6C0197FD3EC059
:103570009C0150E040E06F2D7E2DC8010E949C0D03
:10358000C8010E94A10C6AAF7BAF8CAF9DAFC80190
:103590000E94990CA6014F5F5F4F6F2D7E2DC801D1
:1035A0000E94FB0DC8010E94A10C4B015C01C801E7
:1035B0000E94990C8AAD9BADACADBDAD4F97A109F2
:1035C000B10981309E44A105B10580F4D501C40143
:1035D0000197A109B109803D9740A105B10530F4DB
:1035E000B501A4018AAD9BAD0E941D018F2D9E2DBA
:1035F000B5CE53E0C516D10440F061E070E0CE01D5
:10360000C3960E94DE038A3319F090E080E037CD44
:1036100042E050E0BE016D5C7F4FC8010E94FB0D8F
:10362000C8010E94A10C4B015C01C8010E94990CC9
:103630008FEF88169104A104B10411F008F05BCD5E
:10364000882D0E94C10757CD89E090E00E94451067
:103650000E94D2036093F0047093F1048093F2040B
:103660009093F30448CD6AE3CE01C3960E94800C88
:10367000AC014F5F5F4FBE016D5C7F4FC2010E9486
:10368000FB0D6CE7C2010E94800C6C0197FD39C0F4
:103690009C0150E040E0B2018F2D9E2D0E949C0DB8
:1036A000A6014F5F5F4FB201C8010E94FB0D45E1CB
:1036B00050E064E071E08F2D9E2D0E94A60B45E145
:1036C00050E068EF73E0C8010E94A60B2092EF045F
:1036D0000E94D20368577C4E8F4F9F4F6093EB043C
:1036E0007093EC048093ED049093EE040E943F0EDF
:1036F000C8010E94990C8F2D9E2D0E94990CC20129
:103700002DCE67E972E08F2D9E2D0E948B0DB201A8
:10371000C8010E94710DCBCF6AE3CE01C3960E940F
:10372000800C97FD3AC0AC014F5F5F4FBE016D5CEE
:103730007F4FC2010E94FB0D6CE7C2010E94800C0A
:103740006C0197FD30C09C0150E040E0B2018F2D2C
:103750009E2D0E949C0DA6014F5F5F4FB201C801D4
:103760000E94FB0D45E150E063EE73E08F2D9E2D2E
:103770000E94A60B45E150E06EEC73E0C8010E9488
:10378000A60B80911805909119050A9709F4AECF00
:103790008AE090E00E944510ABCF65E871E0C2017D
:1037A0000E948B0DC9CFB2018F2D9E2D0E94710DED
:1037B00065E871E0C8010E948B0DD4CF8091F404BC
:1037C000882309F498CC95E1C916D10408F493CC68
:1037D00061E070E0CE01C3960E94DE038A3309F0F7
:1037E0008ACC26E030E042E050E0BE016D5C7F4FC5
:1037F000C8010E949C0DC8010E94A10C4B01C80188
:103800000E94990C29E030E047E050E0BE016D5C79
:103810007F4FC8010E949C0DC8010E94A10C6AAF95
:103820007BAF8CAF9DAFC8010E94990C2CE030E0BB
:103830004AE050E0BE016D5C7F4FC8010E949C0DC4
:10384000C8010E94A10C22966CAF7DAF8EAF9FAFD6
:103850002297C8010E94990C2FE030E04DE050E023
:10386000BE016D5C7F4FC8010E949C0DC8010E9483
:10387000A10C762EC8010E94990C22E130E040E1B3
:1038800050E0BE016D5C7F4FC8010E949C0DC801D5
:103890000E94A10CD62EC8010E94990C25E130E0AF
:1038A00043E150E0BE016D5C7F4FC8010E949C0D5A
:1038B000C8010E94A10CC62EC8010E94990CC40127
:1038C000885E97408C34910508F015CC8AAD9BAD8D
:1038D00001970C9708F00FCC8EAD9FAD01974F97D5
:1038E00008F009CCE0ED8E1AE7E09E0A8D8AFAAD69
:1038F000FE8B2EAD2F8B788ED98ECA8EF80128E0E4
:1039000011922A95E9F78C2D632D0E948A1F982F1A
:10391000990F890F880FC80ECA828D2D0E948A1FA9
:10392000982F990F890F880FD80EDB82872D0E9460
:103930008A1F982F990F890F880F780E7C828F2D00
:103940009E2D0E94FC04282F811101C027E0822FA8
:10395000632D0E948A1F982F880F890F880F820F6E
:103960008D832F89822F0E948A1F982F880F890F9D
:10397000880F820F8E832E89822F0E948A1F982F94
:10398000880F890F880F820F8F832D89822F0E94C5
:103990008A1F982F880F890F880F820F888721E050
:1039A00048E050E0BE016F5F7F4F80912705909106
:1039B00028050E94190A3FE039AF21E041E050E0BC
:1039C000BE01675C7F4F80912705909128050E947A
:1039D000190A41E050E0BE016E5D7F4F80912705DE
:1039E000909128050E94F4088AA14FE04AA38F779E
:1039F0008BA321E042E050E0BE016E5D7F4F8091DD
:103A00002705909128050E94190A8FEF80931D01C8
:103A100072CB53E0C516D10440F061E070E0CE01F6
:103A2000C3960E94DE038A3369F144E150E060EA04
:103A300071E089EB93E00E94FC210E94D203605E5A
:103A4000714B8F4F9F4F60930B0570930C058093C4
:103A50000D0590930E0580910F0581114CCB20929E
:103A60000F050E94D203605F784D8F4F9F4F609388
:103A7000140570931505809316059093170587E03C
:103A800090E0FDCA42E050E0BE016D5C7F4FC8018E
:103A90000E94FB0DC8010E94C10C8D819E81892B63
:103AA00059F045E150E069EB73E0C8010E94A60BB4
:103AB000C8010E94990CC1CF44E150E060EA71E076
:103AC00089EB93E00E94FC21F3CF10920F05109236
:103AD0000A0510920B0510920C0510920D0510921C
:103AE0000E050E94D203605F784D8F4F9F4F609309
:103AF000100570931105809312059093130588E0CB
:103B000090E0BDCA90E4C916D10408F0C7C9898302
:103B10001A82EFEFCE1ADE0AB60185E596E00E9422
:103B20001E0D882309F4BAC9209155063091560616
:103B30008091590690915A06B801820F931F0E94F6
:103B4000F521D0925A06C0925906A8C90E94BB0717
:103B5000882309F4C0C08091EF0481113AC080919C
:103B60001805909119050397029798F5E6E9F4E096
:103B700001900020E9F79F0127593440690134E1A1
:103B80003C1538F50E94D2038090920490909304E3
:103B9000A0909404B09095049B01AC0128193909B8
:103BA0004A095B0949015A01B7FC0EC020919004F3
:103BB000309191042130310509F4E4C008F4D4C0F7
:103BC0002230310509F4FEC00E94BB07882309F4A6
:103BD00082C08091180590911905892B09F07BC04E
:103BE0008091F404882309F476C08091EF04811158
:103BF00072C00E94D2038090E7049090E804A090E5
:103C0000E904B090EA049B01AC01281939094A097A
:103C10005B0949015A0138EE831633E09306A1048B
:103C2000B10408F458C06093E7047093E8048093EB
:103C3000E9049093EA04C2010E94490A8EA190917E
:103C40001D01891709F447C080931D01BCA0EBA199
:103C5000E150FF0BEE0FFF1FE55CFE4FD080C180EF
:103C6000C2010E94FC041F92BF92CF92DF92E82F04
:103C7000F0E0EE0FFF1FE35DFE4F81818F938081A7
:103C80008F938AEA91E09F938F931F928CE08F939A
:103C90001F930F930E940B228EA11F928F938DA1D1
:103CA0001F928F9384EB91E09F938F931F9286E0F6
:103CB0008F93EF92FF920E940B22B80181E00E9445
:103CC000BC106F2D7E2D82E00E94BC100FB6F894C0
:103CD000DEBF0FBECDBF80911805909119050997E1
:103CE000D9F48091F4048823B9F00E94D203809023
:103CF000F0049090F104A090F204B090F3046819DD
:103D000079098A099B09603C744D8140910520F036
:103D100090E080E00E9445108091EF048823A1F09C
:103D20000E94D2038090EB049090EC04A090ED04EC
:103D3000B090EE04681979098A099B0997FD04C0BF
:103D40001092EF040E943F0E80E090E0892B11F466
:103D50000C943E160E945904882311F40C943E16CC
:103D60000E9400000C943E1621E020938F0421E075
:103D700030E0309391042093900466507F4F8F4F32
:103D80009F4F15C02CEE2C0D30918F043F5F309368
:103D90008F04321790F320938F0422E030E03093A9
:103DA00091042093900464527A4F8F4F9F4F6093F9
:103DB00092047093930480939404909395040E94CA
:103DC0002E1102CF10928F04109291041092900441
:103DD00060557B4F8F4F9F4FEACF85E596E00C945F
:103DE000990C1F93FC0199278827BC01E894119135
:103DF0001032E9F3193010F01E30C8F31B3251F0C5
:103E00001D3249F4689406C00E94181F610F711D8D
:103E1000811D911D119110531A30B0F33EF490950D
:103E20008095709561957F4F8F4F9F4F1F9108959B
:103E3000592F482F372F262F660F771F881F991F5E
:103E4000660F771F881F991F620F731F841F951FAE
:103E5000660F771F881F991F089591110C94361FC4
:103E6000803219F089508550C8F70895992788271E
:103E700008950E947B1FA59F900DB49F900DA49F55
:103E8000800D911D112408952F923F924F925F92C1
:103E90006F927F928F929F92AF92BF92CF92DF925A
:103EA000EF92FF920F931F93CF93DF93CDB7DEB7BF
:103EB000CA1BDB0B0FB6F894DEBF0FBECDBF099453
:103EC0002A88398848885F846E847D848C849B84AA
:103ED000AA84B984C884DF80EE80FD800C811B81B8
:103EE000AA81B981CE0FD11D0FB6F894DEBF0FBEE7
:103EF000CDBFED010895A29FB001B39FC001A39F64
:103F0000700D811D1124911DB29F700D811D112412
:103F1000911D0895991B79E004C0991F961708F028
:103F2000961B881F7A95C9F780950895AA1BBB1B1D
:103F300051E107C0AA1FBB1FA617B70710F0A61BA9
:103F4000B70B881F991F5A95A9F780959095BC01CA
:103F5000CD010895A1E21A2EAA1BBB1BFD010DC0C5
:103F6000AA1FBB1FEE1FFF1FA217B307E407F50729
:103F700020F0A21BB30BE40BF50B661F771F881F05
:103F8000991F1A9469F760957095809590959B019B
:103F9000AC01BD01CF010895052E97FB1EF40094DE
:103FA0000E94E31F57FD07D00E94AA1F07FC03D001
:103FB0004EF40C94E31F50954095309521953F4F5A
:103FC0004F4F5F4F089590958095709561957F4F05
:103FD0008F4F9F4F0895EE0FFF1F0590F491E02D36
:103FE00009940E947B1FB7FF0895821B930B0895CD
:103FF0000F931F93CF93DF938230910510F482E0EB
:1040000090E0E0916906F0916A0630E020E0B0E0CF
:10401000A0E0309799F42115310509F44AC0281B16
:10402000390B24303105D8F58A819B8161157105E2
:1040300089F1FB0193838283FE0111C0408151818C
:104040000281138148175907E0F04817590799F47E
:10405000109761F012960C93129713961C93329658
:10406000CF01DF91CF911F910F91089500936906C1
:1040700010936A06F4CF2115310551F0421753070A
:1040800038F0A901DB019A01BD01DF01F801C1CFC0
:10409000EF01F9CF90936A0680936906CDCFFE01B8
:1040A000E20FF31F819391932250310939832883C2
:1040B000D7CF2091670630916806232B41F42091D9
:1040C00021013091220130936806209367062091E8
:1040D0001F01309120012115310541F42DB73EB764
:1040E0004091230150912401241B350BE091670678
:1040F000F0916806E217F307A0F42E1B3F0B281778
:10410000390778F0AC014E5F5F4F2417350748F050
:104110004E0F5F1F509368064093670681939193FB
:104120009FCFF0E0E0E09CCFCF93DF930097E9F0E2
:10413000FC01329713821282A0916906B0916A063F
:10414000ED0130E020E01097A1F420813181820F51
:10415000931F20916706309168062817390709F0E8
:1041600061C0F0936806E0936706DF91CF910895F0
:10417000EA01CE17DF07E8F54A815B819E01411510
:104180005105B1F7E901FB83EA8349915991C40FC5
:10419000D51FEC17FD0761F4808191810296840F91
:1041A000951FE90199838883828193819B838A8308
:1041B000F0E0E0E012968D919C9113970097B9F58D
:1041C0002D913C911197CD010296820F931F209162
:1041D0006706309168062817390739F6309751F588
:1041E00010926A0610926906B0936806A09367065B
:1041F000BCCFD383C28340815181840F951FC817E0
:10420000D90761F44E5F5F4F88819981480F591F2C
:10421000518340838A819B81938382832115310559
:1042200009F0B0CFF0936A06E09369069ECFFD01D6
:10423000DC01C0CF13821282D7CFB0E0A0E0E3E26E
:10424000F1E20C94461F8C01009751F4CB010E94BF
:10425000F81F8C01C801CDB7DEB7E0E10C94621FF6
:10426000FC01E60FF71F9C0122503109E217F3070A
:1042700008F49DC0D901CD91DC911197C617D707DD
:1042800098F0C530D10530F3CE0104978617970713
:1042900008F3C61BD70B2297C193D1936D937C93E0
:1042A000CF010E949420D6CF5B01AC1ABD0A4C010D
:1042B0008C0E9D1EA0916906B0916A06512C412C6E
:1042C000F12CE12C109731F58091670690916806EA
:1042D0008815990509F05CC04616570608F058C0C5
:1042E00080911F0190912001009741F48DB79EB7F6
:1042F0004091230150912401841B950BE817F90785
:1043000008F055C0F0936806E0936706F9017183E1
:104310006083A0CF8D919C91119712966C9012970B
:1043200013967C901397A815B90559F56C0142E0D6
:10433000C40ED11CCA14DB0420F1AC014A195B097C
:10434000DA011296159780F062827382518340835E
:10435000D9016D937C93E114F10471F0D7011396A8
:10436000FC93EE93129776CF22968C0F9D1FF90146
:1043700091838083F301EFCFF0936A06E09369069F
:1043800069CF4816590608F42C017D01D3019ACF54
:10439000CB010E94F81F7C01009749F0AE01B801E3
:1043A0000E94DA21C8010E949420870153CF10E0B7
:1043B00000E050CFFB01DC0102C001900D924150A2
:1043C0005040D8F70895DC0101C06D934150504032
:1043D000E0F70895FC018191861721F08823D9F731
:1043E000992708953197CF010895FB01DC010190D1
:1043F0000D920020E1F70895FB01DC01415050408F
:1044000048F001900D920020C9F701C01D92415063
:104410005040E0F70895AEE0B0E0E1E1F2E20C9444
:10442000521F0D891E898F89988D26E02C831A834F
:10443000098397FF02C080E090E801979E838D83F7
:10444000AE01455E5F4F698D7A8DCE0101960E9467
:104450003B224D815E8157FD0AC02F81388542176E
:1044600053070CF49A01020F131FF80110822E96C5
:10447000E4E00C946E1FABE0B0E0E1E4F2E20C94F7
:10448000441F7C013B018A01FC0117821682838153
:1044900081FFC8C1CE0101965C01F7019381F30150
:1044A00093FD859193FF81913F01882309F453C1C6
:1044B000853239F493FD859193FF81913F018532D7
:1044C00029F4B70190E00E942B24E7CF912C212CF6
:1044D000312CFFE1F31538F08B3211F190F480327A
:1044E00009F1833229F137FC3CC020ED280F2A3036
:1044F00050F536FE20C08AE0989E200D1124922EA1
:1045000006C08D3291F0803371F7689430F8F30172
:1045100093FD859193FF81913F018111DACF21C0F5
:10452000689431F8689432F8F2CF689433F8EFCF9A
:10453000689434F8ECCFEAE02E9E200D1124222E50
:10454000689435F8E4CF8E3229F436FC04C16894BF
:1045500036F8DDCF8C3619F4689437F8D8CF883622
:10456000B1F2982F9F7D95549330E0F08336A1F1FE
:104570008337C1F1833509F063C02801F2E04F0EA3
:10458000511CF801C080D180692D70E036FC02C05A
:104590006FEF7FEFC6010E9415244C01689437F835
:1045A00082010AC00C5F1F4FFFE3F98388248394C4
:1045B000912C6501E89437F833FE2DC0522C8114FC
:1045C000910471F5552009F468CFB70180E290E0BD
:1045D0000E942B245A94F6CFF801808189830E5FC4
:1045E0001F4FE4CF2801F2E04F0E511CF801C080AC
:1045F000D180692D70E036FC02C06FEF7FEFC601FD
:104600000E9420244C018201D5CFB70180E290E0C6
:104610000E942B242A942814190409F0B0F7CECF55
:10462000F60137FC859137FE81916F01B70190E06B
:104630000E942B2451105A94F1E08F1A9108BFCF99
:10464000843619F0893609F077C0F80137FE6BC05F
:1046500060817181828193810C5F1F4FF32DFF7602
:104660003F2E97FF09C090958095709561957F4F7B
:104670008F4F9F4F689437F82AE030E0A5010E94E1
:104680005B24C82ECA188C2C432C36FE0CC0E89430
:1046900040F8C91440F434FE05C032FC03C0F32DC9
:1046A000FE7E4F2E892C44FE95C0FE01EC0DF11DBF
:1046B0008081803309F087C0242D297E422E842DED
:1046C0008870582E43FC95C040FE8FC09C2C8214ED
:1046D00018F42C0C922C981844FE91C0B70180E37A
:1046E00090E00E942B2442FE09C088E790E041FE42
:1046F00002C088E590E0B7010E942B24C91408F499
:104700008AC0CA94D12C9FEFC91AD90ACA0CDB1CE3
:10471000F60182916F01B70190E00E942B24AC1446
:10472000BD04B1F74FCF60817181072E000C880B5B
:10473000990B0E5F1F4F92CFD32CE894D4F82AE048
:1047400030E0853739F1232D297FD22E8F3601F1C4
:1047500048F48835A9F0F701868197812B96E2E12C
:104760000C94601F803749F08837A9F7D4FE02C047
:104770006894D2F820E130E00DC06894D4F8F6CF08
:1047800034FE03C0822F8660D82E20E132E002C0C2
:1047900028E030E0F801D7FE0FC06081718182818E
:1047A00093810C5F1F4FA5010E945B24C82ECA187D
:1047B0003D2CE89437F867CF6081718190E080E00C
:1047C0000E5F1F4FF0CF42FC02C0839478CF8394DA
:1047D000839475CF842D867809F471CFF6CFB70115
:1047E00080E290E00E942B2483948214C0F3512C29
:1047F00073CF522C5818821408F46ECFF8CF842D42
:10480000867809F47BCF8BE241FE80E247FC8DE2A3
:10481000B70190E071CFB70180E390E00E942B24B4
:104820009A946CCF8FEF9FEF99CFFC010590615068
:1048300070400110D8F7809590958E0F9F1F0895B6
:10484000FC016150704001900110D8F7809590955F
:104850008E0F9F1F08950F931F93CF93DF93182FF1
:10486000092FEB018B8181FD09C01FEF0FEF812F15
:10487000902FDF91CF911F910F91089582FF14C067
:104880002E813F818C819D81281739073CF4E88176
:10489000F981CF0101969983888310838E819F814E
:1048A00001969F838E83E3CFE885F985812F099553
:1048B000892BA1F3DACFFA01AA27283051F1203150
:1048C00081F1E8946F936E7F6E5F7F4F8F4F9F4FA4
:1048D000AF4FB1E03ED0B4E03CD0670F781F891FE6
:1048E0009A1FA11D680F791F8A1F911DA11D6A0FB4
:1048F000711D811D911DA11D20D009F468943F9167
:104900002AE0269F11243019305D3193DEF6CF0165
:104910000895462F4770405D4193B3E00FD0C9F72B
:10492000F6CF462F4F70405D4A3318F0495D31FD98
:104930004052419302D0A9F7EACFB4E0A6959795EB
:10494000879577956795BA95C9F7009761057105C1
:1049500008959B01AC010A2E06945795479537950B
:104960002795BA95C9F7620F731F841F951FA01D65
:10497000089510E0C8E6D0E004C0FE010E94EB1FDD
:0C4980002196C936D107C9F7F894FFCF83
:10498C002701FFFF557361676520616C65727400C8
:10499C00000000000000000000010114FFFFFF00F8
:1049AC00006B0680000000400014005400CF02D3BE
:1049BC0002D702DB02DF02E302E702EB02EF02F3B3
:1049CC0002F702FB02FF02030307030B030F03139F
:1049DC00031703000000008F04EF031C04DC044DDC
:1049EC00042B043F04000000001807EB066A07C103
:1049FC0006E406D106C20600000000120BEF036AA3
:104A0C00072E050D0A003D3D20436C617564652041
:104A1C00436F6465203D3D00574F524B494E470054
:104A2C00594F555220415245410025732C20257376
:104A3C0020256400253032643A25303264005765F5
:104A4C006C636F6D65210052756E207365747570A3
:104A5C0020746F2073746172740049444C45005784
:104A6C00414954494E4720464F5220494E505554C7
:104A7C00005045524D495353494F4E3F004F464607
:104A8C004C494E45006E6F2073657373696F6E00F1
:104A9C00416C6C20736574210073746172742063B3
:104AAC006C61756465206E6F77005741524E494EAC
:104ABC00472100414952205241494420414C455222
:104ACC005400494E2025730050524F434545442015
:104ADC00544F205348454C54455200416972206153
:104AEC006C657274206973206F766572004D617904
:104AFC002074686520666F72636500626520776953
:104B0C00746820796F750053573A310053573A3017
:104B1C0000524541445900557361676520616C65CD
:104B2C00727400506C61696E737461636B007465B0
:104B3C0063686E6F6C6F67696573004368616F7350
:104B4C0020696E746F2073797374656D732E0053C6
:104B5C00756E004D6F6E005475650057656400549A
:104B6C0068750046726900536174004A616E0046B4
:104B7C006562004D617200417072004D6179004AAE
:104B8C00756E004A756C0041756700536570004F77
:0C4B9C006374004E6F76004465630000F7
:00000001FF
