:100000000C9469000C9491000C9491000C94910054
:100010000C9491000C9491000C9491000C9411128A
:100020000C9491000C9491000C9491000C9491000C
:100030000C9491000C9491000C9491000C949100FC
:100040000C94C7110C9491000C94B9120C94931257
:100050000C9491000C9491000C9491000C949100DC
:100060000C94EB120C9491001F1C1F1E1F1E1F1FCF
:100070001E1F1E00000000230026002900000000B3
:1000800000240027002A00000000080002010000F0
:100090000304070000000000000000010204081033
:1000A00020408001020408102001020408102000F2
:1000B000000000250028002B0004040404040404AC
:1000C00004020202020202030303030303020A14EE
:1000D000201F11241FBECFEFD8E0DEBFCDBF26E02A
:1000E000AAE2B3E001C01D92AA37B207E1F713E01C
:1000F000A0E0B1E0EEE1FAE402C005900D92AA3270
:10010000B107D9F710E0C8E6D0E004C02197FE019E
:100110000E943420C736D107C9F70E9457140C94A7
:1001200002250C94000008950895833081F028F48E
:10013000813099F08230A9F008958730A9F0883095
:10014000C9F08430B1F4809180008F7D03C080912C
:1001500080008F7780938000089584B58F7784BD69
:10016000089584B58F7DFBCF8091B0008F77809309
:10017000B00008958091B0008F7DF9CF1F93CF9389
:10018000DF93282F30E0F901E957FF4F8491F901FF
:10019000E556FF4FD491F901E754FF4FC491CC23AA
:1001A000A9F0162F81110E949500EC2FF0E0EE0FC0
:1001B000FF1FE155FF4FA591B4918FB7F894EC91D3
:1001C000111108C0D095DE23DC938FBFDF91CF9152
:1001D0001F910895DE2BF8CFCF93DF9390E0FC01C1
:1001E000E556FF4F249187549F4FFC01849188234B
:1001F000D1F090E0880F991FFC01E358FF4FA591C3
:10020000B491FC01E155FF4FC591D491623071F476
:100210009FB7F8943C91822F809583238C93E8813B
:100220002E2B28839FBFDF91CF9108958FB7F8942D
:10023000EC912E2B2C938FBFF6CF4F925F926F9243
:100240007F928F929F92AF92BF92CF92DF92EF9266
:10025000FF920F931F93CF93DF9300D000D01F9294
:10026000CDB7DEB78C012A013B0180911E0183309E
:10027000C9F08F3F09F47FC00F900F900F900F903F
:100280000F90DF91CF911F910F91FF90EF90DF9032
:10029000CF90BF90AF909F908F907F906F905F9026
:1002A0004F900895EDECF0E084918D8387FDE4CFCD
:1002B00061E083E00E94EC008D81882321F09D8124
:1002C000923009F05CC14801B12CA12C60E072E1D0
:1002D0008AE790E0A50198010E94152029833A83BE
:1002E0004B835C8369017A0181E0C81AD108E10877
:1002F000F1089FEFC916D104E104F10409F00CF4F0
:1003000013C160E472E48FE090E0A50198010E94BF
:10031000152069017A0181E0C81AD108E108F108C5
:100320009D81923009F098C08FEFC816D104E10486
:10033000F10409F00CF4DDC160E970ED83E090E0B8
:10034000A50198010E94152069017A0191E0C91A5E
:10035000D108E108F1088FEFC816D104E104F104D7
:1003600011F00CF0A3C183E09091B100987F892B2C
:100370008093B100E1C083E080931E01EDECF0E0DA
:1003800094919D839F3F09F477CF913029F158F0E4
:10039000923009F43FC08D8187FD6ECF61E083E02C
:1003A0000E94EC008CCF14BC15BC84B5826084BD67
:1003B00085B5816085BDECEBF0E0E491F0E0EE0FF7
:1003C000FF1FE155FF4F85919491EEE9F0E0E49134
:1003D000E0935E051D826CCF109280001092810028
:1003E000809181008860809381008091810081608C
:1003F00080938100ECEBF0E0E491F0E0EE0FFF1F62
:10040000E155FF4F85919491EEE9F0E0E491E0939E
:100410005D054ECF1092B0001092B1008091B000F7
:1004200082608093B0008091B10081608093B100C0
:10043000ECEBF0E0E491F0E0EE0FFF1FE155FF4F31
:100440008591949190935C0580935B05EEE9F0E0D3
:10045000E491E0935A052CCF9FEFC916D104E10433
:10046000F10409F00CF489C068E478EE81E090E0D2
:10047000A50198010E94152069017A0181E0C81A3E
:10048000D108E108F1089D81992309F428C19FEF63
:10049000C916D104E104F10409F00CF41EC162E1B3
:1004A0007AE780E090E0A50194010E94152069019F
:1004B0007A0181E0C81AD108E108F1089D819923E9
:1004C00009F4EBC08FEFC816D104E104F10411F078
:1004D00008F0BFC086E048CF64E274EF80E090E0AF
:1004E000A50194010E94152069017A0181E0C81AD2
:1004F000D108E108F10885E09FEFC916D104E104B5
:10050000F10409F008F430CF62E17AE780E090E08E
:10051000A50194010E94152069017A0191E0C91A90
:10052000D108E108F108CECF81E09D8191111CCF67
:1005300095B5987F892B85BD2FEF3FEFA901411419
:1005400051046104710409F043C09D81913009F4A4
:100550005EC0923009F46DC091118ECEC7BC20935D
:100560006705309368054093690550936A0580914B
:100570006E00826080936E007FCE82E0D6CFB12C79
:10058000A12C60E072E18AE790E0A50198010E9449
:10059000152069017A0181E0C81AD108E108F10843
:1005A000C114D10491E0E906F10404F591E08D81D4
:1005B000813011F680918100887F892B80938100A2
:1005C0002FEF3FEFA9014114510461047104F9F0C8
:1005D000D801AA0FBB1FA30192010E94821F28EE1F
:1005E00033E040E050E00E94F31FAFCF68E478EEC4
:1005F00081E090E0A50198010E94152069017A012F
:1006000081E0C81AD108E108F10893E0D0CFD09278
:100610008900C0928800209363053093640540935D
:1006200065055093660580916F00826080936F002E
:1006300023CEC092B30020935F05309360054093B2
:100640006105509362058091700082608093700014
:1006500013CEC980DA80EB80FC809AE0F594E794B1
:10066000D794C7949A95D1F791E0C91AD108E108B7
:10067000F10887E079CEC980DA80EB80FC808AE0DF
:10068000F594E794D794C7948A95D1F791E0C91A65
:10069000D108E108F10885E04BCF8FEFC816D104EF
:1006A000E104F10409F038F784E042CF68E478EE21
:1006B00081E090E0A50198010E94152069017A016E
:1006C00091E0C91AD108E108F1088FEFC816D104EA
:1006D000E104F10411F00CF0FFCE84E045CE8FEF81
:1006E000C816D104E104F10411F00CF0D8CE83E077
:1006F0001FCF82E039CE3FB7F89480912E059091BC
:100700002F05A0913005B091310526B5A89B05C0F5
:100710002F3F19F00196A11DB11D3FBFBA2FA92F80
:10072000982F8827BC01CD01620F711D811D911D7D
:1007300042E0660F771F881F991F4A95D1F70895E9
:100740008F929F92AF92BF92CF92DF92EF92FF92E1
:100750004B015C010E947B036B017C010E947B03C7
:100760006C197D098E099F09683E734081059105CA
:10077000A8F321E0821A9108A108B10888EEC80EFA
:1007800083E0D81EE11CF11C81149104A104B10482
:1007900029F7FF90EF90DF90CF90BF90AF909F90A0
:1007A0008F9008952FB7F89460912A0570912B05CA
:1007B00080912C0590912D052FBF0895FC01248177
:1007C00035816217730748F480819181009729F081
:1007D000860F971FFC018081089580E00895AF92F5
:1007E000BF92CF92DF92EF92FF920F931F93CF931E
:1007F000DF936C017B018B01040F151FEB015E0180
:10080000AE18BF08C017D10759F06991D601ED9114
:10081000FC910190F081E02DC6010995892B79F7B3
:10082000C501DF91CF911F910F91FF90EF90DF9065
:10083000CF90BF90AF900895FC01538D448D252F2C
:1008400030E0842F90E0821B930B541710F0CF966A
:10085000089501970895FC01918D828D981761F09C
:10086000A28DAE0FBF2FB11D5D968C91928D9F5FB3
:100870009F73928F90E008958FEF9FEF0895FC0192
:10088000918D828D981731F0828DE80FF11D858D45
:1008900090E008958FEF9FEF0895FC01918D228DD8
:1008A000892F90E0805C9F4F821B91098F7399275D
:1008B00008958BEB95E00E944D0421E0892B09F40B
:1008C00020E0822F089580E090E0892B29F00E949B
:1008D000590481110C9400000895FC01A48DA80F07
:1008E000B92FB11DA35ABF4F2C91848D90E0019672
:1008F0008F739927848FA689B7892C93A089B18992
:100900008C91837080648C93938D848D981306C032
:100910000288F389E02D80818F7D80830895EF9296
:10092000FF920F931F93CF93DF93EC0181E0888FA9
:100930009B8D8C8D98131AC0E889F989808185FF79
:1009400015C09FB7F894EE89FF896083E889F9891B
:1009500080818370806480839FBF81E090E0DF911D
:10096000CF911F910F91FF90EF900895F62E0B8D70
:1009700010E00F5F1F4F0F731127E02E8C8D8E112B
:100980000CC00FB607FCFACFE889F989808185FF92
:10099000F5CFCE010E946D04F1CFEB8DEC0FFD2F52
:1009A000F11DE35AFF4FF0829FB7F8940B8FEA894D
:1009B000FB8980818062CFCFCF93DF93EC01888D5C
:1009C0008823B9F0AA89BB89E889F9898C9185FDCA
:1009D00003C0808186FD0DC00FB607FCF7CF8C9158
:1009E00085FFF2CF808185FFEDCFCE010E946D049F
:1009F000E9CFDF91CF910895FC0161819081492F6A
:100A000050E08281282F30E0E8E6F0E081E08617B0
:100A100030F47491270F311D8F5F3196F8CF63301A
:100A200020F0937011F42F5F3F4F6DE671E0469F09
:100A3000C001479F900D569F900D112405964D5F64
:100A40005F4F5695479556954795840F951F820F92
:100A5000931F67E070E00E94DF1F089508952091C2
:100A6000A003260F3327331F21323105ECF42091E8
:100A70009105FC0190E080E0243069F082E0089567
:100A8000A091A0032191AC0140585C4FA40FB52F59
:100A9000B11D2C930196861798F38091A003680FDF
:100AA0006093A00380E0089581E00895109291057D
:100AB00081E08093900510926B0561E082E10E94D5
:100AC000BE0061E083E10E94BE00E9EBF0E08081BE
:100AD0008E7F808380818D7F808388E48093B800BF
:100AE00085E48093BC000895109239051092380572
:100AF000109298051092BA050E94560583E990E07D
:100B0000909335058093340584E990E09093330504
:100B1000809332050895CF93DF9391E090937F0304
:100B20008823B9F0C091B800D091BA008091BC0080
:100B30008A7B8093BC0060E082E10E94BE0060E09E
:100B400083E10E94BE000E945605D093BA00C09374
:100B5000B800DF91CF9108958F929F92AF92BF928C
:100B6000CF92DF92EF92FF920F931F93CF93DF9379
:100B7000D091BA05D13208F0D7C0182FC091B9056D
:100B80000E947B036B017C018091910581116BC0F8
:100B900082E080939105109390058FEF80938F05ED
:100BA00010928E05D0938D05A9E9B5E0EDE6F5E04C
:100BB00080E0D81391C010926C0580916C05CC0F29
:100BC000C82BC0936C0580916B05813009F088C0FB
:100BD00010926B050E947B036B017C0180916C0578
:100BE0008093BB008091930590919405A091950509
:100BF000B0919605892B8A2B8B2BA1F00E947B0349
:100C000000919305109194052091950530919605DA
:100C10006C197D098E099F090617170728073907E0
:100C200008F442C08091BC0083FDD8CF85EC80934E
:100C3000BC000E947B036B017C0180919105823096
:100C400009F450C080918F058F3F09F46FC08091E7
:100C50008F05803209F46CC080918F05803309F4D0
:100C600069C084E026C08091930590919405A0917D
:100C70009505B0919605892B8A2B8B2B09F484CF8F
:100C80000E947B038090930590909405A090950519
:100C9000B09096056C197D098E099F0986169706F6
:100CA000A806B90608F070CF809192050E948B05C6
:100CB00085E0109298051092BA0510929705DF9181
:100CC000CF911F910F91FF90EF90DF90CF90BF9049
:100CD000AF909F908F9008959D9191938F5F69CF72
:100CE00085EEA5CF8091930590919405A0919505EF
:100CF000B0919605892B8A2B8B2B09F49ECF0E94ED
:100D00007B030091930510919405209195053091F6
:100D100096056C197D098E099F0906171707280784
:100D2000390708F08ACFC0CF81E0C3CF80E0C1CFC0
:100D300082E0BFCF83E0BDCFCF93DF93EC018B8107
:100D40008823A1F0888191E0909397058093B9055D
:100D5000109298051092BA0581E00E94AC0591E0CE
:100D6000811190E0892FDF91CF9108950E94740541
:100D700081E08B83CE010E949C06982F8111E2CFE7
:100D8000F1CF0895E091390580913805E81730F4E6
:100D9000F0E0E65CFA4F808190E008958FEF9FEFDE
:100DA000089590913905809138052FEF3FEF9817FE
:100DB00048F4E92FF0E0E65CFA4F208130E09F5FD5
:100DC00090933905C90108958091380590913905AE
:100DD000891B990B0895CF92DF92EF92FF920F93A8
:100DE0001F93CF93DF937C01CB018A01209197055C
:100DF000222389F0EB016B01C40ED51ECC15DD0555
:100E000069F06991D701ED91FC910190F081E02D9D
:100E1000C7010995F3CF642F0E942F05C801DF9108
:100E2000CF911F910F91FF90EF90DF90CF90089599
:100E3000CF93DF931F92CDB7DEB7698320919705DB
:100E40002223F9F02091BA05203258F021E030E059
:100E5000FC013383228390E080E00F90DF91CF91FB
:100E6000089580919805E82FF0E0E756FA4F9981B0
:100E700090838F5F809398058093BA0581E090E01E
:100E8000ECCF61E0CE0101960E942F05F7CFFC0167
:100E9000248131E0309397052093B905109298058D
:100EA0001092BA058385682B88E596E00E941807A2
:100EB00081E00C94AC051092750660E08AE696E03D
:100EC0000C94470788E08093750660E08AE696E018
:100ED0000C94470790E080E0089510929E041092D1
:100EE000A00410929F040E94D20360557B4F8F4F45
:100EF0009F4F6093A1047093A2048093A3049093E6
:100F0000A4040895FC0130911C01232F353608F00C
:100F100024E640E1249FC001112464E670E00E94B1
:100F2000DF1F462F3A3090F480E28083205D2183DA
:100F300095E292838383349680E090E2841708F4EC
:100F40009FEF91938F5F8031C1F70895343660F43D
:100F5000822F6AE00E94D31F805D8083905D918321
:100F600085E2828380E2E6CF81E3808380E3818330
:100F7000828385E2DFCF8091010181118091190187
:100F80000895CF93DF93C82F0E94BB07882309F4ED
:100F9000F9C0C93008F0F6C0EC2FF0E0EE52F84F7F
:100FA0000C943420DB07F30708081D0832085308A7
:100FB00074089708C50846E450E060E070E080E7F8
:100FC00093E00E941D016EE670E080E090E00E94D8
:100FD000A00344E650E060E070E08BE492E0DF9133
:100FE000CF910C941D014CE350E060E070E08BE485
:100FF00092E00E941D016FE570E080E090E00E94A9
:10100000A00340E550E060E070E080E793E0E7CFC8
:1010100040E550E060E070E087E295E00E941D014D
:1010200062E870E080E090E00E94A00340E550E0BC
:1010300060E070E087E194E0D2CF40E550E060E00E
:1010400070E083E992E00E941D0162E870E080E0B8
:1010500090E00E94A00340E550E060E070E08BE08B
:1010600092E0BDCF47E350E060E070E080E296E0C0
:101070000E941D0160E570E080E090E00E94A00306
:1010800047E350E060E070E087E295E00E941D01D8
:1010900060E570E080E090E00E94A00346E450E04C
:1010A00060E070E0C7CF47E350E060E070E080E1CF
:1010B00093E00E941D0160E570E080E090E00E94F6
:1010C000A00347E350E060E070E083E992E00E9413
:1010D0001D0160E570E080E090E00E94A00346E41E
:1010E00050E060E070E0BBCF47E350E060E070E0CC
:1010F00083E992E00E941D0165E570E080E090E0E8
:101100000E94A00347E350E060E070E080E793E0D6
:101110000E941D0165E570E080E090E00E94A00360
:101120004AE550E060E070E087E295E058CFC0E02B
:10113000D4E046E950E060E070E087E194E00E948E
:101140001D0160EA70E080E090E00E94A00346E9A3
:1011500050E060E070E084EE92E00E941D0160EAE1
:1011600070E080E090E00E94A003D15011F7C230FF
:1011700031F060E971E080E090E00E94A003CF5F71
:10118000C330B1F6DF91CF9108954AE550E060E0B9
:1011900070E08BE092E00E941D016EE670E080E05E
:1011A00090E00E94A0034AE550E060E070E083E92F
:1011B00092E00E941D016EE670E080E090E00E94E7
:1011C000A0034AE550E060E070E080E193E00E9417
:1011D0001D016EE670E080E090E00E94A00348EC04
:1011E00050E060E070E026CF2F923F924F925F92E6
:1011F0006F927F928F929F92AF92BF92CF92DF9227
:10120000EF92FF920F931F93CF93DF935C011B012B
:101210006A01F12CE12CD50114968D919C918601E7
:101220000E191F098017910708F48C01F501D08170
:101230000E947B032B013C0180919105811172C0BA
:10124000C02F013208F0C0E2F1E0F093910521E0F7
:10125000C601801B910BE816F90608F420E02093E4
:1012600090058FEF80938F0510928E058C0F8093E1
:101270008D05A1E0A0936C0580916C05DD0FD82B46
:10128000D0936C0580916B05813009F090C010926D
:101290006B050E947B032B013C0180916C058093C0
:1012A000BB008091930590919405A0919505B09114
:1012B0009605892B8A2B8B2BA1F00E947B03209112
:1012C00093053091940540919505509196056419C8
:1012D000750986099709261737074807590708F43B
:1012E00042C08091BC0083FDD8CFB5ECB093BC0068
:1012F0000E947B032B013C0180919105813009F410
:101300005AC080918E058C1710F4C0918E05ADE601
:10131000B5E0EAE3F5E080E08C1751F19D919193FF
:101320008F5FFACF8091930590919405A0919505D8
:10133000B0919605892B8A2B8B2B09F47DCF0E94C7
:101340007B03209193053091940540919505509130
:1013500096056419750986099709261737074807FE
:10136000590708F069CF809192050E948B05C0E073
:1013700010923905C0933805C017110609F057C0FF
:1013800041018E0C9F1CE401CE0188199909801738
:10139000910798F5D50111968D919C91DC01ED9105
:1013A000FC910284F385E02D09958993EDCFE5EE5C
:1013B000E093BC009DCF8091930590919405A091FE
:1013C0009505B0919605892B8A2B8B2B09F494CF28
:1013D0000E947B03209193053091940540919505DF
:1013E00050919605641975098609970926173707DC
:1013F0004807590708F080CFB6CFE00EF11EEC1475
:10140000FD0408F408CF81E0DF91CF911F910F9187
:10141000FF90EF90DF90CF90BF90AF909F908F9014
:101420007F906F905F904F903F902F90089580E055
:10143000EBCF1F93CF93DF93DC011496ED91FC91DA
:10144000E417F50710F490E01FC0122FEA01FC0129
:1014500081819281208131E0309397052093B905F5
:10146000109298051092BA05DC01ED91FC91028072
:10147000F381E02D0995C817D90729F7812F0E941C
:10148000AC0591E08111DFCF892FDF91CF911F91C2
:101490000895EF92FF920F931F93CF93DF9300D0A5
:1014A00000D000D01F92CDB7DEB78C011982E0903A
:1014B0003605F090370520E041E050E0BE016F5F57
:1014C0007F4FC7010E94190A882341F047E050E08E
:1014D000BE016F5F7F4FC7010E94F408E981EF777B
:1014E000FA81FB805D814E814F778F81282F30E01C
:1014F00094E0359527959A95E1F7922F990F990FDA
:10150000291B220F280FD8012C93842F90E024E070
:10151000959587952A95E1F7982F990F990F891B33
:10152000880F840F11968C931197652F70E034E02B
:10153000759567953A95E1F7862F880F880F681B98
:10154000660F650F12966C9312974F2D50E064E072
:10155000559547956A95E1F7842F880F880F481BAA
:10156000440F4F0D13964C9313972F2F30E074E0D8
:10157000359527957A95E1F7822F880F880F281BDC
:10158000220F2F0F14962C9314978E2F90E0F4E0D7
:1015900095958795FA95E1F7982F990F990F891BE3
:1015A000880F8E0F15968C93C80127960FB6F89466
:1015B000DEBF0FBECDBFDF91CF911F910F91FF9086
:1015C000EF9008950F931F93CF938C01C62F0E9425
:1015D00047076C2F6460C8010E9447076C2F6B7F20
:1015E000C8010E94470783EC90E00197F1F7CF9183
:1015F0001F910F9108950F931F93CF93DF938C0149
:10160000D62FC42F607F642B0E94E20A80E1D89F0E
:10161000B00111246C2BC801DF91CF911F910F9164
:101620000C94E20A41E00E94FB0A81E090E00895F8
:1016300041E0682F8AE696E00E94FB0A81E090E094
:10164000089540E0682F8AE696E00C94FB0ACF9359
:10165000DF93CDB7DEB728970FB6F894DEBF0FBE85
:10166000CDBF98E0E5E2F1E0DE01119601900D9228
:101670009A95E1F790917206961710F46FEF690F43
:1016800070E0660F771F21E030E02C0F3D1F620FE6
:10169000731FFB019081890F806828960FB6F8941C
:1016A000DEBF0FBECDBFDF91CF910C94210B9F9277
:1016B000AF92BF92CF92DF92EF92FF920F931F9360
:1016C000CF93DF93982E6B0185E1989E80011124C2
:1016D000055D1C4FD0E0C0E08FEFFC2EF601E190DD
:1016E0006F0190912A035801AC0EBD1E992321F081
:1016F000F50190819E1501F18F1521F0692D8F2D37
:101700000E94270B8E2D0E94180BF501E08281E0CC
:101710008F0D2196C431D10501F781E080932A0312
:10172000DF91CF911F910F91FF90EF90DF90CF90BD
:10173000BF90AF909F9008958FEFEBCF81E00E9414
:10174000210B8BE39FE10197F1F708950F931F930E
:10175000CF93DF93FC01048115810115110539F444
:10176000FB011082DF91CF911F910F91089541509D
:1017700051094017510708F48A01EB01FC0160810F
:101780007181A801CE010E944522C00FD11F18828D
:10179000E9CFCF93DF93D0E0C0E0009771F0FC0178
:1017A00001900020E9F73197AF01481B590BBC01AC
:1017B0008BEB95E00E94EF03EC0142E050E063E820
:1017C00071E08BEB95E00E94EF038C0F9D1FDF9182
:1017D000CF9108958091270590912805039702974E
:1017E00068F425EA34E0F90101900020E9F79F014F
:1017F000265A344081E02531310508F480E008950F
:101800004F925F926F927F928F929F92AF92BF9210
:10181000CF92DF92EF92FF92CF93C0911B018FEF97
:101820008C0F833608F05EC00E94EA0B81115AC00B
:101830000E947B034B015C012C2F30E0A0EABFE04B
:101840000E94C41F24E6422E512C612C712CA3014E
:1018500092010E94F31F69017A0188ECC80ED11C25
:10186000E11CF11CC80CD91CEA1CFB1C24E630E06E
:101870002C1B3109A0EABFE00E94C41FA301920102
:101880000E94F31F49015A0180911A01882351F1E6
:101890000E947B0340905B0450905C0460905D0468
:1018A00070905E04641975098609970997FD12C046
:1018B0000E945B0710921A010E947B03680D791D3C
:1018C0008A1D9B1D60935B0470935C0480935D0490
:1018D00090935E040E947B036C197D098E099F0919
:1018E00097FDD2CFCF91FF90EF90DF90CF90BF9038
:1018F000AF909F908F907F906F905F904F900895E2
:10190000FC0180819181009711F00C94DD200895F5
:10191000CF93DF938091360590913705009711F0B2
:101920000E94DD2086E090E00E944120EC0188E6E4
:10193000888388E596E09A8389831B8280E290E021
:101940009D838C83D0933705C09336050E94740520
:1019500081E08B83CE01DF91CF910C949C06CF93D5
:10196000DF93FC0124813581232B79F0C081D18163
:10197000062E000C770BCE010E943322009729F02F
:101980008C1B9D0BDF91CF9108958FEF9FEFFACFC6
:10199000FC0180819181009711F00C94241F60E07C
:1019A00070E0CB010895FB0101900020E9F7319729
:1019B000E61BE53108F0E4E14E2F50E024E130E091
:1019C000241B350B35952795820F931F0C942322EA
:1019D000AF92BF92CF92DF92EF92FF920F931F933D
:1019E000CF93DF93DC01CD90DC901197C114D1042B
:1019F00039F01496CD91DC918C017601209761F439
:101A0000DF91CF911F910F91FF90EF90DF90CF90DA
:101A1000BF90AF90089575015701BFEFAB1ABB0A95
:101A2000F7018081082E000C990B0E94601F892B02
:101A300091F72197CC0DDD1D8881082E000C990BA4
:101A40000E94601F892B29F0CE15DF0510F0219729
:101A5000F3CFAE014F5F5F4F4E195F09D801159666
:101A60005C934E931497CE14DF0420F4B701C601A3
:101A70000E942322D801ED91FC91119714968D912B
:101A80009C91E80FF91F1082BBCF0F931F93CF9348
:101A9000DF93EC0188819981009759F02A813B817D
:101AA0002617370730F081E0DF91CF911F910F911A
:101AB00008958B016F5F7F4F0E946621009759F058
:101AC000998388831B830A832C813D81232B59F7BB
:101AD000FC011082E8CF80E0E7CFEF92FF920F93F6
:101AE0001F93CF93DF93EC017B018A01BA010E941F
:101AF000450D28813981811114C02115310519F056
:101B0000C9010E94DD20198218821D821C821B825D
:101B10001A82CE01DF91CF911F910F91FF90EF902C
:101B200008951D830C83B701C9010E943E22F1CFA5
:101B3000FB01DC0111961C921E9213961C921E92C0
:101B4000129715961C921E9214978617970749F0C4
:101B5000608171816115710521F0448155810C947A
:101B60006D0D0895FC01118210821382128215827C
:101B70001482FB0101900020E9F73197AF01461B69
:101B8000570B0C946D0DAF92BF92CF92DF92EF92F4
:101B9000FF920F931F93CF93DF93EC016B015A01D8
:101BA00079012417350720F48B2D5901E42EF82EE6
:101BB00065E871E0CE010E94B20DD60114960D9138
:101BC0001C91A016B10628F5E016F10608F487016D
:101BD000D601ED91FC911197E00FF11FF08010827A
:101BE0006D917C916A0D7B1D61157105F1F0FB0112
:101BF00001900020E9F73197AF01461B570BCE014A
:101C00000E946D0DF60180819181080F191FD80186
:101C1000FC92CE01DF91CF911F910F91FF90EF9039
:101C2000DF90CF90BF90AF90089588819981009701
:101C300011F00E94DD20198218821D821C821B82F5
:101C40001A82E0CFCF93DF93EC01FB012481358131
:101C50000E94C30DCE01DF91CF91089585ED809351
:101C6000BC008091930590919405A0919505B09149
:101C700096050796A11DB11D23E0B695A7959795EA
:101C800087952A95D1F72091BC0024FD03C01092BE
:101C900091050895409193055091940560919505A3
:101CA00070919605452B462B472B69F30097A105AC
:101CB000B10541F02AE22A95F1F700C00197A10988
:101CC000B109E1CF809192050C948B05EF92FF92C0
:101CD0000F931F93CF93DF93CDB7DEB7C557D109CD
:101CE0000FB6F894DEBF0FBECDBF0E94BB0788239E
:101CF00009F402C144E150E060E270E0CE010196D7
:101D00000E942C2244E150E060E270E0CE01459652
:101D10000E942C2244E150E060E270E0CE018996FE
:101D20000E942C2244E150E060E270E0CE01CD96AA
:101D30000E942C228091FE04882369F064E071E007
:101D4000CE0101960E94D30C67E074E0CE01899623
:101D50000E94D30CB1C00091270510912805C8013D
:101D60000797029760F08091040566E871E0882388
:101D700011F064E075E0CE0101960E94D30C0B30A7
:101D8000110508F099C0F801E853F14F0C94342084
:101D9000D30E500F8A0FA90FCB0FCE0FD70F051000
:101DA0003610F30FFC0F80910305882309F462C0FD
:101DB000CE0180599F4F0E94490AE396FFACE397FA
:101DC000E296EFADE297E150FF0BEE0FFF1FE55CEF
:101DD000FE4F10810181CE0180599F4F0E94FC046B
:101DE0001F92FF920F931F93E82FF0E0EE0FFF1F5B
:101DF000E35DFE4F81818F9380818F938AEA91E02A
:101E00009F938F931F928CE08F937E0181E5E80E64
:101E1000F11CFF92EF920E945422E5968FADE59758
:101E20001F928F93E4968FADE4971F928F9384EB6C
:101E300091E09F938F931F9286E08F938E010659B6
:101E40001F4F1F930F930E945422B701CE01459656
:101E50000E94D30CB801CE0189960E94D30CE5965E
:101E60008FADE59780931D010FB6F894DEBF0FBECE
:101E7000CDBF22C08091C303811109C06EEB71E018
:101E8000CE0145960E94D30C67EC71E05FCF6AEDFE
:101E900071E0CE0145960E94D30C65E871E056CF03
:101EA00069EE71E0CE0189960E94D30C80915F04A7
:101EB0006FE574E081114AC00E94000CBE016F5FA3
:101EC0007F4F80E00E94570B0E94000CBE016B5EAA
:101ED0007F4F81E00E94570B0E94000CBE01675D9E
:101EE0007F4F82E00E94570B0E94000CBE01635C92
:101EF0007F4F83E00E94570BCB58DF4F0FB6F8940B
:101F0000DEBF0FBECDBFDF91CF911F910F91FF902C
:101F1000EF9008958091890468E971E0882311F0B9
:101F200069E874E0CE0189960E94D30C80911C016F
:101F30008F3F29F0CE01CD960E948207BDCF8091C0
:101F4000740464E774E0882309F4B6CFCE01CD961B
:101F5000FFCE6EEE71E0CE0189960E94D30C85EA29
:101F600094E0FC0101900020E9F7CF01865A9440EB
:101F7000982F815065EA74E0843140F3953108F47C
:101F80009BCF84E1E5EAF4E0DE01DD9601900D925D
:101F90008A95E1F791CF60E072E0DDCF6CE072E00E
:101FA000CE0189960E94D30C64E172E0CFCF80917C
:101FB0003104882331F061E374E0CE0145960E943C
:101FC000D30C80914604882331F066E474E0CE019E
:101FD00089960E94D30C80911C046CE174E08823E4
:101FE00009F46ACFB3CF6FE172E0CE0189960E9407
:101FF000D30C68E272E0AACF62EF73E0CE0189965B
:102000000E94D30C6DED73E0A1CF69E372E0CE01C5
:1020100001960E94D30C62E472E0CE0145960E94C4
:10202000D30C8091C80381111EC080EA91E09F9378
:102030008F9381E592E09F938F931F9289E18F9315
:102040008E010F5A1F4F1F930F930E945422B80105
:10205000CE0189960E94D30C67E572E0CE01CD9641
:102060000E94D30C01CF88EC93E0E1CF6AE672E0E6
:10207000CE0101960E94D30C6CE772E0CE018996E6
:102080000E94D30C6AE872E061CFCF93C82F0E9400
:10209000BB078C1769F08823E1F00E94660E8091DF
:1020A0001B01843638F00E94620781E080931A0198
:1020B000CF9108958823E1F310921A010E947B03C7
:1020C00060935B0470935C0480935D0490935E0462
:1020D000EFCF0E945B0710921A010E949E0BEBE269
:1020E000F3E084E5DF011D928A95E9F710922A0357
:1020F000DFCF0F931F93CF93DF93009127051091AC
:1021000028050817190709F466C0909328058093DD
:1021100027058230910521F01092740410928904F1
:102120009C01235031092230310508F04DC0109236
:1021300046041092310410921C048730910589F0F6
:102140001092230510922405109225051092260561
:1021500020911E05211102C01092C80388309105FC
:1021600059F010921F05109220051092210510922F
:1021700022058A30910521F01092F2031092DD03BE
:10218000EC010E946D070E94660E0115110519F100
:1021900087E0C730D10591F088E0C830D10571F0F3
:1021A00086E0C430D10551F081E0C330D10531F073
:1021B000219789F40230110571F480E0DF91CF910D
:1021C0001F910F910C94C1071092A50486309105C0
:1021D00009F4B6CFACCFDF91CF911F910F91089545
:1021E000EF92FF920F931F93CF93DF93CDB7DEB79C
:1021F00064970FB6F894DEBF0FBECDBF082F7B01EA
:102200000E94BB07882359F1F70101900020E9F7EC
:1022100031971E2F1E19153108F014E144E150E0EA
:1022200060E270E0CE0101960E942C22412F50E026
:1022300084E190E0841B950B95958795B70121E08B
:1022400030E02C0F3D1F820F931F0E9423220E941B
:10225000000CBE016F5F7F4F802F0E94570B64966A
:102260000FB6F894DEBF0FBECDBFDF91CF911F91A7
:102270000F91FF90EF9008951F93CF93DF93CDB709
:10228000DEB764970FB6F894DEBF0FBECDBF182F30
:1022900044E150E060E270E0CE0101960E942C2201
:1022A0000E94000CBE016F5F7F4F812F0E94570B71
:1022B00064960FB6F894DEBF0FBECDBFDF91CF910D
:1022C0001F9108950F931F93CF93DF93CDB7DEB780
:1022D00064970FB6F894DEBF0FBECDBF0E94BB0758
:1022E000882371F045EA54E0FA0101900020E9F7F3
:1022F000AF01465A544041110EC083E00E943C1188
:1023000064960FB6F894DEBF0FBECDBFDF91CF91BC
:102310001F910F910895453138F58A01112744E145
:1023200050E060E270E0CE0101960E942C2284E130
:1023300090E0801B910B97FD019695958795A801DC
:1023400065EA74E021E030E02C0F3D1F280F311DBD
:10235000C9010E9423220E94000CBE016F5F7F4FC3
:1023600083E00E94570BCCCF4451E0919E044E175E
:1023700008F4E42FF0E0EB55FB4FDE011196CE019F
:10238000459621912D93A817B907D9F7E4CF1F924D
:102390000F920FB60F9211242F933F938F939F9319
:1023A000AF93BF9380912A0590912B05A0912C05A6
:1023B000B0912D053091290523E0230F2D3758F5D5
:1023C0000196A11DB11D2093290580932A059093A4
:1023D0002B05A0932C05B0932D0580912E0590918F
:1023E0002F05A0913005B09131050196A11DB11DB9
:1023F00080932E0590932F05A0933005B09331055F
:10240000BF91AF919F918F913F912F910F900FBEF0
:102410000F901F90189526E8230F0296A11DB11D5D
:10242000D2CF1F920F920FB60F9211242F933F938A
:102430004F935F936F937F938F939F93AF93BF93CC
:10244000EF93FF9380915F0590916005A0916105E6
:10245000B0916205892B8A2B8B2BD1F190915A0573
:10246000E0915B05F0915C058081892780838091F4
:102470005F0590916005A0916105B0916205181605
:1024800019061A061B069CF480915F059091600561
:10249000A0916105B09162050197A109B1098093EE
:1024A0005F0590936005A0936105B0936205FF916D
:1024B000EF91BF91AF919F918F917F916F915F91BC
:1024C0004F913F912F910F900FBE0F901F90189535
:1024D00080911E01EDECF0E0E4919FEF90931E01DE
:1024E000E13051F030F0E23069F060E00E94BE006F
:1024F000DECF10926E00F9CF90916F009D7F909388
:102500006F00F3CF909170009D7F9093700091E0E9
:102510009093B0009091B100987F94609093B10037
:102520001092B300E2CF1F920F920FB60F921124B8
:102530002F933F934F935F936F937F938F939F93CB
:10254000AF93BF93EF93FF938BEB95E00E946D04E5
:10255000FF91EF91BF91AF919F918F917F916F917B
:102560005F914F913F912F910F900FBE0F901F9051
:1025700018951F920F920FB60F9211242F938F93DD
:102580009F93EF93FF93E091CB05F091CC05808171
:10259000E091D105F091D20582FD1BC09081809120
:1025A000D4058F5F8F732091D505821741F0E0919C
:1025B000D405F0E0E554FA4F958F8093D405FF9150
:1025C000EF919F918F912F910F900FBE0F901F90C1
:1025D00018958081F4CF1F920F920FB60F9211249D
:1025E0002F933F934F935F936F937F938F939F931B
:1025F000AF93BF93EF93FF938091B900887F8036AC
:1026000009F44AC0F0F5883209F4A7C018F5803102
:1026100009F49BC0B8F4882309F4F9C0883009F4A0
:1026200094C0FF91EF91BF91AF919F918F917F9156
:102630006F915F914F913F912F910F900FBE0F902F
:102640001F901895883109F488C0803251F7809323
:102650008F0514C0803409F49DC040F48033B9F371
:102660008833F9F680938F0585ECB0C0803509F486
:1026700085C0883509F496C0883499F60E942E0EDC
:10268000D0CF883909F48CC038F5883729F050F458
:10269000883611F0803729F683E0809391051092F7
:1026A000C20357C0883809F47BC0803919F08038DC
:1026B00009F0B7CF8091C203803208F071C0E09179
:1026C000C20381E08E0F8093C2038091BB00F0E0D3
:1026D000EE55FC4F80833DC0803B39F0E0F4803AFA
:1026E00009F479C0883A09F09CCF84E08093910581
:1026F0001092A1031092A003E0913405F0913505EA
:1027000009958091A00381110FC081E08093A003FF
:102710001092800309C0803C09F4A6CF883C09F4DC
:10272000A3CF883B09F07DCFE091A10381E08E0F1C
:102730008093A103F0E0E058FC4F80818093BB00C0
:102740009091A1038091A00329C080916C05809392
:10275000BB0085EC8093BC0064CF90918E05809186
:102760008D05981758F5E0918E0581E08E0F8093C6
:102770008E05F0E0E359FA4F8081E9CFE0918E05B4
:1027800081E08E0F80938E058091BB00F0E0E359CD
:10279000FA4F808390918E0580918D059817C8F22D
:1027A00085E8D8CFE0918E0581E08E0F80938E056D
:1027B0008091BB00F0E0E359FA4F8083809190054F
:1027C00081115CCF81E080936B0584EA8093BC002B
:1027D0001092910526CF85EC8093BC001092910554
:1027E0008091C203803230F4E091C203F0E0EE55F4
:1027F000FC4F10826091C20370E0E0913205F091CD
:10280000330582EA93E009951092C2030ACF109231
:102810008F0534CFEBEBF5E01382128288EE93E064
:10282000A0E0B0E084839583A683B78327E531E0F9
:102830003183208325EC30E03587248724EC30E099
:102840003787268720EC30E0318B208B21EC30E07D
:10285000338B228B22EC30E0358B248B26EC30E05E
:10286000378B268B118E128E138E148EE8E5F6E0D0
:102870001382128284839583A683B78389E691E0CD
:1028800091838083EAE6F6E0138212828BE791E07F
:102890009183808387E2848384E1818784E08287D7
:1028A000138665E871E084E696E00C94B20DCF9350
:1028B000DF93CDB7DEB7C154D1090FB6F894DEBFB0
:1028C0000FBECDBF789484B5826084BD84B581602D
:1028D00084BD85B5826085BD85B5816085BD8091EB
:1028E0006E00816080936E00109281008091810063
:1028F000826080938100809181008160809381005B
:10290000809180008160809380008091B10084601C
:102910008093B1008091B00081608093B00080917D
:102920007A00846080937A0080917A00826080933C
:102930007A0080917A00816080937A0080917A0099
:10294000806880937A001092C100E091CB05F091ED
:10295000CC0582E08083E091C705F091C805108224
:10296000E091C905F091CA058FEC80831092D305E0
:10297000E091CF05F091D00586E08083E091CD0510
:10298000F091CE05808180618083E091CD05F0914A
:10299000CE05808188608083E091CD05F091CE05E1
:1029A000808180688083E091CD05F091CE058081A3
:1029B0008F7D808361E084E00E94EC0061E084E030
:1029C0000E94BE0062E087E00E94EC0061E083E0CC
:1029D0000E94EC0060E083E00E94BE000E9474054B
:1029E0008CE08093B80011E01093970587E2809304
:1029F000B905109298051092BA0581E00E94AC05C5
:102A0000882381F0109397051FE31093B905109266
:102A100098051092BA0581E00E94AC05811102C0B0
:102A2000109300018091000110926D0610926C06C7
:102A300080936E0610926F061092700610927106C7
:102A40001092720684E18093730684E0809374068A
:102A5000109275060E94740510926F06809174069C
:102A6000823018F098E090936F068093720662E3CC
:102A700070E080E090E00E94A003609175068AE615
:102A800096E00E94470768EE73E080E090E00E94C5
:102A9000A00360E38AE696E00E94E20A0BE416E4F3
:102AA000C8010197F1F760E38AE696E00E94E20A26
:102AB000C8010197F1F760E38AE696E00E94E20A16
:102AC00083E592E00197F1F760E28AE696E00E94E2
:102AD000E20A80916F0680620E94210B84E080935D
:102AE00070068CE00E94210B0E949E0B82E0809376
:102AF000710686E00E94210B82E00E94210B8BE38D
:102B00009FE10197F1F70E94620781E080931A012B
:102B10000E947B036B017C0120911B0130E0A0EA45
:102B2000BFE00E94C41F24E630E040E050E00E9475
:102B3000F31FC20ED31EE41EF51EC0925B04D0929A
:102B40005C04E0925D04F0925E04809170068D7FDB
:102B50008093700688600E94210B809170068E7FA2
:102B60008093700688600E94210B0E94880C8093DD
:102B7000030581110AC062E370E080E090E00E94EA
:102B8000A0030E94880C8093030590E080E00E94DF
:102B90006C1F91E0853A09F090E09093C3038BE0BD
:102BA000E2EBF2E0DE01929601900D928A95E1F758
:102BB0008DE0EDEBF2E0DE01559601900D928A95E5
:102BC000E1F784E1EAECF2E08E010F5F1F4FD801DC
:102BD00001900D928A95E1F70E949E0B6E0122E210
:102BE000C20ED11C75E0F72E260161E08F2D0E94E8
:102BF000270BF60181916F010E94180B6CE370E0C6
:102C000080E090E00E94A003F394FFE0FF12EDCF7C
:102C10005E0125E1A20EB11C64E0D62EFA2CEB2C4D
:102C200062E08D2D0E94270BF50181915F010E94CA
:102C3000180B6CE370E080E090E00E94A003D39456
:102C4000F0E1DF12EDCF6CE271E080E090E00E94F5
:102C5000A0034E0123E1821A910854E1A52EB12C64
:102C600063E080E00E94270BD12CC12CC6018A1999
:102C70009B09439708F08BC1F401EC0DFD1D808189
:102C80000E94180B3FEFC31AD30A44E1C416D104C3
:102C900069F76EE170E080E090E00E94A00351E0EF
:102CA000A51AB1088FEF881A980A9FEFA916B906DE
:102CB000B9F660EF7AE080E090E00E94A0030E9405
:102CC000660E80EA92E00E94C90B0E94BB0788232F
:102CD000A1F0D0901B018FEF8D0D833670F40E9410
:102CE000EA0B882309F455C180911A01811105C0AE
:102CF0000E94620781E080931A01EEE8F0E084917F
:102D0000E2EAF0E0D490E0ECF0E0C490B12CA12C29
:102D1000CC2099F081110E949500EC2DF0E0EE0F8F
:102D2000FF1FED58FF4FA591B491EC91DE2291E089
:102D300080E009F490E0A92EB82E90900301892D2F
:102D4000092C000C990B8A159B0509F467C1A09208
:102D500003010E94D2036093C4037093C503809360
:102D6000C6039093C7038091270590912805079784
:102D700009F58090230590902405A0902505B0903A
:102D8000260581149104A104B104D9F10E94D20353
:102D9000681979098A099B0997FD33C010922305A8
:102DA00010922405109225051092260581E090E0EE
:102DB0000E9479108091270590912805089709F5C0
:102DC00080901F0590902005A0902105B0902205CD
:102DD00081149104A104B104A1F00E94D2036819E6
:102DE00079098A099B0997FD0CC010921F05109262
:102DF0002005109221051092220581E090E00E94AA
:102E0000791080911E05882309F46BC080901A0503
:102E100090901B05A0901C05B0901D058114910495
:102E2000A104B10479F10E94D203681979098A09D1
:102E30009B0997FD27C010921E051092190510924C
:102E40001A0510921B0510921C0510921D050E9478
:102E5000BB07882309F445C0809127059091280578
:102E600006970397F0F18091040564E075E0811105
:102E700002C066E871E080E00E94F01080911E05BB
:102E8000882379F18091270590912805079702976B
:102E900040F10E94BB07882321F10E94D20328E859
:102EA00033E140E050E00E94F31FDA01C901809550
:102EB0009095A095B095817090911905891789F02A
:102EC0008093190562E472E020FF08C08091040538
:102ED00064E075E0811102C066E871E080E00E9464
:102EE000F010222423943AE0332E8BEB95E00E94DD
:102EF0004D04892B09F45DC68BEB95E00E942B04F1
:102F0000C0906806D09069068A3019F08D3009F0BB
:102F10002CC6CD2851F364E676E0CE01C3960E941C
:102F2000980DCE01C3960E94E80CCFA8D8ACC1146E
:102F3000D10409F407C170E060E0CE01C3960E949D
:102F4000DE03EFEBE80FEA3108F0FCC00E2E000CB8
:102F5000FF0BE355F84E0C9434203C1D201BA218A7
:102F60004B1BBF1BA2182419721A6418A218A719A8
:102F70005F19A51ADC18B518AF180219111CA21890
:102F8000B818661B981D6918B218A218C11A80E2F9
:102F900077CE0E947B034B015C0180915B04909192
:102FA0005C04A0915D04B0915E04A5019401281B0E
:102FB000390B4A0B5B0BDA01C901B7FD9ECE80913C
:102FC0001A018823F9F00E945B0710921A01A4E607
:102FD000B0E0AD19B10920EA3FE00E943A2024E6B2
:102FE00030E040E050E00E94F31F820E931EA41ECA
:102FF000B51E80925B0490925C04A0925D04B09236
:103000005E047BCE0E94620781E080931A012D2D21
:1030100030E0A0EABFE00E94C41FE1CFC0902705C6
:10302000D09028050E94D2032091C4033091C5039B
:103030004091C6035091C703621B730B840B950B21
:103040006E3171058105910508F48DCE80910201E4
:10305000282F082E000C330B2A153B0509F483CECC
:10306000909202018F3F09F47ECEAA94AB2809F01A
:103070007ACE47E0C416D10469F410922305109269
:103080002405109225051092260581E090E00E940B
:10309000791069CE0E94BB07882369F01092010164
:1030A0000E9445100E94BB07882359F086E992E0F0
:1030B0000E94C90B58CE91E09093010190931901A1
:1030C000EFCF8BE992E0F4CF81E090E00E9479109D
:1030D00039C053E0C516D10418F161E070E0CE01AB
:1030E000C3960E94DE038A33D9F442E050E0BE0169
:1030F0006D5C7F4FC8010E94220E45E150E069E8F7
:1031000074E0C8010E94A60BC8010E94800C809147
:10311000270590912805029731F082E090E0D6CF04
:1031200010928904F4CF0E94BB07882359F0809144
:10313000890469E874E0811102C068E971E082E005
:103140000E94F010CE01C3960E94800C50E040E037
:1031500065E871E084E696E00E946D0DC6CE83E0DE
:1031600090E0B4CF84E090E0B1CF85E090E0AECFC6
:103170006AE3CE01C3960E94AF0CAC014F5F5F4F74
:10318000BE016D5C7F4FC8010E94220E45E150E0F8
:1031900064E774E0C8010E94A60B80912705909116
:1031A0002805029739F480911C0164E774E08F3F91
:1031B00009F446C0C801F9C06AE3CE01C3960E9473
:1031C000AF0CAC014F5F5F4FBE016D5C7F4FC8011C
:1031D0000E94220E41E550E065EA74E0C8010E94B9
:1031E000A60B80912705909128050397029728F454
:1031F0000E946D070E946211DDCF83E090E00E9483
:103200007910D8CF6AE3CE01C3960E94AF0CAC010F
:103210004F5F5F4FBE016D5C7F4FC8010E94220E61
:1032200045E150E06FE574E0C8010E94A60B809173
:10323000270590912805019709F0BCCF6FE574E050
:1032400083E00E94F010B6CF6AE3CE01C3960E94DD
:10325000AF0C97FD77CFAC014F5F5F4FBE016D5C48
:103260007F4FC8010E94220EC8010E94C80C4B016A
:103270005C01C8010E94800C85E688169104A104B7
:10328000B10408F05FCF80921C01809127059091D6
:103290002805029709F056CF0E94BB07882309F43E
:1032A00051CF8091FE0481114DCFC8010E94820749
:1032B0000E94000CB80183E00E94570B43CF6AE3E1
:1032C000CE01C3960E94AF0C97FD3CCFAC014F5F7F
:1032D0005F4FBE016D5C7F4FC8010E94220EC80186
:1032E0000E94C80C4B015C01C8010E94800C95E64D
:1032F00089169104A104B10408F024CF80921B0127
:103300000E94BB07882309F41DCF81149104A104F6
:10331000B10429F40E945B0710921A0113CFE4E66E
:103320008E169104A104B10429F40E946207209230
:103330001A0108CF10921A010E947B0360935B046C
:1033400070935C0480935D0490935E04FBCE6AE30B
:10335000CE01C3960E94AF0C97FD2AC0AC014F5F0F
:103360005F4FBE016D5C7F4FCE018D960E94220E95
:103370006CE7CE018D960E94AF0C4C0197FF1FC0E9
:1033800045E150E066E474E0CE018D960E94A60B04
:103390008091270590912805069709F476C086E06C
:1033A00090E00E947910CE018D960E94800CCACECA
:1033B00065E871E0CE018D960E94B20DD9CF5C0117
:1033C000FFEFAF1ABF0A89A99AA9A816B90670F427
:1033D0006DA47EA46CE770E0C3018A0D9B1D0E9462
:1033E00033226C01C618D708892B19F4CC24CA944F
:1033F000DC2C940150E040E0BE01635D7F4FC201D0
:103400000E94C30DD7FE2EC0A501BE01635D7F4F94
:103410008F2D9E2D0E94220E65E871E0C8010E944A
:10342000B20D45E150E066E474E0C2010E94A60BD3
:1034300045E150E061E374E08F2D9E2D0E94A60BC4
:1034400045E150E06CE174E0C8010E94A60BC801A0
:103450000E94800C8F2D9E2D0E94800CC2010E9424
:10346000800C96CF9601A501BE01635D7F4F8F2D25
:103470009E2D0E94C30DA6014F5F5F4FBE01635D8D
:103480007F4FC8010E94220ECCCF0E94BB07882329
:1034900009F489CF809131048823C1F061E374E09D
:1034A00081E00E94F01080914604882399F066E440
:1034B00074E082E00E94F01080911C04882371F077
:1034C0006CE174E083E00E94F0106DCF81E00E9417
:1034D0003C11E9CF82E00E943C11EECF83E00E94D4
:1034E0003C1161CF6AE3CE01C3960E94AF0C97FDF9
:1034F00026C0AC014F5F5F4FBE016D5C7F4FC801BE
:103500000E94220E45E150E064E075E0C8010E948F
:10351000A60B0E94BB07882309F44CCE8091270597
:1035200090912805069709F445CE8091040564E042
:1035300075E0811102C066E871E080E082CE65E846
:1035400071E0C8010E94B20DDDCF22E0C216D104A5
:1035500008F4F8CD0E94BB07D82E61E070E0CE01E0
:10356000C3960E94DE03803331F4109219018D2D31
:103570000E944510E7CD813309F0E4CD2092190176
:10358000F6CF0E94BB07882309F4DCCD6AE3CE01A5
:10359000C3960E94AF0C97FDD5CDAC014F5F5F4F36
:1035A000BE016D5C7F4F8F2D9E2D0E94220E6CE21E
:1035B0008F2D9E2D0E94AF0C6C0197FD3EC09C018B
:1035C00050E040E06F2D7E2DC8010E94C30DC80160
:1035D0000E94C80C6AAF7BAF8CAF9DAFC8010E9440
:1035E000800CA6014F5F5F4F6F2D7E2DC8010E949A
:1035F000220EC8010E94C80C4B015C01C8010E9448
:10360000800C8AAD9BADACADBDAD4F97A109B109A2
:1036100081309E44A105B10580F4D501C401019714
:10362000A109B109803D9740A105B10530F4B5016C
:10363000A4018AAD9BAD0E941D018F2D9E2DB5CE9C
:1036400053E0C516D10440F061E070E0CE01C396AE
:103650000E94DE038A3319F090E080E037CD42E02B
:1036600050E0BE016D5C7F4FC8010E94220EC80170
:103670000E94C80C4B015C01C8010E94800C8FEFB6
:1036800088169104A104B10411F008F05BCD882DD7
:103690000E94C10757CD89E090E00E9479100E94F6
:1036A000D2036093FF04709300058093010590930B
:1036B000020590E080E00E946C1F853A09F442CD3B
:1036C00065EA90E080E00E94741F3CCD6AE3CE0181
:1036D000C3960E94AF0CAC014F5F5F4FBE016D5CA3
:1036E0007F4FC2010E94220E6CE7C2010E94AF0C04
:1036F0006C0197FD39C09C0150E040E0B2018F2D74
:103700009E2D0E94C30DA6014F5F5F4FB201C801FD
:103710000E94220E45E150E064E071E08F2D9E2D65
:103720000E94A60B45E150E067E074E0C8010E94EA
:10373000A60B2092FE040E94D20368577C4E8F4F46
:103740009F4F6093FA047093FB048093FC04909362
:10375000FD040E94660EC8010E94800C8F2D9E2DD4
:103760000E94800CC20121CE66EA72E08F2D9E2D50
:103770000E94B20DB201C8010E94980DCBCF6AE33E
:10378000CE01C3960E94AF0C97FD3AC0AC014F5FCB
:103790005F4FBE016D5C7F4FC2010E94220E6CE73D
:1037A000C2010E94AF0C6C0197FD30C09C0150E03B
:1037B00040E0B2018F2D9E2D0E94C30DA6014F5FE8
:1037C0005F4FB201C8010E94220E45E150E062EF56
:1037D00073E08F2D9E2D0E94A60B45E150E06DED0C
:1037E00073E0C8010E94A60B8091270590912805DF
:1037F0000A9709F4AECF8AE090E00E947910ABCF2F
:1038000065E871E0C2010E94B20DC9CFB2018F2DEF
:103810009E2D0E94980D65E871E0C8010E94B20DCE
:10382000D4CF80910305882309F48CCC95E1C91687
:10383000D10408F487CC61E070E0CE01C3960E9409
:10384000DE038A3309F07ECC26E030E042E050E02F
:10385000BE016D5C7F4FC8010E94C30DC8010E946C
:10386000C80C4B01C8010E94800C29E030E047E001
:1038700050E0BE016D5C7F4FC8010E94C30DC801BE
:103880000E94C80C6AAF7BAF8CAF9DAFC8010E948D
:10389000800C2CE030E04AE050E0BE016D5C7F4FD0
:1038A000C8010E94C30DC8010E94C80C22966CAFCB
:1038B0007DAF8EAF9FAF2297C8010E94800C2FE092
:1038C00030E04DE050E0BE016D5C7F4FC8010E94CA
:1038D000C30DC8010E94C80C762EC8010E94800C3E
:1038E00022E130E040E150E0BE016D5C7F4FC80155
:1038F0000E94C30DC8010E94C80CD62EC8010E94A8
:10390000800C25E130E043E150E0BE016D5C7F4F6B
:10391000C8010E94C30DC8010E94C80CC62EC80170
:103920000E94800CC401885E97408C34910508F099
:1039300009CC8AAD9BAD01970C9708F003CC8EADF6
:103940009FAD01974F9708F0FDCBE0ED8E1AE7E0B1
:103950009E0A8D8AFAADFE8B2EAD2F8B788ED98E76
:10396000CA8EF80128E011922A95E9F78C2D632D73
:103970000E94D31F982F990F890F880FC80ECA82F3
:103980008D2D0E94D31F982F990F890F880FD80E65
:10399000DB82872D0E94D31F982F990F890F880FE4
:1039A000780E7C828F2D9E2D0E94FC04282F811181
:1039B00001C027E0822F632D0E94D31F982F880F0C
:1039C000890F880F820F8D832F89822F0E94D31F2A
:1039D000982F880F890F880F820F8E832E89822F50
:1039E0000E94D31F982F880F890F880F820F8F8313
:1039F0002D89822F0E94D31F982F880F890F880F3F
:103A0000820F888721E048E050E0BE016F5F7F4F62
:103A100080913605909137050E94190A3FE039AF31
:103A200021E041E050E0BE01675C7F4F80913605A8
:103A3000909137050E94190A41E050E0BE016E5D89
:103A40007F4F80913605909137050E94F4088AA136
:103A50004FE04AA38F778BA321E042E050E0BE0104
:103A60006E5D7F4F80913605909137050E94190A4F
:103A70008FEF80931D0166CB53E0C516D10440F053
:103A800061E070E0CE01C3960E94DE038A3369F1E3
:103A900044E150E060EA71E088EC93E00E94452246
:103AA0000E94D203605E714B8F4F9F4F60931A0547
:103AB00070931B0580931C0590931D0580911E0536
:103AC000811140CB20921E050E94D203605F784D89
:103AD0008F4F9F4F60932305709324058093250596
:103AE0009093260587E090E0F1CA42E050E0BE01E5
:103AF0006D5C7F4FC8010E94220EC8010E94E80C35
:103B00008D819E81892B59F045E150E068EC73E08E
:103B1000C8010E94A60BC8010E94800CC1CF44E1DD
:103B200050E060EA71E088EC93E00E944522F3CF18
:103B300010921E051092190510921A0510921B057D
:103B400010921C0510921D050E94D203605F784DF3
:103B50008F4F9F4F60931F05709320058093210521
:103B60009093220588E090E0B1CA90E4C916D10490
:103B700008F0BBC989831A82EFEFCE1ADE0AB601BC
:103B800084E696E00E94450D882309F4AEC9209191
:103B90006406309165068091680690916906B801C7
:103BA000820F931F0E943E22D0926906C09268063F
:103BB0009CC90E94BB07882309F4C0C08091FE0401
:103BC00081113AC0809127059091280503970297AB
:103BD00098F5E5EAF4E001900020E9F79F01265A04
:103BE0003440690134E13C1538F50E94D2038090DD
:103BF000A1049090A204A090A304B090A4049B01FF
:103C0000AC01281939094A095B0949015A01B7FC75
:103C10000EC020919F043091A0042130310509F499
:103C2000E4C008F4D4C02230310509F4FEC00E947B
:103C3000BB07882309F482C080912705909128054D
:103C4000892B09F07BC080910305882309F476C095
:103C50008091FE04811172C00E94D2038090F6040C
:103C60009090F704A090F804B090F9049B01AC0187
:103C7000281939094A095B0949015A0138EE8316A6
:103C800033E09306A104B10408F458C06093F6042D
:103C90007093F7048093F8049093F904C2010E9492
:103CA000490A8EA190911D01891709F447C080939C
:103CB0001D01BCA0EBA1E150FF0BEE0FFF1FE55C67
:103CC000FE4FD080C180C2010E94FC041F92BF92AF
:103CD000CF92DF92E82FF0E0EE0FFF1FE35DFE4F83
:103CE00081818F9380818F938AEA91E09F938F9354
:103CF0001F928CE08F931F930F930E9454228EA1EA
:103D00001F928F938DA11F928F9384EB91E09F93CD
:103D10008F931F9286E08F93EF92FF920E9454221E
:103D2000B80181E00E94F0106F2D7E2D82E00E948C
:103D3000F0100FB6F894DEBF0FBECDBF80912705FF
:103D4000909128050997D9F4809103058823B9F04B
:103D50000E94D2038090FF0490900005A09001057E
:103D6000B0900205681979098A099B09603C744D75
:103D70008140910520F090E080E00E9479108091D0
:103D8000FE048823A1F00E94D2038090FA04909050
:103D9000FB04A090FC04B090FD04681979098A091D
:103DA0009B0997FD04C01092FE040E94660E80E0FD
:103DB00090E0892B11F40C9465160E945904882315
:103DC00011F40C9465160E9400000C94651621E015
:103DD00020939E0421E030E03093A00420939F04C0
:103DE00066507F4F8F4F9F4F15C02CEE2C0D30919A
:103DF0009E043F5F30939E04321790F320939E04FD
:103E000022E030E03093A00420939F0464527A4F64
:103E10008F4F9F4F6093A1047093A2048093A304DB
:103E20009093A4040E94621102CF10929E041092FB
:103E3000A00410929F0460557B4F8F4F9F4FEACF95
:103E400084E696E00C94800C1F93FC019927882748
:103E5000BC01E89411911032E9F3193010F01E30D2
:103E6000C8F31B3251F01D3249F4689406C00E9419
:103E70004B1F610F711D811D911D119110531A303F
:103E8000B0F33EF490958095709561957F4F8F4F7C
:103E90009F4F1F910895592F482F372F262F660FB8
:103EA000771F881F991F660F771F881F991F620F42
:103EB000731F841F951F660F771F881F991F089512
:103EC00091110C94691F803219F089508550C8F700
:103ED0000895992788270895F999FECF92BD81BD4D
:103EE000F89A992780B50895262FF999FECF1FBA21
:103EF00092BD81BD20BD0FB6F894FA9AF99A0FBE13
:103F0000019608950E94C41FA59F900DB49F900D27
:103F1000A49F800D911D112408952F923F924F92DE
:103F20005F926F927F928F929F92AF92BF92CF9249
:103F3000DF92EF92FF920F931F93CF93DF93CDB752
:103F4000DEB7CA1BDB0B0FB6F894DEBF0FBECDBFCA
:103F500009942A88398848885F846E847D848C849B
:103F60009B84AA84B984C884DF80EE80FD800C81A4
:103F70001B81AA81B981CE0FD11D0FB6F894DEBF87
:103F80000FBECDBFED010895A29FB001B39FC00148
:103F9000A39F700D811D1124911DB29F700D811D75
:103FA0001124911D0895991B79E004C0991F96175B
:103FB00008F0961B881F7A95C9F780950895AA1B6B
:103FC000BB1B51E107C0AA1FBB1FA617B70710F004
:103FD000A61BB70B881F991F5A95A9F78095909536
:103FE000BC01CD010895A1E21A2EAA1BBB1BFD0145
:103FF0000DC0AA1FBB1FEE1FFF1FA217B307E407C8
:10400000F50720F0A21BB30BE40BF50B661F771F1F
:10401000881F991F1A9469F76095709580959095FF
:104020009B01AC01BD01CF010895052E97FB1EF445
:1040300000940E942C2057FD07D00E94F31F07FC1C
:1040400003D04EF40C942C2050954095309521953A
:104050003F4F4F4F5F4F08959095809570956195B4
:104060007F4F8F4F9F4F0895EE0FFF1F0590F491E4
:10407000E02D09940E94C41FB7FF0895821B930B83
:1040800008950F931F93CF93DF938230910510F41F
:1040900082E090E0E0917806F091790630E020E04F
:1040A000B0E0A0E0309799F42115310509F44AC039
:1040B000281B390B24303105D8F58A819B81611585
:1040C000710589F1FB0193838283FE0111C0408158
:1040D00051810281138148175907E0F048175907A9
:1040E00099F4109761F012960C93129713961C9303
:1040F0003296CF01DF91CF911F910F9108950093D8
:10410000780610937906F4CF2115310551F0421746
:10411000530738F0A901DB019A01BD01DF01F80165
:10412000C1CFEF01F9CF9093790680937806CDCF78
:10413000FE01E20FF31F81939193225031093983DD
:104140002883D7CF2091760630917706232B41F430
:104150002091210130912201309377062093760639
:1041600020911F01309120012115310541F42DB717
:104170003EB74091230150912401241B350BE0915F
:104180007606F0917706E217F307A0F42E1B3F0B9B
:104190002817390778F0AC014E5F5F4F24173507B9
:1041A00048F04E0F5F1F5093770640937606819339
:1041B00091939FCFF0E0E0E09CCFCF93DF93009707
:1041C000E9F0FC01329713821282A0917806B09137
:1041D0007906ED0130E020E01097A1F420813181D3
:1041E000820F931F209176063091770628173907A2
:1041F00009F061C0F0937706E0937606DF91CF91E6
:104200000895EA01CE17DF07E8F54A815B819E0138
:1042100041155105B1F7E901FB83EA8349915991B1
:10422000C40FD51FEC17FD0761F4808191810296C0
:10423000840F951FE90199838883828193819B83F1
:104240008A83F0E0E0E012968D919C91139700979D
:10425000B9F52D913C911197CD010296820F931FD4
:1042600020917606309177062817390739F630976E
:1042700051F51092790610927806B0937706A093C4
:104280007606BCCFD383C28340815181840F951FB2
:10429000C817D90761F44E5F5F4F88819981480F35
:1042A000591F518340838A819B8193838283211587
:1042B000310509F0B0CFF0937906E09378069ECFF0
:1042C000FD01DC01C0CF13821282D7CFB0E0A0E0A5
:1042D000ECE6F1E20C948F1F8C01009751F4CB01B6
:1042E0000E9441208C01C801CDB7DEB7E0E10C94FB
:1042F000AB1FFC01E60FF71F9C0122503109E217AA
:10430000F30708F49DC0D901CD91DC911197C61730
:10431000D70798F0C530D10530F3CE010497861742
:10432000970708F3C61BD70B2297C193D1936D93C0
:104330007C93CF010E94DD20D6CF5B01AC1ABD0A71
:104340004C018C0E9D1EA0917806B0917906512CDF
:10435000412CF12CE12C109731F58091760690914B
:1043600077068815990509F05CC04616570608F0CF
:1043700058C080911F0190912001009741F48DB7A2
:104380009EB74091230150912401841B950BE8179F
:10439000F90708F055C0F0937706E0937606F90127
:1043A00071836083A0CF8D919C91119712966C9030
:1043B000129713967C901397A815B90559F56C01BF
:1043C00042E0C40ED11CCA14DB0420F1AC014A192E
:1043D0005B09DA011296159780F06282738251832D
:1043E0004083D9016D937C93E114F10471F0D701FE
:1043F0001396FC93EE93129776CF22968C0F9D1F07
:10440000F90191838083F301EFCFF0937906E09374
:10441000780669CF4816590608F42C017D01D301AE
:104420009ACFCB010E9441207C01009749F0AE0158
:10443000B8010E942322C8010E94DD20870153CFCA
:1044400010E000E050CFFB01DC0102C001900D92B2
:1044500041505040D8F70895DC0101C06D934150A0
:104460005040E0F70895FC018191861721F08823E0
:10447000D9F7992708953197CF010895FB01DC0101
:1044800001900D920020E1F70895FB01DC014150FD
:10449000504048F001900D920020C9F701C01D92D4
:1044A00041505040E0F70895AEE0B0E0EAE5F2E2B6
:1044B0000C949B1F0D891E898F89988D26E02C8373
:1044C0001A83098397FF02C080E090E801979E83DA
:1044D0008D83AE01455E5F4F698D7A8DCE01019669
:1044E0000E9484224D815E8157FD0AC02F8138854C
:1044F000421753070CF49A01020F131FF8011082A0
:104500002E96E4E00C94B71FABE0B0E0EAE8F2E2EC
:104510000C948D1F7C013B018A01FC0117821682DD
:10452000838181FFC8C1CE0101965C01F7019381AF
:10453000F30193FD859193FF81913F01882309F455
:1045400053C1853239F493FD859193FF81913F01E9
:10455000853229F4B70190E00E947424E7CF912CB2
:10456000212C312CFFE1F31538F08B3211F190F44E
:10457000803209F1833229F137FC3CC020ED280F4D
:104580002A3050F536FE20C08AE0989E200D112476
:10459000922E06C08D3291F0803371F7689430F816
:1045A000F30193FD859193FF81913F018111DACF52
:1045B00021C0689431F8689432F8F2CF689433F8E7
:1045C000EFCF689434F8ECCFEAE02E9E200D112452
:1045D000222E689435F8E4CF8E3229F436FC04C1DB
:1045E000689436F8DDCF8C3619F4689437F8D8CF54
:1045F0008836B1F2982F9F7D95549330E0F0833642
:10460000A1F18337C1F1833509F063C02801F2E0DD
:104610004F0E511CF801C080D180692D70E036FC2E
:1046200002C06FEF7FEFC6010E945E244C016894C8
:1046300037F882010AC00C5F1F4FFFE3F98388241B
:104640008394912C6501E89437F833FE2DC0522CE9
:104650008114910471F5552009F468CFB70180E207
:1046600090E00E9474245A94F6CFF80180818983E7
:104670000E5F1F4FE4CF2801F2E04F0E511CF801EE
:10468000C080D180692D70E036FC02C06FEF7FEFF3
:10469000C6010E9469244C018201D5CFB70180E296
:1046A00090E00E9474242A942814190409F0B0F7A9
:1046B000CECFF60137FC859137FE81916F01B701AE
:1046C00090E00E94742451105A94F1E08F1A9108DE
:1046D000BFCF843619F0893609F077C0F80137FE6C
:1046E0006BC060817181828193810C5F1F4FF32DBC
:1046F000FF763F2E97FF09C0909580957095619544
:104700007F4F8F4F9F4F689437F82AE030E0A50124
:104710000E94A424C82ECA188C2C432C36FE0CC030
:10472000E89440F8C91440F434FE05C032FC03C0DC
:10473000F32DFE7E4F2E892C44FE95C0FE01EC0D1C
:10474000F11D8081803309F087C0242D297E422EFF
:10475000842D8870582E43FC95C040FE8FC09C2C41
:10476000821418F42C0C922C981844FE91C0B701B6
:1047700080E390E00E94742442FE09C088E790E044
:1047800041FE02C088E590E0B7010E947424C9147C
:1047900008F48AC0CA94D12C9FEFC91AD90ACA0C4E
:1047A000DB1CF60182916F01B70190E00E94742436
:1047B000AC14BD04B1F74FCF60817181072E000C9E
:1047C000880B990B0E5F1F4F92CFD32CE894D4F82F
:1047D0002AE030E0853739F1232D297FD22E8F361C
:1047E00001F148F48835A9F0F701868197812B966D
:1047F000E2E10C94A91F803749F08837A9F7D4FE6D
:1048000002C06894D2F820E130E00DC06894D4F87A
:10481000F6CF34FE03C0822F8660D82E20E132E02E
:1048200002C028E030E0F801D7FE0FC0608171813E
:10483000828193810C5F1F4FA5010E94A424C82E82
:10484000CA183D2CE89437F867CF6081718190E0F9
:1048500080E00E5F1F4FF0CF42FC02C0839478CF00
:104860008394839475CF842D867809F471CFF6CF25
:10487000B70180E290E00E94742483948214C0F314
:10488000512C73CF522C5818821408F46ECFF8CFE5
:10489000842D867809F47BCF8BE241FE80E247FCD1
:1048A0008DE2B70190E071CFB70180E390E00E9404
:1048B00074249A946CCF8FEF9FEF99CFFC010590F1
:1048C000615070400110D8F7809590958E0F9F1F12
:1048D0000895FC016150704001900110D8F7809557
:1048E00090958E0F9F1F08950F931F93CF93DF9383
:1048F000182F092FEB018B8181FD09C01FEF0FEFEE
:10490000812F902FDF91CF911F910F91089582FFFA
:1049100014C02E813F818C819D81281739073CF47A
:10492000E881F981CF0101969983888310838E8174
:104930009F8101969F838E83E3CFE885F985812F40
:104940000995892BA1F3DACFFA01AA27283051F172
:10495000203181F1E8946F936E7F6E5F7F4F8F4FB0
:104960009F4FAF4FB1E03ED0B4E03CD0670F781F0F
:10497000891F9A1FA11D680F791F8A1F911DA11DF4
:104980006A0F711D811D911DA11D20D009F468942D
:104990003F912AE0269F11243019305D3193DEF6D5
:1049A000CF010895462F4770405D4193B3E00FD08B
:1049B000C9F7F6CF462F4F70405D4A3318F0495D76
:1049C00031FD4052419302D0A9F7EACFB4E0A69559
:1049D0009795879577956795BA95C9F7009761057B
:1049E000710508959B01AC010A2E069457954795D1
:1049F00037952795BA95C9F7620F731F841F951FC6
:104A0000A01D089510E0C8E6D0E004C0FE010E9499
:0E4A100034202196C936D107C9F7F894FFCF9C
:104A1E002701FFFF557361676520616C6572740035
:104A2E00000000000000000000010114FFFFFF0065
:104A3E00007A0680000000400014005400DE02E2FE
:104A4E0002E602EA02EE02F202F602FA02FE0202A8
:104A5E000306030A030E03120316031A031E032290
:104A6E00032603000000008F04EF031C04DC044D3A
:104A7E00042B043F04000000001807EB066A07C170
:104A8E0006E406D106C20600000000120BEF036A10
:104A9E00072E050D0A003D3D20436C6175646520AF
:104AAE00436F6465203D3D00574F524B494E4700C2
:104ABE00594F555220415245410025732C202573E4
:104ACE0020256400253032643A2530326400576563
:104ADE006C636F6D65210052756E20736574757011
:104AEE0020746F20737461727400537461727469F0
:104AFE006E672075702E2E2E0049444C450057418E
:104B0E004954494E4720464F5220494E5055540065
:104B1E005045524D495353494F4E3F004F46464C18
:104B2E00494E45006E6F2073657373696F6E004159
:104B3E006C6C207365742100737461727420636CE5
:104B4E0061756465206E6F77005741524E494E472E
:104B5E002100414952205241494420414C45525472
:104B6E0000494E2025730050524F43454544205472
:104B7E004F205348454C5445520041697220616C98
:104B8E00657274206973206F766572004D617920AD
:104B9E0074686520666F726365006265207769745C
:104BAE006820796F750053573A310053573A3000E9
:104BBE00524541445900557361676520616C6572B9
:104BCE007400506C61696E737461636B007465631D
:104BDE00686E6F6C6F67696573004368616F7320F1
:104BEE00696E746F2073797374656D732E005375CF
:104BFE006E004D6F6E005475650057656400546805
:104C0E00750046726900536174004A616E00466514
:104C1E0062004D617200417072004D6179004A75FB
:104C2E006E004A756C0041756700536570004F63E6
:0A4C3E0074004E6F760044656300B9
:00000001FF
