:100000000C9469000C9491000C9491000C94910054
:100010000C9491000C9491000C9491000C94531248
:100020000C9491000C9491000C9491000C9491000C
:100030000C9491000C9491000C9491000C949100FC
:100040000C9409120C9491000C94FB120C94D51290
:100050000C9491000C9491000C9491000C949100DC
:100060000C942D130C9491001F1C1F1E1F1E1F1F8C
:100070001E1F1E00000000230026002900000000B3
:1000800000240027002A00000000080002010000F0
:100090000304070000000000000000010204081033
:1000A00020408001020408102001020408102000F2
:1000B000000000250028002B0004040404040404AC
:1000C00004020202020202030303030303024C14AC
:1000D000A61F11241FBECFEFD8E0DEBFCDBF26E0A4
:1000E000AAE2B3E001C01D92AF38B207E1F713E016
:1000F000A0E0B1E0EAE2FBE402C005900D92AA3272
:10010000B107D9F710E0C8E6D0E004C02197FE019E
:100110000E94BA20C736D107C9F70E9499140C94DF
:1001200088250C94000008950895833081F028F408
:10013000813099F08230A9F008958730A9F0883095
:10014000C9F08430B1F4809180008F7D03C080912C
:1001500080008F7780938000089584B58F7784BD69
:10016000089584B58F7DFBCF8091B0008F77809309
:10017000B00008958091B0008F7DF9CF1F93CF9389
:10018000DF93282F30E0F901E957FF4F8491F901FF
:10019000E556FF4FD491F901E754FF4FC491CC23AA
:1001A000A9F0162F81110E949500EC2FF0E0EE0FC0
:1001B000FF1FE155FF4FA591B4918FB7F894EC91D3
:1001C000111108C0D095DE23DC938FBFDF91CF9152
:1001D0001F910895DE2BF8CFCF93DF9390E0FC01C1
:1001E000E556FF4F249187549F4FFC01849188234B
:1001F000D1F090E0880F991FFC01E358FF4FA591C3
:10020000B491FC01E155FF4FC591D491623071F476
:100210009FB7F8943C91822F809583238C93E8813B
:100220002E2B28839FBFDF91CF9108958FB7F8942D
:10023000EC912E2B2C938FBFF6CF4F925F926F9243
:100240007F928F929F92AF92BF92CF92DF92EF9266
:10025000FF920F931F93CF93DF9300D000D01F9294
:10026000CDB7DEB78C012A013B0180911E0183309E
:10027000C9F08F3F09F47FC00F900F900F900F903F
:100280000F90DF91CF911F910F91FF90EF90DF9032
:10029000CF90BF90AF909F908F907F906F905F9026
:1002A0004F900895EDECF0E084918D8387FDE4CFCD
:1002B00061E083E00E94EC008D81882321F09D8124
:1002C000923009F05CC14801B12CA12C60E072E1D0
:1002D0008AE790E0A50198010E949B2029833A8338
:1002E0004B835C8369017A0181E0C81AD108E10877
:1002F000F1089FEFC916D104E104F10409F00CF4F0
:1003000013C160E472E48FE090E0A50198010E94BF
:100310009B2069017A0181E0C81AD108E108F1083F
:100320009D81923009F098C08FEFC816D104E10486
:10033000F10409F00CF4DDC160E970ED83E090E0B8
:10034000A50198010E949B2069017A0191E0C91AD8
:10035000D108E108F1088FEFC816D104E104F104D7
:1003600011F00CF0A3C183E09091B100987F892B2C
:100370008093B100E1C083E080931E01EDECF0E0DA
:1003800094919D839F3F09F477CF913029F158F0E4
:10039000923009F43FC08D8187FD6ECF61E083E02C
:1003A0000E94EC008CCF14BC15BC84B5826084BD67
:1003B00085B5816085BDECEBF0E0E491F0E0EE0FF7
:1003C000FF1FE155FF4F85919491EEE9F0E0E49134
:1003D000E09373051D826CCF109280001092810013
:1003E000809181008860809381008091810081608C
:1003F00080938100ECEBF0E0E491F0E0EE0FFF1F62
:10040000E155FF4F85919491EEE9F0E0E491E0939E
:1004100072054ECF1092B0001092B1008091B000E2
:1004200082608093B0008091B10081608093B100C0
:10043000ECEBF0E0E491F0E0EE0FFF1FE155FF4F31
:10044000859194919093710580937005EEE9F0E0A9
:10045000E491E0936F052CCF9FEFC916D104E1041E
:10046000F10409F00CF489C068E478EE81E090E0D2
:10047000A50198010E949B2069017A0181E0C81AB8
:10048000D108E108F1089D81992309F428C19FEF63
:10049000C916D104E104F10409F00CF41EC162E1B3
:1004A0007AE780E090E0A50194010E949B20690119
:1004B0007A0181E0C81AD108E108F1089D819923E9
:1004C00009F4EBC08FEFC816D104E104F10411F078
:1004D00008F0BFC086E048CF64E274EF80E090E0AF
:1004E000A50194010E949B2069017A0181E0C81A4C
:1004F000D108E108F10885E09FEFC916D104E104B5
:10050000F10409F008F430CF62E17AE780E090E08E
:10051000A50194010E949B2069017A0191E0C91A0A
:10052000D108E108F108CECF81E09D8191111CCF67
:1005300095B5987F892B85BD2FEF3FEFA901411419
:1005400051046104710409F043C09D81913009F4A4
:100550005EC0923009F46DC091118ECEC7BC20935D
:100560007C0530937D0540937E0550937F058091F7
:100570006E00826080936E007FCE82E0D6CFB12C79
:10058000A12C60E072E18AE790E0A50198010E9449
:100590009B2069017A0181E0C81AD108E108F108BD
:1005A000C114D10491E0E906F10404F591E08D81D4
:1005B000813011F680918100887F892B80938100A2
:1005C0002FEF3FEFA9014114510461047104F9F0C8
:1005D000D801AA0FBB1FA30192010E94082028EE98
:1005E00033E040E050E00E947920AFCF68E478EE3D
:1005F00081E090E0A50198010E949B2069017A01A9
:1006000081E0C81AD108E108F10893E0D0CFD09278
:100610008900C09288002093780530937905409333
:100620007A0550937B0580916F00826080936F0004
:1006300023CEC092B3002093740530937505409388
:1006400076055093770580917000826080937000EA
:1006500013CEC980DA80EB80FC809AE0F594E794B1
:10066000D794C7949A95D1F791E0C91AD108E108B7
:10067000F10887E079CEC980DA80EB80FC808AE0DF
:10068000F594E794D794C7948A95D1F791E0C91A65
:10069000D108E108F10885E04BCF8FEFC816D104EF
:1006A000E104F10409F038F784E042CF68E478EE21
:1006B00081E090E0A50198010E949B2069017A01E8
:1006C00091E0C91AD108E108F1088FEFC816D104EA
:1006D000E104F10411F00CF0FFCE84E045CE8FEF81
:1006E000C816D104E104F10411F00CF0D8CE83E077
:1006F0001FCF82E039CE3FB7F894809143059091A7
:100700004405A0914505B091460526B5A89B05C0B6
:100710002F3F19F00196A11DB11D3FBFBA2FA92F80
:10072000982F8827BC01CD01620F711D811D911D7D
:1007300042E0660F771F881F991F4A95D1F70895E9
:100740008F929F92AF92BF92CF92DF92EF92FF92E1
:100750004B015C010E947B036B017C010E947B03C7
:100760006C197D098E099F09683E734081059105CA
:10077000A8F321E0821A9108A108B10888EEC80EFA
:1007800083E0D81EE11CF11C81149104A104B10482
:1007900029F7FF90EF90DF90CF90BF90AF909F90A0
:1007A0008F9008952FB7F89460913F0570914005A0
:1007B00080914105909142052FBF0895FC0124814D
:1007C00035816217730748F480819181009729F081
:1007D000860F971FFC018081089580E00895AF92F5
:1007E000BF92CF92DF92EF92FF920F931F93CF931E
:1007F000DF936C017B018B01040F151FEB015E0180
:10080000AE18BF08C017D10759F06991D601ED9114
:10081000FC910190F081E02DC6010995892B79F7B3
:10082000C501DF91CF911F910F91FF90EF90DF9065
:10083000CF90BF90AF900895FC01538D448D252F2C
:1008400030E0842F90E0821B930B541710F0CF966A
:10085000089501970895FC01918D828D981761F09C
:10086000A28DAE0FBF2FB11D5D968C91928D9F5FB3
:100870009F73928F90E008958FEF9FEF0895FC0192
:10088000918D828D981731F0828DE80FF11D858D45
:1008900090E008958FEF9FEF0895FC01918D228DD8
:1008A000892F90E0805C9F4F821B91098F7399275D
:1008B000089580ED95E00E944D0421E0892B09F414
:1008C00020E0822F089580E090E0892B29F00E949B
:1008D000590481110C9400000895FC01A48DA80F07
:1008E000B92FB11DA35ABF4F2C91848D90E0019672
:1008F0008F739927848FA689B7892C93A089B18992
:100900008C91837080648C93938D848D981306C032
:100910000288F389E02D80818F7D80830895EF9296
:10092000FF920F931F93CF93DF93EC0181E0888FA9
:100930009B8D8C8D98131AC0E889F989808185FF79
:1009400015C09FB7F894EE89FF896083E889F9891B
:1009500080818370806480839FBF81E090E0DF911D
:10096000CF911F910F91FF90EF900895F62E0B8D70
:1009700010E00F5F1F4F0F731127E02E8C8D8E112B
:100980000CC00FB607FCFACFE889F989808185FF92
:10099000F5CFCE010E946D04F1CFEB8DEC0FFD2F52
:1009A000F11DE35AFF4FF0829FB7F8940B8FEA894D
:1009B000FB8980818062CFCFCF93DF93EC01888D5C
:1009C0008823B9F0AA89BB89E889F9898C9185FDCA
:1009D00003C0808186FD0DC00FB607FCF7CF8C9158
:1009E00085FFF2CF808185FFEDCFCE010E946D049F
:1009F000E9CFDF91CF910895FC0161819081492F6A
:100A000050E08281282F30E0E8E6F0E081E08617B0
:100A100030F47491270F311D8F5F3196F8CF63301A
:100A200020F0937011F42F5F3F4F6DE671E0469F09
:100A3000C001479F900D569F900D112405964D5F64
:100A40005F4F5695479556954795840F951F820F92
:100A5000931F67E070E00E9465200895089520913B
:100A6000A003260F3327331F21323105ECF42091E8
:100A7000A605FC0190E080E0243069F082E0089552
:100A8000A091A0032191AC0140585C4FA40FB52F59
:100A9000B11D2C930196861798F38091A003680FDF
:100AA0006093A00380E0089581E008951092A60568
:100AB00081E08093A5051092800561E082E10E94AB
:100AC000BE0061E083E10E94BE00E9EBF0E08081BE
:100AD0008E7F808380818D7F808388E48093B800BF
:100AE00085E48093BC00089510924E0510924D0548
:100AF0001092AD051092CF050E94560583E990E053
:100B000090934A058093490584E990E090934805C5
:100B1000809347050895CF93DF9391E090937F03EF
:100B20008823B9F0C091B800D091BA008091BC0080
:100B30008A7B8093BC0060E082E10E94BE0060E09E
:100B400083E10E94BE000E945605D093BA00C09374
:100B5000B800DF91CF9108958F929F92AF92BF928C
:100B6000CF92DF92EF92FF920F931F93CF93DF9379
:100B7000D091CF05D13208F0D7C0182FC091CE0543
:100B80000E947B036B017C018091A60581116BC0E3
:100B900082E08093A6051093A5058FEF8093A405AE
:100BA0001092A305D093A205AEEAB5E0E2E8F5E025
:100BB00080E0D81391C01092810580918105CC0FFF
:100BC000C82BC093810580918005813009F088C0D1
:100BD000109280050E947B036B017C01809181054E
:100BE0008093BB008091A8059091A905A091AA05CA
:100BF000B091AB05892B8A2B8B2BA1F00E947B0334
:100C00000091A8051091A9052091AA053091AB0586
:100C10006C197D098E099F090617170728073907E0
:100C200008F442C08091BC0083FDD8CF85EC80934E
:100C3000BC000E947B036B017C018091A605823081
:100C400009F450C08091A4058F3F09F46FC08091D2
:100C5000A405803209F46CC08091A405803309F4A6
:100C600069C084E026C08091A8059091A905A09153
:100C7000AA05B091AB05892B8A2B8B2B09F484CF65
:100C80000E947B038090A8059090A905A090AA05DA
:100C9000B090AB056C197D098E099F0986169706E1
:100CA000A806B90608F070CF8091A7050E948B05B1
:100CB00085E01092AD051092CF051092AC05DF9142
:100CC000CF911F910F91FF90EF90DF90CF90BF9049
:100CD000AF909F908F9008959D9191938F5F69CF72
:100CE00085EEA5CF8091A8059091A905A091AA05B0
:100CF000B091AB05892B8A2B8B2B09F49ECF0E94D8
:100D00007B030091A8051091A9052091AA053091B7
:100D1000AB056C197D098E099F090617170728076F
:100D2000390708F08ACFC0CF81E0C3CF80E0C1CFC0
:100D300082E0BFCF83E0BDCFCF93DF93EC018B8107
:100D40008823A1F0888191E09093AC058093CE0533
:100D50001092AD051092CF0581E00E94AC0591E0A4
:100D6000811190E0892FDF91CF9108950E94740541
:100D700081E08B83CE010E949C06982F8111E2CFE7
:100D8000F1CF0895E0914E0580914D05E81730F4BC
:100D9000F0E0E15BFA4F808190E008958FEF9FEFE4
:100DA000089590914E0580914D052FEF3FEF9817D4
:100DB00048F4E92FF0E0E15BFA4F208130E09F5FDB
:100DC00090934E05C901089580914D0590914E056F
:100DD000891B990B0895CF92DF92EF92FF920F93A8
:100DE0001F93CF93DF937C01CB018A012091AC0547
:100DF000222389F0EB016B01C40ED51ECC15DD0555
:100E000069F06991D701ED91FC910190F081E02D9D
:100E1000C7010995F3CF642F0E942F05C801DF9108
:100E2000CF911F910F91FF90EF90DF90CF90089599
:100E3000CF93DF931F92CDB7DEB769832091AC05C6
:100E40002223F9F02091CF05203258F021E030E044
:100E5000FC013383228390E080E00F90DF91CF91FB
:100E600008958091AD05E82FF0E0E255FA4F9981A1
:100E700090838F5F8093AD058093CF0581E090E0F4
:100E8000ECCF61E0CE0101960E942F05F7CFFC0167
:100E9000248131E03093AC052093CE051092AD054E
:100EA0001092CF058385682B8DE696E00E94180787
:100EB00081E00C94AC0510928A0660E08FE796E022
:100EC0000C94470788E080938A0660E08FE796E0FD
:100ED0000C94470790E080E008951092B3041092BC
:100EE000B5041092B4040E94D20360557B4F8F4F1B
:100EF0009F4F6093B6047093B7048093B8049093A7
:100F0000B9040895FC0130911C01232F353608F0F7
:100F100024E640E1249FC001112464E670E00E94B1
:100F20006520462F3A3090F480E28083205D218353
:100F300095E292838383349680E090E2841708F4EC
:100F40009FEF91938F5F8031C1F70895343660F43D
:100F5000822F6AE00E945920805D8083905D91839A
:100F600085E2828380E2E6CF81E3808380E3818330
:100F7000828385E2DFCF8091010181118091190187
:100F80000895CF93DF93C82F0E94BB07882309F4ED
:100F900023C1C93008F020C1EC2FF0E0EE52F84F29
:100FA0000C94BA20DB071D08320847085C087D084E
:100FB0009E08C108EF0840E550E060E070E087E17E
:100FC00094E00E941D016FE570E080E090E00E94D7
:100FD000A00340E550E060E070E087E994E00E9403
:100FE0001D016FE570E080E090E00E94A00340E505
:100FF00050E060E070E087E295E00E941D016FE53F
:1010000070E080E090E00E94A00344E650E060E0E1
:1010100070E080E296E00E941D0163E770E080E0EE
:1010200090E00E94A00344E051E060E070E08DE2B7
:1010300098E0DF91CF910C941D014CE350E060E00B
:1010400070E08BE492E00E941D016FE570E080E0AB
:1010500090E00E94A00340E550E060E070E080E78F
:1010600093E0E7CF40E550E060E070E087E295E094
:101070000E941D0162E870E080E090E00E94A00301
:1010800040E550E060E070E087E194E0D2CF40E5D9
:1010900050E060E070E083E992E00E941D0162E8A8
:1010A00070E080E090E00E94A00340E550E060E046
:1010B00070E08BE092E0BDCF47E350E060E070E08D
:1010C00080E296E00E941D0160E570E080E090E023
:1010D0000E94A00347E350E060E070E087E295E003
:1010E0000E941D0160E570E080E090E00E94A00396
:1010F00046E450E060E070E0C7CF47E350E060E0D6
:1011000070E080E193E00E941D0160E570E080E006
:1011100090E00E94A00347E350E060E070E083E9C4
:1011200092E00E941D0160E570E080E090E00E9486
:10113000A00346E450E060E070E0BBCF47E350E03E
:1011400060E070E083E992E00E941D0165E570E0D7
:1011500080E090E00E94A00347E350E060E070E090
:1011600080E793E00E941D0165E570E080E090E07B
:101170000E94A0034AE550E060E070E087E295E05D
:1011800058CFC0E0D4E046E950E060E070E087E18D
:1011900094E00E941D0160EA70E080E090E00E940F
:1011A000A00346E950E060E070E084EE92E00E9427
:1011B0001D0160EA70E080E090E00E94A003D15041
:1011C00011F7C23031F060E971E080E090E00E94F8
:1011D000A003CF5FC330B1F6DF91CF9108954AE508
:1011E00050E060E070E08BE092E00E941D016EE64E
:1011F00070E080E090E00E94A0034AE550E060E0EB
:1012000070E083E992E00E941D016EE670E080E0EC
:1012100090E00E94A0034AE550E060E070E080E1C9
:1012200093E00E941D016EE670E080E090E00E9475
:10123000A00348EC50E060E070E026CF2F923F9290
:101240004F925F926F927F928F929F92AF92BF92D6
:10125000CF92DF92EF92FF920F931F93CF93DF9382
:101260005C011B016A01F12CE12CD50114968D91D2
:101270009C9186010E191F098017910708F48C01B3
:10128000F501D0810E947B032B013C018091A605D2
:10129000811172C0C02F013208F0C0E2F1E0F0937A
:1012A000A60521E0C601801B910BE816F90608F49B
:1012B00020E02093A5058FEF8093A4051092A3054D
:1012C0008C0F8093A205A1E0A093810580918105F8
:1012D000DD0FD82BD093810580918005813009F0F6
:1012E00090C0109280050E947B032B013C018091ED
:1012F00081058093BB008091A8059091A905A091DC
:10130000AA05B091AB05892B8A2B8B2BA1F00E94EB
:101310007B032091A8053091A9054091AA05509121
:10132000AB05641975098609970926173707480719
:10133000590708F442C08091BC0083FDD8CFB5ECBA
:10134000B093BC000E947B032B013C018091A60559
:10135000813009F45AC08091A3058C1710F4C09114
:10136000A305A2E8B5E0EFE4F5E080E08C1751F1C9
:101370009D9191938F5FFACF8091A8059091A905D7
:10138000A091AA05B091AB05892B8A2B8B2B09F470
:101390007DCF0E947B032091A8053091A905409143
:1013A000AA055091AB056419750986099709261796
:1013B00037074807590708F069CF8091A7050E94B1
:1013C0008B05C0E010924E05C0934D05C017110665
:1013D00009F057C041018E0C9F1CE401CE01881911
:1013E00099098017910798F5D50111968D919C91D7
:1013F000DC01ED91FC910284F385E02D0995899340
:10140000EDCFE5EEE093BC009DCF8091A8059091D3
:10141000A905A091AA05B091AB05892B8A2B8B2B2E
:1014200009F494CF0E947B032091A8053091A9056F
:101430004091AA055091AB05641975098609970971
:10144000261737074807590708F080CFB6CFE00EB8
:10145000F11EEC14FD0408F408CF81E0DF91CF9178
:101460001F910F91FF90EF90DF90CF90BF90AF90C2
:101470009F908F907F906F905F904F903F902F90B4
:10148000089580E0EBCF1F93CF93DF93DC01149698
:10149000ED91FC91E417F50710F490E01FC0122FB6
:1014A000EA01FC0181819281208131E03093AC0519
:1014B0002093CE051092AD051092CF05DC01ED9181
:1014C000FC910280F381E02D0995C817D90729F70F
:1014D000812F0E94AC0591E08111DFCF892FDF9130
:1014E000CF911F910895EF92FF920F931F93CF9387
:1014F000DF9300D000D000D01F92CDB7DEB78C01B3
:101500001982E0904B05F0904C0520E041E050E05E
:10151000BE016F5F7F4FC7010E94430A882341F0DD
:1015200047E050E0BE016F5F7F4FC7010E941E0978
:10153000E981EF77FA81FB805D814E814F778F8162
:10154000282F30E094E0359527959A95E1F7922F72
:10155000990F990F291B220F280FD8012C93842F44
:1015600090E024E0959587952A95E1F7982F990FBB
:10157000990F891B880F840F11968C931197652FF3
:1015800070E034E0759567953A95E1F7862F880FFE
:10159000880F681B660F650F12966C9312974F2D7C
:1015A00050E064E0559547956A95E1F7842F880FE0
:1015B000880F481B440F4F0D13964C9313972F2FF2
:1015C00030E074E0359527957A95E1F7822F880F02
:1015D000880F281B220F2F0F14962C9314978E2FF1
:1015E00090E0F4E095958795FA95E1F7982F990F9B
:1015F000990F891B880F8E0F15968C93C80127961B
:101600000FB6F894DEBF0FBECDBFDF91CF911F9113
:101610000F91FF90EF9008950F931F93CF938C013C
:10162000C62F0E9447076C2F6460C8010E944707BD
:101630006C2F6B7FC8010E94470783EC90E00197F5
:10164000F1F7CF911F910F9108950F931F93CF93AF
:10165000DF938C01D62FC42F607F642B0E940C0B6C
:1016600080E1D89FB00111246C2BC801DF91CF918C
:101670001F910F910C940C0B41E00E94250B81E00F
:1016800090E0089541E0682F8FE796E00E94250BD7
:1016900081E090E0089540E0682F8FE796E00C9499
:1016A000250BCF93DF93CDB7DEB728970FB6F8940D
:1016B000DEBF0FBECDBF98E0E5E2F1E0DE0111969E
:1016C00001900D929A95E1F790918706961710F484
:1016D0006FEF690F70E0660F771F21E030E02C0F8D
:1016E0003D1F620F731FFB019081890F8068289650
:1016F0000FB6F894DEBF0FBECDBFDF91CF910C9433
:101700004B0B9F92AF92BF92CF92DF92EF92FF92DC
:101710000F931F93CF93DF93982E6B0185E1989ED3
:1017200080011124055D1C4FD0E0C0E08FEFFC2E3E
:10173000F601E1906F0190912A035801AC0EBD1E95
:10174000992321F0F50190819E1501F18F1521F06B
:10175000692D8F2D0E94510B8E2D0E94420BF50199
:10176000E08281E08F0D2196C431D10501F781E03F
:1017700080932A03DF91CF911F910F91FF90EF90FB
:10178000DF90CF90BF90AF909F9008958FEFEBCFF9
:1017900081E00E944B0B8BE39FE10197F1F70895E5
:1017A0000F931F93CF93DF93FC01048115810115E3
:1017B000110539F4FB011082DF91CF911F910F9138
:1017C0000895415051094017510708F48A01EB016F
:1017D000FC0160817181A801CE010E94CB22C00F63
:1017E000D11F1882E9CFCF93DF93D0E0C0E00097FC
:1017F00071F0FC0101900020E9F73197AF01481B1F
:10180000590BBC0180ED95E00E94EF03EC0142E032
:1018100050E063E871E080ED95E00E94EF038C0FEB
:101820009D1FDF91CF91089580913C0590913D05DA
:101830000397029768F42AEB34E0F9010190002045
:10184000E9F79F012B5B344081E02531310508F435
:1018500080E008954F925F926F927F928F929F9255
:10186000AF92BF92CF92DF92EF92FF92CF93C0914F
:101870001B018FEF8C0F833608F05EC00E94140CA2
:1018800081115AC00E947B034B015C012C2F30E078
:10189000A0EABFE00E944A2024E6422E512C612C8F
:1018A000712CA30192010E94792069017A0188ECD0
:1018B000C80ED11CE11CF11CC80CD91CEA1CFB1C75
:1018C00024E630E02C1B3109A0EABFE00E944A2048
:1018D000A30192010E94792049015A0180911A01C5
:1018E000882351F10E947B03409070045090710452
:1018F00060907204709073046419750986099709E1
:1019000097FD12C00E945B0710921A010E947B0390
:10191000680D791D8A1D9B1D60937004709371047E
:1019200080937204909373040E947B036C197D0969
:101930008E099F0997FDD2CFCF91FF90EF90DF9056
:10194000CF90BF90AF909F908F907F906F905F905F
:101950004F900895FC0180819181009711F00C94C3
:1019600063210895CF93DF9380914B0590914C05AF
:10197000009711F00E94632186E090E00E94C7204A
:10198000EC0188E688838DE696E09A8389831B8242
:1019900080E290E09D838C83D0934C05C0934B05EF
:1019A0000E94740581E08B83CE01DF91CF910C946E
:1019B0009C06FC0180819181009711F00C94AA1F74
:1019C00060E070E0CB010895FB0101900020E9F791
:1019D0003197E61BE53108F0E4E14E2F50E024E1B9
:1019E00030E0241B350B35952795820F931F0C94FF
:1019F000A922AF92BF92CF92DF92EF92FF920F9304
:101A00001F93CF93DF93DC01CD90DC901197C1142D
:101A1000D10439F01496CD91DC918C017601209798
:101A200061F4DF91CF911F910F91FF90EF90DF90C4
:101A3000CF90BF90AF90089575015701BFEFAB1ADB
:101A4000BB0AF7018081082E000C990B0E94E61F4B
:101A5000892B91F72197CC0DDD1D8881082E000C74
:101A6000990B0E94E61F892B29F0CE15DF0510F097
:101A70002197F3CFAE014F5F5F4F4E195F09D80139
:101A800015965C934E931497CE14DF0420F4B7019F
:101A9000C6010E94A922D801ED91FC9111971496DC
:101AA0008D919C91E80FF91F1082BBCFCF93DF93EC
:101AB000FC01248135814217530788F4C081D1810C
:101AC000062E000C770BCE01840F951F0E94B922C1
:101AD000009729F08C1B9D0BDF91CF9108958FEF1C
:101AE0009FEFFACF50E040E00C94560D0F931F93F8
:101AF000CF93DF93EC0188819981009759F02A8177
:101B00003B812617370730F081E0DF91CF911F919D
:101B10000F9108958B016F5F7F4F0E94EC2100971A
:101B200059F0998388831B830A832C813D81232B61
:101B300059F7FC011082E8CF80E0E7CFEF92FF92E7
:101B40000F931F93CF93DF93EC017B018A01BA01BE
:101B50000E94760D28813981811114C0211531052B
:101B600019F0C9010E946321198218821D821C820A
:101B70001B821A82CE01DF91CF911F910F91FF90AE
:101B8000EF9008951D830C83B701C9010E94C42200
:101B9000F1CFFB01DC0111961C921E9213961C9250
:101BA0001E92129715961C921E92149786179707ED
:101BB00049F0608171816115710521F04481558181
:101BC0000C949E0D0895FC011182108213821282E2
:101BD00015821482FB0101900020E9F73197AF01D3
:101BE000461B570B0C949E0DAF92BF92CF92DF9283
:101BF000EF92FF920F931F93CF93DF93EC016B0152
:101C00005A0179012417350720F48B2D5901E42E50
:101C1000F82E65E871E0CE010E94E30DD60114961E
:101C20000D911C91A016B10628F5E016F10608F4F6
:101C30008701D601ED91FC911197E00FF11FF08023
:101C400010826D917C916A0D7B1D61157105F1F01B
:101C5000FB0101900020E9F73197AF01461B570BBC
:101C6000CE010E949E0DF60180819181080F191FFF
:101C7000D801FC92CE01DF91CF911F910F91FF907F
:101C8000EF90DF90CF90BF90AF90089588819981B9
:101C9000009711F00E946321198218821D821C8214
:101CA0001B821A82E0CFCF93DF93EC01FB012481EA
:101CB00035810E94F40DCE01DF91CF91089585ED1D
:101CC0008093BC008091A8059091A905A091AA05D8
:101CD000B091AB050796A11DB11D23E0B695A79560
:101CE000979587952A95D1F72091BC0024FD03C0D4
:101CF0001092A60508954091A8055091A9056091FC
:101D0000AA057091AB05452B462B472B69F300972D
:101D1000A105B10541F02AE22A95F1F700C001972B
:101D2000A109B109E1CF8091A7050C948B05EF9231
:101D3000FF920F931F93CF93DF93CDB7DEB7C557B5
:101D4000D1090FB6F894DEBF0FBECDBF0E94BB070E
:101D5000882309F402C144E150E060E270E0CE0162
:101D600001960E94B22244E150E060E270E0CE01B0
:101D700045960E94B22244E150E060E270E0CE015C
:101D800089960E94B22244E150E060E270E0CE0108
:101D9000CD960E94B22280911305882369F064E0F9
:101DA00071E0CE0101960E94E40C67E074E0CE0180
:101DB00089960E94E40CB1C000913C0510913D054C
:101DC000C8010697039760F08091190566E871E0F5
:101DD000882311F069E175E0CE0101960E94E40CC0
:101DE0000B30110508F099C0F801E750F14F0C9441
:101DF000BA20040F810FBB0FDA0FFC0FFF0F081082
:101E0000421073103010391080911805882309F49E
:101E100062C0CE0180599F4F0E94730AE396FFACC7
:101E2000E397E296EFADE297E150FF0BEE0FFF1F55
:101E3000E55CFE4F10810181CE0180599F4F0E94C9
:101E4000FC041F92FF920F931F93E82FF0E0EE0F18
:101E5000FF1FE35DFE4F81818F9380818F938AEA1C
:101E600091E09F938F931F928CE08F937E0181E589
:101E7000E80EF11CFF92EF920E94DA22E5968FADF8
:101E8000E5971F928F93E4968FADE4971F928F93FF
:101E900084EB91E09F938F931F9286E08F938E0146
:101EA00006591F4F1F930F930E94DA22B701CE01EC
:101EB00045960E94E40CB801CE0189960E94E40C7C
:101EC000E5968FADE59780931D010FB6F894DEBFC0
:101ED0000FBECDBF22C08091C303811109C06EEB3C
:101EE00071E0CE0145960E94E40C67EC71E05FCF93
:101EF0006AED71E0CE0145960E94E40C65E871E060
:101F000056CF69EE71E0CE0189960E94E40C809173
:101F1000740464E774E081114AC00E942A0CBE0177
:101F20006F5F7F4F80E00E94810B0E942A0CBE01F0
:101F30006B5E7F4F81E00E94810B0E942A0CBE01E4
:101F4000675D7F4F82E00E94810B0E942A0CBE01D8
:101F5000635C7F4F83E00E94810BCB58DF4F0FB64D
:101F6000F894DEBF0FBECDBFDF91CF911F910F91CF
:101F7000FF90EF90089580919E0468E971E08823B6
:101F800011F06EE974E0CE0189960E94E40C809114
:101F90001C018F3F29F0CE01CD960E948207BDCF54
:101FA0008091890469E874E0882309F4B6CFCE01F2
:101FB000CD96FFCE6EEE71E0CE0189960E94E40CC4
:101FC0008AEB94E0FC0101900020E9F7CF018B5BE4
:101FD0009440982F81506AEB74E0843140F395313E
:101FE00008F49BCF84E1EAEBF4E0DE01DD9601909A
:101FF0000D928A95E1F791CF60E072E0DDCF6CE061
:1020000072E0CE0189960E94E40C64E172E0CFCFC9
:1020100080914604882331F066E474E0CE01019695
:102020000E94E40C80915B04882331F06BE574E03E
:10203000CE0145960E94E40C80913104882331F052
:1020400061E374E0CE0189960E94E40C80911C0447
:1020500066E871E0882309F4AACF6CE174E0A7CFA9
:102060006FE172E0CE0189960E94E40C68E272E0B2
:102070009ECF62EF73E0CE0189960E94E40C6DED75
:1020800073E095CF69E372E0CE0101960E94E40C03
:1020900062E472E0CE0145960E94E40C8091C80390
:1020A00081111EC080EA91E09F938F9381E592E0B9
:1020B0009F938F931F9289E18F938E010F5A1F4F29
:1020C0001F930F930E94DA22B801CE0189960E94D5
:1020D000E40C67E572E0CE01CD960E94E40CF5CEEB
:1020E00088EC93E0E1CF6AE672E0CE0101960E94AF
:1020F000E40C6CE772E0CE0189960E94E40C6AE879
:1021000072E055CFCF93C82F0E94BB078C1769F0A0
:102110008823E1F00E94970E80911B01843638F0ED
:102120000E94620781E080931A01CF91089588236D
:10213000E1F310921A010E947B0360937004709384
:1021400071048093720490937304EFCF0E945B0735
:1021500010921A010E94C80BEBE2F3E084E5DF0164
:102160001D928A95E9F710922A03DFCF0F931F93F0
:10217000CF93DF9300913C0510913D050817190797
:1021800009F46BC090933D0580933C058230910526
:1021900021F01092890410929E049C012350310971
:1021A00022303105E0F510925B0410924604109243
:1021B000310410921C048730910589F01092380583
:1021C0001092390510923A0510923B052091330583
:1021D000211102C01092C8038830910559F0109265
:1021E00034051092350510923605109237058A3065
:1021F000910521F01092F2031092DD03EC010E9490
:102200006D070E94970E0115110579F4299729F59C
:1022100080E0DF91CF911F910F910C94C107109234
:10222000BA048630910551F2BECF87E0C730D105A0
:1022300081F388E0C830D10561F386E0C430D10570
:1022400041F381E0C330D10521F3C930D10501F359
:10225000219719F402301105D9F2DF91CF911F9126
:102260000F910895EF92FF920F931F93CF93DF93F7
:10227000CDB7DEB764970FB6F894DEBF0FBECDBF03
:10228000082F7B010E94BB07882359F1F7010190B9
:102290000020E9F731971E2F1E19153108F014E1BF
:1022A00044E150E060E270E0CE0101960E94B2226B
:1022B000412F50E084E190E0841B950B9595879524
:1022C000B70121E030E02C0F3D1F820F931F0E94C9
:1022D000A9220E942A0CBE016F5F7F4F802F0E94AF
:1022E000810B64960FB6F894DEBF0FBECDBFDF91B1
:1022F000CF911F910F91FF90EF9008951F93CF936F
:10230000DF93CDB7DEB764970FB6F894DEBF0FBE8C
:10231000CDBF182F44E150E060E270E0CE0101969D
:102320000E94B2220E942A0CBE016F5F7F4F812F54
:102330000E94810B64960FB6F894DEBF0FBECDBF2E
:10234000DF91CF911F9108950F931F93CF93DF9348
:10235000CDB7DEB764970FB6F894DEBF0FBECDBF22
:102360000E94BB07882371F04AEB54E0FA01019008
:102370000020E9F7AF014B5B544041110EC083E0F0
:102380000E947E1164960FB6F894DEBF0FBECDBFDB
:10239000DF91CF911F910F910895453138F58A0152
:1023A000112744E150E060E270E0CE0101960E9406
:1023B000B22284E190E0801B910B97FD01969595E8
:1023C0008795A8016AEB74E021E030E02C0F3D1FF7
:1023D000280F311DC9010E94A9220E942A0CBE01AA
:1023E0006F5F7F4F83E00E94810BCCCF4451E0911F
:1023F000B3044E1708F4E42FF0E0E654FB4FDE017F
:102400001196CE01459621912D93A817B907D9F7BA
:10241000E4CF1F920F920FB60F9211242F933F9388
:102420008F939F93AF93BF9380913F059091400509
:10243000A0914105B091420530913E0523E0230F64
:102440002D3758F50196A11DB11D20933E058093AF
:102450003F0590934005A0934105B09342058091BC
:10246000430590914405A0914505B091460501961C
:10247000A11DB11D8093430590934405A09345058C
:10248000B0934605BF91AF919F918F913F912F914E
:102490000F900FBE0F901F90189526E8230F0296FD
:1024A000A11DB11DD2CF1F920F920FB60F92112412
:1024B0002F933F934F935F936F937F938F939F934C
:1024C000AF93BF93EF93FF9380917405909175053F
:1024D000A0917605B0917705892B8A2B8B2BD1F1B2
:1024E00090916F05E0917005F091710580818927C9
:1024F00080838091740590917505A0917605B091C7
:102500007705181619061A061B069CF480917405A7
:1025100090917505A0917605B09177050197A10975
:10252000B1098093740590937505A0937605B093D7
:102530007705FF91EF91BF91AF919F918F917F911F
:102540006F915F914F913F912F910F900FBE0F9020
:102550001F90189580911E01EDECF0E0E4919FEF43
:1025600090931E01E13051F030F0E23069F060E00C
:102570000E94BE00DECF10926E00F9CF90916F00E6
:102580009D7F90936F00F3CF909170009D7F90930B
:10259000700091E09093B0009091B100987F9460AA
:1025A0009093B1001092B300E2CF1F920F920FB63A
:1025B0000F9211242F933F934F935F936F937F93C9
:1025C0008F939F93AF93BF93EF93FF9380ED95E02D
:1025D0000E946D04FF91EF91BF91AF919F918F91F8
:1025E0007F916F915F914F913F912F910F900FBE0F
:1025F0000F901F9018951F920F920FB60F921124F3
:102600002F938F939F93EF93FF93E091E005F091C9
:10261000E1058081E091E605F091E70582FD1BC0B0
:1026200090818091E9058F5F8F732091EA05821771
:1026300041F0E091E905F0E0E053FA4F958F809387
:10264000E905FF91EF919F918F912F910F900FBE10
:102650000F901F9018958081F4CF1F920F920FB6A4
:102660000F9211242F933F934F935F936F937F9318
:102670008F939F93AF93BF93EF93FF938091B90094
:10268000887F803609F44AC0F0F5883209F4A7C083
:1026900018F5803109F49BC0B8F4882309F4F9C017
:1026A000883009F494C0FF91EF91BF91AF919F9151
:1026B0008F917F916F915F914F913F912F910F90EB
:1026C0000FBE0F901F901895883109F488C0803292
:1026D00051F78093A40514C0803409F49DC040F4E0
:1026E0008033B9F38833F9F68093A40585ECB0C044
:1026F000803509F485C0883509F496C0883499F688
:102700000E945F0ED0CF883909F48CC038F5883725
:1027100029F050F4883611F0803729F683E0809351
:10272000A6051092C20357C0883809F47BC08039CF
:1027300019F0803809F0B7CF8091C203803208F0D9
:1027400071C0E091C20381E08E0F8093C20380913B
:10275000BB00F0E0EE55FC4F80833DC0803B39F07C
:10276000E0F4803A09F479C0883A09F09CCF84E01B
:102770008093A6051092A1031092A003E091490551
:10278000F0914A0509958091A00381110FC081E065
:102790008093A0031092800309C0803C09F4A6CF67
:1027A000883C09F4A3CF883B09F07DCFE091A103D9
:1027B00081E08E0F8093A103F0E0E058FC4F808110
:1027C0008093BB009091A1038091A00329C08091C8
:1027D00081058093BB0085EC8093BC0064CF909111
:1027E000A3058091A205981758F5E091A30581E013
:1027F0008E0F8093A305F0E0EE57FA4F8081E9CF6A
:10280000E091A30581E08E0F8093A3058091BB002A
:10281000F0E0EE57FA4F80839091A3058091A205D6
:102820009817C8F285E8D8CFE091A30581E08E0F14
:102830008093A3058091BB00F0E0EE57FA4F8083B0
:102840008091A50581115CCF81E08093800584EAA9
:102850008093BC001092A60526CF85EC8093BC0027
:102860001092A6058091C203803230F4E091C20339
:10287000F0E0EE55FC4F10826091C20370E0E091F1
:102880004705F091480582EA93E009951092C2034A
:102890000ACF1092A40534CFE0EDF5E01382128246
:1028A00088EE93E0A0E0B0E084839583A683B783AD
:1028B00027E531E03183208325EC30E0358724871C
:1028C00024EC30E03787268720EC30E0318B208BFA
:1028D00021EC30E0338B228B22EC30E0358B248BE3
:1028E00026EC30E0378B268B118E128E138E148ED1
:1028F000EDE6F6E01382128284839583A683B78384
:1029000089E691E091838083EFE7F6E013821282FB
:102910008BE791E09183808387E2848384E18187E0
:1029200084E08287138665E871E089E796E00C947D
:10293000E30DCF93DF93CDB7DEB7C754D1090FB600
:10294000F894DEBF0FBECDBF789484B5826084BD9D
:1029500084B5816084BD85B5826085BD85B58160A3
:1029600085BD80916E00816080936E001092810021
:1029700080918100826080938100809181008160DC
:10298000809381008091800081608093800080919D
:10299000B10084608093B1008091B0008160809329
:1029A000B00080917A00846080937A0080917A00F0
:1029B000826080937A0080917A00816080937A00AF
:1029C00080917A00806880937A001092C100E09133
:1029D000E005F091E10582E08083E091DC05F09173
:1029E000DD051082E091DE05F091DF058FEC80833C
:1029F0001092E805E091E405F091E50586E080831A
:102A0000E091E205F091E305808180618083E091AF
:102A1000E205F091E305808188608083E091E20522
:102A2000F091E305808180688083E091E205F09178
:102A3000E30580818F7D808361E084E00E94EC006B
:102A400061E084E00E94BE0062E087E00E94EC004A
:102A500061E083E00E94EC0060E083E00E94BE0041
:102A60000E9474058CE08093B80011E01093AC05CF
:102A700087E28093CE051092AD051092CF0581E0DC
:102A80000E94AC05882381F01093AC051FE31093DE
:102A9000CE051092AD051092CF0581E00E94AC05E5
:102AA000811102C0109300018091000110928206F2
:102AB00010928106809383061092840610928506F8
:102AC000109286061092870684E18093880684E03F
:102AD0008093890610928A060E94740510928406DB
:102AE00080918906823018F098E090938406809354
:102AF000870662E370E080E090E00E94A0036091AE
:102B00008A068FE796E00E94470768EE73E080E050
:102B100090E00E94A00360E38FE796E00E940C0B18
:102B20000BE416E4C8010197F1F760E38FE796E044
:102B30000E940C0BC8010197F1F760E38FE796E064
:102B40000E940C0B83E592E00197F1F760E28FE7BA
:102B500096E00E940C0B8091840680620E944B0BD1
:102B600084E0809385068CE00E944B0B0E94C80B8A
:102B700082E08093860686E00E944B0B82E00E94F2
:102B80004B0B8BE39FE10197F1F70E94620781E015
:102B900080931A010E947B036B017C0120911B0131
:102BA00030E0A0EABFE00E944A2024E630E040E0A6
:102BB00050E00E947920C20ED31EE41EF51EC09282
:102BC0007004D0927104E0927204F09273048091C8
:102BD00085068D7F8093850688600E944B0B8091CF
:102BE00085068E7F8093850688600E944B0B0E942D
:102BF000B20C8093180581110AC062E370E080E096
:102C000090E00E94A0030E94B20C8093180590E00F
:102C100080E00E94F21F91E0853A09F090E09093E5
:102C2000C3038BE0E2EBF2E0DE01929601900D929D
:102C30008A95E1F78DE0EDEBF2E0DE01559601902B
:102C40000D928A95E1F784E1EAECF2E08E010F5FE4
:102C50001F4FD80101900D928A95E1F70E94C80B91
:102C60006E0122E2C20ED11CE5E0FE2E260161E0DB
:102C70008F2D0E94510BF60181916F010E94420B32
:102C80006CE370E080E090E00E94A003F394FFE02A
:102C9000FF12EDCF5E0125E1A20EB11C74E0D72E2C
:102CA000FA2CEB2C62E08D2D0E94510BF5018191E5
:102CB0005F010E94420B6CE370E080E090E00E94B4
:102CC000A003D394F0E1DF12EDCF6CE271E080E07D
:102CD00090E00E94A0034E0123E1821A910864E172
:102CE000A62EB12C63E080E00E94510BD12CC12CA8
:102CF000C6018A199B09439708F08BC1F401EC0DBA
:102D0000FD1D80810E94420B3FEFC31AD30A44E1AC
:102D1000C416D10469F76EE170E080E090E00E9493
:102D2000A00351E0A51AB1088FEF881A980A9FEF07
:102D3000A916B906B9F660EF7AE080E090E00E944B
:102D4000A0030E94970E80EA92E00E94F30B0E947B
:102D5000BB078823A1F0D0901B018FEF8D0D833628
:102D600070F40E94140C882309F455C180911A0153
:102D7000811105C00E94620781E080931A01EEE88C
:102D8000F0E08491E2EAF0E0D490E0ECF0E0C4906E
:102D9000B12CA12CCC2099F081110E949500EC2D32
:102DA000F0E0EE0FFF1FED58FF4FA591B491EC91AD
:102DB000DE2291E080E009F490E0A92EB82E9090F8
:102DC0000301892D092C000C990B8A159B0509F428
:102DD00067C1A09203010E94D2036093C403709361
:102DE000C5038093C6039093C70380913C059091DF
:102DF0003D05079709F58090380590903905A0901A
:102E00003A05B0903B0581149104A104B104D9F1B5
:102E10000E94D203681979098A099B0997FD33C07A
:102E2000109238051092390510923A0510923B0520
:102E300081E090E00E94B61080913C0590913D05A4
:102E4000089709F58090340590903505A0903605D7
:102E5000B090370581149104A104B104A1F00E943F
:102E6000D203681979098A099B0997FD0CC0109251
:102E7000340510923505109236051092370581E021
:102E800090E00E94B61080913305882309F46BC04E
:102E900080902F0590903005A0903105B0903205BC
:102EA00081149104A104B10479F10E94D20368193C
:102EB00079098A099B0997FD27C010923305109262
:102EC0002E0510922F0510923005109231051092A8
:102ED00032050E94BB07882309F445C080913C0558
:102EE00090913D0506970397F0F18091190569E1EE
:102EF00075E0811102C066E871E080E00E94321145
:102F000080913305882379F180913C0590913D05AE
:102F10000797029740F10E94BB07882321F10E9486
:102F2000D20328E833E140E050E00E947920DA0142
:102F3000C90180959095A095B095817090912E05CE
:102F4000891789F080932E0562E472E020FF08C0A3
:102F50008091190569E175E0811102C066E871E0B0
:102F600080E00E9432113324339448E0242E80ED17
:102F700095E00E944D04892B09F4A1C680ED95E0EF
:102F80000E942B04C0907D06D0907E068A3019F0F6
:102F90008D3009F070C6CD2851F369E776E0CE0197
:102FA000C9960E94C90DCE01C9960E94F90CCDACFC
:102FB000DEACC114D10409F407C170E060E0CE01B9
:102FC000C9960E94DE03EFEBE80FEA3108F0FCC07F
:102FD0000E2E000CFF0BE151F84E0C94BA20C21DCE
:102FE0009A1BE418C51B391CE4186619E61AA618C2
:102FF000E418E919A119191B1E19F718F118441939
:103000008B1CE418FA18E01B1E1EAB18F418E41809
:10301000351B80E277CE0E947B034B015C018091DF
:10302000700490917104A0917204B0917304A50191
:103030009401281B390B4A0B5B0BDA01C901B7FD60
:103040009ECE80911A018823F9F00E945B071092AE
:103050001A01A4E6B0E0AD19B10920EA3FE00E94F0
:10306000C02024E630E040E050E00E947920820E4B
:10307000931EA41EB51E8092700490927104A092BB
:103080007204B09273047BCE0E94620781E0809349
:103090001A012D2D30E0A0EABFE00E944A20E1CFC6
:1030A000C0903C05D0903D050E94D2032091C403FE
:1030B0003091C5034091C6035091C703621B730B47
:1030C000840B950B6E3171058105910508F48DCE49
:1030D00080910201282F082E000C330B2A153B0586
:1030E00009F483CE909202018F3F09F47ECEAA9418
:1030F000AB2809F07ACE47E0C416D10469F41092E7
:1031000038051092390510923A0510923B0581E07E
:1031100090E00E94B61069CE0E94BB07882369F038
:10312000109201010E9482100E94BB07882359F06F
:1031300086E992E00E94F30B58CE91E09093010152
:1031400090931901EFCF8BE992E0F4CF81E090E00A
:103150000E94B61039C053E0C516D10418F161E0E1
:1031600070E0CE01C9960E94DE038A33D9F442E0B2
:1031700050E0BE01675C7F4FC8010E94530E45E1DD
:1031800050E06EE974E0C8010E94D00BC8010E94B3
:10319000AA0C80913C0590913D05029731F082E0A8
:1031A00090E0D6CF10929E04F4CF0E94BB078823F4
:1031B00059F080919E046EE974E0811102C068E9C3
:1031C00071E082E00E943211CE01C9960E94AA0CE1
:1031D00050E040E065E871E089E796E00E949E0DCE
:1031E000C6CE83E090E0B4CF84E090E0B1CF85E03C
:1031F00090E0AECF6AE3CE01C9960E94720DAC0199
:103200004F5F5F4FBE01675C7F4FC8010E94530E46
:1032100045E150E069E874E0C8010E94D00B80915C
:103220003C0590913D05029739F480911C0169E8B5
:1032300074E08F3F09F446C0C801F9C06AE3CE01CB
:10324000C9960E94720DAC014F5F5F4FBE01675C73
:103250007F4FC8010E94530E41E550E06AEB74E0D5
:10326000C8010E94D00B80913C0590913D050397C9
:10327000029728F40E946D070E94A411DDCF83E01D
:1032800090E00E94B610D8CF6AE3CE01C9960E94A2
:10329000720DAC014F5F5F4FBE01675C7F4FC8018D
:1032A0000E94530E45E150E064E774E0C8010E94BB
:1032B000D00B80913C0590913D05019709F0BCCF62
:1032C00064E774E083E00E943211B6CF6AE3CE0176
:1032D000C9960E94720D97FD77CFAC014F5F5F4F8B
:1032E000BE01675C7F4FC8010E94530EC8010E9457
:1032F000D90C4B015C01C8010E94AA0C85E6881616
:103300009104A104B10408F05FCF80921C01809168
:103310003C0590913D05029709F056CF0E94BB07EE
:10332000882309F451CF8091130581114DCFC80135
:103330000E9482070E942A0CB80183E00E94810B40
:1033400043CF6AE3CE01C9960E94720D97FD3CCF30
:10335000AC014F5F5F4FBE01675C7F4FC8010E94A9
:10336000530EC8010E94D90C4B015C01C8010E9498
:10337000AA0C95E689169104A104B10408F024CFA3
:1033800080921B010E94BB07882309F41DCF811482
:103390009104A104B10429F40E945B0710921A0160
:1033A00013CFE4E68E169104A104B10429F40E941F
:1033B000620730921A0108CF10921A010E947B0313
:1033C00060937004709371048093720490937304FB
:1033D000FBCE6AE3CE01C9960E94720D97FD2AC00A
:1033E000AC014F5F5F4FBE01675C7F4FCE01C3965C
:1033F0000E94530E6CE7CE01C3960E94720D4C01E1
:1034000097FF1FC045E150E06BE574E0CE01C39625
:103410000E94D00B80913C0590913D05069709F4E0
:103420009DC086E090E00E94B610CE01C3960E9437
:10343000AA0CCACE65E871E0CE01C3960E94E30DE6
:10344000D9CF3C01FFEF6F1A7F0AA3016CE7CE01D1
:10345000C3960E94560D6C01AA24AA94BA2C97FD1B
:1034600009C0AC014F5F5F4F6CE7CE01C3960E946D
:10347000560D5C01940150E040E0BE016D5C7F4F51
:10348000CE018D960E94F40DD7FE41C0A301BE016E
:103490006D5C7F4FC2010E94530E65E871E08F2D75
:1034A0009E2D0E94E30DB7FE4FC065E871E0C80194
:1034B0000E94E30D45E150E06BE574E0CE018D968E
:1034C0000E94D00B45E150E066E474E0C2010E9426
:1034D000D00B45E150E061E374E08F2D9E2D0E94FA
:1034E000D00B45E150E06CE174E0C8010E94D00BC4
:1034F000C8010E94AA0C8F2D9E2D0E94AA0CC20109
:103500000E94AA0CCE018D960E94AA0C83CF960130
:10351000A301BE016D5C7F4FC2010E94F40DA601A4
:103520004F5F5F4FB7FE08C0BE016D5C7F4F8F2DB0
:103530009E2D0E94530EB9CF9501BE016D5C7F4F49
:103540008F2D9E2D0E94F40DA5014F5F5F4FBE0190
:103550006D5C7F4FC8010E94530EACCF0E94BB0729
:10356000882309F462CF80914604882319F166E428
:1035700074E080E00E94321180915B048823F1F0B6
:103580006BE574E081E00E94321180913104882360
:10359000C9F061E374E082E00E94321180911C0462
:1035A0006CE174E0811102C066E871E083E00E9482
:1035B00032113BCF80E00E947E11DECF81E00E947D
:1035C0007E11E3CF82E00E947E11E8CF6AE3CE0154
:1035D000C9960E94720D97FD26C0AC014F5F5F4FE8
:1035E000BE01675C7F4FC8010E94530E45E150E069
:1035F00069E175E0C8010E94D00B0E94BB078823D7
:1036000009F41ACE80913C0590913D05069709F486
:1036100013CE8091190569E175E0811102C066E859
:1036200071E080E050CE65E871E0C8010E94E30DD2
:10363000DDCF22E0C216D10408F4C6CD0E94BB073C
:10364000D82E61E070E0CE01C9960E94DE0380337F
:1036500031F4109219018D2D0E948210B5CD813365
:1036600009F0B2CD30921901F6CF0E94BB07882332
:1036700009F4AACD6AE3CE01C9960E94720D97FDA6
:10368000A3CDAC014F5F5F4FBE01675C7F4F8F2DB5
:103690009E2D0E94530E6CE28F2D9E2D0E94720D66
:1036A0006C0197FD44C09C0150E040E06F2D7E2DE1
:1036B000C8010E94F40DC8010E94D90C24966CAF79
:1036C0007DAF8EAF9FAF2497C8010E94AA0CA601C0
:1036D0004F5F5F4F6F2D7E2DC8010E94530EC801B2
:1036E0000E94D90C4B015C01C8010E94AA0C2496CF
:1036F0008CAD9DADAEADBFAD24974F97A109B1097B
:1037000081309E44A105B10590F4D501C401019713
:10371000A109B109803D9740A105B10540F4B5016B
:10372000A40122968EAD9FAD22970E941D018F2D80
:103730009E2D7DCE53E0C516D10440F061E070E0CF
:10374000CE01C9960E94DE038A3319F090E080E032
:10375000FFCC42E050E0BE01675C7F4FC8010E9491
:10376000530EC8010E94D90C4B015C01C8010E9494
:10377000AA0C8FEF88169104A104B10411F008F08F
:1037800023CD882D0E94C1071FCD89E090E00E94C3
:10379000B6100E94D20360931405709315058093B0
:1037A00016059093170590E080E00E94F21F853A7D
:1037B00009F40ACD65EA90E080E00E94FA1F04CD8A
:1037C0006AE3CE01C9960E94720DAC014F5F5F4F54
:1037D000BE01675C7F4FC2010E94530E6CE7C201BD
:1037E0000E94720D6C0197FD39C09C0150E040E0D1
:1037F000B2018F2D9E2D0E94F40DA6014F5F5F4FE9
:10380000B201C8010E94530E45E150E064E071E04E
:103810008F2D9E2D0E94D00B45E150E067E074E0B3
:10382000C8010E94D00B309213050E94D203685742
:103830007C4E8F4F9F4F60930F05709310058093C0
:103840001105909312050E94970EC8010E94AA0CC0
:103850008F2D9E2D0E94AA0CC201E9CD66EA72E06E
:103860008F2D9E2D0E94E30DB201C8010E94C90D4B
:10387000CBCF6AE3CE01C9960E94720D97FD3AC084
:10388000AC014F5F5F4FBE01675C7F4FC2010E947A
:10389000530E6CE7C2010E94720D6C0197FD30C09F
:1038A0009C0150E040E0B2018F2D9E2D0E94F40D4E
:1038B000A6014F5F5F4FB201C8010E94530E45E160
:1038C00050E062EF73E08F2D9E2D0E94D00B45E1FA
:1038D00050E06DED73E0C8010E94D00B80913C0573
:1038E00090913D050A9709F4AECF8AE090E00E94DE
:1038F000B610ABCF65E871E0C2010E94E30DC9CFFD
:10390000B2018F2D9E2D0E94C90D65E871E0C8019E
:103910000E94E30DD4CF80911805882309F454CC7C
:1039200095E1C916D10408F44FCC61E070E0CE01F6
:10393000C9960E94DE038A3309F046CC26E030E0C7
:1039400042E050E0BE01675C7F4FC8010E94F40D69
:10395000C8010E94D90C4B01C8010E94AA0C29E0A1
:1039600030E047E050E0BE01675C7F4FC8010E9435
:10397000F40DC8010E94D90C24966CAF7DAF8EAFB8
:103980009FAF2497C8010E94AA0C2CE030E04AE0C7
:1039900050E0BE01675C7F4FC8010E94F40DC80172
:1039A0000E94D90C28966CAF7DAF8EAF9FAF289741
:1039B000C8010E94AA0C2FE030E04DE050E0BE01AB
:1039C000675C7F4FC8010E94F40DC8010E94D90CAA
:1039D000762EC8010E94AA0C22E130E040E150E0BE
:1039E000BE01675C7F4FC8010E94F40DC8010E94B0
:1039F000D90CD62EC8010E94AA0C25E130E043E183
:103A000050E0BE01675C7F4FC8010E94F40DC80101
:103A10000E94D90CC62EC8010E94AA0CC401885E5F
:103A200097408C34910508F0CFCB22968EAD9FAD98
:103A3000229701970C9708F0C7CB26968EAD9FADC5
:103A4000269701974F9708F0BFCBE0ED8E1AE7E07D
:103A50009E0A8D8A2196FFAD2197FE8B25962FAD6C
:103A600025972F8B788ED98ECA8EF801222D119230
:103A70002A95E9F72AE08C2D622F0E945920982F71
:103A8000990F890F880FC80ECA828D2D0E94592068
:103A9000982F990F890F880FD80EDB82872D0E94EF
:103AA0005920982F990F890F880F780E7C828F2DBF
:103AB0009E2D0E94FC04382F811101C037E02AE0BE
:103AC000832F622F0E945920982F880F890F880F0B
:103AD000830F8D833F89832F0E945920982F880F51
:103AE000890F880F830F8E833E89832F0E94592070
:103AF000982F880F890F880F830F8F833D89832F1D
:103B00000E945920982F880F890F880F830F88876C
:103B100021E048E050E0BE016F5F7F4F80914B0590
:103B200090914C050E94430A2FE0D22EDFAE21E097
:103B300041E050E0BE01615C7F4F80914B05909168
:103B40004C050E94430A41E050E0BE016E5D7F4F8C
:103B500080914B0590914C050E941E098AA1DAA222
:103B60008F778BA321E042E050E0BE016E5D7F4F76
:103B700080914B0590914C050E94430A8FEF8093F2
:103B80001D0122CB33E0C316D10440F061E070E0A8
:103B9000CE01C9960E94DE038A3369F144E150E008
:103BA00060EA71E088EC93E00E94CB220E94D2038D
:103BB000605E714B8F4F9F4F60932F057093300560
:103BC0008093310590933205809133058111FCCAB1
:103BD000309233050E94D203605F784D8F4F9F4F24
:103BE000609338057093390580933A0590933B05AF
:103BF00087E090E0ADCA42E050E0BE01675C7F4FD5
:103C0000C8010E94530EC8010E94F90C8D819E814B
:103C1000892B59F045E150E068EC73E0C8010E943F
:103C2000D00BC8010E94AA0CC1CF44E150E060EA69
:103C300071E088EC93E00E94CB22F3CF1092330521
:103C400010922E0510922F0510923005109231051A
:103C5000109232050E94D203605F784D8F4F9F4FC4
:103C6000609334057093350580933605909337053E
:103C700088E090E06DCA40E4C416D10408F077C92A
:103C800089831A825FEFC51AD50AB60189E796E0E3
:103C90000E94760D882309F46AC920917906309133
:103CA0007A0680917D0690917E06B801820F931F5F
:103CB0000E94C422D0927E06C0927D0658C90E94FE
:103CC000BB07882309F4C0C08091130581113AC055
:103CD00080913C0590913D050397029798F5EAEB9A
:103CE000F4E001900020E9F7CF018B5B94406C0178
:103CF00094E19C1538F50E94D2038090B604909010
:103D0000B704A090B804B090B9049B01AC01281985
:103D100039094A095B0949015A01B7FC0EC02091D3
:103D2000B4043091B5042130310509F4E4C008F43D
:103D3000D4C02230310509F4FEC00E94BB0788239D
:103D400009F482C080913C0590913D05892B09F0D2
:103D50007BC080911805882309F476C080911305F3
:103D6000811172C00E94D20380900B0590900C05C7
:103D7000A0900D05B0900E059B01AC0128193909E2
:103D80004A095B0949015A0138EE831633E093066C
:103D9000A104B10408F458C060930B0570930C059E
:103DA00080930D0590930E05C2010E94730A8EA1A7
:103DB00090911D01891709F447C080931D01DCA073
:103DC000EBA1E150FF0BEE0FFF1FE55CFE4FC08043
:103DD000B180C2010E94FC041F92DF92BF92CF9279
:103DE000E82FF0E0EE0FFF1FE35DFE4F81818F9320
:103DF00080818F938AEA91E09F938F931F928CE04A
:103E00008F931F930F930E94DA228EA11F928F939C
:103E10008DA11F928F9384EB91E09F938F931F92BC
:103E200086E08F93EF92FF920E94DA22B80181E040
:103E30000E9432116F2D7E2D82E00E9432110FB64A
:103E4000F894DEBF0FBECDBF80913C0590913D053B
:103E50000997D9F4809118058823B9F00E94D203FC
:103E60008090140590901505A0901605B090170548
:103E7000681979098A099B09603C744D8140910554
:103E800020F090E080E00E94B61080911305882316
:103E9000A1F00E94D20380900F0590901005A09091
:103EA0001105B0901205681979098A099B0997FDD7
:103EB00004C0109213050E94970E80E090E0892BB9
:103EC00011F40C94A7160E945904882311F40C9441
:103ED000A7160E9400000C94A71621E02093B304BB
:103EE00021E030E03093B5042093B40466507F4F56
:103EF0008F4F9F4F15C02CEE2C0D3091B3043F5FB8
:103F00003093B304321790F32093B30422E030E0EF
:103F10003093B5042093B40464527A4F8F4F9F4F6F
:103F20006093B6047093B7048093B8049093B90477
:103F30000E94A41102CF1092B3041092B504109203
:103F4000B40460557B4F8F4F9F4FEACF89E796E0CF
:103F50000C94AA0C1F93FC0199278827BC01E894B4
:103F600011911032E9F3193010F01E30C8F31B32F2
:103F700051F01D3249F4689406C00E94D11F610FB0
:103F8000711D811D911D119110531A30B0F33EF433
:103F900090958095709561957F4F8F4F9F4F1F91A2
:103FA0000895592F482F372F262F660F771F881F08
:103FB000991F660F771F881F991F620F731F841F39
:103FC000951F660F771F881F991F089591110C94F4
:103FD000EF1F803219F089508550C8F7089599274E
:103FE00088270895F999FECF92BD81BDF89A992747
:103FF00080B50895262FF999FECF1FBA92BD81BDD5
:1040000020BD0FB6F894FA9AF99A0FBE019608955A
:104010000E944A20A59F900DB49F900DA49F800DF3
:10402000911D112408952F923F924F925F926F92AB
:104030007F928F929F92AF92BF92CF92DF92EF9238
:10404000FF920F931F93CF93DF93CDB7DEB7CA1BB9
:10405000DB0B0FB6F894DEBF0FBECDBF09942A88E4
:10406000398848885F846E847D848C849B84AA848C
:10407000B984C884DF80EE80FD800C811B81AA8119
:10408000B981CE0FD11D0FB6F894DEBF0FBECDBFE4
:10409000ED010895A29FB001B39FC001A39F700DD1
:1040A000811D1124911DB29F700D811D1124911D40
:1040B0000895991B79E004C0991F961708F0961B84
:1040C000881F7A95C9F780950895AA1BBB1B51E1FB
:1040D00007C0AA1FBB1FA617B70710F0A61BB70B78
:1040E000881F991F5A95A9F780959095BC01CD011D
:1040F0000895A1E21A2EAA1BBB1BFD010DC0AA1F29
:10410000BB1FEE1FFF1FA217B307E407F50720F040
:10411000A21BB30BE40BF50B661F771F881F991FBB
:104120001A9469F760957095809590959B01AC0104
:10413000BD01CF010895052E97FB1EF400940E9447
:10414000B22057FD07D00E94792007FC03D04EF41F
:104150000C94B22050954095309521953F4F4F4F8C
:104160005F4F089590958095709561957F4F8F4F23
:104170009F4F0895EE0FFF1F0590F491E02D0994D5
:104180000E944A20B7FF0895821B930B08950F9356
:104190001F93CF93DF938230910510F482E090E07B
:1041A000E0918D06F0918E0630E020E0B0E0A0E0D6
:1041B000309799F42115310509F44AC0281B390BB1
:1041C00024303105D8F58A819B816115710589F10B
:1041D000FB0193838283FE0111C0408151810281E2
:1041E000138148175907E0F04817590799F41097B9
:1041F00061F012960C93129713961C933296CF018E
:10420000DF91CF911F910F91089500938D06109328
:104210008E06F4CF2115310551F04217530738F0BF
:10422000A901DB019A01BD01DF01F801C1CFEF0156
:10423000F9CF90938E0680938D06CDCFFE01E20FCD
:10424000F31F819391932250310939832883D7CF6B
:1042500020918B0630918C06232B41F42091210173
:104260003091220130938C0620938B0620911F0100
:10427000309120012115310541F42DB73EB7409111
:10428000230150912401241B350BE0918B06F09102
:104290008C06E217F307A0F42E1B3F0B28173907F3
:1042A00078F0AC014E5F5F4F2417350748F04E0F92
:1042B0005F1F50938C0640938B06819391939FCF01
:1042C000F0E0E0E09CCFCF93DF930097E9F0FC01B2
:1042D000329713821282A0918D06B0918E06ED0165
:1042E00030E020E01097A1F420813181820F931FEC
:1042F00020918B0630918C062817390709F061C090
:10430000F0938C06E0938B06DF91CF910895EA013C
:10431000CE17DF07E8F54A815B819E014115510503
:10432000B1F7E901FB83EA8349915991C40FD51F85
:10433000EC17FD0761F4808191810296840F951F2F
:10434000E90199838883828193819B838A83F0E04A
:10435000E0E012968D919C9113970097B9F52D91FD
:104360003C911197CD010296820F931F20918B06ED
:1043700030918C062817390739F6309751F510928D
:104380008E0610928D06B0938C06A0938B06BCCF40
:10439000D383C28340815181840F951FC817D907E9
:1043A00061F44E5F5F4F88819981480F591F518397
:1043B00040838A819B81938382832115310509F093
:1043C000B0CFF0938E06E0938D069ECFFD01DC0109
:1043D000C0CF13821282D7CFB0E0A0E0E2EFF1E2CB
:1043E0000C9415208C01009751F4CB010E94C7203A
:1043F0008C01C801CDB7DEB7E0E10C943120FC019F
:10440000E60FF71F9C0122503109E217F30708F469
:104410009DC0D901CD91DC911197C617D70798F0AF
:10442000C530D10530F3CE0104978617970708F3FE
:10443000C61BD70B2297C193D1936D937C93CF0169
:104440000E946321D6CF5B01AC1ABD0A4C018C0ED1
:104450009D1EA0918D06B0918E06512C412CF12C01
:10446000E12C109731F580918B0690918C06881580
:10447000990509F05CC04616570608F058C08091AF
:104480001F0190912001009741F48DB79EB7409194
:10449000230150912401841B950BE817F90708F0BC
:1044A00055C0F0938C06E0938B06F901718360830D
:1044B000A0CF8D919C91119712966C9012971396A4
:1044C0007C901397A815B90559F56C0142E0C40E0C
:1044D000D11CCA14DB0420F1AC014A195B09DA01D2
:1044E0001296159780F06282738251834083D901BE
:1044F0006D937C93E114F10471F0D7011396FC9352
:10450000EE93129776CF22968C0F9D1FF90191831F
:104510008083F301EFCFF0938E06E0938D0669CF91
:104520004816590608F42C017D01D3019ACFCB011E
:104530000E94C7207C01009749F0AE01B8010E949B
:10454000A922C8010E946321870153CF10E000E037
:1045500050CFFB01DC0102C001900D924150504050
:10456000D8F70895DC0101C06D9341505040E0F749
:104570000895FC018191861721F08823D9F79927A6
:1045800008953197CF010895FB01DC0101900D9250
:104590000020E1F70895FB01DC014150504048F054
:1045A00001900D920020C9F701C01D92415050406A
:1045B000E0F70895AEE0B0E0E0EEF2E20C942120E6
:1045C0000D891E898F89988D26E02C831A83098393
:1045D00097FF02C080E090E801979E838D83AE0133
:1045E000455E5F4F698D7A8DCE0101960E940A2348
:1045F0004D815E8157FD0AC02F81388542175307D0
:104600000CF49A01020F131FF80110822E96E4E0B9
:104610000C943D20ABE0B0E0E0E1F3E20C94132019
:104620007C013B018A01FC0117821682838181FF94
:10463000C8C1CE0101965C01F7019381F30193FD9E
:10464000859193FF81913F01882309F453C18532FD
:1046500039F493FD859193FF81913F01853229F4CF
:10466000B70190E00E94FA24E7CF912C212C312C45
:10467000FFE1F31538F08B3211F190F4803209F13B
:10468000833229F137FC3CC020ED280F2A3050F549
:1046900036FE20C08AE0989E200D1124922E06C07E
:1046A0008D3291F0803371F7689430F8F30193FD07
:1046B000859193FF81913F018111DACF21C06894E8
:1046C00031F8689432F8F2CF689433F8EFCF6894F9
:1046D00034F8ECCFEAE02E9E200D1124222E6894AF
:1046E00035F8E4CF8E3229F436FC04C1689436F8EC
:1046F000DDCF8C3619F4689437F8D8CF8836B1F20C
:10470000982F9F7D95549330E0F08336A1F1833745
:10471000C1F1833509F063C02801F2E04F0E511C4E
:10472000F801C080D180692D70E036FC02C06FEFC7
:104730007FEFC6010E94E4244C01689437F882019F
:104740000AC00C5F1F4FFFE3F98388248394912CE8
:104750006501E89437F833FE2DC0522C8114910482
:1047600071F5552009F468CFB70180E290E00E940E
:10477000FA245A94F6CFF801808189830E5F1F4F87
:10478000E4CF2801F2E04F0E511CF801C080D18027
:10479000692D70E036FC02C06FEF7FEFC6010E940A
:1047A000EF244C018201D5CFB70180E290E00E9456
:1047B000FA242A942814190409F0B0F7CECFF60190
:1047C00037FC859137FE81916F01B70190E00E941F
:1047D000FA2451105A94F1E08F1A9108BFCF843611
:1047E00019F0893609F077C0F80137FE6BC0608197
:1047F0007181828193810C5F1F4FF32DFF763F2ED5
:1048000097FF09C090958095709561957F4F8F4F68
:104810009F4F689437F82AE030E0A5010E942A25CE
:10482000C82ECA188C2C432C36FE0CC0E89440F8D5
:10483000C91440F434FE05C032FC03C0F32DFE7EE3
:104840004F2E892C44FE95C0FE01EC0DF11D808198
:10485000803309F087C0242D297E422E842D887054
:10486000582E43FC95C040FE8FC09C2C821418F437
:104870002C0C922C981844FE91C0B70180E390E074
:104880000E94FA2442FE09C088E790E041FE02C07F
:1048900088E590E0B7010E94FA24C91408F48AC0A0
:1048A000CA94D12C9FEFC91AD90ACA0CDB1CF60195
:1048B00082916F01B70190E00E94FA24AC14BD040C
:1048C000B1F74FCF60817181072E000C880B990BD7
:1048D0000E5F1F4F92CFD32CE894D4F82AE030E03B
:1048E000853739F1232D297FD22E8F3601F148F4F7
:1048F0008835A9F0F701868197812B96E2E10C9427
:104900002F20803749F08837A9F7D4FE02C0689479
:10491000D2F820E130E00DC06894D4F8F6CF34FE30
:1049200003C0822F8660D82E20E132E002C028E04A
:1049300030E0F801D7FE0FC06081718182819381E0
:104940000C5F1F4FA5010E942A25C82ECA183D2CB6
:10495000E89437F867CF6081718190E080E00E5F66
:104960001F4FF0CF42FC02C0839478CF839483948E
:1049700075CF842D867809F471CFF6CFB70180E228
:1049800090E00E94FA2483948214C0F3512C73CFD8
:10499000522C5818821408F46ECFF8CF842D8678E4
:1049A00009F47BCF8BE241FE80E247FC8DE2B70148
:1049B00090E071CFB70180E390E00E94FA249A94CE
:1049C0006CCF8FEF9FEF99CFFC0105906150704045
:1049D0000110D8F7809590958E0F9F1F0895FC01C8
:1049E0006150704001900110D8F7809590958E0F1E
:1049F0009F1F08950F931F93CF93DF93182F092FB5
:104A0000EB018B8181FD09C01FEF0FEF812F902FEC
:104A1000DF91CF911F910F91089582FF14C02E81D5
:104A20003F818C819D81281739073CF4E881F98109
:104A3000CF0101969983888310838E819F8101968F
:104A40009F838E83E3CFE885F985812F0995892B94
:104A5000A1F3DACFFA01AA27283051F1203181F1F0
:104A6000E8946F936E7F6E5F7F4F8F4F9F4FAF4F76
:104A7000B1E03ED0B4E03CD0670F781F891F9A1F89
:104A8000A11D680F791F8A1F911DA11D6A0F711D3D
:104A9000811D911DA11D20D009F468943F912AE049
:104AA000269F11243019305D3193DEF6CF01089531
:104AB000462F4770405D4193B3E00FD0C9F7F6CF62
:104AC000462F4F70405D4A3318F0495D31FD40522A
:104AD000419302D0A9F7EACFB4E0A69597958795C0
:104AE00077956795BA95C9F700976105710508959F
:104AF0009B01AC010A2E069457954795379527954B
:104B0000BA95C9F7620F731F841F951FA01D0895E2
:104B100010E0C8E6D0E004C0FE010E94BA20219651
:0A4B2000C936D107C9F7F894FFCF9A
:104B2A002701FFFF557361676520616C6572740028
:104B3A00000000000000000000010114FFFFFF0058
:104B4A00008F0680000000400014005400DE02E2DC
:104B5A0002E602EA02EE02F202F602FA02FE02029B
:104B6A000306030A030E03120316031A031E032283
:104B7A00032603000000008F04EF031C04DC044D2D
:104B8A00042B043F04000000001807EB066A07C163
:104B9A0006E406D106C206000000003C0BEF036AD9
:104BAA00072E050D0A003D3D20436C6175646520A2
:104BBA00436F6465203D3D00574F524B494E4700B5
:104BCA00594F555220415245410025732C202573D7
:104BDA0020256400253032643A2530326400576556
:104BEA006C636F6D65210052756E20736574757004
:104BFA0020746F20737461727400537461727469E3
:104C0A006E672075702E2E2E0049444C4500574180
:104C1A004954494E4720464F5220494E5055540058
:104C2A005045524D495353494F4E3F004F46464C0B
:104C3A00494E45006E6F2073657373696F6E00414C
:104C4A006C6C207365742100737461727420636CD8
:104C5A0061756465206E6F77005741524E494E4721
:104C6A002100414952205241494420414C45525465
:104C7A0000494E2025730050524F43454544205465
:104C8A004F205348454C5445520041697220616C8B
:104C9A00657274206973206F766572004D617920A0
:104CAA0074686520666F726365006265207769744F
:104CBA006820796F750053573A310053573A3000DC
:104CCA00524541445900557361676520616C6572AC
:104CDA007400506C61696E737461636B0074656310
:104CEA00686E6F6C6F67696573004368616F7320E4
:104CFA00696E746F2073797374656D732E005375C2
:104D0A006E004D6F6E0054756500576564005468F7
:104D1A00750046726900536174004A616E00466507
:104D2A0062004D617200417072004D6179004A75EE
:104D3A006E004A756C0041756700536570004F63D9
:0A4D4A0074004E6F760044656300AC
:00000001FF
